{
  "contractName": "Market",
  "abi": [
    {
      "constant": false,
      "inputs": [
        {
          "name": "_address",
          "type": "address"
        },
        {
          "name": "_name",
          "type": "string"
        }
      ],
      "name": "setEmployee",
      "outputs": [],
      "payable": false,
      "stateMutability": "nonpayable",
      "type": "function"
    },
    {
      "constant": true,
      "inputs": [
        {
          "name": "_address",
          "type": "address"
        }
      ],
      "name": "getEmployee",
      "outputs": [
        {
          "name": "name",
          "type": "string"
        },
        {
          "name": "profileIds",
          "type": "uint256[]"
        },
        {
          "name": "status",
          "type": "uint8"
        }
      ],
      "payable": false,
      "stateMutability": "view",
      "type": "function"
    },
    {
      "constant": true,
      "inputs": [],
      "name": "getEmployeeCodes",
      "outputs": [
        {
          "name": "",
          "type": "address[]"
        }
      ],
      "payable": false,
      "stateMutability": "view",
      "type": "function"
    },
    {
      "constant": false,
      "inputs": [
        {
          "name": "_address",
          "type": "address"
        },
        {
          "name": "_name",
          "type": "string"
        }
      ],
      "name": "setEmployer",
      "outputs": [],
      "payable": false,
      "stateMutability": "nonpayable",
      "type": "function"
    },
    {
      "constant": true,
      "inputs": [
        {
          "name": "_address",
          "type": "address"
        }
      ],
      "name": "getEmployer",
      "outputs": [
        {
          "name": "name",
          "type": "string"
        },
        {
          "name": "jobIds",
          "type": "uint256[]"
        },
        {
          "name": "status",
          "type": "uint8"
        }
      ],
      "payable": false,
      "stateMutability": "view",
      "type": "function"
    },
    {
      "constant": true,
      "inputs": [],
      "name": "getEmployerCodes",
      "outputs": [
        {
          "name": "",
          "type": "address[]"
        }
      ],
      "payable": false,
      "stateMutability": "view",
      "type": "function"
    },
    {
      "constant": false,
      "inputs": [
        {
          "name": "_employeeCode",
          "type": "address"
        },
        {
          "name": "_name",
          "type": "string"
        },
        {
          "name": "_skills",
          "type": "uint8[]"
        }
      ],
      "name": "setProfile",
      "outputs": [],
      "payable": false,
      "stateMutability": "nonpayable",
      "type": "function"
    },
    {
      "constant": true,
      "inputs": [
        {
          "name": "_id",
          "type": "uint256"
        }
      ],
      "name": "getProfile",
      "outputs": [
        {
          "name": "employeeCode",
          "type": "address"
        },
        {
          "name": "name",
          "type": "string"
        },
        {
          "name": "skills",
          "type": "uint8[]"
        },
        {
          "name": "status",
          "type": "uint8"
        }
      ],
      "payable": false,
      "stateMutability": "view",
      "type": "function"
    },
    {
      "constant": true,
      "inputs": [],
      "name": "getProileIds",
      "outputs": [
        {
          "name": "",
          "type": "uint256[]"
        }
      ],
      "payable": false,
      "stateMutability": "view",
      "type": "function"
    },
    {
      "constant": false,
      "inputs": [
        {
          "name": "_employerCode",
          "type": "address"
        },
        {
          "name": "_name",
          "type": "string"
        },
        {
          "name": "_requiredSkills",
          "type": "uint8[]"
        }
      ],
      "name": "setJob",
      "outputs": [],
      "payable": false,
      "stateMutability": "nonpayable",
      "type": "function"
    },
    {
      "constant": true,
      "inputs": [
        {
          "name": "_id",
          "type": "uint256"
        }
      ],
      "name": "getJob",
      "outputs": [
        {
          "name": "employerCode",
          "type": "address"
        },
        {
          "name": "name",
          "type": "string"
        },
        {
          "name": "requiredSkills",
          "type": "uint8[]"
        },
        {
          "name": "appliedEmployeeCodes",
          "type": "address[]"
        },
        {
          "name": "status",
          "type": "uint8"
        }
      ],
      "payable": false,
      "stateMutability": "view",
      "type": "function"
    },
    {
      "constant": true,
      "inputs": [],
      "name": "getJobIds",
      "outputs": [
        {
          "name": "",
          "type": "uint256[]"
        }
      ],
      "payable": false,
      "stateMutability": "view",
      "type": "function"
    },
    {
      "constant": false,
      "inputs": [
        {
          "name": "_ad1",
          "type": "address"
        },
        {
          "name": "_ad2",
          "type": "address"
        },
        {
          "name": "_ad3",
          "type": "address"
        }
      ],
      "name": "setInitialData",
      "outputs": [],
      "payable": false,
      "stateMutability": "nonpayable",
      "type": "function"
    }
  ],
  "bytecode": "0x6060604052600160005560018055341561001857600080fd5b6121c7806100276000396000f3006060604052600436106100c5576000357c0100000000000000000000000000000000000000000000000000000000900463ffffffff1680630738e287146100ca57806332648e09146101865780634b0fa84714610295578063633e0c23146102ff57806363dbaf43146103695780637560d4ce146103e55780638a77cbcf146104f45780639e1b78cd1461056b578063afca0715146105d5578063bf22c45714610651578063cfcd56ee146107c5578063f08f4f6414610881578063ff66aa62146109ad575b600080fd5b34156100d557600080fd5b610184600480803573ffffffffffffffffffffffffffffffffffffffff1690602001909190803590602001908201803590602001908080601f0160208091040260200160405190810160405280939291908181526020018383808284378201915050505050509190803590602001908201803590602001908080602002602001604051908101604052809392919081815260200183836020028082843782019150505050505091905050610a17565b005b341561019157600080fd5b6101bd600480803573ffffffffffffffffffffffffffffffffffffffff16906020019091905050610b85565b6040518080602001806020018460048111156101d557fe5b60ff168152602001838103835286818151815260200191508051906020019080838360005b838110156102155780820151818401526020810190506101fa565b50505050905090810190601f1680156102425780820380516001836020036101000a031916815260200191505b50838103825285818151815260200191508051906020019060200280838360005b8381101561027e578082015181840152602081019050610263565b505050509050019550505050505060405180910390f35b34156102a057600080fd5b6102a8610d8c565b6040518080602001828103825283818151815260200191508051906020019060200280838360005b838110156102eb5780820151818401526020810190506102d0565b505050509050019250505060405180910390f35b341561030a57600080fd5b610312610dea565b6040518080602001828103825283818151815260200191508051906020019060200280838360005b8381101561035557808201518184015260208101905061033a565b505050509050019250505060405180910390f35b341561037457600080fd5b6103e3600480803573ffffffffffffffffffffffffffffffffffffffff1690602001909190803590602001908201803590602001908080601f01602080910402602001604051908101604052809392919081815260200183838082843782019150505050505091905050610e7e565b005b34156103f057600080fd5b61041c600480803573ffffffffffffffffffffffffffffffffffffffff16906020019091905050610fab565b60405180806020018060200184600481111561043457fe5b60ff168152602001838103835286818151815260200191508051906020019080838360005b83811015610474578082015181840152602081019050610459565b50505050905090810190601f1680156104a15780820380516001836020036101000a031916815260200191505b50838103825285818151815260200191508051906020019060200280838360005b838110156104dd5780820151818401526020810190506104c2565b505050509050019550505050505060405180910390f35b34156104ff57600080fd5b610569600480803573ffffffffffffffffffffffffffffffffffffffff1690602001909190803573ffffffffffffffffffffffffffffffffffffffff1690602001909190803573ffffffffffffffffffffffffffffffffffffffff169060200190919050506111b2565b005b341561057657600080fd5b61057e61128a565b6040518080602001828103825283818151815260200191508051906020019060200280838360005b838110156105c15780820151818401526020810190506105a6565b505050509050019250505060405180910390f35b34156105e057600080fd5b61064f600480803573ffffffffffffffffffffffffffffffffffffffff1690602001909190803590602001908201803590602001908080601f016020809104026020016040519081016040528093929190818152602001838380828437820191505050505050919050506112e8565b005b341561065c57600080fd5b6106726004808035906020019091905050611415565b604051808673ffffffffffffffffffffffffffffffffffffffff1673ffffffffffffffffffffffffffffffffffffffff1681526020018060200180602001806020018560048111156106c057fe5b60ff168152602001848103845288818151815260200191508051906020019080838360005b838110156107005780820151818401526020810190506106e5565b50505050905090810190601f16801561072d5780820380516001836020036101000a031916815260200191505b50848103835287818151815260200191508051906020019060200280838360005b8381101561076957808201518184015260208101905061074e565b50505050905001848103825286818151815260200191508051906020019060200280838360005b838110156107ab578082015181840152602081019050610790565b505050509050019850505050505050505060405180910390f35b34156107d057600080fd5b61087f600480803573ffffffffffffffffffffffffffffffffffffffff1690602001909190803590602001908201803590602001908080601f01602080910402602001604051908101604052809392919081815260200183838082843782019150505050505091908035906020019082018035906020019080806020026020016040519081016040528093929190818152602001838360200280828437820191505050505050919050506116d3565b005b341561088c57600080fd5b6108a26004808035906020019091905050611840565b604051808573ffffffffffffffffffffffffffffffffffffffff1673ffffffffffffffffffffffffffffffffffffffff16815260200180602001806020018460048111156108ec57fe5b60ff168152602001838103835286818151815260200191508051906020019080838360005b8381101561092c578082015181840152602081019050610911565b50505050905090810190601f1680156109595780820380516001836020036101000a031916815260200191505b50838103825285818151815260200191508051906020019060200280838360005b8381101561099557808201518184015260208101905061097a565b50505050905001965050505050505060405180910390f35b34156109b857600080fd5b6109c0611a5c565b6040518080602001828103825283818151815260200191508051906020019060200280838360005b83811015610a035780820151818401526020810190506109e8565b505050509050019250505060405180910390f35b600080600060016000815480929190600101919050559250600860008481526020019081526020016000209150828260000181905550858260010160006101000a81548173ffffffffffffffffffffffffffffffffffffffff021916908373ffffffffffffffffffffffffffffffffffffffff16021790555084826002019080519060200190610aa8929190611dac565b5083826003019080519060200190610ac1929190611e2c565b5060028260050160006101000a81548160ff02191690836004811115610ae357fe5b021790555060098054806001018281610afc9190611edb565b916000526020600020900160008590919091505550600460008773ffffffffffffffffffffffffffffffffffffffff1673ffffffffffffffffffffffffffffffffffffffff1681526020019081526020016000209050806002018054806001018281610b689190611edb565b916000526020600020900160008590919091505550505050505050565b610b8d611f07565b610b95611f1b565b6000610b9f611f2f565b600260008673ffffffffffffffffffffffffffffffffffffffff1673ffffffffffffffffffffffffffffffffffffffff168152602001908152602001600020608060405190810160405290816000820160009054906101000a900473ffffffffffffffffffffffffffffffffffffffff1673ffffffffffffffffffffffffffffffffffffffff1673ffffffffffffffffffffffffffffffffffffffff168152602001600182018054600181600116156101000203166002900480601f016020809104026020016040519081016040528092919081815260200182805460018160011615610100020316600290048015610cd95780601f10610cae57610100808354040283529160200191610cd9565b820191906000526020600020905b815481529060010190602001808311610cbc57829003601f168201915b5050505050815260200160028201805480602002602001604051908101604052809291908181526020018280548015610d3157602002820191906000526020600020905b815481526020019060010190808311610d1d575b505050505081526020016003820160009054906101000a900460ff166004811115610d5857fe5b6004811115610d6357fe5b815250509050806020015181604001518260600151829250819150935093509350509193909250565b610d94611f1b565b6009805480602002602001604051908101604052809291908181526020018280548015610de057602002820191906000526020600020905b815481526020019060010190808311610dcc575b5050505050905090565b610df2611f85565b6005805480602002602001604051908101604052809291908181526020018280548015610e7457602002820191906000526020600020905b8160009054906101000a900473ffffffffffffffffffffffffffffffffffffffff1673ffffffffffffffffffffffffffffffffffffffff1681526020019060010190808311610e2a575b5050505050905090565b6000600260008473ffffffffffffffffffffffffffffffffffffffff1673ffffffffffffffffffffffffffffffffffffffff1681526020019081526020016000209050828160000160006101000a81548173ffffffffffffffffffffffffffffffffffffffff021916908373ffffffffffffffffffffffffffffffffffffffff16021790555081816001019080519060200190610f1c929190611dac565b5060008160030160006101000a81548160ff02191690836004811115610f3e57fe5b021790555060038054806001018281610f579190611f99565b9160005260206000209001600085909190916101000a81548173ffffffffffffffffffffffffffffffffffffffff021916908373ffffffffffffffffffffffffffffffffffffffff16021790555050505050565b610fb3611f07565b610fbb611f1b565b6000610fc5611fc5565b600460008673ffffffffffffffffffffffffffffffffffffffff1673ffffffffffffffffffffffffffffffffffffffff168152602001908152602001600020608060405190810160405290816000820160009054906101000a900473ffffffffffffffffffffffffffffffffffffffff1673ffffffffffffffffffffffffffffffffffffffff1673ffffffffffffffffffffffffffffffffffffffff168152602001600182018054600181600116156101000203166002900480601f0160208091040260200160405190810160405280929190818152602001828054600181600116156101000203166002900480156110ff5780601f106110d4576101008083540402835291602001916110ff565b820191906000526020600020905b8154815290600101906020018083116110e257829003601f168201915b505050505081526020016002820180548060200260200160405190810160405280929190818152602001828054801561115757602002820191906000526020600020905b815481526020019060010190808311611143575b505050505081526020016003820160009054906101000a900460ff16600481111561117e57fe5b600481111561118957fe5b815250509050806020015181604001518260600151829250819150935093509350509193909250565b82600a60006101000a81548173ffffffffffffffffffffffffffffffffffffffff021916908373ffffffffffffffffffffffffffffffffffffffff16021790555081600b60006101000a81548173ffffffffffffffffffffffffffffffffffffffff021916908373ffffffffffffffffffffffffffffffffffffffff16021790555080600c60006101000a81548173ffffffffffffffffffffffffffffffffffffffff021916908373ffffffffffffffffffffffffffffffffffffffff16021790555061127d611af0565b611285611bb4565b505050565b611292611f1b565b60078054806020026020016040519081016040528092919081815260200182805480156112de57602002820191906000526020600020905b8154815260200190600101908083116112ca575b5050505050905090565b6000600460008473ffffffffffffffffffffffffffffffffffffffff1673ffffffffffffffffffffffffffffffffffffffff1681526020019081526020016000209050828160000160006101000a81548173ffffffffffffffffffffffffffffffffffffffff021916908373ffffffffffffffffffffffffffffffffffffffff16021790555081816001019080519060200190611386929190611dac565b5060008160030160006101000a81548160ff021916908360048111156113a857fe5b0217905550600580548060010182816113c19190611f99565b9160005260206000209001600085909190916101000a81548173ffffffffffffffffffffffffffffffffffffffff021916908373ffffffffffffffffffffffffffffffffffffffff16021790555050505050565b600061141f611f07565b61142761201b565b61142f611f85565b600061143961202f565b6008600088815260200190815260200160002060c06040519081016040529081600082015481526020016001820160009054906101000a900473ffffffffffffffffffffffffffffffffffffffff1673ffffffffffffffffffffffffffffffffffffffff1673ffffffffffffffffffffffffffffffffffffffff168152602001600282018054600181600116156101000203166002900480601f0160208091040260200160405190810160405280929190818152602001828054600181600116156101000203166002900480156115515780601f1061152657610100808354040283529160200191611551565b820191906000526020600020905b81548152906001019060200180831161153457829003601f168201915b50505050508152602001600382018054806020026020016040519081016040528092919081815260200182805480156115d757602002820191906000526020600020906000905b82829054906101000a900460ff1660068111156115b157fe5b815260200190600101906020826000010492830192600103820291508084116115985790505b505050505081526020016004820180548060200260200160405190810160405280929190818152602001828054801561166557602002820191906000526020600020905b8160009054906101000a900473ffffffffffffffffffffffffffffffffffffffff1673ffffffffffffffffffffffffffffffffffffffff168152602001906001019080831161161b575b505050505081526020016005820160009054906101000a900460ff16600481111561168c57fe5b600481111561169757fe5b81525050905080602001518160400151826060015183608001518460a00151839350829250819150955095509550955095505091939590929450565b6000806000806000815480929190600101919050559250600660008481526020019081526020016000209150828260000181905550858260010160006101000a81548173ffffffffffffffffffffffffffffffffffffffff021916908373ffffffffffffffffffffffffffffffffffffffff16021790555084826002019080519060200190611763929190611dac565b508382600301908051906020019061177c929190611e2c565b5060008260040160006101000a81548160ff0219169083600481111561179e57fe5b0217905550600780548060010182816117b79190611edb565b916000526020600020900160008590919091505550600260008773ffffffffffffffffffffffffffffffffffffffff1673ffffffffffffffffffffffffffffffffffffffff16815260200190815260200160002090508060020180548060010182816118239190611edb565b916000526020600020900160008590919091505550505050505050565b600061184a611f07565b61185261201b565b600061185c612099565b6006600087815260200190815260200160002060a06040519081016040529081600082015481526020016001820160009054906101000a900473ffffffffffffffffffffffffffffffffffffffff1673ffffffffffffffffffffffffffffffffffffffff1673ffffffffffffffffffffffffffffffffffffffff168152602001600282018054600181600116156101000203166002900480601f0160208091040260200160405190810160405280929190818152602001828054600181600116156101000203166002900480156119745780601f1061194957610100808354040283529160200191611974565b820191906000526020600020905b81548152906001019060200180831161195757829003601f168201915b50505050508152602001600382018054806020026020016040519081016040528092919081815260200182805480156119fa57602002820191906000526020600020906000905b82829054906101000a900460ff1660068111156119d457fe5b815260200190600101906020826000010492830192600103820291508084116119bb5790505b505050505081526020016004820160009054906101000a900460ff166004811115611a2157fe5b6004811115611a2c57fe5b81525050905080602001518160400151826060015183608001518292508191509450945094509450509193509193565b611a64611f85565b6003805480602002602001604051908101604052809291908181526020018280548015611ae657602002820191906000526020600020905b8160009054906101000a900473ffffffffffffffffffffffffffffffffffffffff1673ffffffffffffffffffffffffffffffffffffffff1681526020019060010190808311611a9c575b5050505050905090565b611b51600a60009054906101000a900473ffffffffffffffffffffffffffffffffffffffff166040805190810160405280600881526020017f4d722e536d697468000000000000000000000000000000000000000000000000815250610e7e565b611bb2600b60009054906101000a900473ffffffffffffffffffffffffffffffffffffffff166040805190810160405280600981526020017f4d72732e536d6974680000000000000000000000000000000000000000000000815250610e7e565b565b611bbc61201b565b611bc461201b565b6002604051805910611bd35750595b908082528060200260200182016040525091506000826000815181101515611bf757fe5b906020019060200201906006811115611c0c57fe5b90816006811115611c1957fe5b815250506001826001815181101515611c2e57fe5b906020019060200201906006811115611c4357fe5b90816006811115611c5057fe5b81525050611cb6600a60009054906101000a900473ffffffffffffffffffffffffffffffffffffffff166040805190810160405280600f81526020017f646576656c6f70657250726f696c650000000000000000000000000000000000815250846116d3565b6002604051805910611cc55750595b908082528060200260200182016040525090506001816000815181101515611ce957fe5b906020019060200201906006811115611cfe57fe5b90816006811115611d0b57fe5b815250506003816001815181101515611d2057fe5b906020019060200201906006811115611d3557fe5b90816006811115611d4257fe5b81525050611da8600b60009054906101000a900473ffffffffffffffffffffffffffffffffffffffff166040805190810160405280600f81526020017f646576656c6f70657250726f696c650000000000000000000000000000000000815250836116d3565b5050565b828054600181600116156101000203166002900490600052602060002090601f016020900481019282601f10611ded57805160ff1916838001178555611e1b565b82800160010185558215611e1b579182015b82811115611e1a578251825591602001919060010190611dff565b5b509050611e2891906120f6565b5090565b82805482825590600052602060002090601f01602090048101928215611eca5791602002820160005b83821115611e9b57835183826101000a81548160ff02191690836006811115611e7a57fe5b02179055509260200192600101602081600001049283019260010302611e55565b8015611ec85782816101000a81549060ff0219169055600101602081600001049283019260010302611e9b565b505b509050611ed7919061211b565b5090565b815481835581811511611f0257818360005260206000209182019101611f0191906120f6565b5b505050565b602060405190810160405280600081525090565b602060405190810160405280600081525090565b608060405190810160405280600073ffffffffffffffffffffffffffffffffffffffff168152602001611f6061214b565b8152602001611f6d61215f565b815260200160006004811115611f7f57fe5b81525090565b602060405190810160405280600081525090565b815481835581811511611fc057818360005260206000209182019101611fbf91906120f6565b5b505050565b608060405190810160405280600073ffffffffffffffffffffffffffffffffffffffff168152602001611ff661214b565b815260200161200361215f565b81526020016000600481111561201557fe5b81525090565b602060405190810160405280600081525090565b60c06040519081016040528060008152602001600073ffffffffffffffffffffffffffffffffffffffff16815260200161206761214b565b8152602001612074612173565b8152602001612081612187565b81526020016000600481111561209357fe5b81525090565b60a06040519081016040528060008152602001600073ffffffffffffffffffffffffffffffffffffffff1681526020016120d161214b565b81526020016120de612173565b8152602001600060048111156120f057fe5b81525090565b61211891905b808211156121145760008160009055506001016120fc565b5090565b90565b61214891905b8082111561214457600081816101000a81549060ff021916905550600101612121565b5090565b90565b602060405190810160405280600081525090565b602060405190810160405280600081525090565b602060405190810160405280600081525090565b6020604051908101604052806000815250905600a165627a7a723058205f9856733c89b9dcc25499cc2d42dfd8da417ccd53bd13fbefeec6f2f6a568d10029",
  "source": "pragma solidity  ^0.4.18;\n\ncontract Market {\n\n    enum Status {ACTIVE, INACTIVE, VACANT, OFFERED, CANCELLED}\n    enum Skill {JAVA, JS, SCALA, KOTLIN, MYSQL, MONGO, OTHER}\n\n    uint profileId = 1;\n    uint jobId = 1;\n\n    mapping (address => Employee) employeeMap;\n    address[] employeeCodes;\n\n    mapping(address => Employer) employerMap;\n    address[] employerCodes;\n\n    mapping(uint => Profile) proileMap;\n    uint[] profileIds;\n\n    mapping(uint => Job) jobMap;\n    uint[] jobIds;\n\n    struct Employee {\n        address code;\n        string name;\n        uint[] profileIds;\n        Status status;\n    }\n\n    struct Employer {\n        address code;\n        string name;\n        uint[] jobIds;\n        Status status;\n    }\n\n    struct Profile {\n        uint id;\n        address employeeCode;\n        string name;\n        Skill[] skills;\n        Status status;\n    }\n\n    struct Job {\n        uint id;\n        address employerCode;\n        string name;\n        Skill[] requiredSkills;\n        address[] appliedEmployeeCodes;\n        Status status;\n    }\n\n\n    function setEmployee(address _address, string _name) public {\n        Employee storage employee = employeeMap[_address];\n        employee.code = _address;\n        employee.name = _name;\n        employee.status = Status.ACTIVE;\n        employeeCodes.push(_address);\n    }\n    function getEmployee(address _address) view public returns(string name, uint[] profileIds, Status status) {\n        Employee memory employee = employeeMap[_address];\n        return(employee.name, employee.profileIds, employee.status);\n    }\n    function getEmployeeCodes() view public returns(address[]) {\n        return employeeCodes;\n    }\n\n\n    function setEmployer(address _address, string _name) public {\n        Employer storage employer = employerMap[_address];\n        employer.code = _address;\n        employer.name = _name;\n        employer.status = Status.ACTIVE;\n        employerCodes.push(_address);\n    }\n    function getEmployer(address _address) view public returns(string name, uint[] jobIds, Status status) {\n        Employer memory employer = employerMap[_address];\n        return (employer.name, employer.jobIds, employer.status);\n    }\n    function getEmployerCodes() view public returns(address[]) {\n        return employerCodes;\n    }\n\n\n    function setProfile(address _employeeCode, string _name, Skill[] _skills) public {\n        uint _id = profileId++;\n        Profile storage profile = proileMap[_id];\n        profile.id = _id;\n        profile.employeeCode = _employeeCode;\n        profile.name = _name;\n        profile.skills = _skills;\n        profile.status = Status.ACTIVE;\n        profileIds.push(_id);\n        Employee storage employee = employeeMap[_employeeCode];\n        employee.profileIds.push(_id);\n    }\n    function getProfile(uint _id) view public returns(address employeeCode, string name, Skill[] skills, Status status) {\n        Profile memory profile = proileMap[_id];\n        return(profile.employeeCode, profile.name, profile.skills, profile.status);\n    }\n    function getProileIds() view public returns(uint[]) {\n        return profileIds;\n    }\n\n\n    function setJob(address _employerCode, string _name, Skill[] _requiredSkills) public {\n        uint _id = jobId++;\n        Job storage job = jobMap[_id];\n        job.id = _id;\n        job.employerCode = _employerCode;\n        job.name = _name;\n        job.requiredSkills = _requiredSkills;\n        job.status = Status.VACANT;\n        //appliedEmployeeCodes\n        jobIds.push(_id);\n        Employer storage employer = employerMap[_employerCode];\n        employer.jobIds.push(_id);\n    }\n    function getJob(uint _id) view public returns(address employerCode, string name, Skill[] requiredSkills, address[] appliedEmployeeCodes, Status status) {\n        Job memory job = jobMap[_id];\n        return(job.employerCode, job.name, job.requiredSkills, job.appliedEmployeeCodes, job.status);\n    }\n    function getJobIds() view public returns(uint[]) {\n        return jobIds;\n    }\n\n    //test\n    //remix 0xca35b7d915458ef540ade6068dfe2f44e8fa733c, 0x14723a09acff6d2a60dcdf7aa4aff308fddc160c, 0x4b0897b0513fdc7c541b6d9d7e929c4e5364d2db\n\n    address employeeCode1; // = 0xa30ea249288854c80e1498573c9a844deef264d6;\n    address employeeCode2; // = 0x13080693728f49c3e15483a84425c2b42edd3444;\n    address employerCode1; // = 0xe6aaf0e009c677475217c7f30cc3956609603323;\n\n    function setInitialData(address _ad1, address _ad2, address _ad3) public {\n        employeeCode1 = _ad1;\n        employeeCode2 = _ad2;\n        employerCode1 = _ad3;\n        setEmployees();\n        setProfiles();\n        //setEmployers();\n        //setJobs();\n    }\n\n    function setEmployees() internal {\n        setEmployee(employeeCode1, \"Mr.Smith\");\n        setEmployee(employeeCode2, \"Mrs.Smith\");\n    }\n\n    function setProfiles() internal {\n        Skill[] memory skills = new Skill[](2);\n        skills[0] = Skill.JAVA;\n        skills[1] = Skill.JS;\n        setProfile(employeeCode1, 'developerProile', skills);\n\n        Skill[] memory skills2 = new Skill[](2);\n        skills2[0] = Skill.JS;\n        skills2[1] = Skill.KOTLIN;\n        setProfile(employeeCode2, 'developerProile', skills2);\n    }\n\n    function setEmployers() internal {\n        setEmployer(employerCode1, 'Optimus');\n        //setEmployer(employeeCode2, 'Maximus');\n    }\n\n    function setJobs() internal {\n        Skill[] memory skills = new Skill[](2);\n        skills[0] = Skill.JAVA;\n        skills[1] = Skill.MYSQL;\n        setJob(employerCode1, 'SE', skills);\n\n        Skill[] memory skills2 = new Skill[](2);\n        skills2[0] = Skill.JS;\n        skills2[1] = Skill.MONGO;\n        setJob(employerCode1, 'SSE', skills2);\n    }\n\n}",
  "sourcePath": "/home/jana/projects/yarlIt/Blockchain-JobMarket/contracts/Market.sol",
  "compiler": {
    "name": "solc",
    "version": "0.4.19+commit.c4cbbb05.Emscripten.clang"
  },
  "schemaVersion": "2.0.0",
  "updatedAt": "2018-03-11T11:28:08.050Z"
}