{
  "contractName": "Market",
  "abi": [
    {
      "constant": false,
      "inputs": [
        {
          "name": "_name",
          "type": "string"
        }
      ],
      "name": "setEmployee",
      "outputs": [],
      "payable": false,
      "stateMutability": "nonpayable",
      "type": "function"
    },
    {
      "constant": false,
      "inputs": [
        {
          "name": "_address",
          "type": "address"
        },
        {
          "name": "_name",
          "type": "string"
        }
      ],
      "name": "setEmployeeWithAddress",
      "outputs": [],
      "payable": false,
      "stateMutability": "nonpayable",
      "type": "function"
    },
    {
      "constant": true,
      "inputs": [
        {
          "name": "_address",
          "type": "address"
        }
      ],
      "name": "getEmployee",
      "outputs": [
        {
          "name": "name",
          "type": "string"
        },
        {
          "name": "ids",
          "type": "uint256[]"
        },
        {
          "name": "status",
          "type": "uint8"
        }
      ],
      "payable": false,
      "stateMutability": "view",
      "type": "function"
    },
    {
      "constant": true,
      "inputs": [],
      "name": "getEmployeeCodes",
      "outputs": [
        {
          "name": "codes",
          "type": "address[]"
        }
      ],
      "payable": false,
      "stateMutability": "view",
      "type": "function"
    },
    {
      "constant": false,
      "inputs": [
        {
          "name": "_name",
          "type": "string"
        }
      ],
      "name": "setEmployer",
      "outputs": [],
      "payable": false,
      "stateMutability": "nonpayable",
      "type": "function"
    },
    {
      "constant": false,
      "inputs": [
        {
          "name": "_address",
          "type": "address"
        },
        {
          "name": "_name",
          "type": "string"
        }
      ],
      "name": "setEmployerWithAddress",
      "outputs": [],
      "payable": false,
      "stateMutability": "nonpayable",
      "type": "function"
    },
    {
      "constant": true,
      "inputs": [
        {
          "name": "_address",
          "type": "address"
        }
      ],
      "name": "getEmployer",
      "outputs": [
        {
          "name": "name",
          "type": "string"
        },
        {
          "name": "jobIds",
          "type": "uint256[]"
        },
        {
          "name": "status",
          "type": "uint8"
        }
      ],
      "payable": false,
      "stateMutability": "view",
      "type": "function"
    },
    {
      "constant": true,
      "inputs": [],
      "name": "getEmployerCodes",
      "outputs": [
        {
          "name": "",
          "type": "address[]"
        }
      ],
      "payable": false,
      "stateMutability": "view",
      "type": "function"
    },
    {
      "constant": false,
      "inputs": [
        {
          "name": "_name",
          "type": "string"
        },
        {
          "name": "_skills",
          "type": "uint8[]"
        }
      ],
      "name": "setProfile",
      "outputs": [],
      "payable": false,
      "stateMutability": "nonpayable",
      "type": "function"
    },
    {
      "constant": false,
      "inputs": [
        {
          "name": "_employeeCode",
          "type": "address"
        },
        {
          "name": "_name",
          "type": "string"
        },
        {
          "name": "_skills",
          "type": "uint8[]"
        }
      ],
      "name": "setProfileWithAddress",
      "outputs": [],
      "payable": false,
      "stateMutability": "nonpayable",
      "type": "function"
    },
    {
      "constant": true,
      "inputs": [
        {
          "name": "_id",
          "type": "uint256"
        }
      ],
      "name": "getProfile",
      "outputs": [
        {
          "name": "employeeCode",
          "type": "address"
        },
        {
          "name": "name",
          "type": "string"
        },
        {
          "name": "skills",
          "type": "uint8[]"
        },
        {
          "name": "status",
          "type": "uint8"
        }
      ],
      "payable": false,
      "stateMutability": "view",
      "type": "function"
    },
    {
      "constant": true,
      "inputs": [],
      "name": "getAllProfileIds",
      "outputs": [
        {
          "name": "ids",
          "type": "uint256[]"
        }
      ],
      "payable": false,
      "stateMutability": "view",
      "type": "function"
    },
    {
      "constant": false,
      "inputs": [
        {
          "name": "_name",
          "type": "string"
        },
        {
          "name": "_requiredSkills",
          "type": "uint8[]"
        }
      ],
      "name": "setJob",
      "outputs": [],
      "payable": false,
      "stateMutability": "nonpayable",
      "type": "function"
    },
    {
      "constant": false,
      "inputs": [
        {
          "name": "_employerCode",
          "type": "address"
        },
        {
          "name": "_name",
          "type": "string"
        },
        {
          "name": "_requiredSkills",
          "type": "uint8[]"
        }
      ],
      "name": "setJobWithAddress",
      "outputs": [],
      "payable": false,
      "stateMutability": "nonpayable",
      "type": "function"
    },
    {
      "constant": true,
      "inputs": [
        {
          "name": "_id",
          "type": "uint256"
        }
      ],
      "name": "getJob",
      "outputs": [
        {
          "name": "employerCode",
          "type": "address"
        },
        {
          "name": "name",
          "type": "string"
        },
        {
          "name": "requiredSkills",
          "type": "uint8[]"
        },
        {
          "name": "appliedEmployeeCodes",
          "type": "address[]"
        },
        {
          "name": "status",
          "type": "uint8"
        }
      ],
      "payable": false,
      "stateMutability": "view",
      "type": "function"
    },
    {
      "constant": true,
      "inputs": [],
      "name": "getAllJobIds",
      "outputs": [
        {
          "name": "postedJobIds",
          "type": "uint256[]"
        }
      ],
      "payable": false,
      "stateMutability": "view",
      "type": "function"
    },
    {
      "constant": true,
      "inputs": [
        {
          "name": "_jobId",
          "type": "uint256"
        }
      ],
      "name": "findEmployeeProfilesByJob",
      "outputs": [
        {
          "name": "matchingProfiles",
          "type": "uint256[]"
        }
      ],
      "payable": false,
      "stateMutability": "view",
      "type": "function"
    },
    {
      "constant": true,
      "inputs": [
        {
          "name": "_profileId",
          "type": "uint256"
        }
      ],
      "name": "findJobsByProfile",
      "outputs": [
        {
          "name": "matchingIds",
          "type": "uint256[]"
        }
      ],
      "payable": false,
      "stateMutability": "view",
      "type": "function"
    },
    {
      "constant": true,
      "inputs": [
        {
          "name": "_skill",
          "type": "uint8"
        }
      ],
      "name": "findJobsBySkill",
      "outputs": [
        {
          "name": "matchingIds",
          "type": "uint256[]"
        }
      ],
      "payable": false,
      "stateMutability": "view",
      "type": "function"
    },
    {
      "constant": false,
      "inputs": [],
      "name": "testSetInitialData",
      "outputs": [],
      "payable": false,
      "stateMutability": "nonpayable",
      "type": "function"
    },
    {
      "constant": true,
      "inputs": [
        {
          "name": "_uint",
          "type": "uint256"
        }
      ],
      "name": "uintToSkill",
      "outputs": [
        {
          "name": "skill",
          "type": "string"
        }
      ],
      "payable": false,
      "stateMutability": "pure",
      "type": "function"
    }
  ],
  "bytecode": "0x6060604052600160005560018055341561001857600080fd5b612ffd806100276000396000f30060606040526004361061011d576000357c0100000000000000000000000000000000000000000000000000000000900463ffffffff16806309b9597a1461012257806310f4c597146101bf578063124e84e61461021c5780632dd46cf7146102b957806332648e09146103755780634ed4a297146104845780635f317ace14610500578063633e0c231461056a578063689943b0146105d4578063701486c9146106705780637560d4ce1461068557806388c8837f1461079457806389fbc0c2146107fe5780638f778bb914610876578063a597a198146108d3578063b06a90d01461098f578063bf22c45714610a0b578063d1678e6a14610b7f578063dbe98dda14610bf7578063f08f4f6414610c72578063ff66aa6214610d9e575b600080fd5b341561012d57600080fd5b6101bd600480803590602001908201803590602001908080601f0160208091040260200160405190810160405280939291908181526020018383808284378201915050505050509190803590602001908201803590602001908080602002602001604051908101604052809392919081815260200183836020028082843782019150505050505091905050610e08565b005b34156101ca57600080fd5b61021a600480803590602001908201803590602001908080601f01602080910402602001604051908101604052809392919081815260200183838082843782019150505050505091905050610e1d565b005b341561022757600080fd5b6102b7600480803590602001908201803590602001908080601f0160208091040260200160405190810160405280939291908181526020018383808284378201915050505050509190803590602001908201803590602001908080602002602001604051908101604052809392919081815260200183836020028082843782019150505050505091905050610e30565b005b34156102c457600080fd5b610373600480803573ffffffffffffffffffffffffffffffffffffffff1690602001909190803590602001908201803590602001908080601f0160208091040260200160405190810160405280939291908181526020018383808284378201915050505050509190803590602001908201803590602001908080602002602001604051908101604052809392919081815260200183836020028082843782019150505050505091905050610e45565b005b341561038057600080fd5b6103ac600480803573ffffffffffffffffffffffffffffffffffffffff16906020019091905050610fb3565b6040518080602001806020018460048111156103c457fe5b60ff168152602001838103835286818151815260200191508051906020019080838360005b838110156104045780820151818401526020810190506103e9565b50505050905090810190601f1680156104315780820380516001836020036101000a031916815260200191505b50838103825285818151815260200191508051906020019060200280838360005b8381101561046d578082015181840152602081019050610452565b505050509050019550505050505060405180910390f35b341561048f57600080fd5b6104fe600480803573ffffffffffffffffffffffffffffffffffffffff1690602001909190803590602001908201803590602001908080601f016020809104026020016040519081016040528093929190818152602001838380828437820191505050505050919050506111ba565b005b341561050b57600080fd5b6105136112e7565b6040518080602001828103825283818151815260200191508051906020019060200280838360005b8381101561055657808201518184015260208101905061053b565b505050509050019250505060405180910390f35b341561057557600080fd5b61057d611345565b6040518080602001828103825283818151815260200191508051906020019060200280838360005b838110156105c05780820151818401526020810190506105a5565b505050509050019250505060405180910390f35b34156105df57600080fd5b6105f560048080359060200190919050506113d9565b6040518080602001828103825283818151815260200191508051906020019080838360005b8381101561063557808201518184015260208101905061061a565b50505050905090810190601f1680156106625780820380516001836020036101000a031916815260200191505b509250505060405180910390f35b341561067b57600080fd5b6106836114c1565b005b341561069057600080fd5b6106bc600480803573ffffffffffffffffffffffffffffffffffffffff1690602001909190505061175b565b6040518080602001806020018460048111156106d457fe5b60ff168152602001838103835286818151815260200191508051906020019080838360005b838110156107145780820151818401526020810190506106f9565b50505050905090810190601f1680156107415780820380516001836020036101000a031916815260200191505b50838103825285818151815260200191508051906020019060200280838360005b8381101561077d578082015181840152602081019050610762565b505050509050019550505050505060405180910390f35b341561079f57600080fd5b6107a7611962565b6040518080602001828103825283818151815260200191508051906020019060200280838360005b838110156107ea5780820151818401526020810190506107cf565b505050509050019250505060405180910390f35b341561080957600080fd5b61081f60048080359060200190919050506119c0565b6040518080602001828103825283818151815260200191508051906020019060200280838360005b83811015610862578082015181840152602081019050610847565b505050509050019250505060405180910390f35b341561088157600080fd5b6108d1600480803590602001908201803590602001908080601f01602080910402602001604051908101604052809392919081815260200183838082843782019150505050505091905050611e00565b005b34156108de57600080fd5b61098d600480803573ffffffffffffffffffffffffffffffffffffffff1690602001909190803590602001908201803590602001908080601f0160208091040260200160405190810160405280939291908181526020018383808284378201915050505050509190803590602001908201803590602001908080602002602001604051908101604052809392919081815260200183836020028082843782019150505050505091905050611e13565b005b341561099a57600080fd5b610a09600480803573ffffffffffffffffffffffffffffffffffffffff1690602001909190803590602001908201803590602001908080601f01602080910402602001604051908101604052809392919081815260200183838082843782019150505050505091905050611f80565b005b3415610a1657600080fd5b610a2c60048080359060200190919050506120ad565b604051808673ffffffffffffffffffffffffffffffffffffffff1673ffffffffffffffffffffffffffffffffffffffff168152602001806020018060200180602001856004811115610a7a57fe5b60ff168152602001848103845288818151815260200191508051906020019080838360005b83811015610aba578082015181840152602081019050610a9f565b50505050905090810190601f168015610ae75780820380516001836020036101000a031916815260200191505b50848103835287818151815260200191508051906020019060200280838360005b83811015610b23578082015181840152602081019050610b08565b50505050905001848103825286818151815260200191508051906020019060200280838360005b83811015610b65578082015181840152602081019050610b4a565b505050509050019850505050505050505060405180910390f35b3415610b8a57600080fd5b610ba0600480803590602001909190505061236b565b6040518080602001828103825283818151815260200191508051906020019060200280838360005b83811015610be3578082015181840152602081019050610bc8565b505050509050019250505060405180910390f35b3415610c0257600080fd5b610c1b600480803560ff169060200190919050506125cd565b6040518080602001828103825283818151815260200191508051906020019060200280838360005b83811015610c5e578082015181840152602081019050610c43565b505050509050019250505060405180910390f35b3415610c7d57600080fd5b610c936004808035906020019091905050612932565b604051808573ffffffffffffffffffffffffffffffffffffffff1673ffffffffffffffffffffffffffffffffffffffff1681526020018060200180602001846004811115610cdd57fe5b60ff168152602001838103835286818151815260200191508051906020019080838360005b83811015610d1d578082015181840152602081019050610d02565b50505050905090810190601f168015610d4a5780820380516001836020036101000a031916815260200191505b50838103825285818151815260200191508051906020019060200280838360005b83811015610d86578082015181840152602081019050610d6b565b50505050905001965050505050505060405180910390f35b3415610da957600080fd5b610db1612b4e565b6040518080602001828103825283818151815260200191508051906020019060200280838360005b83811015610df4578082015181840152602081019050610dd9565b505050509050019250505060405180910390f35b6000339050610e18818484611e13565b505050565b6000339050610e2c8183611f80565b5050565b6000339050610e40818484610e45565b505050565b600080600060016000815480929190600101919050559250600860008481526020019081526020016000209150828260000181905550858260010160006101000a81548173ffffffffffffffffffffffffffffffffffffffff021916908373ffffffffffffffffffffffffffffffffffffffff16021790555084826002019080519060200190610ed6929190612be2565b5083826003019080519060200190610eef929190612c62565b5060028260050160006101000a81548160ff02191690836004811115610f1157fe5b021790555060098054806001018281610f2a9190612d11565b916000526020600020900160008590919091505550600460008773ffffffffffffffffffffffffffffffffffffffff1673ffffffffffffffffffffffffffffffffffffffff1681526020019081526020016000209050806002018054806001018281610f969190612d11565b916000526020600020900160008590919091505550505050505050565b610fbb612d3d565b610fc3612d51565b6000610fcd612d65565b600260008673ffffffffffffffffffffffffffffffffffffffff1673ffffffffffffffffffffffffffffffffffffffff168152602001908152602001600020608060405190810160405290816000820160009054906101000a900473ffffffffffffffffffffffffffffffffffffffff1673ffffffffffffffffffffffffffffffffffffffff1673ffffffffffffffffffffffffffffffffffffffff168152602001600182018054600181600116156101000203166002900480601f0160208091040260200160405190810160405280929190818152602001828054600181600116156101000203166002900480156111075780601f106110dc57610100808354040283529160200191611107565b820191906000526020600020905b8154815290600101906020018083116110ea57829003601f168201915b505050505081526020016002820180548060200260200160405190810160405280929190818152602001828054801561115f57602002820191906000526020600020905b81548152602001906001019080831161114b575b505050505081526020016003820160009054906101000a900460ff16600481111561118657fe5b600481111561119157fe5b815250509050806020015181604001518260600151829250819150935093509350509193909250565b6000600460008473ffffffffffffffffffffffffffffffffffffffff1673ffffffffffffffffffffffffffffffffffffffff1681526020019081526020016000209050828160000160006101000a81548173ffffffffffffffffffffffffffffffffffffffff021916908373ffffffffffffffffffffffffffffffffffffffff16021790555081816001019080519060200190611258929190612be2565b5060008160030160006101000a81548160ff0219169083600481111561127a57fe5b0217905550600580548060010182816112939190612dbb565b9160005260206000209001600085909190916101000a81548173ffffffffffffffffffffffffffffffffffffffff021916908373ffffffffffffffffffffffffffffffffffffffff16021790555050505050565b6112ef612d51565b600780548060200260200160405190810160405280929190818152602001828054801561133b57602002820191906000526020600020905b815481526020019060010190808311611327575b5050505050905090565b61134d612de7565b60058054806020026020016040519081016040528092919081815260200182805480156113cf57602002820191906000526020600020905b8160009054906101000a900473ffffffffffffffffffffffffffffffffffffffff1673ffffffffffffffffffffffffffffffffffffffff1681526020019060010190808311611385575b5050505050905090565b6113e1612d3d565b600060068111156113ee57fe5b821415611432576040805190810160405280600481526020017f4a4156410000000000000000000000000000000000000000000000000000000081525090506114bc565b6001600681111561143f57fe5b821415611483576040805190810160405280600281526020017f4a5300000000000000000000000000000000000000000000000000000000000081525090506114bc565b6040805190810160405280600581526020017f4d4f4e474f00000000000000000000000000000000000000000000000000000081525090505b919050565b6000806000806114cf612dfb565b6114d7612dfb565b735f0e611dbcb5a4a1dc8ec4c7e1a02a8eb60182f3955073cea3b456c72dae97a256199c24dab28fb4863ed194507338921ab62710300785722cfc538b3cabefb12845935073da93fc20797a06d7273335788a4914a89d3bedaf925060026040518059106115425750595b90808252806020026020018201604052509150600082600081518110151561156657fe5b90602001906020020190600681111561157b57fe5b9081600681111561158857fe5b81525050600282600181518110151561159d57fe5b9060200190602002019060068111156115b257fe5b908160068111156115bf57fe5b8152505060026040518059106115d25750595b9080825280602002602001820160405250905060018160008151811015156115f657fe5b90602001906020020190600681111561160b57fe5b9081600681111561161857fe5b81525050600381600181518110151561162d57fe5b90602001906020020190600681111561164257fe5b9081600681111561164f57fe5b81525050611693866040805190810160405280600281526020017f703100000000000000000000000000000000000000000000000000000000000081525084611e13565b6116d3866040805190810160405280600281526020017f703200000000000000000000000000000000000000000000000000000000000081525083611e13565b611713846040805190810160405280600281526020017f6a3100000000000000000000000000000000000000000000000000000000000081525084610e45565b611753846040805190810160405280600281526020017f6a3200000000000000000000000000000000000000000000000000000000000081525084610e45565b505050505050565b611763612d3d565b61176b612d51565b6000611775612e0f565b600460008673ffffffffffffffffffffffffffffffffffffffff1673ffffffffffffffffffffffffffffffffffffffff168152602001908152602001600020608060405190810160405290816000820160009054906101000a900473ffffffffffffffffffffffffffffffffffffffff1673ffffffffffffffffffffffffffffffffffffffff1673ffffffffffffffffffffffffffffffffffffffff168152602001600182018054600181600116156101000203166002900480601f0160208091040260200160405190810160405280929190818152602001828054600181600116156101000203166002900480156118af5780601f10611884576101008083540402835291602001916118af565b820191906000526020600020905b81548152906001019060200180831161189257829003601f168201915b505050505081526020016002820180548060200260200160405190810160405280929190818152602001828054801561190757602002820191906000526020600020905b8154815260200190600101908083116118f3575b505050505081526020016003820160009054906101000a900460ff16600481111561192e57fe5b600481111561193957fe5b815250509050806020015181604001518260600151829250819150935093509350509193909250565b61196a612d51565b60098054806020026020016040519081016040528092919081815260200182805480156119b657602002820191906000526020600020905b8154815260200190600101908083116119a2575b5050505050905090565b6119c8612d51565b60006119d2612dfb565b6119da612d51565b6000806000806119e8612e65565b6119f0612dfb565b60008060018054039a50600660008e8152602001908152602001600020600301805480602002602001604051908101604052809291908181526020018280548015611a8857602002820191906000526020600020906000905b82829054906101000a900460ff166006811115611a6257fe5b81526020019060010190602082600001049283019260010382029150808411611a495790505b505050505099508a8a5102604051805910611aa05750595b9080825280602002602001820160405250985060009750600096505b8951871015611ded578987815181101515611ad357fe5b906020019060200201519550600194505b8a85111515611de0576008600086815260200190815260200160002060c06040519081016040529081600082015481526020016001820160009054906101000a900473ffffffffffffffffffffffffffffffffffffffff1673ffffffffffffffffffffffffffffffffffffffff1673ffffffffffffffffffffffffffffffffffffffff168152602001600282018054600181600116156101000203166002900480601f016020809104026020016040519081016040528092919081815260200182805460018160011615610100020316600290048015611c055780601f10611bda57610100808354040283529160200191611c05565b820191906000526020600020905b815481529060010190602001808311611be857829003601f168201915b5050505050815260200160038201805480602002602001604051908101604052809291908181526020018280548015611c8b57602002820191906000526020600020906000905b82829054906101000a900460ff166006811115611c6557fe5b81526020019060010190602082600001049283019260010382029150808411611c4c5790505b5050505050815260200160048201805480602002602001604051908101604052809291908181526020018280548015611d1957602002820191906000526020600020905b8160009054906101000a900473ffffffffffffffffffffffffffffffffffffffff1673ffffffffffffffffffffffffffffffffffffffff1681526020019060010190808311611ccf575b505050505081526020016005820160009054906101000a900460ff166004811115611d4057fe5b6004811115611d4b57fe5b81525050935083606001519250600091505b8251821015611dd3578282815181101515611d7457fe5b906020019060200201519050806006811115611d8c57fe5b866006811115611d9857fe5b1415611dc657848989806001019a50815181101515611db357fe5b9060200190602002018181525050611dd3565b8180600101925050611d5d565b8480600101955050611ae4565b8680600101975050611abc565b889b505050505050505050505050919050565b6000339050611e0f81836111ba565b5050565b6000806000806000815480929190600101919050559250600660008481526020019081526020016000209150828260000181905550858260010160006101000a81548173ffffffffffffffffffffffffffffffffffffffff021916908373ffffffffffffffffffffffffffffffffffffffff16021790555084826002019080519060200190611ea3929190612be2565b5083826003019080519060200190611ebc929190612c62565b5060008260040160006101000a81548160ff02191690836004811115611ede57fe5b021790555060078054806001018281611ef79190612d11565b916000526020600020900160008590919091505550600260008773ffffffffffffffffffffffffffffffffffffffff1673ffffffffffffffffffffffffffffffffffffffff1681526020019081526020016000209050806002018054806001018281611f639190612d11565b916000526020600020900160008590919091505550505050505050565b6000600260008473ffffffffffffffffffffffffffffffffffffffff1673ffffffffffffffffffffffffffffffffffffffff1681526020019081526020016000209050828160000160006101000a81548173ffffffffffffffffffffffffffffffffffffffff021916908373ffffffffffffffffffffffffffffffffffffffff1602179055508181600101908051906020019061201e929190612be2565b5060008160030160006101000a81548160ff0219169083600481111561204057fe5b0217905550600380548060010182816120599190612dbb565b9160005260206000209001600085909190916101000a81548173ffffffffffffffffffffffffffffffffffffffff021916908373ffffffffffffffffffffffffffffffffffffffff16021790555050505050565b60006120b7612d3d565b6120bf612dfb565b6120c7612de7565b60006120d1612e65565b6008600088815260200190815260200160002060c06040519081016040529081600082015481526020016001820160009054906101000a900473ffffffffffffffffffffffffffffffffffffffff1673ffffffffffffffffffffffffffffffffffffffff1673ffffffffffffffffffffffffffffffffffffffff168152602001600282018054600181600116156101000203166002900480601f0160208091040260200160405190810160405280929190818152602001828054600181600116156101000203166002900480156121e95780601f106121be576101008083540402835291602001916121e9565b820191906000526020600020905b8154815290600101906020018083116121cc57829003601f168201915b505050505081526020016003820180548060200260200160405190810160405280929190818152602001828054801561226f57602002820191906000526020600020906000905b82829054906101000a900460ff16600681111561224957fe5b815260200190600101906020826000010492830192600103820291508084116122305790505b50505050508152602001600482018054806020026020016040519081016040528092919081815260200182805480156122fd57602002820191906000526020600020905b8160009054906101000a900473ffffffffffffffffffffffffffffffffffffffff1673ffffffffffffffffffffffffffffffffffffffff16815260200190600101908083116122b3575b505050505081526020016005820160009054906101000a900460ff16600481111561232457fe5b600481111561232f57fe5b81525050905080602001518160400151826060015183608001518460a00151839350829250819150955095509550955095505091939590929450565b612373612d51565b600061237d612dfb565b612385612d51565b600080600080612393612dfb565b6000806001600054039950600860008d815260200190815260200160002060030180548060200260200160405190810160405280929190818152602001828054801561242c57602002820191906000526020600020906000905b82829054906101000a900460ff16600681111561240657fe5b815260200190600101906020826000010492830192600103820291508084116123ed5790505b5050505050985088518a026040518059106124445750595b9080825280602002602001820160405250975060009650600095505b88518610156125bb57888681518110151561247757fe5b906020019060200201519450600193505b89841115156125ae576006600085815260200190815260200160002060030180548060200260200160405190810160405280929190818152602001828054801561251f57602002820191906000526020600020906000905b82829054906101000a900460ff1660068111156124f957fe5b815260200190600101906020826000010492830192600103820291508084116124e05790505b50505050509250600091505b82518210156125a157828281518110151561254257fe5b90602001906020020151905084600681111561255a57fe5b81600681111561256657fe5b14156125945783888880600101995081518110151561258157fe5b90602001906020020181815250506125a1565b818060010192505061252b565b8380600101945050612488565b8580600101965050612460565b879a5050505050505050505050919050565b6125d5612d51565b60006125df612d51565b6000806125ea612e65565b6125f2612dfb565b600080600180540397508760405180591061260a5750595b9080825280602002602001820160405250965060009550600194505b8785111515612922576008600086815260200190815260200160002060c06040519081016040529081600082015481526020016001820160009054906101000a900473ffffffffffffffffffffffffffffffffffffffff1673ffffffffffffffffffffffffffffffffffffffff1673ffffffffffffffffffffffffffffffffffffffff168152602001600282018054600181600116156101000203166002900480601f0160208091040260200160405190810160405280929190818152602001828054600181600116156101000203166002900480156127475780601f1061271c57610100808354040283529160200191612747565b820191906000526020600020905b81548152906001019060200180831161272a57829003601f168201915b50505050508152602001600382018054806020026020016040519081016040528092919081815260200182805480156127cd57602002820191906000526020600020906000905b82829054906101000a900460ff1660068111156127a757fe5b8152602001906001019060208260000104928301926001038202915080841161278e5790505b505050505081526020016004820180548060200260200160405190810160405280929190818152602001828054801561285b57602002820191906000526020600020905b8160009054906101000a900473ffffffffffffffffffffffffffffffffffffffff1673ffffffffffffffffffffffffffffffffffffffff1681526020019060010190808311612811575b505050505081526020016005820160009054906101000a900460ff16600481111561288257fe5b600481111561288d57fe5b81525050935083606001519250600091505b82518210156129155782828151811015156128b657fe5b9060200190602002015190508060068111156128ce57fe5b8a60068111156128da57fe5b1415612908578487878060010198508151811015156128f557fe5b9060200190602002018181525050612915565b818060010192505061289f565b8480600101955050612626565b8698505050505050505050919050565b600061293c612d3d565b612944612dfb565b600061294e612ecf565b6006600087815260200190815260200160002060a06040519081016040529081600082015481526020016001820160009054906101000a900473ffffffffffffffffffffffffffffffffffffffff1673ffffffffffffffffffffffffffffffffffffffff1673ffffffffffffffffffffffffffffffffffffffff168152602001600282018054600181600116156101000203166002900480601f016020809104026020016040519081016040528092919081815260200182805460018160011615610100020316600290048015612a665780601f10612a3b57610100808354040283529160200191612a66565b820191906000526020600020905b815481529060010190602001808311612a4957829003601f168201915b5050505050815260200160038201805480602002602001604051908101604052809291908181526020018280548015612aec57602002820191906000526020600020906000905b82829054906101000a900460ff166006811115612ac657fe5b81526020019060010190602082600001049283019260010382029150808411612aad5790505b505050505081526020016004820160009054906101000a900460ff166004811115612b1357fe5b6004811115612b1e57fe5b81525050905080602001518160400151826060015183608001518292508191509450945094509450509193509193565b612b56612de7565b6003805480602002602001604051908101604052809291908181526020018280548015612bd857602002820191906000526020600020905b8160009054906101000a900473ffffffffffffffffffffffffffffffffffffffff1673ffffffffffffffffffffffffffffffffffffffff1681526020019060010190808311612b8e575b5050505050905090565b828054600181600116156101000203166002900490600052602060002090601f016020900481019282601f10612c2357805160ff1916838001178555612c51565b82800160010185558215612c51579182015b82811115612c50578251825591602001919060010190612c35565b5b509050612c5e9190612f2c565b5090565b82805482825590600052602060002090601f01602090048101928215612d005791602002820160005b83821115612cd157835183826101000a81548160ff02191690836006811115612cb057fe5b02179055509260200192600101602081600001049283019260010302612c8b565b8015612cfe5782816101000a81549060ff0219169055600101602081600001049283019260010302612cd1565b505b509050612d0d9190612f51565b5090565b815481835581811511612d3857818360005260206000209182019101612d379190612f2c565b5b505050565b602060405190810160405280600081525090565b602060405190810160405280600081525090565b608060405190810160405280600073ffffffffffffffffffffffffffffffffffffffff168152602001612d96612f81565b8152602001612da3612f95565b815260200160006004811115612db557fe5b81525090565b815481835581811511612de257818360005260206000209182019101612de19190612f2c565b5b505050565b602060405190810160405280600081525090565b602060405190810160405280600081525090565b608060405190810160405280600073ffffffffffffffffffffffffffffffffffffffff168152602001612e40612f81565b8152602001612e4d612f95565b815260200160006004811115612e5f57fe5b81525090565b60c06040519081016040528060008152602001600073ffffffffffffffffffffffffffffffffffffffff168152602001612e9d612f81565b8152602001612eaa612fa9565b8152602001612eb7612fbd565b815260200160006004811115612ec957fe5b81525090565b60a06040519081016040528060008152602001600073ffffffffffffffffffffffffffffffffffffffff168152602001612f07612f81565b8152602001612f14612fa9565b815260200160006004811115612f2657fe5b81525090565b612f4e91905b80821115612f4a576000816000905550600101612f32565b5090565b90565b612f7e91905b80821115612f7a57600081816101000a81549060ff021916905550600101612f57565b5090565b90565b602060405190810160405280600081525090565b602060405190810160405280600081525090565b602060405190810160405280600081525090565b6020604051908101604052806000815250905600a165627a7a72305820d799b7d078c209f63f05ae09a5e1d5fefa0a5e450a6fefb1015b8e51de776cda0029",
  "source": "pragma solidity  ^0.4.18;\n\ncontract Market {\n\n    enum Status {ACTIVE, INACTIVE, VACANT, OFFERED, CANCELLED}\n    enum Skill {JAVA, JS, MYSQL, MONGO, SCALA, KOTLIN, OTHER}\n\n    uint profileId = 1;\n    uint jobId = 1;\n\n    mapping (address => Employee) employeeMap;\n    address[] employeeCodes;\n\n    mapping(address => Employer) employerMap;\n    address[] employerCodes;\n\n    mapping(uint => Profile) profileMap;\n    uint[] allProfileIds;\n\n    mapping(uint => Job) jobMap;\n    uint[] allJobIds;\n\n    struct Employee {\n        address code;\n        string name;\n        uint[] profileIds;\n        Status status;\n    }\n\n    struct Employer {\n        address code;\n        string name;\n        uint[] jobIds;\n        Status status;\n    }\n\n    struct Profile {\n        uint id;\n        address employeeCode;\n        string name;\n        Skill[] skills;\n        Status status;\n    }\n\n    struct Job {\n        uint id;\n        address employerCode;\n        string name;\n        Skill[] requiredSkills;\n        address[] appliedEmployeeCodes;\n        Status status;\n    }\n\n\n    function setEmployee(string _name) public {\n        address _address = msg.sender;\n        setEmployeeWithAddress(_address, _name);\n    }\n    function setEmployeeWithAddress(address _address, string _name) public {\n        Employee storage employee = employeeMap[_address];\n        employee.code = _address;\n        employee.name = _name;\n        employee.status = Status.ACTIVE;\n        employeeCodes.push(_address);\n    }\n    function getEmployee(address _address) view public returns(string name, uint[] ids, Status status) {\n        Employee memory employee = employeeMap[_address];\n        return(employee.name, employee.profileIds, employee.status);\n    }\n    function getEmployeeCodes() view public returns(address[] codes) {\n        return employeeCodes;\n    }\n\n\n    function setEmployer(string _name) public {\n        address _address = msg.sender;\n        setEmployerWithAddress(_address, _name);\n    }\n    function setEmployerWithAddress(address _address, string _name) public {\n        Employer storage employer = employerMap[_address];\n        employer.code = _address;\n        employer.name = _name;\n        employer.status = Status.ACTIVE;\n        employerCodes.push(_address);\n    }\n    function getEmployer(address _address) view public returns(string name, uint[] jobIds, Status status) {\n        Employer memory employer = employerMap[_address];\n        return (employer.name, employer.jobIds, employer.status);\n    }\n    function getEmployerCodes() view public returns(address[]) {\n        return employerCodes;\n    }\n\n\n    function setProfile(string _name, Skill[] _skills) public {\n        address _employeeCode = msg.sender;\n        setProfileWithAddress(_employeeCode, _name, _skills);\n    }\n    function setProfileWithAddress(address _employeeCode, string _name, Skill[] _skills) public {\n        //throw if employee not found\n        uint _id = profileId++;\n        Profile storage profile = profileMap[_id];\n        profile.id = _id;\n        profile.employeeCode = _employeeCode;\n        profile.name = _name;\n        profile.skills = _skills;\n        profile.status = Status.ACTIVE;\n        allProfileIds.push(_id);\n        Employee storage employee = employeeMap[_employeeCode];\n        employee.profileIds.push(_id);\n    }\n    function getProfile(uint _id) view public returns(address employeeCode, string name, Skill[] skills, Status status) {\n        Profile memory profile = profileMap[_id];\n        return(profile.employeeCode, profile.name, profile.skills, profile.status);\n    }\n    function getAllProfileIds() view public returns(uint[] ids) {\n        return allProfileIds;\n    }\n\n    function setJob(string _name, Skill[] _requiredSkills) public {\n        address _employerCode = msg.sender;\n        setJobWithAddress(_employerCode, _name, _requiredSkills);\n    }\n    function setJobWithAddress(address _employerCode, string _name, Skill[] _requiredSkills) public {\n        uint _id = jobId++;\n        Job storage job = jobMap[_id];\n        job.id = _id;\n        job.employerCode = _employerCode;\n        job.name = _name;\n        job.requiredSkills = _requiredSkills;\n        job.status = Status.VACANT;\n        //appliedEmployeeCodes\n        allJobIds.push(_id);\n        Employer storage employer = employerMap[_employerCode];\n        employer.jobIds.push(_id);\n    }\n    function getJob(uint _id) view public returns(address employerCode, string name, Skill[] requiredSkills, address[] appliedEmployeeCodes, Status status) {\n        Job memory job = jobMap[_id];\n        return(job.employerCode, job.name, job.requiredSkills, job.appliedEmployeeCodes, job.status);\n    }\n    function getAllJobIds() view public returns(uint[] postedJobIds) {\n        return allJobIds;\n    }\n\n    //has duplicates\n    function findEmployeeProfilesByJob(uint _jobId) view public returns(uint[] matchingProfiles) {\n        uint noOfProfiles = profileId -1;\n        Skill[] memory requiredSkills = jobMap[_jobId].requiredSkills;\n        uint[] memory matchingProfileIds = new uint[](noOfProfiles * requiredSkills.length);\n        uint index = 0;\n\n        for(uint r=0; r<requiredSkills.length; r++) {\n            Skill required = requiredSkills[r];\n\n            for(uint p=1; p<=noOfProfiles; p++) {\n\n                Skill[] memory skills = profileMap[p].skills;\n                for(uint s=0; s<skills.length; s++) {\n                    Skill skill = skills[s];\n\n                    if(skill == required) {\n                        matchingProfileIds[index++] = p;\n                        break;\n                    }\n                }\n            }\n        }\n        return matchingProfileIds;\n    }\n\n    //has duplicates\n    function findJobsByProfile(uint _profileId) view public returns(uint[] matchingIds) {\n        uint noOfJobs = jobId -1;\n        Skill[] memory skills = profileMap[_profileId].skills;\n        uint[] memory matchingJobIds = new uint[](skills.length * noOfJobs);\n        uint index = 0;\n\n        for(uint s=0; s<skills.length; s++) {\n            Skill skill = skills[s];\n\n            for(uint j=1; j<=noOfJobs; j++) {\n                Job memory job = jobMap[j];\n\n                Skill[] memory requiredSkills = job.requiredSkills;\n                for(uint m=0; m<requiredSkills.length; m++) {\n                    Skill required = requiredSkills[m];\n\n                    if(skill == required) {\n                        matchingJobIds[index++] = j;\n                        break;\n                    }\n\n                }\n            }\n\n        }\n\n        return matchingJobIds;\n    }\n\n    function findJobsBySkill(Skill _skill) view public returns(uint[] matchingIds) {\n        uint noOfJobs = jobId -1;\n\n        uint[] memory matchingJobIds = new uint[](noOfJobs);\n\n        uint index = 0;\n        for(uint j=1; j<=noOfJobs; j++) {\n            Job memory job = jobMap[j];\n\n            Skill[] memory requiredSkills = job.requiredSkills;\n            for(uint m=0; m<requiredSkills.length; m++) {\n                Skill required = requiredSkills[m];\n\n                if(_skill == required) {\n                    matchingJobIds[index++] = j;\n                    break;\n                }\n\n            }\n        }\n        return matchingJobIds;\n    }\n\n    // function findJobs(uint _profileId) view public returns(uint jobIds) {\n    //     uint[] memory matchingJobIds;\n    //     //uint matchingJobId;\n\n    //     Profile memory profile = profileMap[_profileId];\n    //     Skill[] memory skills = profile.skills;\n\n    //     uint jobCount = 0;\n    //     for(uint s=0; s<skills.length; s++) {\n    //         Skill skill = skills[s];\n\n    //         for(uint j=0; j<allJobIds.length; j++) {\n    //             uint thisJobId = allJobIds[j];\n    //             Job memory job = jobMap[thisJobId];\n\n    //             Skill[] memory requiredSkills = job.requiredSkills;\n    //             for(uint m=0; m<requiredSkills.length; m++) {\n    //                 Skill required = requiredSkills[m];\n\n    //                 if(skill == required) {\n\n    //                     matchingJobId = thisJobId;\n    //                     //matchingJobIds[jobCount++] = thisJobId;\n    //                     //break;\n    //                 }\n\n    //             }\n\n    //         }\n    //     }\n    //     //matchingJobIds[0] = matchingJobId;\n    //     //return matchingJobIds;\n    //     //uint storage x = 11;\n    //     return 11;\n    // }\n\n\n    //test\n    function testSetInitialData() public {\n\n        // testrpc\n        address addressE1 = 0x5f0e611dbcb5a4a1dc8ec4c7e1a02a8eb60182f3;\n        address addressE2 = 0xcea3b456c72dae97a256199c24dab28fb4863ed1;\n        address addressR1 = 0x38921ab62710300785722cfc538b3cabefb12845;\n        address addressR2 = 0xda93fc20797a06d7273335788a4914a89d3bedaf;\n\n        /* remix\n        address addressE1 = 0xca35b7d915458ef540ade6068dfe2f44e8fa733c;\n        address addressE2 = 0x4b0897b0513fdc7c541b6d9d7e929c4e5364d2db;\n        address addressR1 = 0x14723a09acff6d2a60dcdf7aa4aff308fddc160c;\n        address addressR2 = 0x583031d1113ad414f02576bd6afabfb302140225;\n        */\n\n        //setEmployeeWithAddress(addressE1, \"e1\");\n        //setEmployerWithAddress(addressR1, \"r1\");\n\n        Skill[] memory skills1 = new Skill[](2);\n        skills1[0] = Skill.JAVA;\n        skills1[1] = Skill.MYSQL;\n\n        Skill[] memory skills2 = new Skill[](2);\n        skills2[0] = Skill.JS;\n        skills2[1] = Skill.MONGO;\n\n        setProfileWithAddress(addressE1, \"p1\", skills1);\n        setProfileWithAddress(addressE1, \"p2\", skills2);\n\n        setJobWithAddress(addressR1, \"j1\", skills1);\n        setJobWithAddress(addressR1, \"j2\", skills1);\n    }\n\n    function uintToSkill(uint _uint) pure public returns(string skill) {\n        if(_uint == uint(Skill.JAVA))\n            return \"JAVA\";\n        if(_uint == uint(Skill.JS))\n            return \"JS\";\n        return \"MONGO\";\n    }\n\n}",
  "sourcePath": "/home/janarthan/practice/yit/Blockchain-JobMarket/contracts/Market.sol",
  "compiler": {
    "name": "solc",
    "version": "0.4.19+commit.c4cbbb05.Emscripten.clang"
  },
  "schemaVersion": "2.0.0",
  "updatedAt": "2018-03-16T10:33:55.528Z"
}