{
  "contractName": "Market",
  "abi": [
    {
      "constant": false,
      "inputs": [
        {
          "name": "_name",
          "type": "string"
        }
      ],
      "name": "setEmployee",
      "outputs": [],
      "payable": false,
      "stateMutability": "nonpayable",
      "type": "function"
    },
    {
      "constant": false,
      "inputs": [
        {
          "name": "_address",
          "type": "address"
        },
        {
          "name": "_name",
          "type": "string"
        }
      ],
      "name": "setEmployeeWithAddress",
      "outputs": [],
      "payable": false,
      "stateMutability": "nonpayable",
      "type": "function"
    },
    {
      "constant": true,
      "inputs": [
        {
          "name": "_address",
          "type": "address"
        }
      ],
      "name": "getEmployee",
      "outputs": [
        {
          "name": "name",
          "type": "string"
        },
        {
          "name": "profileIds",
          "type": "uint256[]"
        },
        {
          "name": "status",
          "type": "uint8"
        }
      ],
      "payable": false,
      "stateMutability": "view",
      "type": "function"
    },
    {
      "constant": true,
      "inputs": [],
      "name": "getEmployeeCodes",
      "outputs": [
        {
          "name": "",
          "type": "address[]"
        }
      ],
      "payable": false,
      "stateMutability": "view",
      "type": "function"
    },
    {
      "constant": false,
      "inputs": [
        {
          "name": "_name",
          "type": "string"
        }
      ],
      "name": "setEmployer",
      "outputs": [],
      "payable": false,
      "stateMutability": "nonpayable",
      "type": "function"
    },
    {
      "constant": false,
      "inputs": [
        {
          "name": "_address",
          "type": "address"
        },
        {
          "name": "_name",
          "type": "string"
        }
      ],
      "name": "setEmployerWithAddress",
      "outputs": [],
      "payable": false,
      "stateMutability": "nonpayable",
      "type": "function"
    },
    {
      "constant": true,
      "inputs": [
        {
          "name": "_address",
          "type": "address"
        }
      ],
      "name": "getEmployer",
      "outputs": [
        {
          "name": "name",
          "type": "string"
        },
        {
          "name": "jobIds",
          "type": "uint256[]"
        },
        {
          "name": "status",
          "type": "uint8"
        }
      ],
      "payable": false,
      "stateMutability": "view",
      "type": "function"
    },
    {
      "constant": true,
      "inputs": [],
      "name": "getEmployerCodes",
      "outputs": [
        {
          "name": "",
          "type": "address[]"
        }
      ],
      "payable": false,
      "stateMutability": "view",
      "type": "function"
    },
    {
      "constant": false,
      "inputs": [
        {
          "name": "_name",
          "type": "string"
        },
        {
          "name": "_skills",
          "type": "uint8[]"
        }
      ],
      "name": "setProfile",
      "outputs": [],
      "payable": false,
      "stateMutability": "nonpayable",
      "type": "function"
    },
    {
      "constant": false,
      "inputs": [
        {
          "name": "_employeeCode",
          "type": "address"
        },
        {
          "name": "_name",
          "type": "string"
        },
        {
          "name": "_skills",
          "type": "uint8[]"
        }
      ],
      "name": "setProfileWithAddress",
      "outputs": [],
      "payable": false,
      "stateMutability": "nonpayable",
      "type": "function"
    },
    {
      "constant": true,
      "inputs": [
        {
          "name": "_id",
          "type": "uint256"
        }
      ],
      "name": "getProfile",
      "outputs": [
        {
          "name": "employeeCode",
          "type": "address"
        },
        {
          "name": "name",
          "type": "string"
        },
        {
          "name": "skills",
          "type": "uint8[]"
        },
        {
          "name": "status",
          "type": "uint8"
        }
      ],
      "payable": false,
      "stateMutability": "view",
      "type": "function"
    },
    {
      "constant": true,
      "inputs": [],
      "name": "getProileIds",
      "outputs": [
        {
          "name": "",
          "type": "uint256[]"
        }
      ],
      "payable": false,
      "stateMutability": "view",
      "type": "function"
    },
    {
      "constant": false,
      "inputs": [
        {
          "name": "_name",
          "type": "string"
        },
        {
          "name": "_requiredSkills",
          "type": "uint8[]"
        }
      ],
      "name": "setJob",
      "outputs": [],
      "payable": false,
      "stateMutability": "nonpayable",
      "type": "function"
    },
    {
      "constant": false,
      "inputs": [
        {
          "name": "_employerCode",
          "type": "address"
        },
        {
          "name": "_name",
          "type": "string"
        },
        {
          "name": "_requiredSkills",
          "type": "uint8[]"
        }
      ],
      "name": "setJobWithAddress",
      "outputs": [],
      "payable": false,
      "stateMutability": "nonpayable",
      "type": "function"
    },
    {
      "constant": true,
      "inputs": [
        {
          "name": "_id",
          "type": "uint256"
        }
      ],
      "name": "getJob",
      "outputs": [
        {
          "name": "employerCode",
          "type": "address"
        },
        {
          "name": "name",
          "type": "string"
        },
        {
          "name": "requiredSkills",
          "type": "uint8[]"
        },
        {
          "name": "appliedEmployeeCodes",
          "type": "address[]"
        },
        {
          "name": "status",
          "type": "uint8"
        }
      ],
      "payable": false,
      "stateMutability": "view",
      "type": "function"
    },
    {
      "constant": true,
      "inputs": [],
      "name": "getJobIds",
      "outputs": [
        {
          "name": "",
          "type": "uint256[]"
        }
      ],
      "payable": false,
      "stateMutability": "view",
      "type": "function"
    }
  ],
  "bytecode": "0x6060604052600160005560018055341561001857600080fd5b612021806100276000396000f3006060604052600436106100e6576000357c0100000000000000000000000000000000000000000000000000000000900463ffffffff16806309b9597a146100eb57806310f4c59714610188578063124e84e6146101e55780632dd46cf71461028257806332648e091461033e5780634b0fa8471461044d5780634ed4a297146104b7578063633e0c23146105335780637560d4ce1461059d5780638f778bb9146106ac5780639e1b78cd14610709578063a597a19814610773578063b06a90d01461082f578063bf22c457146108ab578063f08f4f6414610a1f578063ff66aa6214610b4b575b600080fd5b34156100f657600080fd5b610186600480803590602001908201803590602001908080601f0160208091040260200160405190810160405280939291908181526020018383808284378201915050505050509190803590602001908201803590602001908080602002602001604051908101604052809392919081815260200183836020028082843782019150505050505091905050610bb5565b005b341561019357600080fd5b6101e3600480803590602001908201803590602001908080601f01602080910402602001604051908101604052809392919081815260200183838082843782019150505050505091905050610bca565b005b34156101f057600080fd5b610280600480803590602001908201803590602001908080601f0160208091040260200160405190810160405280939291908181526020018383808284378201915050505050509190803590602001908201803590602001908080602002602001604051908101604052809392919081815260200183836020028082843782019150505050505091905050610bdd565b005b341561028d57600080fd5b61033c600480803573ffffffffffffffffffffffffffffffffffffffff1690602001909190803590602001908201803590602001908080601f0160208091040260200160405190810160405280939291908181526020018383808284378201915050505050509190803590602001908201803590602001908080602002602001604051908101604052809392919081815260200183836020028082843782019150505050505091905050610bf2565b005b341561034957600080fd5b610375600480803573ffffffffffffffffffffffffffffffffffffffff16906020019091905050610d60565b60405180806020018060200184600481111561038d57fe5b60ff168152602001838103835286818151815260200191508051906020019080838360005b838110156103cd5780820151818401526020810190506103b2565b50505050905090810190601f1680156103fa5780820380516001836020036101000a031916815260200191505b50838103825285818151815260200191508051906020019060200280838360005b8381101561043657808201518184015260208101905061041b565b505050509050019550505050505060405180910390f35b341561045857600080fd5b610460610f67565b6040518080602001828103825283818151815260200191508051906020019060200280838360005b838110156104a3578082015181840152602081019050610488565b505050509050019250505060405180910390f35b34156104c257600080fd5b610531600480803573ffffffffffffffffffffffffffffffffffffffff1690602001909190803590602001908201803590602001908080601f01602080910402602001604051908101604052809392919081815260200183838082843782019150505050505091905050610fc5565b005b341561053e57600080fd5b6105466110f2565b6040518080602001828103825283818151815260200191508051906020019060200280838360005b8381101561058957808201518184015260208101905061056e565b505050509050019250505060405180910390f35b34156105a857600080fd5b6105d4600480803573ffffffffffffffffffffffffffffffffffffffff16906020019091905050611186565b6040518080602001806020018460048111156105ec57fe5b60ff168152602001838103835286818151815260200191508051906020019080838360005b8381101561062c578082015181840152602081019050610611565b50505050905090810190601f1680156106595780820380516001836020036101000a031916815260200191505b50838103825285818151815260200191508051906020019060200280838360005b8381101561069557808201518184015260208101905061067a565b505050509050019550505050505060405180910390f35b34156106b757600080fd5b610707600480803590602001908201803590602001908080601f0160208091040260200160405190810160405280939291908181526020018383808284378201915050505050509190505061138d565b005b341561071457600080fd5b61071c6113a0565b6040518080602001828103825283818151815260200191508051906020019060200280838360005b8381101561075f578082015181840152602081019050610744565b505050509050019250505060405180910390f35b341561077e57600080fd5b61082d600480803573ffffffffffffffffffffffffffffffffffffffff1690602001909190803590602001908201803590602001908080601f01602080910402602001604051908101604052809392919081815260200183838082843782019150505050505091908035906020019082018035906020019080806020026020016040519081016040528093929190818152602001838360200280828437820191505050505050919050506113fe565b005b341561083a57600080fd5b6108a9600480803573ffffffffffffffffffffffffffffffffffffffff1690602001909190803590602001908201803590602001908080601f0160208091040260200160405190810160405280939291908181526020018383808284378201915050505050509190505061156b565b005b34156108b657600080fd5b6108cc6004808035906020019091905050611698565b604051808673ffffffffffffffffffffffffffffffffffffffff1673ffffffffffffffffffffffffffffffffffffffff16815260200180602001806020018060200185600481111561091a57fe5b60ff168152602001848103845288818151815260200191508051906020019080838360005b8381101561095a57808201518184015260208101905061093f565b50505050905090810190601f1680156109875780820380516001836020036101000a031916815260200191505b50848103835287818151815260200191508051906020019060200280838360005b838110156109c35780820151818401526020810190506109a8565b50505050905001848103825286818151815260200191508051906020019060200280838360005b83811015610a055780820151818401526020810190506109ea565b505050509050019850505050505050505060405180910390f35b3415610a2a57600080fd5b610a406004808035906020019091905050611956565b604051808573ffffffffffffffffffffffffffffffffffffffff1673ffffffffffffffffffffffffffffffffffffffff1681526020018060200180602001846004811115610a8a57fe5b60ff168152602001838103835286818151815260200191508051906020019080838360005b83811015610aca578082015181840152602081019050610aaf565b50505050905090810190601f168015610af75780820380516001836020036101000a031916815260200191505b50838103825285818151815260200191508051906020019060200280838360005b83811015610b33578082015181840152602081019050610b18565b50505050905001965050505050505060405180910390f35b3415610b5657600080fd5b610b5e611b72565b6040518080602001828103825283818151815260200191508051906020019060200280838360005b83811015610ba1578082015181840152602081019050610b86565b505050509050019250505060405180910390f35b6000339050610bc58184846113fe565b505050565b6000339050610bd9818361156b565b5050565b6000339050610bed818484610bf2565b505050565b600080600060016000815480929190600101919050559250600860008481526020019081526020016000209150828260000181905550858260010160006101000a81548173ffffffffffffffffffffffffffffffffffffffff021916908373ffffffffffffffffffffffffffffffffffffffff16021790555084826002019080519060200190610c83929190611c06565b5083826003019080519060200190610c9c929190611c86565b5060028260050160006101000a81548160ff02191690836004811115610cbe57fe5b021790555060098054806001018281610cd79190611d35565b916000526020600020900160008590919091505550600460008773ffffffffffffffffffffffffffffffffffffffff1673ffffffffffffffffffffffffffffffffffffffff1681526020019081526020016000209050806002018054806001018281610d439190611d35565b916000526020600020900160008590919091505550505050505050565b610d68611d61565b610d70611d75565b6000610d7a611d89565b600260008673ffffffffffffffffffffffffffffffffffffffff1673ffffffffffffffffffffffffffffffffffffffff168152602001908152602001600020608060405190810160405290816000820160009054906101000a900473ffffffffffffffffffffffffffffffffffffffff1673ffffffffffffffffffffffffffffffffffffffff1673ffffffffffffffffffffffffffffffffffffffff168152602001600182018054600181600116156101000203166002900480601f016020809104026020016040519081016040528092919081815260200182805460018160011615610100020316600290048015610eb45780601f10610e8957610100808354040283529160200191610eb4565b820191906000526020600020905b815481529060010190602001808311610e9757829003601f168201915b5050505050815260200160028201805480602002602001604051908101604052809291908181526020018280548015610f0c57602002820191906000526020600020905b815481526020019060010190808311610ef8575b505050505081526020016003820160009054906101000a900460ff166004811115610f3357fe5b6004811115610f3e57fe5b815250509050806020015181604001518260600151829250819150935093509350509193909250565b610f6f611d75565b6009805480602002602001604051908101604052809291908181526020018280548015610fbb57602002820191906000526020600020905b815481526020019060010190808311610fa7575b5050505050905090565b6000600460008473ffffffffffffffffffffffffffffffffffffffff1673ffffffffffffffffffffffffffffffffffffffff1681526020019081526020016000209050828160000160006101000a81548173ffffffffffffffffffffffffffffffffffffffff021916908373ffffffffffffffffffffffffffffffffffffffff16021790555081816001019080519060200190611063929190611c06565b5060008160030160006101000a81548160ff0219169083600481111561108557fe5b02179055506005805480600101828161109e9190611ddf565b9160005260206000209001600085909190916101000a81548173ffffffffffffffffffffffffffffffffffffffff021916908373ffffffffffffffffffffffffffffffffffffffff16021790555050505050565b6110fa611e0b565b600580548060200260200160405190810160405280929190818152602001828054801561117c57602002820191906000526020600020905b8160009054906101000a900473ffffffffffffffffffffffffffffffffffffffff1673ffffffffffffffffffffffffffffffffffffffff1681526020019060010190808311611132575b5050505050905090565b61118e611d61565b611196611d75565b60006111a0611e1f565b600460008673ffffffffffffffffffffffffffffffffffffffff1673ffffffffffffffffffffffffffffffffffffffff168152602001908152602001600020608060405190810160405290816000820160009054906101000a900473ffffffffffffffffffffffffffffffffffffffff1673ffffffffffffffffffffffffffffffffffffffff1673ffffffffffffffffffffffffffffffffffffffff168152602001600182018054600181600116156101000203166002900480601f0160208091040260200160405190810160405280929190818152602001828054600181600116156101000203166002900480156112da5780601f106112af576101008083540402835291602001916112da565b820191906000526020600020905b8154815290600101906020018083116112bd57829003601f168201915b505050505081526020016002820180548060200260200160405190810160405280929190818152602001828054801561133257602002820191906000526020600020905b81548152602001906001019080831161131e575b505050505081526020016003820160009054906101000a900460ff16600481111561135957fe5b600481111561136457fe5b815250509050806020015181604001518260600151829250819150935093509350509193909250565b600033905061139c8183610fc5565b5050565b6113a8611d75565b60078054806020026020016040519081016040528092919081815260200182805480156113f457602002820191906000526020600020905b8154815260200190600101908083116113e0575b5050505050905090565b6000806000806000815480929190600101919050559250600660008481526020019081526020016000209150828260000181905550858260010160006101000a81548173ffffffffffffffffffffffffffffffffffffffff021916908373ffffffffffffffffffffffffffffffffffffffff1602179055508482600201908051906020019061148e929190611c06565b50838260030190805190602001906114a7929190611c86565b5060008260040160006101000a81548160ff021916908360048111156114c957fe5b0217905550600780548060010182816114e29190611d35565b916000526020600020900160008590919091505550600260008773ffffffffffffffffffffffffffffffffffffffff1673ffffffffffffffffffffffffffffffffffffffff168152602001908152602001600020905080600201805480600101828161154e9190611d35565b916000526020600020900160008590919091505550505050505050565b6000600260008473ffffffffffffffffffffffffffffffffffffffff1673ffffffffffffffffffffffffffffffffffffffff1681526020019081526020016000209050828160000160006101000a81548173ffffffffffffffffffffffffffffffffffffffff021916908373ffffffffffffffffffffffffffffffffffffffff16021790555081816001019080519060200190611609929190611c06565b5060008160030160006101000a81548160ff0219169083600481111561162b57fe5b0217905550600380548060010182816116449190611ddf565b9160005260206000209001600085909190916101000a81548173ffffffffffffffffffffffffffffffffffffffff021916908373ffffffffffffffffffffffffffffffffffffffff16021790555050505050565b60006116a2611d61565b6116aa611e75565b6116b2611e0b565b60006116bc611e89565b6008600088815260200190815260200160002060c06040519081016040529081600082015481526020016001820160009054906101000a900473ffffffffffffffffffffffffffffffffffffffff1673ffffffffffffffffffffffffffffffffffffffff1673ffffffffffffffffffffffffffffffffffffffff168152602001600282018054600181600116156101000203166002900480601f0160208091040260200160405190810160405280929190818152602001828054600181600116156101000203166002900480156117d45780601f106117a9576101008083540402835291602001916117d4565b820191906000526020600020905b8154815290600101906020018083116117b757829003601f168201915b505050505081526020016003820180548060200260200160405190810160405280929190818152602001828054801561185a57602002820191906000526020600020906000905b82829054906101000a900460ff16600681111561183457fe5b8152602001906001019060208260000104928301926001038202915080841161181b5790505b50505050508152602001600482018054806020026020016040519081016040528092919081815260200182805480156118e857602002820191906000526020600020905b8160009054906101000a900473ffffffffffffffffffffffffffffffffffffffff1673ffffffffffffffffffffffffffffffffffffffff168152602001906001019080831161189e575b505050505081526020016005820160009054906101000a900460ff16600481111561190f57fe5b600481111561191a57fe5b81525050905080602001518160400151826060015183608001518460a00151839350829250819150955095509550955095505091939590929450565b6000611960611d61565b611968611e75565b6000611972611ef3565b6006600087815260200190815260200160002060a06040519081016040529081600082015481526020016001820160009054906101000a900473ffffffffffffffffffffffffffffffffffffffff1673ffffffffffffffffffffffffffffffffffffffff1673ffffffffffffffffffffffffffffffffffffffff168152602001600282018054600181600116156101000203166002900480601f016020809104026020016040519081016040528092919081815260200182805460018160011615610100020316600290048015611a8a5780601f10611a5f57610100808354040283529160200191611a8a565b820191906000526020600020905b815481529060010190602001808311611a6d57829003601f168201915b5050505050815260200160038201805480602002602001604051908101604052809291908181526020018280548015611b1057602002820191906000526020600020906000905b82829054906101000a900460ff166006811115611aea57fe5b81526020019060010190602082600001049283019260010382029150808411611ad15790505b505050505081526020016004820160009054906101000a900460ff166004811115611b3757fe5b6004811115611b4257fe5b81525050905080602001518160400151826060015183608001518292508191509450945094509450509193509193565b611b7a611e0b565b6003805480602002602001604051908101604052809291908181526020018280548015611bfc57602002820191906000526020600020905b8160009054906101000a900473ffffffffffffffffffffffffffffffffffffffff1673ffffffffffffffffffffffffffffffffffffffff1681526020019060010190808311611bb2575b5050505050905090565b828054600181600116156101000203166002900490600052602060002090601f016020900481019282601f10611c4757805160ff1916838001178555611c75565b82800160010185558215611c75579182015b82811115611c74578251825591602001919060010190611c59565b5b509050611c829190611f50565b5090565b82805482825590600052602060002090601f01602090048101928215611d245791602002820160005b83821115611cf557835183826101000a81548160ff02191690836006811115611cd457fe5b02179055509260200192600101602081600001049283019260010302611caf565b8015611d225782816101000a81549060ff0219169055600101602081600001049283019260010302611cf5565b505b509050611d319190611f75565b5090565b815481835581811511611d5c57818360005260206000209182019101611d5b9190611f50565b5b505050565b602060405190810160405280600081525090565b602060405190810160405280600081525090565b608060405190810160405280600073ffffffffffffffffffffffffffffffffffffffff168152602001611dba611fa5565b8152602001611dc7611fb9565b815260200160006004811115611dd957fe5b81525090565b815481835581811511611e0657818360005260206000209182019101611e059190611f50565b5b505050565b602060405190810160405280600081525090565b608060405190810160405280600073ffffffffffffffffffffffffffffffffffffffff168152602001611e50611fa5565b8152602001611e5d611fb9565b815260200160006004811115611e6f57fe5b81525090565b602060405190810160405280600081525090565b60c06040519081016040528060008152602001600073ffffffffffffffffffffffffffffffffffffffff168152602001611ec1611fa5565b8152602001611ece611fcd565b8152602001611edb611fe1565b815260200160006004811115611eed57fe5b81525090565b60a06040519081016040528060008152602001600073ffffffffffffffffffffffffffffffffffffffff168152602001611f2b611fa5565b8152602001611f38611fcd565b815260200160006004811115611f4a57fe5b81525090565b611f7291905b80821115611f6e576000816000905550600101611f56565b5090565b90565b611fa291905b80821115611f9e57600081816101000a81549060ff021916905550600101611f7b565b5090565b90565b602060405190810160405280600081525090565b602060405190810160405280600081525090565b602060405190810160405280600081525090565b6020604051908101604052806000815250905600a165627a7a723058206b3f8fb7c60624248d19a1917e37ecf03658367b45c0189c8281df117a0546600029",
  "source": "pragma solidity  ^0.4.18;\n\ncontract Market {\n\n    enum Status {ACTIVE, INACTIVE, VACANT, OFFERED, CANCELLED}\n    enum Skill {JAVA, JS, SCALA, KOTLIN, MYSQL, MONGO, OTHER}\n\n    uint profileId = 1;\n    uint jobId = 1;\n\n    mapping (address => Employee) employeeMap;\n    address[] employeeCodes;\n\n    mapping(address => Employer) employerMap;\n    address[] employerCodes;\n\n    mapping(uint => Profile) proileMap;\n    uint[] profileIds;\n\n    mapping(uint => Job) jobMap;\n    uint[] jobIds;\n\n    struct Employee {\n        address code;\n        string name;\n        uint[] profileIds;\n        Status status;\n    }\n\n    struct Employer {\n        address code;\n        string name;\n        uint[] jobIds;\n        Status status;\n    }\n\n    struct Profile {\n        uint id;\n        address employeeCode;\n        string name;\n        Skill[] skills;\n        Status status;\n    }\n\n    struct Job {\n        uint id;\n        address employerCode;\n        string name;\n        Skill[] requiredSkills;\n        address[] appliedEmployeeCodes;\n        Status status;\n    }\n\n\n    function setEmployee(string _name) public {\n        address _address = msg.sender;\n        setEmployeeWithAddress(_address, _name);\n    }\n    function setEmployeeWithAddress(address _address, string _name) public {\n        Employee storage employee = employeeMap[_address];\n        employee.code = _address;\n        employee.name = _name;\n        employee.status = Status.ACTIVE;\n        employeeCodes.push(_address);\n    }\n    function getEmployee(address _address) view public returns(string name, uint[] profileIds, Status status) {\n        Employee memory employee = employeeMap[_address];\n        return(employee.name, employee.profileIds, employee.status);\n    }\n    function getEmployeeCodes() view public returns(address[]) {\n        return employeeCodes;\n    }\n\n\n    function setEmployer(string _name) public {\n        address _address = msg.sender;\n        setEmployerWithAddress(_address, _name);\n    }\n    function setEmployerWithAddress(address _address, string _name) public {\n        Employer storage employer = employerMap[_address];\n        employer.code = _address;\n        employer.name = _name;\n        employer.status = Status.ACTIVE;\n        employerCodes.push(_address);\n    }\n    function getEmployer(address _address) view public returns(string name, uint[] jobIds, Status status) {\n        Employer memory employer = employerMap[_address];\n        return (employer.name, employer.jobIds, employer.status);\n    }\n    function getEmployerCodes() view public returns(address[]) {\n        return employerCodes;\n    }\n\n    function setProfile(string _name, Skill[] _skills) public {\n        address _employeeCode = msg.sender;\n        setProfileWithAddress(_employeeCode, _name, _skills);\n    }\n    function setProfileWithAddress(address _employeeCode, string _name, Skill[] _skills) public {\n        //throw if employee not found\n        uint _id = profileId++;\n        Profile storage profile = proileMap[_id];\n        profile.id = _id;\n        profile.employeeCode = _employeeCode;\n        profile.name = _name;\n        profile.skills = _skills;\n        profile.status = Status.ACTIVE;\n        profileIds.push(_id);\n        Employee storage employee = employeeMap[_employeeCode];\n        employee.profileIds.push(_id);\n    }\n    function getProfile(uint _id) view public returns(address employeeCode, string name, Skill[] skills, Status status) {\n        Profile memory profile = proileMap[_id];\n        return(profile.employeeCode, profile.name, profile.skills, profile.status);\n    }\n    function getProileIds() view public returns(uint[]) {\n        return profileIds;\n    }\n\n    function setJob(string _name, Skill[] _requiredSkills) public {\n        address _employerCode = msg.sender;\n        setJobWithAddress(_employerCode, _name, _requiredSkills);\n    }\n    function setJobWithAddress(address _employerCode, string _name, Skill[] _requiredSkills) public {\n        uint _id = jobId++;\n        Job storage job = jobMap[_id];\n        job.id = _id;\n        job.employerCode = _employerCode;\n        job.name = _name;\n        job.requiredSkills = _requiredSkills;\n        job.status = Status.VACANT;\n        //appliedEmployeeCodes\n        jobIds.push(_id);\n        Employer storage employer = employerMap[_employerCode];\n        employer.jobIds.push(_id);\n    }\n    function getJob(uint _id) view public returns(address employerCode, string name, Skill[] requiredSkills, address[] appliedEmployeeCodes, Status status) {\n        Job memory job = jobMap[_id];\n        return(job.employerCode, job.name, job.requiredSkills, job.appliedEmployeeCodes, job.status);\n    }\n    function getJobIds() view public returns(uint[]) {\n        return jobIds;\n    }\n\n    //test\n    //remix 0xca35b7d915458ef540ade6068dfe2f44e8fa733c, 0x14723a09acff6d2a60dcdf7aa4aff308fddc160c, 0x4b0897b0513fdc7c541b6d9d7e929c4e5364d2db\n\n    // address employeeCode1; // = 0xa30ea249288854c80e1498573c9a844deef264d6;\n    // address employeeCode2; // = 0x13080693728f49c3e15483a84425c2b42edd3444;\n    // address employerCode1; // = 0xe6aaf0e009c677475217c7f30cc3956609603323;\n\n    // function setInitialData(address _ad1, address _ad2, address _ad3) public {\n    //     employeeCode1 = _ad1;\n    //     employeeCode2 = _ad2;\n    //     employerCode1 = _ad3;\n    //     setEmployees();\n    //     setProfiles();\n    //     setEmployers();\n    //     setJobs();\n    // }\n    //\n    // function setEmployees() internal {\n    //     setEmployee(employeeCode1, \"Mr.Smith\");\n    //     setEmployee(employeeCode2, \"Mrs.Smith\");\n    // }\n    //\n    // function setProfiles() internal {\n    //     Skill[] memory skills = new Skill[](2);\n    //     skills[0] = Skill.JAVA;\n    //     skills[1] = Skill.JS;\n    //     setProfile(employeeCode1, 'developerProile', skills);\n    //\n    //     Skill[] memory skills2 = new Skill[](2);\n    //     skills2[0] = Skill.JS;\n    //     skills2[1] = Skill.KOTLIN;\n    //     setProfile(employeeCode2, 'developerProile', skills2);\n    // }\n    //\n    // function setEmployers() internal {\n    //     setEmployer(employerCode1, 'Optimus');\n    //     setEmployer(employeeCode2, 'Maximus');\n    // }\n    //\n    // function setJobs() internal {\n    //     Skill[] memory skills = new Skill[](2);\n    //     skills[0] = Skill.JAVA;\n    //     skills[1] = Skill.MYSQL;\n    //     setJob(employerCode1, 'SE', skills);\n    //\n    //     Skill[] memory skills2 = new Skill[](2);\n    //     skills2[0] = Skill.JS;\n    //     skills2[1] = Skill.MONGO;\n    //     setJob(employerCode1, 'SSE', skills2);\n    // }\n\n}",
  "sourcePath": "/home/jana/projects/yarlIt/Blockchain-JobMarket/contracts/Market.sol",
  "compiler": {
    "name": "solc",
    "version": "0.4.19+commit.c4cbbb05.Emscripten.clang"
  },
  "schemaVersion": "2.0.0",
  "updatedAt": "2018-03-11T21:11:55.114Z"
}