{
  "contractName": "Market",
  "abi": [
    {
      "constant": false,
      "inputs": [
        {
          "name": "_name",
          "type": "string"
        }
      ],
      "name": "setEmployee",
      "outputs": [],
      "payable": false,
      "stateMutability": "nonpayable",
      "type": "function"
    },
    {
      "constant": false,
      "inputs": [
        {
          "name": "_name",
          "type": "string"
        },
        {
          "name": "_requiredSkills",
          "type": "uint8[]"
        }
      ],
      "name": "setJob",
      "outputs": [],
      "payable": false,
      "stateMutability": "nonpayable",
      "type": "function"
    },
    {
      "constant": false,
      "inputs": [
        {
          "name": "_employerCode",
          "type": "address"
        },
        {
          "name": "_name",
          "type": "string"
        },
        {
          "name": "_requiredSkills",
          "type": "uint8[]"
        }
      ],
      "name": "setJobWithAddress",
      "outputs": [],
      "payable": false,
      "stateMutability": "nonpayable",
      "type": "function"
    },
    {
      "constant": true,
      "inputs": [
        {
          "name": "_address",
          "type": "address"
        }
      ],
      "name": "getEmployee",
      "outputs": [
        {
          "name": "",
          "type": "string"
        },
        {
          "name": "",
          "type": "uint256[]"
        },
        {
          "name": "",
          "type": "uint256"
        },
        {
          "name": "",
          "type": "uint8"
        }
      ],
      "payable": false,
      "stateMutability": "view",
      "type": "function"
    },
    {
      "constant": false,
      "inputs": [
        {
          "name": "_address",
          "type": "address"
        },
        {
          "name": "_name",
          "type": "string"
        }
      ],
      "name": "setEmployerWithAddress",
      "outputs": [],
      "payable": false,
      "stateMutability": "nonpayable",
      "type": "function"
    },
    {
      "constant": true,
      "inputs": [],
      "name": "getAllProfileIds",
      "outputs": [
        {
          "name": "ids",
          "type": "uint256[]"
        }
      ],
      "payable": false,
      "stateMutability": "view",
      "type": "function"
    },
    {
      "constant": true,
      "inputs": [],
      "name": "getEmployerCodes",
      "outputs": [
        {
          "name": "",
          "type": "address[]"
        }
      ],
      "payable": false,
      "stateMutability": "view",
      "type": "function"
    },
    {
      "constant": true,
      "inputs": [
        {
          "name": "_uint",
          "type": "uint256"
        }
      ],
      "name": "uintToSkill",
      "outputs": [
        {
          "name": "skill",
          "type": "string"
        }
      ],
      "payable": false,
      "stateMutability": "pure",
      "type": "function"
    },
    {
      "constant": false,
      "inputs": [
        {
          "name": "_jobId",
          "type": "uint256"
        }
      ],
      "name": "updateJobAppliedEmployees",
      "outputs": [],
      "payable": false,
      "stateMutability": "nonpayable",
      "type": "function"
    },
    {
      "constant": false,
      "inputs": [],
      "name": "testSetInitialData",
      "outputs": [],
      "payable": false,
      "stateMutability": "nonpayable",
      "type": "function"
    },
    {
      "constant": true,
      "inputs": [
        {
          "name": "_address",
          "type": "address"
        }
      ],
      "name": "getEmployer",
      "outputs": [
        {
          "name": "name",
          "type": "string"
        },
        {
          "name": "jobIds",
          "type": "uint256[]"
        },
        {
          "name": "status",
          "type": "uint8"
        }
      ],
      "payable": false,
      "stateMutability": "view",
      "type": "function"
    },
    {
      "constant": false,
      "inputs": [
        {
          "name": "_name",
          "type": "string"
        },
        {
          "name": "_skills",
          "type": "uint8[]"
        },
        {
          "name": "_cvHash",
          "type": "string"
        },
        {
          "name": "_defaultProfile",
          "type": "bool"
        }
      ],
      "name": "setProfile",
      "outputs": [],
      "payable": false,
      "stateMutability": "nonpayable",
      "type": "function"
    },
    {
      "constant": true,
      "inputs": [],
      "name": "getAllJobIds",
      "outputs": [
        {
          "name": "postedJobIds",
          "type": "uint256[]"
        }
      ],
      "payable": false,
      "stateMutability": "view",
      "type": "function"
    },
    {
      "constant": true,
      "inputs": [
        {
          "name": "_profileId",
          "type": "uint256"
        }
      ],
      "name": "findJobsByProfile",
      "outputs": [
        {
          "name": "matchingIds",
          "type": "uint256[]"
        }
      ],
      "payable": false,
      "stateMutability": "view",
      "type": "function"
    },
    {
      "constant": false,
      "inputs": [
        {
          "name": "_name",
          "type": "string"
        }
      ],
      "name": "setEmployer",
      "outputs": [],
      "payable": false,
      "stateMutability": "nonpayable",
      "type": "function"
    },
    {
      "constant": true,
      "inputs": [],
      "name": "findJobsByEmployee",
      "outputs": [
        {
          "name": "",
          "type": "uint256[]"
        }
      ],
      "payable": false,
      "stateMutability": "view",
      "type": "function"
    },
    {
      "constant": false,
      "inputs": [
        {
          "name": "_employeeCode",
          "type": "address"
        },
        {
          "name": "_name",
          "type": "string"
        },
        {
          "name": "_skills",
          "type": "uint8[]"
        },
        {
          "name": "_cvHash",
          "type": "string"
        },
        {
          "name": "_defaultProfile",
          "type": "bool"
        }
      ],
      "name": "setProfileWithAddress",
      "outputs": [],
      "payable": false,
      "stateMutability": "nonpayable",
      "type": "function"
    },
    {
      "constant": false,
      "inputs": [
        {
          "name": "_address",
          "type": "address"
        },
        {
          "name": "_name",
          "type": "string"
        }
      ],
      "name": "setEmployeeWithAddress",
      "outputs": [],
      "payable": false,
      "stateMutability": "nonpayable",
      "type": "function"
    },
    {
      "constant": true,
      "inputs": [
        {
          "name": "_id",
          "type": "uint256"
        }
      ],
      "name": "getJob",
      "outputs": [
        {
          "name": "",
          "type": "address"
        },
        {
          "name": "",
          "type": "string"
        },
        {
          "name": "",
          "type": "uint8[]"
        },
        {
          "name": "",
          "type": "address[]"
        },
        {
          "name": "",
          "type": "uint8"
        }
      ],
      "payable": false,
      "stateMutability": "view",
      "type": "function"
    },
    {
      "constant": true,
      "inputs": [
        {
          "name": "_jobId",
          "type": "uint256"
        }
      ],
      "name": "findEmployeeProfilesByJob",
      "outputs": [
        {
          "name": "matchingProfiles",
          "type": "uint256[]"
        }
      ],
      "payable": false,
      "stateMutability": "view",
      "type": "function"
    },
    {
      "constant": true,
      "inputs": [
        {
          "name": "_skill",
          "type": "uint8"
        }
      ],
      "name": "findJobsBySkill",
      "outputs": [
        {
          "name": "matchingIds",
          "type": "uint256[]"
        }
      ],
      "payable": false,
      "stateMutability": "view",
      "type": "function"
    },
    {
      "constant": true,
      "inputs": [
        {
          "name": "_id",
          "type": "uint256"
        }
      ],
      "name": "getProfile",
      "outputs": [
        {
          "name": "",
          "type": "address"
        },
        {
          "name": "",
          "type": "string"
        },
        {
          "name": "",
          "type": "uint8[]"
        },
        {
          "name": "",
          "type": "string"
        },
        {
          "name": "",
          "type": "uint8"
        }
      ],
      "payable": false,
      "stateMutability": "view",
      "type": "function"
    },
    {
      "constant": true,
      "inputs": [],
      "name": "getEmployeeCodes",
      "outputs": [
        {
          "name": "codes",
          "type": "address[]"
        }
      ],
      "payable": false,
      "stateMutability": "view",
      "type": "function"
    }
  ],
  "bytecode": "0x6060604052600160005560018055341561001857600080fd5b61373f806100276000396000f300606060405260043610610133576000357c0100000000000000000000000000000000000000000000000000000000900463ffffffff16806310f4c59714610138578063124e84e6146101955780632dd46cf71461023257806332648e09146102ee5780634ed4a297146104045780635f317ace14610480578063633e0c23146104ea578063689943b0146105545780636df89ff7146105f0578063701486c9146106135780637560d4ce146106285780637c2911d91461073757806388c8837f1461082257806389fbc0c21461088c5780638f778bb9146109045780639a76affa14610961578063ae3887c2146109cb578063b06a90d014610ad5578063bf22c45714610b51578063d1678e6a14610cc5578063dbe98dda14610d3d578063f08f4f6414610db8578063ff66aa6214610f50575b600080fd5b341561014357600080fd5b610193600480803590602001908201803590602001908080601f01602080910402602001604051908101604052809392919081815260200183838082843782019150505050505091905050610fba565b005b34156101a057600080fd5b610230600480803590602001908201803590602001908080601f0160208091040260200160405190810160405280939291908181526020018383808284378201915050505050509190803590602001908201803590602001908080602002602001604051908101604052809392919081815260200183836020028082843782019150505050505091905050610fcd565b005b341561023d57600080fd5b6102ec600480803573ffffffffffffffffffffffffffffffffffffffff1690602001909190803590602001908201803590602001908080601f0160208091040260200160405190810160405280939291908181526020018383808284378201915050505050509190803590602001908201803590602001908080602002602001604051908101604052809392919081815260200183836020028082843782019150505050505091905050610fe2565b005b34156102f957600080fd5b610325600480803573ffffffffffffffffffffffffffffffffffffffff16906020019091905050611150565b60405180806020018060200185815260200184600481111561034357fe5b60ff168152602001838103835287818151815260200191508051906020019080838360005b83811015610383578082015181840152602081019050610368565b50505050905090810190601f1680156103b05780820380516001836020036101000a031916815260200191505b50838103825286818151815260200191508051906020019060200280838360005b838110156103ec5780820151818401526020810190506103d1565b50505050905001965050505050505060405180910390f35b341561040f57600080fd5b61047e600480803573ffffffffffffffffffffffffffffffffffffffff1690602001909190803590602001908201803590602001908080601f01602080910402602001604051908101604052809392919081815260200183838082843782019150505050505091905050611369565b005b341561048b57600080fd5b610493611496565b6040518080602001828103825283818151815260200191508051906020019060200280838360005b838110156104d65780820151818401526020810190506104bb565b505050509050019250505060405180910390f35b34156104f557600080fd5b6104fd6114f4565b6040518080602001828103825283818151815260200191508051906020019060200280838360005b83811015610540578082015181840152602081019050610525565b505050509050019250505060405180910390f35b341561055f57600080fd5b6105756004808035906020019091905050611588565b6040518080602001828103825283818151815260200191508051906020019080838360005b838110156105b557808201518184015260208101905061059a565b50505050905090810190601f1680156105e25780820380516001836020036101000a031916815260200191505b509250505060405180910390f35b34156105fb57600080fd5b6106116004808035906020019091905050611670565b005b341561061e57600080fd5b6106266116f0565b005b341561063357600080fd5b61065f600480803573ffffffffffffffffffffffffffffffffffffffff1690602001909190505061190a565b60405180806020018060200184600481111561067757fe5b60ff168152602001838103835286818151815260200191508051906020019080838360005b838110156106b757808201518184015260208101905061069c565b50505050905090810190601f1680156106e45780820380516001836020036101000a031916815260200191505b50838103825285818151815260200191508051906020019060200280838360005b83811015610720578082015181840152602081019050610705565b505050509050019550505050505060405180910390f35b341561074257600080fd5b610820600480803590602001908201803590602001908080601f016020809104026020016040519081016040528093929190818152602001838380828437820191505050505050919080359060200190820180359060200190808060200260200160405190810160405280939291908181526020018383602002808284378201915050505050509190803590602001908201803590602001908080601f016020809104026020016040519081016040528093929190818152602001838380828437820191505050505050919080351515906020019091905050611b11565b005b341561082d57600080fd5b610835611b2a565b6040518080602001828103825283818151815260200191508051906020019060200280838360005b8381101561087857808201518184015260208101905061085d565b505050509050019250505060405180910390f35b341561089757600080fd5b6108ad6004808035906020019091905050611b88565b6040518080602001828103825283818151815260200191508051906020019060200280838360005b838110156108f05780820151818401526020810190506108d5565b505050509050019250505060405180910390f35b341561090f57600080fd5b61095f600480803590602001908201803590602001908080601f01602080910402602001604051908101604052809392919081815260200183838082843782019150505050505091905050611fc8565b005b341561096c57600080fd5b610974611fdb565b6040518080602001828103825283818151815260200191508051906020019060200280838360005b838110156109b757808201518184015260208101905061099c565b505050509050019250505060405180910390f35b34156109d657600080fd5b610ad3600480803573ffffffffffffffffffffffffffffffffffffffff1690602001909190803590602001908201803590602001908080601f016020809104026020016040519081016040528093929190818152602001838380828437820191505050505050919080359060200190820180359060200190808060200260200160405190810160405280939291908181526020018383602002808284378201915050505050509190803590602001908201803590602001908080601f016020809104026020016040519081016040528093929190818152602001838380828437820191505050505050919080351515906020019091905050612460565b005b3415610ae057600080fd5b610b4f600480803573ffffffffffffffffffffffffffffffffffffffff1690602001909190803590602001908201803590602001908080601f016020809104026020016040519081016040528093929190818152602001838380828437820191505050505050919050506125f8565b005b3415610b5c57600080fd5b610b726004808035906020019091905050612725565b604051808673ffffffffffffffffffffffffffffffffffffffff1673ffffffffffffffffffffffffffffffffffffffff168152602001806020018060200180602001856004811115610bc057fe5b60ff168152602001848103845288818151815260200191508051906020019080838360005b83811015610c00578082015181840152602081019050610be5565b50505050905090810190601f168015610c2d5780820380516001836020036101000a031916815260200191505b50848103835287818151815260200191508051906020019060200280838360005b83811015610c69578082015181840152602081019050610c4e565b50505050905001848103825286818151815260200191508051906020019060200280838360005b83811015610cab578082015181840152602081019050610c90565b505050509050019850505050505050505060405180910390f35b3415610cd057600080fd5b610ce660048080359060200190919050506129e3565b6040518080602001828103825283818151815260200191508051906020019060200280838360005b83811015610d29578082015181840152602081019050610d0e565b505050509050019250505060405180910390f35b3415610d4857600080fd5b610d61600480803560ff16906020019091905050612c45565b6040518080602001828103825283818151815260200191508051906020019060200280838360005b83811015610da4578082015181840152602081019050610d89565b505050509050019250505060405180910390f35b3415610dc357600080fd5b610dd96004808035906020019091905050612faa565b604051808673ffffffffffffffffffffffffffffffffffffffff1673ffffffffffffffffffffffffffffffffffffffff168152602001806020018060200180602001856004811115610e2757fe5b60ff168152602001848103845288818151815260200191508051906020019080838360005b83811015610e67578082015181840152602081019050610e4c565b50505050905090810190601f168015610e945780820380516001836020036101000a031916815260200191505b50848103835287818151815260200191508051906020019060200280838360005b83811015610ed0578082015181840152602081019050610eb5565b50505050905001848103825286818151815260200191508051906020019080838360005b83811015610f0f578082015181840152602081019050610ef4565b50505050905090810190601f168015610f3c5780820380516001836020036101000a031916815260200191505b509850505050505050505060405180910390f35b3415610f5b57600080fd5b610f6361327c565b6040518080602001828103825283818151815260200191508051906020019060200280838360005b83811015610fa6578082015181840152602081019050610f8b565b505050509050019250505060405180910390f35b6000339050610fc981836125f8565b5050565b6000339050610fdd818484610fe2565b505050565b600080600060016000815480929190600101919050559250600860008481526020019081526020016000209150828260000181905550858260010160006101000a81548173ffffffffffffffffffffffffffffffffffffffff021916908373ffffffffffffffffffffffffffffffffffffffff16021790555084826002019080519060200190611073929190613310565b508382600301908051906020019061108c929190613390565b5060028260050160006101000a81548160ff021916908360048111156110ae57fe5b0217905550600980548060010182816110c7919061343f565b916000526020600020900160008590919091505550600460008773ffffffffffffffffffffffffffffffffffffffff1673ffffffffffffffffffffffffffffffffffffffff1681526020019081526020016000209050806002018054806001018281611133919061343f565b916000526020600020900160008590919091505550505050505050565b61115861346b565b61116061347f565b60008061116b613493565b600260008773ffffffffffffffffffffffffffffffffffffffff1673ffffffffffffffffffffffffffffffffffffffff16815260200190815260200160002060a060405190810160405290816000820160009054906101000a900473ffffffffffffffffffffffffffffffffffffffff1673ffffffffffffffffffffffffffffffffffffffff1673ffffffffffffffffffffffffffffffffffffffff168152602001600182018054600181600116156101000203166002900480601f0160208091040260200160405190810160405280929190818152602001828054600181600116156101000203166002900480156112a55780601f1061127a576101008083540402835291602001916112a5565b820191906000526020600020905b81548152906001019060200180831161128857829003601f168201915b50505050508152602001600282018054806020026020016040519081016040528092919081815260200182805480156112fd57602002820191906000526020600020905b8154815260200190600101908083116112e9575b50505050508152602001600382015481526020016004820160009054906101000a900460ff16600481111561132e57fe5b600481111561133957fe5b81525050905080602001518160400151826060015183608001518393508292509450945094509450509193509193565b6000600460008473ffffffffffffffffffffffffffffffffffffffff1673ffffffffffffffffffffffffffffffffffffffff1681526020019081526020016000209050828160000160006101000a81548173ffffffffffffffffffffffffffffffffffffffff021916908373ffffffffffffffffffffffffffffffffffffffff16021790555081816001019080519060200190611407929190613310565b5060008160030160006101000a81548160ff0219169083600481111561142957fe5b02179055506005805480600101828161144291906134f0565b9160005260206000209001600085909190916101000a81548173ffffffffffffffffffffffffffffffffffffffff021916908373ffffffffffffffffffffffffffffffffffffffff16021790555050505050565b61149e61347f565b60078054806020026020016040519081016040528092919081815260200182805480156114ea57602002820191906000526020600020905b8154815260200190600101908083116114d6575b5050505050905090565b6114fc61351c565b600580548060200260200160405190810160405280929190818152602001828054801561157e57602002820191906000526020600020905b8160009054906101000a900473ffffffffffffffffffffffffffffffffffffffff1673ffffffffffffffffffffffffffffffffffffffff1681526020019060010190808311611534575b5050505050905090565b61159061346b565b6000600681111561159d57fe5b8214156115e1576040805190810160405280600481526020017f4a41564100000000000000000000000000000000000000000000000000000000815250905061166b565b600160068111156115ee57fe5b821415611632576040805190810160405280600281526020017f4a53000000000000000000000000000000000000000000000000000000000000815250905061166b565b6040805190810160405280600581526020017f4d4f4e474f00000000000000000000000000000000000000000000000000000081525090505b919050565b600060086000838152602001908152602001600020905080600401805480600101828161169d91906134f0565b9160005260206000209001600033909190916101000a81548173ffffffffffffffffffffffffffffffffffffffff021916908373ffffffffffffffffffffffffffffffffffffffff160217905550505050565b6000806000806116fe613530565b611706613530565b735f0e611dbcb5a4a1dc8ec4c7e1a02a8eb60182f3955073cea3b456c72dae97a256199c24dab28fb4863ed194507338921ab62710300785722cfc538b3cabefb12845935073da93fc20797a06d7273335788a4914a89d3bedaf925060026040518059106117715750595b90808252806020026020018201604052509150600082600081518110151561179557fe5b9060200190602002019060068111156117aa57fe5b908160068111156117b757fe5b8152505060028260018151811015156117cc57fe5b9060200190602002019060068111156117e157fe5b908160068111156117ee57fe5b8152505060026040518059106118015750595b90808252806020026020018201604052509050600181600081518110151561182557fe5b90602001906020020190600681111561183a57fe5b9081600681111561184757fe5b81525050600381600181518110151561185c57fe5b90602001906020020190600681111561187157fe5b9081600681111561187e57fe5b815250506118c2846040805190810160405280600281526020017f6a3100000000000000000000000000000000000000000000000000000000000081525084610fe2565b611902846040805190810160405280600281526020017f6a3200000000000000000000000000000000000000000000000000000000000081525084610fe2565b505050505050565b61191261346b565b61191a61347f565b6000611924613544565b600460008673ffffffffffffffffffffffffffffffffffffffff1673ffffffffffffffffffffffffffffffffffffffff168152602001908152602001600020608060405190810160405290816000820160009054906101000a900473ffffffffffffffffffffffffffffffffffffffff1673ffffffffffffffffffffffffffffffffffffffff1673ffffffffffffffffffffffffffffffffffffffff168152602001600182018054600181600116156101000203166002900480601f016020809104026020016040519081016040528092919081815260200182805460018160011615610100020316600290048015611a5e5780601f10611a3357610100808354040283529160200191611a5e565b820191906000526020600020905b815481529060010190602001808311611a4157829003601f168201915b5050505050815260200160028201805480602002602001604051908101604052809291908181526020018280548015611ab657602002820191906000526020600020905b815481526020019060010190808311611aa2575b505050505081526020016003820160009054906101000a900460ff166004811115611add57fe5b6004811115611ae857fe5b815250509050806020015181604001518260600151829250819150935093509350509193909250565b6000339050611b238186868686612460565b5050505050565b611b3261347f565b6009805480602002602001604051908101604052809291908181526020018280548015611b7e57602002820191906000526020600020905b815481526020019060010190808311611b6a575b5050505050905090565b611b9061347f565b6000611b9a613530565b611ba261347f565b600080600080611bb061359a565b611bb8613530565b60008060018054039a50600660008e8152602001908152602001600020600401805480602002602001604051908101604052809291908181526020018280548015611c5057602002820191906000526020600020906000905b82829054906101000a900460ff166006811115611c2a57fe5b81526020019060010190602082600001049283019260010382029150808411611c115790505b505050505099508a8a5102604051805910611c685750595b9080825280602002602001820160405250985060009750600096505b8951871015611fb5578987815181101515611c9b57fe5b906020019060200201519550600194505b8a85111515611fa8576008600086815260200190815260200160002060c06040519081016040529081600082015481526020016001820160009054906101000a900473ffffffffffffffffffffffffffffffffffffffff1673ffffffffffffffffffffffffffffffffffffffff1673ffffffffffffffffffffffffffffffffffffffff168152602001600282018054600181600116156101000203166002900480601f016020809104026020016040519081016040528092919081815260200182805460018160011615610100020316600290048015611dcd5780601f10611da257610100808354040283529160200191611dcd565b820191906000526020600020905b815481529060010190602001808311611db057829003601f168201915b5050505050815260200160038201805480602002602001604051908101604052809291908181526020018280548015611e5357602002820191906000526020600020906000905b82829054906101000a900460ff166006811115611e2d57fe5b81526020019060010190602082600001049283019260010382029150808411611e145790505b5050505050815260200160048201805480602002602001604051908101604052809291908181526020018280548015611ee157602002820191906000526020600020905b8160009054906101000a900473ffffffffffffffffffffffffffffffffffffffff1673ffffffffffffffffffffffffffffffffffffffff1681526020019060010190808311611e97575b505050505081526020016005820160009054906101000a900460ff166004811115611f0857fe5b6004811115611f1357fe5b81525050935083606001519250600091505b8251821015611f9b578282815181101515611f3c57fe5b906020019060200201519050806006811115611f5457fe5b866006811115611f6057fe5b1415611f8e57848989806001019a50815181101515611f7b57fe5b9060200190602002018181525050611f9b565b8180600101925050611f25565b8480600101955050611cac565b8680600101975050611c84565b889b505050505050505050505050919050565b6000339050611fd78183611369565b5050565b611fe361347f565b600080611fee613530565b611ff661347f565b60008060008061200461359a565b61200c613530565b600080600260003373ffffffffffffffffffffffffffffffffffffffff1673ffffffffffffffffffffffffffffffffffffffff168152602001908152602001600020600301549b5060018054039a50600660008d81526020019081526020016000206004018054806020026020016040519081016040528092919081815260200182805480156120e957602002820191906000526020600020906000905b82829054906101000a900460ff1660068111156120c357fe5b815260200190600101906020826000010492830192600103820291508084116120aa5790505b505050505099508a8a51026040518059106121015750595b9080825280602002602001820160405250985060009750600096505b895187101561244e57898781518110151561213457fe5b906020019060200201519550600194505b8a85111515612441576008600086815260200190815260200160002060c06040519081016040529081600082015481526020016001820160009054906101000a900473ffffffffffffffffffffffffffffffffffffffff1673ffffffffffffffffffffffffffffffffffffffff1673ffffffffffffffffffffffffffffffffffffffff168152602001600282018054600181600116156101000203166002900480601f0160208091040260200160405190810160405280929190818152602001828054600181600116156101000203166002900480156122665780601f1061223b57610100808354040283529160200191612266565b820191906000526020600020905b81548152906001019060200180831161224957829003601f168201915b50505050508152602001600382018054806020026020016040519081016040528092919081815260200182805480156122ec57602002820191906000526020600020906000905b82829054906101000a900460ff1660068111156122c657fe5b815260200190600101906020826000010492830192600103820291508084116122ad5790505b505050505081526020016004820180548060200260200160405190810160405280929190818152602001828054801561237a57602002820191906000526020600020905b8160009054906101000a900473ffffffffffffffffffffffffffffffffffffffff1673ffffffffffffffffffffffffffffffffffffffff1681526020019060010190808311612330575b505050505081526020016005820160009054906101000a900460ff1660048111156123a157fe5b60048111156123ac57fe5b81525050935083606001519250600091505b82518210156124345782828151811015156123d557fe5b9060200190602002015190508060068111156123ed57fe5b8660068111156123f957fe5b141561242757848989806001019a5081518110151561241457fe5b9060200190602002018181525050612434565b81806001019250506123be565b8480600101955050612145565b868060010197505061211d565b889c5050505050505050505050505090565b6000806000806000815480929190600101919050559250600660008481526020019081526020016000209150828260000181905550878260010160006101000a81548173ffffffffffffffffffffffffffffffffffffffff021916908373ffffffffffffffffffffffffffffffffffffffff160217905550868260020190805190602001906124f0929190613310565b5085826004019080519060200190612509929190613390565b5084826003019080519060200190612522929190613310565b5060008260050160006101000a81548160ff0219169083600481111561254457fe5b02179055506007805480600101828161255d919061343f565b916000526020600020900160008590919091505550600260008973ffffffffffffffffffffffffffffffffffffffff1673ffffffffffffffffffffffffffffffffffffffff16815260200190815260200160002090508060020180548060010182816125c9919061343f565b91600052602060002090016000859091909150555083156125ee578281600301819055505b5050505050505050565b6000600260008473ffffffffffffffffffffffffffffffffffffffff1673ffffffffffffffffffffffffffffffffffffffff1681526020019081526020016000209050828160000160006101000a81548173ffffffffffffffffffffffffffffffffffffffff021916908373ffffffffffffffffffffffffffffffffffffffff16021790555081816001019080519060200190612696929190613310565b5060008160040160006101000a81548160ff021916908360048111156126b857fe5b0217905550600380548060010182816126d191906134f0565b9160005260206000209001600085909190916101000a81548173ffffffffffffffffffffffffffffffffffffffff021916908373ffffffffffffffffffffffffffffffffffffffff16021790555050505050565b600061272f61346b565b612737613530565b61273f61351c565b600061274961359a565b6008600088815260200190815260200160002060c06040519081016040529081600082015481526020016001820160009054906101000a900473ffffffffffffffffffffffffffffffffffffffff1673ffffffffffffffffffffffffffffffffffffffff1673ffffffffffffffffffffffffffffffffffffffff168152602001600282018054600181600116156101000203166002900480601f0160208091040260200160405190810160405280929190818152602001828054600181600116156101000203166002900480156128615780601f1061283657610100808354040283529160200191612861565b820191906000526020600020905b81548152906001019060200180831161284457829003601f168201915b50505050508152602001600382018054806020026020016040519081016040528092919081815260200182805480156128e757602002820191906000526020600020906000905b82829054906101000a900460ff1660068111156128c157fe5b815260200190600101906020826000010492830192600103820291508084116128a85790505b505050505081526020016004820180548060200260200160405190810160405280929190818152602001828054801561297557602002820191906000526020600020905b8160009054906101000a900473ffffffffffffffffffffffffffffffffffffffff1673ffffffffffffffffffffffffffffffffffffffff168152602001906001019080831161292b575b505050505081526020016005820160009054906101000a900460ff16600481111561299c57fe5b60048111156129a757fe5b81525050905080602001518160400151826060015183608001518460a00151839350829250819150955095509550955095505091939590929450565b6129eb61347f565b60006129f5613530565b6129fd61347f565b600080600080612a0b613530565b6000806001600054039950600860008d8152602001908152602001600020600301805480602002602001604051908101604052809291908181526020018280548015612aa457602002820191906000526020600020906000905b82829054906101000a900460ff166006811115612a7e57fe5b81526020019060010190602082600001049283019260010382029150808411612a655790505b5050505050985088518a02604051805910612abc5750595b9080825280602002602001820160405250975060009650600095505b8851861015612c33578886815181101515612aef57fe5b906020019060200201519450600193505b8984111515612c265760066000858152602001908152602001600020600401805480602002602001604051908101604052809291908181526020018280548015612b9757602002820191906000526020600020906000905b82829054906101000a900460ff166006811115612b7157fe5b81526020019060010190602082600001049283019260010382029150808411612b585790505b50505050509250600091505b8251821015612c19578282815181101515612bba57fe5b906020019060200201519050846006811115612bd257fe5b816006811115612bde57fe5b1415612c0c57838888806001019950815181101515612bf957fe5b9060200190602002018181525050612c19565b8180600101925050612ba3565b8380600101945050612b00565b8580600101965050612ad8565b879a5050505050505050505050919050565b612c4d61347f565b6000612c5761347f565b600080612c6261359a565b612c6a613530565b6000806001805403975087604051805910612c825750595b9080825280602002602001820160405250965060009550600194505b8785111515612f9a576008600086815260200190815260200160002060c06040519081016040529081600082015481526020016001820160009054906101000a900473ffffffffffffffffffffffffffffffffffffffff1673ffffffffffffffffffffffffffffffffffffffff1673ffffffffffffffffffffffffffffffffffffffff168152602001600282018054600181600116156101000203166002900480601f016020809104026020016040519081016040528092919081815260200182805460018160011615610100020316600290048015612dbf5780601f10612d9457610100808354040283529160200191612dbf565b820191906000526020600020905b815481529060010190602001808311612da257829003601f168201915b5050505050815260200160038201805480602002602001604051908101604052809291908181526020018280548015612e4557602002820191906000526020600020906000905b82829054906101000a900460ff166006811115612e1f57fe5b81526020019060010190602082600001049283019260010382029150808411612e065790505b5050505050815260200160048201805480602002602001604051908101604052809291908181526020018280548015612ed357602002820191906000526020600020905b8160009054906101000a900473ffffffffffffffffffffffffffffffffffffffff1673ffffffffffffffffffffffffffffffffffffffff1681526020019060010190808311612e89575b505050505081526020016005820160009054906101000a900460ff166004811115612efa57fe5b6004811115612f0557fe5b81525050935083606001519250600091505b8251821015612f8d578282815181101515612f2e57fe5b906020019060200201519050806006811115612f4657fe5b8a6006811115612f5257fe5b1415612f8057848787806001019850815181101515612f6d57fe5b9060200190602002018181525050612f8d565b8180600101925050612f17565b8480600101955050612c9e565b8698505050505050505050919050565b6000612fb461346b565b612fbc613530565b612fc461346b565b6000612fce613604565b6006600088815260200190815260200160002060c06040519081016040529081600082015481526020016001820160009054906101000a900473ffffffffffffffffffffffffffffffffffffffff1673ffffffffffffffffffffffffffffffffffffffff1673ffffffffffffffffffffffffffffffffffffffff168152602001600282018054600181600116156101000203166002900480601f0160208091040260200160405190810160405280929190818152602001828054600181600116156101000203166002900480156130e65780601f106130bb576101008083540402835291602001916130e6565b820191906000526020600020905b8154815290600101906020018083116130c957829003601f168201915b50505050508152602001600382018054600181600116156101000203166002900480601f0160208091040260200160405190810160405280929190818152602001828054600181600116156101000203166002900480156131885780601f1061315d57610100808354040283529160200191613188565b820191906000526020600020905b81548152906001019060200180831161316b57829003601f168201915b505050505081526020016004820180548060200260200160405190810160405280929190818152602001828054801561320e57602002820191906000526020600020906000905b82829054906101000a900460ff1660068111156131e857fe5b815260200190600101906020826000010492830192600103820291508084116131cf5790505b505050505081526020016005820160009054906101000a900460ff16600481111561323557fe5b600481111561324057fe5b81525050905080602001518160400151826080015183606001518460a00151839350829250819150955095509550955095505091939590929450565b61328461351c565b600380548060200260200160405190810160405280929190818152602001828054801561330657602002820191906000526020600020905b8160009054906101000a900473ffffffffffffffffffffffffffffffffffffffff1673ffffffffffffffffffffffffffffffffffffffff16815260200190600101908083116132bc575b5050505050905090565b828054600181600116156101000203166002900490600052602060002090601f016020900481019282601f1061335157805160ff191683800117855561337f565b8280016001018555821561337f579182015b8281111561337e578251825591602001919060010190613363565b5b50905061338c919061366e565b5090565b82805482825590600052602060002090601f0160209004810192821561342e5791602002820160005b838211156133ff57835183826101000a81548160ff021916908360068111156133de57fe5b021790555092602001926001016020816000010492830192600103026133b9565b801561342c5782816101000a81549060ff02191690556001016020816000010492830192600103026133ff565b505b50905061343b9190613693565b5090565b81548183558181151161346657818360005260206000209182019101613465919061366e565b5b505050565b602060405190810160405280600081525090565b602060405190810160405280600081525090565b60a060405190810160405280600073ffffffffffffffffffffffffffffffffffffffff1681526020016134c46136c3565b81526020016134d16136d7565b815260200160008152602001600060048111156134ea57fe5b81525090565b81548183558181151161351757818360005260206000209182019101613516919061366e565b5b505050565b602060405190810160405280600081525090565b602060405190810160405280600081525090565b608060405190810160405280600073ffffffffffffffffffffffffffffffffffffffff1681526020016135756136c3565b81526020016135826136d7565b81526020016000600481111561359457fe5b81525090565b60c06040519081016040528060008152602001600073ffffffffffffffffffffffffffffffffffffffff1681526020016135d26136c3565b81526020016135df6136eb565b81526020016135ec6136ff565b8152602001600060048111156135fe57fe5b81525090565b60c06040519081016040528060008152602001600073ffffffffffffffffffffffffffffffffffffffff16815260200161363c6136c3565b81526020016136496136c3565b81526020016136566136eb565b81526020016000600481111561366857fe5b81525090565b61369091905b8082111561368c576000816000905550600101613674565b5090565b90565b6136c091905b808211156136bc57600081816101000a81549060ff021916905550600101613699565b5090565b90565b602060405190810160405280600081525090565b602060405190810160405280600081525090565b602060405190810160405280600081525090565b6020604051908101604052806000815250905600a165627a7a7230582068979047eaf00ecc7dd8549c67fc2dd23d788ed4ffbfc75e5345954fb40457b00029",
  "source": "pragma solidity  ^0.4.18;\n\ncontract Market {\n\n    enum Status {ACTIVE, INACTIVE, VACANT, OFFERED, CANCELLED}\n    enum Skill {JAVA, JS, MYSQL, MONGO, SCALA, KOTLIN, OTHER}\n\n    uint profileId = 1;\n    uint jobId = 1;\n\n    mapping (address => Employee) employeeMap;\n    address[] employeeCodes;\n\n    mapping(address => Employer) employerMap;\n    address[] employerCodes;\n\n    mapping(uint => Profile) profileMap;\n    uint[] allProfileIds;\n\n    mapping(uint => Job) jobMap;\n    uint[] allJobIds;\n\n    struct Employee {\n        address code;\n        string name;\n        uint[] profileIds;\n        uint defaultProfileId;\n        Status status;\n    }\n\n    struct Employer {\n        address code;\n        string name;\n        uint[] jobIds;\n        Status status;\n    }\n\n    struct Profile {\n        uint id;\n        address employeeCode;\n        string name;\n        string cvHash;\n        Skill[] skills;\n        Status status;\n    }\n\n    struct Job {\n        uint id;\n        address employerCode;\n        string name;\n        Skill[] requiredSkills;\n        address[] appliedEmployeeCodes;\n        Status status;\n    }\n\n\n    function setEmployee(string _name) public {\n        address _address = msg.sender;\n        setEmployeeWithAddress(_address, _name);\n    }\n    function setEmployeeWithAddress(address _address, string _name) public {\n        Employee storage employee = employeeMap[_address];\n        employee.code = _address;\n        employee.name = _name;\n        employee.status = Status.ACTIVE;\n        employeeCodes.push(_address);\n    }\n    function getEmployee(address _address) view public returns(string, uint[], uint, Status) {\n        Employee memory employee = employeeMap[_address];\n        return(employee.name, employee.profileIds, employee.defaultProfileId, employee.status);\n    }\n    function getEmployeeCodes() view public returns(address[] codes) {\n        return employeeCodes;\n    }\n\n\n    function setEmployer(string _name) public {\n        address _address = msg.sender;\n        setEmployerWithAddress(_address, _name);\n    }\n    function setEmployerWithAddress(address _address, string _name) public {\n        Employer storage employer = employerMap[_address];\n        employer.code = _address;\n        employer.name = _name;\n        employer.status = Status.ACTIVE;\n        employerCodes.push(_address);\n    }\n    function getEmployer(address _address) view public returns(string name, uint[] jobIds, Status status) {\n        Employer memory employer = employerMap[_address];\n        return (employer.name, employer.jobIds, employer.status);\n    }\n    function getEmployerCodes() view public returns(address[]) {\n        return employerCodes;\n    }\n\n\n    function setProfile(string _name, Skill[] _skills, string _cvHash, bool _defaultProfile) public {\n            address _employeeCode = msg.sender;\n            setProfileWithAddress(_employeeCode, _name, _skills, _cvHash, _defaultProfile);\n    }\n    function setProfileWithAddress(address _employeeCode, string _name, Skill[] _skills, string _cvHash, bool _defaultProfile) public {\n        //throw if employee not found\n        uint _id = profileId++;\n        Profile storage profile = profileMap[_id];\n        profile.id = _id;\n        profile.employeeCode = _employeeCode;\n        profile.name = _name;\n        profile.skills = _skills;\n        profile.cvHash = _cvHash;\n        profile.status = Status.ACTIVE;\n        allProfileIds.push(_id);\n        Employee storage employee = employeeMap[_employeeCode];\n        employee.profileIds.push(_id);\n        if(_defaultProfile) {\n            employee.defaultProfileId = _id;\n        }\n    }\n    function getProfile(uint _id) view public returns(address, string, Skill[], string, Status) {\n        Profile memory profile = profileMap[_id];\n        return(profile.employeeCode, profile.name, profile.skills, profile.cvHash, profile.status);\n    }\n    function getAllProfileIds() view public returns(uint[] ids) {\n        return allProfileIds;\n    }\n\n    function setJob(string _name, Skill[] _requiredSkills) public {\n        address _employerCode = msg.sender;\n        setJobWithAddress(_employerCode, _name, _requiredSkills);\n    }\n    function setJobWithAddress(address _employerCode, string _name, Skill[] _requiredSkills) public {\n        uint _id = jobId++;\n        Job storage job = jobMap[_id];\n        job.id = _id;\n        job.employerCode = _employerCode;\n        job.name = _name;\n        job.requiredSkills = _requiredSkills;\n        job.status = Status.VACANT;\n        //appliedEmployeeCodes\n        allJobIds.push(_id);\n        Employer storage employer = employerMap[_employerCode];\n        employer.jobIds.push(_id);\n    }\n    function updateJobAppliedEmployees(uint _jobId) public {\n        Job storage job = jobMap[_jobId];\n        job.appliedEmployeeCodes.push(msg.sender);\n    }\n    function getJob(uint _id) view public returns(address, string, Skill[], address[], Status) {\n        Job memory job = jobMap[_id];\n        return(job.employerCode, job.name, job.requiredSkills, job.appliedEmployeeCodes, job.status);\n    }\n    function getAllJobIds() view public returns(uint[] postedJobIds) {\n        return allJobIds;\n    }\n\n    //has duplicates\n    function findEmployeeProfilesByJob(uint _jobId) view public returns(uint[] matchingProfiles) {\n        uint noOfProfiles = profileId -1;\n        Skill[] memory requiredSkills = jobMap[_jobId].requiredSkills;\n        uint[] memory matchingProfileIds = new uint[](noOfProfiles * requiredSkills.length);\n        uint index = 0;\n\n        for(uint r=0; r<requiredSkills.length; r++) {\n            Skill required = requiredSkills[r];\n\n            for(uint p=1; p<=noOfProfiles; p++) {\n\n                Skill[] memory skills = profileMap[p].skills;\n                for(uint s=0; s<skills.length; s++) {\n                    Skill skill = skills[s];\n\n                    if(skill == required) {\n                        matchingProfileIds[index++] = p;\n                        break;\n                    }\n                }\n            }\n        }\n        return matchingProfileIds;\n    }\n\n    function findJobsByEmployee() view public returns(uint[]) {\n        uint defaultProfileId = employeeMap[msg.sender].defaultProfileId;\n        uint noOfJobs = jobId -1;\n        Skill[] memory skills = profileMap[defaultProfileId].skills;\n        uint[] memory matchingJobIds = new uint[](skills.length * noOfJobs);\n        uint index = 0;\n\n        for(uint s=0; s<skills.length; s++) {\n            Skill skill = skills[s];\n\n            for(uint j=1; j<=noOfJobs; j++) {\n                Job memory job = jobMap[j];\n\n                Skill[] memory requiredSkills = job.requiredSkills;\n                for(uint m=0; m<requiredSkills.length; m++) {\n                    Skill required = requiredSkills[m];\n\n                    if(skill == required) {\n                        matchingJobIds[index++] = j;\n                        break;\n                    }\n\n                }\n            }\n\n        }\n\n        return matchingJobIds;\n    }\n\n    //has duplicates\n    function findJobsByProfile(uint _profileId) view public returns(uint[] matchingIds) {\n        uint noOfJobs = jobId -1;\n        Skill[] memory skills = profileMap[_profileId].skills;\n        uint[] memory matchingJobIds = new uint[](skills.length * noOfJobs);\n        uint index = 0;\n\n        for(uint s=0; s<skills.length; s++) {\n            Skill skill = skills[s];\n\n            for(uint j=1; j<=noOfJobs; j++) {\n                Job memory job = jobMap[j];\n\n                Skill[] memory requiredSkills = job.requiredSkills;\n                for(uint m=0; m<requiredSkills.length; m++) {\n                    Skill required = requiredSkills[m];\n\n                    if(skill == required) {\n                        matchingJobIds[index++] = j;\n                        break;\n                    }\n\n                }\n            }\n\n        }\n\n        return matchingJobIds;\n    }\n\n    function findJobsBySkill(Skill _skill) view public returns(uint[] matchingIds) {\n        uint noOfJobs = jobId -1;\n\n        uint[] memory matchingJobIds = new uint[](noOfJobs);\n\n        uint index = 0;\n        for(uint j=1; j<=noOfJobs; j++) {\n            Job memory job = jobMap[j];\n\n            Skill[] memory requiredSkills = job.requiredSkills;\n            for(uint m=0; m<requiredSkills.length; m++) {\n                Skill required = requiredSkills[m];\n\n                if(_skill == required) {\n                    matchingJobIds[index++] = j;\n                    break;\n                }\n\n            }\n        }\n        return matchingJobIds;\n    }\n\n    // function findJobs(uint _profileId) view public returns(uint jobIds) {\n    //     uint[] memory matchingJobIds;\n    //     //uint matchingJobId;\n\n    //     Profile memory profile = profileMap[_profileId];\n    //     Skill[] memory skills = profile.skills;\n\n    //     uint jobCount = 0;\n    //     for(uint s=0; s<skills.length; s++) {\n    //         Skill skill = skills[s];\n\n    //         for(uint j=0; j<allJobIds.length; j++) {\n    //             uint thisJobId = allJobIds[j];\n    //             Job memory job = jobMap[thisJobId];\n\n    //             Skill[] memory requiredSkills = job.requiredSkills;\n    //             for(uint m=0; m<requiredSkills.length; m++) {\n    //                 Skill required = requiredSkills[m];\n\n    //                 if(skill == required) {\n\n    //                     matchingJobId = thisJobId;\n    //                     //matchingJobIds[jobCount++] = thisJobId;\n    //                     //break;\n    //                 }\n\n    //             }\n\n    //         }\n    //     }\n    //     //matchingJobIds[0] = matchingJobId;\n    //     //return matchingJobIds;\n    //     //uint storage x = 11;\n    //     return 11;\n    // }\n\n\n    //test\n    function testSetInitialData() public {\n\n        // testrpc\n        address addressE1 = 0x5f0e611dbcb5a4a1dc8ec4c7e1a02a8eb60182f3;\n        address addressE2 = 0xcea3b456c72dae97a256199c24dab28fb4863ed1;\n        address addressR1 = 0x38921ab62710300785722cfc538b3cabefb12845;\n        address addressR2 = 0xda93fc20797a06d7273335788a4914a89d3bedaf;\n\n        /* remix\n        address addressE1 = 0xca35b7d915458ef540ade6068dfe2f44e8fa733c;\n        address addressE2 = 0x4b0897b0513fdc7c541b6d9d7e929c4e5364d2db;\n        address addressR1 = 0x14723a09acff6d2a60dcdf7aa4aff308fddc160c;\n        address addressR2 = 0x583031d1113ad414f02576bd6afabfb302140225;\n        */\n\n        //setEmployeeWithAddress(addressE1, \"e1\");\n        //setEmployerWithAddress(addressR1, \"r1\");\n\n        Skill[] memory skills1 = new Skill[](2);\n        skills1[0] = Skill.JAVA;\n        skills1[1] = Skill.MYSQL;\n\n        Skill[] memory skills2 = new Skill[](2);\n        skills2[0] = Skill.JS;\n        skills2[1] = Skill.MONGO;\n\n        //setProfileWithAddress(addressE1, \"p1\", skills1);\n        //setProfileWithAddress(addressE1, \"p2\", skills2);\n\n        setJobWithAddress(addressR1, \"j1\", skills1);\n        setJobWithAddress(addressR1, \"j2\", skills1);\n    }\n\n    function uintToSkill(uint _uint) pure public returns(string skill) {\n        if(_uint == uint(Skill.JAVA))\n            return \"JAVA\";\n        if(_uint == uint(Skill.JS))\n            return \"JS\";\n        return \"MONGO\";\n    }\n\n}",
  "sourcePath": "/home/archchitha/Blockchain-JobMarket/contracts/Market.sol",
  "compiler": {
    "name": "solc",
    "version": "0.4.18+commit.9cf6e910.Emscripten.clang"
  },
  "schemaVersion": "1.0.1",
  "updatedAt": "2018-03-26T14:26:14.487Z"
}