{
  "contractName": "Market",
  "abi": [
    {
      "constant": false,
      "inputs": [
        {
          "name": "_address",
          "type": "address"
        },
        {
          "name": "_name",
          "type": "string"
        },
        {
          "name": "_email",
          "type": "string"
        },
        {
          "name": "_phoneNo",
          "type": "string"
        },
        {
          "name": "_statement",
          "type": "string"
        },
        {
          "name": "_rate",
          "type": "string"
        }
      ],
      "name": "setEmployeeWithAddress",
      "outputs": [],
      "payable": false,
      "stateMutability": "nonpayable",
      "type": "function"
    },
    {
      "constant": true,
      "inputs": [
        {
          "name": "_address",
          "type": "address"
        },
        {
          "name": "_name",
          "type": "string"
        },
        {
          "name": "_email",
          "type": "string"
        },
        {
          "name": "_phoneNo",
          "type": "string"
        },
        {
          "name": "_statement",
          "type": "string"
        },
        {
          "name": "_rate",
          "type": "string"
        }
      ],
      "name": "getEmployee",
      "outputs": [
        {
          "name": "",
          "type": "string"
        },
        {
          "name": "",
          "type": "string"
        },
        {
          "name": "",
          "type": "string"
        },
        {
          "name": "",
          "type": "string"
        },
        {
          "name": "",
          "type": "string"
        },
        {
          "name": "",
          "type": "uint256[]"
        },
        {
          "name": "",
          "type": "uint256"
        },
        {
          "name": "",
          "type": "uint8"
        }
      ],
      "payable": false,
      "stateMutability": "view",
      "type": "function"
    },
    {
      "constant": false,
      "inputs": [
        {
          "name": "_address",
          "type": "address"
        },
        {
          "name": "_name",
          "type": "string"
        },
        {
          "name": "_email",
          "type": "string"
        },
        {
          "name": "_company",
          "type": "string"
        },
        {
          "name": "_add",
          "type": "string"
        },
        {
          "name": "_country",
          "type": "string"
        }
      ],
      "name": "setEmployerWithAddress",
      "outputs": [],
      "payable": false,
      "stateMutability": "nonpayable",
      "type": "function"
    },
    {
      "constant": false,
      "inputs": [
        {
          "name": "_name",
          "type": "string"
        },
        {
          "name": "_email",
          "type": "string"
        },
        {
          "name": "_company",
          "type": "string"
        },
        {
          "name": "_add",
          "type": "string"
        },
        {
          "name": "_country",
          "type": "string"
        }
      ],
      "name": "setEmployer",
      "outputs": [
        {
          "name": "",
          "type": "string"
        },
        {
          "name": "",
          "type": "uint256[]"
        },
        {
          "name": "",
          "type": "uint256"
        },
        {
          "name": "",
          "type": "uint8"
        }
      ],
      "payable": false,
      "stateMutability": "nonpayable",
      "type": "function"
    },
    {
      "constant": true,
      "inputs": [
        {
          "name": "_address",
          "type": "address"
        },
        {
          "name": "_name",
          "type": "string"
        }
      ],
      "name": "getAllProfileIds",
      "outputs": [
        {
          "name": "ids",
          "type": "uint256[]"
        }
      ],
      "payable": false,
      "stateMutability": "view",
      "type": "function"
    },
    {
      "constant": true,
      "inputs": [],
      "name": "getEmployerCodes",
      "outputs": [
        {
          "name": "",
          "type": "address[]"
        }
      ],
      "payable": false,
      "stateMutability": "view",
      "type": "function"
    },
    {
      "constant": false,
      "inputs": [
        {
          "name": "_JobTitle",
          "type": "string"
        },
        {
          "name": "_requiredSkills",
          "type": "uint8[]"
        },
        {
          "name": "_hourlyRate",
          "type": "string"
        },
        {
          "name": "_Description",
          "type": "string"
        }
      ],
      "name": "setJob",
      "outputs": [
        {
          "name": "",
          "type": "address[]"
        }
      ],
      "payable": false,
      "stateMutability": "nonpayable",
      "type": "function"
    },
    {
      "constant": true,
      "inputs": [
        {
          "name": "_uint",
          "type": "uint256"
        }
      ],
      "name": "uintToSkill",
      "outputs": [
        {
          "name": "skill",
          "type": "string"
        }
      ],
      "payable": false,
      "stateMutability": "pure",
      "type": "function"
    },
    {
      "constant": false,
      "inputs": [
        {
          "name": "_jobId",
          "type": "uint256"
        }
      ],
      "name": "updateJobAppliedEmployees",
      "outputs": [],
      "payable": false,
      "stateMutability": "nonpayable",
      "type": "function"
    },
    {
      "constant": true,
      "inputs": [
        {
          "name": "_address",
          "type": "address"
        }
      ],
      "name": "getEmployer",
      "outputs": [
        {
          "name": "name",
          "type": "string"
        },
        {
          "name": "email",
          "type": "string"
        },
        {
          "name": "company",
          "type": "string"
        },
        {
          "name": "add",
          "type": "string"
        },
        {
          "name": "country",
          "type": "string"
        },
        {
          "name": "jobIds",
          "type": "uint256[]"
        },
        {
          "name": "status",
          "type": "uint8"
        }
      ],
      "payable": false,
      "stateMutability": "view",
      "type": "function"
    },
    {
      "constant": false,
      "inputs": [
        {
          "name": "_name",
          "type": "string"
        },
        {
          "name": "_skills",
          "type": "uint8[]"
        },
        {
          "name": "_cvHash",
          "type": "string"
        },
        {
          "name": "_defaultProfile",
          "type": "bool"
        }
      ],
      "name": "setProfile",
      "outputs": [
        {
          "name": "name",
          "type": "string"
        },
        {
          "name": "email",
          "type": "string"
        },
        {
          "name": "company",
          "type": "string"
        },
        {
          "name": "add",
          "type": "string"
        },
        {
          "name": "country",
          "type": "string"
        },
        {
          "name": "jobIds",
          "type": "uint256[]"
        },
        {
          "name": "status",
          "type": "uint8"
        }
      ],
      "payable": false,
      "stateMutability": "nonpayable",
      "type": "function"
    },
    {
      "constant": true,
      "inputs": [
        {
          "name": "_name",
          "type": "string"
        },
        {
          "name": "_skills",
          "type": "uint8[]"
        },
        {
          "name": "_cvHash",
          "type": "string"
        },
        {
          "name": "_defaultProfile",
          "type": "bool"
        }
      ],
      "name": "getAllJobIds",
      "outputs": [
        {
          "name": "postedJobIds",
          "type": "uint256[]"
        }
      ],
      "payable": false,
      "stateMutability": "view",
      "type": "function"
    },
    {
      "constant": true,
      "inputs": [
        {
          "name": "_profileId",
          "type": "uint256"
        }
      ],
      "name": "findJobsByProfile",
      "outputs": [
        {
          "name": "matchingIds",
          "type": "uint256[]"
        }
      ],
      "payable": false,
      "stateMutability": "view",
      "type": "function"
    },
    {
      "constant": false,
      "inputs": [
        {
          "name": "_employerCode",
          "type": "address"
        },
        {
          "name": "_JobTitle",
          "type": "string"
        },
        {
          "name": "_requiredSkills",
          "type": "uint8[]"
        },
        {
          "name": "_hourlyRate",
          "type": "string"
        },
        {
          "name": "_Description",
          "type": "string"
        }
      ],
      "name": "setJobWithAddress",
      "outputs": [
        {
          "name": "matchingIds",
          "type": "uint256[]"
        }
      ],
      "payable": false,
      "stateMutability": "nonpayable",
      "type": "function"
    },
    {
      "constant": true,
      "inputs": [
        {
          "name": "_employerCode",
          "type": "address"
        },
        {
          "name": "_JobTitle",
          "type": "string"
        },
        {
          "name": "_requiredSkills",
          "type": "uint8[]"
        },
        {
          "name": "_hourlyRate",
          "type": "string"
        },
        {
          "name": "_Description",
          "type": "string"
        }
      ],
      "name": "findJobsByEmployee",
      "outputs": [
        {
          "name": "",
          "type": "uint256[]"
        }
      ],
      "payable": false,
      "stateMutability": "view",
      "type": "function"
    },
    {
      "constant": false,
      "inputs": [
        {
          "name": "_employeeCode",
          "type": "address"
        },
        {
          "name": "_name",
          "type": "string"
        },
        {
          "name": "_skills",
          "type": "uint8[]"
        },
        {
          "name": "_cvHash",
          "type": "string"
        },
        {
          "name": "_defaultProfile",
          "type": "bool"
        }
      ],
      "name": "setProfileWithAddress",
      "outputs": [
        {
          "name": "",
          "type": "uint256[]"
        }
      ],
      "payable": false,
      "stateMutability": "nonpayable",
      "type": "function"
    },
    {
      "constant": true,
      "inputs": [
        {
          "name": "_id",
          "type": "uint256"
        },
        {
          "name": "_name",
          "type": "string"
        },
        {
          "name": "_skills",
          "type": "uint8[]"
        },
        {
          "name": "_cvHash",
          "type": "string"
        },
        {
          "name": "_defaultProfile",
          "type": "bool"
        }
      ],
      "name": "getJob",
      "outputs": [
        {
          "name": "",
          "type": "address"
        },
        {
          "name": "",
          "type": "string"
        },
        {
          "name": "",
          "type": "uint8[]"
        },
        {
          "name": "",
          "type": "string"
        },
        {
          "name": "",
          "type": "string"
        },
        {
          "name": "",
          "type": "address[]"
        },
        {
          "name": "",
          "type": "uint8"
        }
      ],
      "payable": false,
      "stateMutability": "view",
      "type": "function"
    },
    {
      "constant": false,
      "inputs": [
        {
          "name": "_name",
          "type": "string"
        },
        {
          "name": "_email",
          "type": "string"
        },
        {
          "name": "_phoneNo",
          "type": "string"
        },
        {
          "name": "_statement",
          "type": "string"
        },
        {
          "name": "_rate",
          "type": "string"
        }
      ],
      "name": "setEmployee",
      "outputs": [
        {
          "name": "",
          "type": "address"
        },
        {
          "name": "",
          "type": "string"
        },
        {
          "name": "",
          "type": "uint8[]"
        },
        {
          "name": "",
          "type": "string"
        },
        {
          "name": "",
          "type": "string"
        },
        {
          "name": "",
          "type": "address[]"
        },
        {
          "name": "",
          "type": "uint8"
        }
      ],
      "payable": false,
      "stateMutability": "nonpayable",
      "type": "function"
    },
    {
      "constant": true,
      "inputs": [
        {
          "name": "_jobId",
          "type": "uint256"
        },
        {
          "name": "_email",
          "type": "string"
        },
        {
          "name": "_phoneNo",
          "type": "string"
        },
        {
          "name": "_statement",
          "type": "string"
        },
        {
          "name": "_rate",
          "type": "string"
        }
      ],
      "name": "findEmployeeProfilesByJob",
      "outputs": [
        {
          "name": "matchingProfiles",
          "type": "uint256[]"
        },
        {
          "name": "",
          "type": "string"
        },
        {
          "name": "",
          "type": "uint8[]"
        },
        {
          "name": "",
          "type": "address[]"
        },
        {
          "name": "",
          "type": "uint8"
        }
      ],
      "payable": false,
      "stateMutability": "view",
      "type": "function"
    },
    {
      "constant": true,
      "inputs": [
        {
          "name": "_skill",
          "type": "uint8"
        }
      ],
      "name": "findJobsBySkill",
      "outputs": [
        {
          "name": "matchingIds",
          "type": "uint256[]"
        }
      ],
      "payable": false,
      "stateMutability": "view",
      "type": "function"
    },
    {
      "constant": true,
      "inputs": [
        {
          "name": "_id",
          "type": "uint256"
        }
      ],
      "name": "getProfile",
      "outputs": [
        {
          "name": "",
          "type": "address"
        },
        {
          "name": "",
          "type": "string"
        },
        {
          "name": "",
          "type": "uint8[]"
        },
        {
          "name": "",
          "type": "string"
        },
        {
          "name": "",
          "type": "uint8"
        }
      ],
      "payable": false,
      "stateMutability": "view",
      "type": "function"
    },
    {
      "constant": true,
      "inputs": [
        {
          "name": "_id",
          "type": "uint256"
        }
      ],
      "name": "getEmployeeCodes",
      "outputs": [
        {
          "name": "codes",
          "type": "address[]"
        },
        {
          "name": "",
          "type": "string"
        },
        {
          "name": "",
          "type": "uint8[]"
        },
        {
          "name": "",
          "type": "string"
        },
        {
          "name": "",
          "type": "uint8"
        }
      ],
      "payable": false,
      "stateMutability": "view",
      "type": "function"
    },
    {
      "constant": true,
      "inputs": [],
      "name": "getEmployeeCodes",
      "outputs": [
        {
          "name": "codes",
          "type": "address[]"
        }
      ],
      "payable": false,
      "stateMutability": "view",
      "type": "function"
    }
  ],
  "bytecode": "0x6060604052600160005560018055341561001857600080fd5b614b0c806100276000396000f300606060405260043610610128576000357c0100000000000000000000000000000000000000000000000000000000900463ffffffff16806320fc28811461012d57806332648e09146102b5578063382f03e91461057b57806356333326146107035780635f317ace1461086c578063633e0c23146108d65780636754a22914610940578063689943b014610a635780636df89ff714610aff5780637560d4ce14610b225780637c2911d914610de157806388c8837f14610ecc57806389fbc0c214610f3657806392822f5214610fae5780639a76affa146110f0578063ae3887c21461115a578063bf22c45714611264578063cbcf2295146114b0578063d1678e6a14611619578063dbe98dda14611691578063f08f4f641461170c578063ff66aa62146118a4575b600080fd5b341561013857600080fd5b6102b3600480803573ffffffffffffffffffffffffffffffffffffffff1690602001909190803590602001908201803590602001908080601f0160208091040260200160405190810160405280939291908181526020018383808284378201915050505050509190803590602001908201803590602001908080601f0160208091040260200160405190810160405280939291908181526020018383808284378201915050505050509190803590602001908201803590602001908080601f0160208091040260200160405190810160405280939291908181526020018383808284378201915050505050509190803590602001908201803590602001908080601f0160208091040260200160405190810160405280939291908181526020018383808284378201915050505050509190803590602001908201803590602001908080601f0160208091040260200160405190810160405280939291908181526020018383808284378201915050505050509190505061190e565b005b34156102c057600080fd5b6102ec600480803573ffffffffffffffffffffffffffffffffffffffff16906020019091905050611aa3565b6040518080602001806020018060200180602001806020018060200189815260200188600481111561031a57fe5b60ff16815260200187810387528f818151815260200191508051906020019080838360005b8381101561035a57808201518184015260208101905061033f565b50505050905090810190601f1680156103875780820380516001836020036101000a031916815260200191505b5087810386528e818151815260200191508051906020019080838360005b838110156103c05780820151818401526020810190506103a5565b50505050905090810190601f1680156103ed5780820380516001836020036101000a031916815260200191505b5087810385528d818151815260200191508051906020019080838360005b8381101561042657808201518184015260208101905061040b565b50505050905090810190601f1680156104535780820380516001836020036101000a031916815260200191505b5087810384528c818151815260200191508051906020019080838360005b8381101561048c578082015181840152602081019050610471565b50505050905090810190601f1680156104b95780820380516001836020036101000a031916815260200191505b5087810383528b818151815260200191508051906020019080838360005b838110156104f25780820151818401526020810190506104d7565b50505050905090810190601f16801561051f5780820380516001836020036101000a031916815260200191505b5087810382528a818151815260200191508051906020019060200280838360005b8381101561055b578082015181840152602081019050610540565b505050509050019e50505050505050505050505050505060405180910390f35b341561058657600080fd5b610701600480803573ffffffffffffffffffffffffffffffffffffffff1690602001909190803590602001908201803590602001908080601f0160208091040260200160405190810160405280939291908181526020018383808284378201915050505050509190803590602001908201803590602001908080601f0160208091040260200160405190810160405280939291908181526020018383808284378201915050505050509190803590602001908201803590602001908080601f0160208091040260200160405190810160405280939291908181526020018383808284378201915050505050509190803590602001908201803590602001908080601f0160208091040260200160405190810160405280939291908181526020018383808284378201915050505050509190803590602001908201803590602001908080601f01602080910402602001604051908101604052809392919081815260200183838082843782019150505050505091905050611f9c565b005b341561070e57600080fd5b61086a600480803590602001908201803590602001908080601f0160208091040260200160405190810160405280939291908181526020018383808284378201915050505050509190803590602001908201803590602001908080601f0160208091040260200160405190810160405280939291908181526020018383808284378201915050505050509190803590602001908201803590602001908080601f0160208091040260200160405190810160405280939291908181526020018383808284378201915050505050509190803590602001908201803590602001908080601f0160208091040260200160405190810160405280939291908181526020018383808284378201915050505050509190803590602001908201803590602001908080601f01602080910402602001604051908101604052809392919081815260200183838082843782019150505050505091905050612131565b005b341561087757600080fd5b61087f61214c565b6040518080602001828103825283818151815260200191508051906020019060200280838360005b838110156108c25780820151818401526020810190506108a7565b505050509050019250505060405180910390f35b34156108e157600080fd5b6108e96121aa565b6040518080602001828103825283818151815260200191508051906020019060200280838360005b8381101561092c578082015181840152602081019050610911565b505050509050019250505060405180910390f35b341561094b57600080fd5b610a61600480803590602001908201803590602001908080601f016020809104026020016040519081016040528093929190818152602001838380828437820191505050505050919080359060200190820180359060200190808060200260200160405190810160405280939291908181526020018383602002808284378201915050505050509190803590602001908201803590602001908080601f0160208091040260200160405190810160405280939291908181526020018383808284378201915050505050509190803590602001908201803590602001908080601f0160208091040260200160405190810160405280939291908181526020018383808284378201915050505050509190505061223e565b005b3415610a6e57600080fd5b610a846004808035906020019091905050612257565b6040518080602001828103825283818151815260200191508051906020019080838360005b83811015610ac4578082015181840152602081019050610aa9565b50505050905090810190601f168015610af15780820380516001836020036101000a031916815260200191505b509250505060405180910390f35b3415610b0a57600080fd5b610b20600480803590602001909190505061233f565b005b3415610b2d57600080fd5b610b59600480803573ffffffffffffffffffffffffffffffffffffffff169060200190919050506123bf565b60405180806020018060200180602001806020018060200180602001886004811115610b8157fe5b60ff16815260200187810387528e818151815260200191508051906020019080838360005b83811015610bc1578082015181840152602081019050610ba6565b50505050905090810190601f168015610bee5780820380516001836020036101000a031916815260200191505b5087810386528d818151815260200191508051906020019080838360005b83811015610c27578082015181840152602081019050610c0c565b50505050905090810190601f168015610c545780820380516001836020036101000a031916815260200191505b5087810385528c818151815260200191508051906020019080838360005b83811015610c8d578082015181840152602081019050610c72565b50505050905090810190601f168015610cba5780820380516001836020036101000a031916815260200191505b5087810384528b818151815260200191508051906020019080838360005b83811015610cf3578082015181840152602081019050610cd8565b50505050905090810190601f168015610d205780820380516001836020036101000a031916815260200191505b5087810383528a818151815260200191508051906020019080838360005b83811015610d59578082015181840152602081019050610d3e565b50505050905090810190601f168015610d865780820380516001836020036101000a031916815260200191505b50878103825289818151815260200191508051906020019060200280838360005b83811015610dc2578082015181840152602081019050610da7565b505050509050019d505050505050505050505050505060405180910390f35b3415610dec57600080fd5b610eca600480803590602001908201803590602001908080601f016020809104026020016040519081016040528093929190818152602001838380828437820191505050505050919080359060200190820180359060200190808060200260200160405190810160405280939291908181526020018383602002808284378201915050505050509190803590602001908201803590602001908080601f01602080910402602001604051908101604052809392919081815260200183838082843782019150505050505091908035151590602001909190505061289b565b005b3415610ed757600080fd5b610edf6128b4565b6040518080602001828103825283818151815260200191508051906020019060200280838360005b83811015610f22578082015181840152602081019050610f07565b505050509050019250505060405180910390f35b3415610f4157600080fd5b610f576004808035906020019091905050612912565b6040518080602001828103825283818151815260200191508051906020019060200280838360005b83811015610f9a578082015181840152602081019050610f7f565b505050509050019250505060405180910390f35b3415610fb957600080fd5b6110ee600480803573ffffffffffffffffffffffffffffffffffffffff1690602001909190803590602001908201803590602001908080601f016020809104026020016040519081016040528093929190818152602001838380828437820191505050505050919080359060200190820180359060200190808060200260200160405190810160405280939291908181526020018383602002808284378201915050505050509190803590602001908201803590602001908080601f0160208091040260200160405190810160405280939291908181526020018383808284378201915050505050509190803590602001908201803590602001908080601f01602080910402602001604051908101604052809392919081815260200183838082843782019150505050505091905050612e97565b005b34156110fb57600080fd5b611103613039565b6040518080602001828103825283818151815260200191508051906020019060200280838360005b8381101561114657808201518184015260208101905061112b565b505050509050019250505060405180910390f35b341561116557600080fd5b611262600480803573ffffffffffffffffffffffffffffffffffffffff1690602001909190803590602001908201803590602001908080601f016020809104026020016040519081016040528093929190818152602001838380828437820191505050505050919080359060200190820180359060200190808060200260200160405190810160405280939291908181526020018383602002808284378201915050505050509190803590602001908201803590602001908080601f016020809104026020016040519081016040528093929190818152602001838380828437820191505050505050919080351515906020019091905050613603565b005b341561126f57600080fd5b611285600480803590602001909190505061379b565b604051808873ffffffffffffffffffffffffffffffffffffffff1673ffffffffffffffffffffffffffffffffffffffff16815260200180602001806020018060200180602001806020018760048111156112db57fe5b60ff16815260200186810386528c818151815260200191508051906020019080838360005b8381101561131b578082015181840152602081019050611300565b50505050905090810190601f1680156113485780820380516001836020036101000a031916815260200191505b5086810385528b818151815260200191508051906020019060200280838360005b83811015611384578082015181840152602081019050611369565b5050505090500186810384528a818151815260200191508051906020019080838360005b838110156113c35780820151818401526020810190506113a8565b50505050905090810190601f1680156113f05780820380516001836020036101000a031916815260200191505b50868103835289818151815260200191508051906020019080838360005b8381101561142957808201518184015260208101905061140e565b50505050905090810190601f1680156114565780820380516001836020036101000a031916815260200191505b50868103825288818151815260200191508051906020019060200280838360005b83811015611492578082015181840152602081019050611477565b505050509050019c5050505050505050505050505060405180910390f35b34156114bb57600080fd5b611617600480803590602001908201803590602001908080601f0160208091040260200160405190810160405280939291908181526020018383808284378201915050505050509190803590602001908201803590602001908080601f0160208091040260200160405190810160405280939291908181526020018383808284378201915050505050509190803590602001908201803590602001908080601f0160208091040260200160405190810160405280939291908181526020018383808284378201915050505050509190803590602001908201803590602001908080601f0160208091040260200160405190810160405280939291908181526020018383808284378201915050505050509190803590602001908201803590602001908080601f01602080910402602001604051908101604052809392919081815260200183838082843782019150505050505091905050613bc4565b005b341561162457600080fd5b61163a6004808035906020019091905050613bdf565b6040518080602001828103825283818151815260200191508051906020019060200280838360005b8381101561167d578082015181840152602081019050611662565b505050509050019250505060405180910390f35b341561169c57600080fd5b6116b5600480803560ff16906020019091905050613e41565b6040518080602001828103825283818151815260200191508051906020019060200280838360005b838110156116f85780820151818401526020810190506116dd565b505050509050019250505060405180910390f35b341561171757600080fd5b61172d60048080359060200190919050506142eb565b604051808673ffffffffffffffffffffffffffffffffffffffff1673ffffffffffffffffffffffffffffffffffffffff16815260200180602001806020018060200185600481111561177b57fe5b60ff168152602001848103845288818151815260200191508051906020019080838360005b838110156117bb5780820151818401526020810190506117a0565b50505050905090810190601f1680156117e85780820380516001836020036101000a031916815260200191505b50848103835287818151815260200191508051906020019060200280838360005b83811015611824578082015181840152602081019050611809565b50505050905001848103825286818151815260200191508051906020019080838360005b83811015611863578082015181840152602081019050611848565b50505050905090810190601f1680156118905780820380516001836020036101000a031916815260200191505b509850505050505050505060405180910390f35b34156118af57600080fd5b6118b76145bd565b6040518080602001828103825283818151815260200191508051906020019060200280838360005b838110156118fa5780820151818401526020810190506118df565b505050509050019250505060405180910390f35b6000600260008873ffffffffffffffffffffffffffffffffffffffff1673ffffffffffffffffffffffffffffffffffffffff1681526020019081526020016000209050868160000160006101000a81548173ffffffffffffffffffffffffffffffffffffffff021916908373ffffffffffffffffffffffffffffffffffffffff160217905550858160010190805190602001906119ac929190614651565b50848160020190805190602001906119c5929190614651565b50838160030190805190602001906119de929190614651565b50828160040190805190602001906119f7929190614651565b5081816005019080519060200190611a10929190614651565b5060008160090160006101000a81548160ff02191690836004811115611a3257fe5b021790555060038054806001018281611a4b91906146d1565b9160005260206000209001600089909190916101000a81548173ffffffffffffffffffffffffffffffffffffffff021916908373ffffffffffffffffffffffffffffffffffffffff1602179055505050505050505050565b611aab6146fd565b611ab36146fd565b611abb6146fd565b611ac36146fd565b611acb6146fd565b611ad3614711565b600080611ade614725565b600260008b73ffffffffffffffffffffffffffffffffffffffff1673ffffffffffffffffffffffffffffffffffffffff16815260200190815260200160002061014060405190810160405290816000820160009054906101000a900473ffffffffffffffffffffffffffffffffffffffff1673ffffffffffffffffffffffffffffffffffffffff1673ffffffffffffffffffffffffffffffffffffffff168152602001600182018054600181600116156101000203166002900480601f016020809104026020016040519081016040528092919081815260200182805460018160011615610100020316600290048015611c195780601f10611bee57610100808354040283529160200191611c19565b820191906000526020600020905b815481529060010190602001808311611bfc57829003601f168201915b50505050508152602001600282018054600181600116156101000203166002900480601f016020809104026020016040519081016040528092919081815260200182805460018160011615610100020316600290048015611cbb5780601f10611c9057610100808354040283529160200191611cbb565b820191906000526020600020905b815481529060010190602001808311611c9e57829003601f168201915b50505050508152602001600382018054600181600116156101000203166002900480601f016020809104026020016040519081016040528092919081815260200182805460018160011615610100020316600290048015611d5d5780601f10611d3257610100808354040283529160200191611d5d565b820191906000526020600020905b815481529060010190602001808311611d4057829003601f168201915b50505050508152602001600482018054600181600116156101000203166002900480601f016020809104026020016040519081016040528092919081815260200182805460018160011615610100020316600290048015611dff5780601f10611dd457610100808354040283529160200191611dff565b820191906000526020600020905b815481529060010190602001808311611de257829003601f168201915b50505050508152602001600582018054600181600116156101000203166002900480601f016020809104026020016040519081016040528092919081815260200182805460018160011615610100020316600290048015611ea15780601f10611e7657610100808354040283529160200191611ea1565b820191906000526020600020905b815481529060010190602001808311611e8457829003601f168201915b5050505050815260200160068201805480602002602001604051908101604052809291908181526020018280548015611ef957602002820191906000526020600020905b815481526020019060010190808311611ee5575b5050505050815260200160078201548152602001600882015481526020016009820160009054906101000a900460ff166004811115611f3457fe5b6004811115611f3f57fe5b81525050905080602001518160400151826060015183608001518460a001518560c001518660e001518761012001518797508696508595508494508393508292509850985098509850985098509850985050919395975091939597565b6000600460008873ffffffffffffffffffffffffffffffffffffffff1673ffffffffffffffffffffffffffffffffffffffff1681526020019081526020016000209050868160000160006101000a81548173ffffffffffffffffffffffffffffffffffffffff021916908373ffffffffffffffffffffffffffffffffffffffff1602179055508581600101908051906020019061203a929190614651565b5084816002019080519060200190612053929190614651565b508381600301908051906020019061206c929190614651565b5082816004019080519060200190612085929190614651565b508181600501908051906020019061209e929190614651565b5060008160070160006101000a81548160ff021916908360048111156120c057fe5b0217905550600580548060010182816120d991906146d1565b9160005260206000209001600089909190916101000a81548173ffffffffffffffffffffffffffffffffffffffff021916908373ffffffffffffffffffffffffffffffffffffffff1602179055505050505050505050565b6000339050612144818787878787611f9c565b505050505050565b612154614711565b60078054806020026020016040519081016040528092919081815260200182805480156121a057602002820191906000526020600020905b81548152602001906001019080831161218c575b5050505050905090565b6121b26147be565b600580548060200260200160405190810160405280929190818152602001828054801561223457602002820191906000526020600020905b8160009054906101000a900473ffffffffffffffffffffffffffffffffffffffff1673ffffffffffffffffffffffffffffffffffffffff16815260200190600101908083116121ea575b5050505050905090565b60003390506122508186868686612e97565b5050505050565b61225f6146fd565b6000600681111561226c57fe5b8214156122b0576040805190810160405280600481526020017f4a41564100000000000000000000000000000000000000000000000000000000815250905061233a565b600160068111156122bd57fe5b821415612301576040805190810160405280600281526020017f4a53000000000000000000000000000000000000000000000000000000000000815250905061233a565b6040805190810160405280600581526020017f4d4f4e474f00000000000000000000000000000000000000000000000000000081525090505b919050565b600060086000838152602001908152602001600020905080600301805480600101828161236c91906146d1565b9160005260206000209001600033909190916101000a81548173ffffffffffffffffffffffffffffffffffffffff021916908373ffffffffffffffffffffffffffffffffffffffff160217905550505050565b6123c76146fd565b6123cf6146fd565b6123d76146fd565b6123df6146fd565b6123e76146fd565b6123ef614711565b60006123f96147d2565b600460008a73ffffffffffffffffffffffffffffffffffffffff1673ffffffffffffffffffffffffffffffffffffffff16815260200190815260200160002061010060405190810160405290816000820160009054906101000a900473ffffffffffffffffffffffffffffffffffffffff1673ffffffffffffffffffffffffffffffffffffffff1673ffffffffffffffffffffffffffffffffffffffff168152602001600182018054600181600116156101000203166002900480601f0160208091040260200160405190810160405280929190818152602001828054600181600116156101000203166002900480156125345780601f1061250957610100808354040283529160200191612534565b820191906000526020600020905b81548152906001019060200180831161251757829003601f168201915b50505050508152602001600282018054600181600116156101000203166002900480601f0160208091040260200160405190810160405280929190818152602001828054600181600116156101000203166002900480156125d65780601f106125ab576101008083540402835291602001916125d6565b820191906000526020600020905b8154815290600101906020018083116125b957829003601f168201915b50505050508152602001600382018054600181600116156101000203166002900480601f0160208091040260200160405190810160405280929190818152602001828054600181600116156101000203166002900480156126785780601f1061264d57610100808354040283529160200191612678565b820191906000526020600020905b81548152906001019060200180831161265b57829003601f168201915b50505050508152602001600482018054600181600116156101000203166002900480601f01602080910402602001604051908101604052809291908181526020018280546001816001161561010002031660029004801561271a5780601f106126ef5761010080835404028352916020019161271a565b820191906000526020600020905b8154815290600101906020018083116126fd57829003601f168201915b50505050508152602001600582018054600181600116156101000203166002900480601f0160208091040260200160405190810160405280929190818152602001828054600181600116156101000203166002900480156127bc5780601f10612791576101008083540402835291602001916127bc565b820191906000526020600020905b81548152906001019060200180831161279f57829003601f168201915b505050505081526020016006820180548060200260200160405190810160405280929190818152602001828054801561281457602002820191906000526020600020905b815481526020019060010190808311612800575b505050505081526020016007820160009054906101000a900460ff16600481111561283b57fe5b600481111561284657fe5b81525050905080602001518160400151826060015183608001518460a001518560c001518660e00151869650859550849450839350829250819150975097509750975097509750975050919395979092949650565b60003390506128ad8186868686613603565b5050505050565b6128bc614711565b600980548060200260200160405190810160405280929190818152602001828054801561290857602002820191906000526020600020905b8154815260200190600101908083116128f4575b5050505050905090565b61291a614711565b600061292461485d565b61292c614711565b60008060008061293a614871565b61294261485d565b60008060018054039a50600660008e81526020019081526020016000206004018054806020026020016040519081016040528092919081815260200182805480156129da57602002820191906000526020600020906000905b82829054906101000a900460ff1660068111156129b457fe5b8152602001906001019060208260000104928301926001038202915080841161299b5790505b505050505099508a8a51026040518059106129f25750595b9080825280602002602001820160405250985060009750600096505b8951871015612e84578987815181101515612a2557fe5b906020019060200201519550600194505b8a85111515612e7757600860008681526020019081526020016000206101006040519081016040529081600082015481526020016001820160009054906101000a900473ffffffffffffffffffffffffffffffffffffffff1673ffffffffffffffffffffffffffffffffffffffff1673ffffffffffffffffffffffffffffffffffffffff16815260200160028201805480602002602001604051908101604052809291908181526020018280548015612b3c57602002820191906000526020600020906000905b82829054906101000a900460ff166006811115612b1657fe5b81526020019060010190602082600001049283019260010382029150808411612afd5790505b5050505050815260200160038201805480602002602001604051908101604052809291908181526020018280548015612bca57602002820191906000526020600020905b8160009054906101000a900473ffffffffffffffffffffffffffffffffffffffff1673ffffffffffffffffffffffffffffffffffffffff1681526020019060010190808311612b80575b505050505081526020016004820160009054906101000a900460ff166004811115612bf157fe5b6004811115612bfc57fe5b8152602001600582018054600181600116156101000203166002900480601f016020809104026020016040519081016040528092919081815260200182805460018160011615610100020316600290048015612c995780601f10612c6e57610100808354040283529160200191612c99565b820191906000526020600020905b815481529060010190602001808311612c7c57829003601f168201915b50505050508152602001600682018054600181600116156101000203166002900480601f016020809104026020016040519081016040528092919081815260200182805460018160011615610100020316600290048015612d3b5780601f10612d1057610100808354040283529160200191612d3b565b820191906000526020600020905b815481529060010190602001808311612d1e57829003601f168201915b50505050508152602001600782018054600181600116156101000203166002900480601f016020809104026020016040519081016040528092919081815260200182805460018160011615610100020316600290048015612ddd5780601f10612db257610100808354040283529160200191612ddd565b820191906000526020600020905b815481529060010190602001808311612dc057829003601f168201915b505050505081525050935083604001519250600091505b8251821015612e6a578282815181101515612e0b57fe5b906020019060200201519050806006811115612e2357fe5b866006811115612e2f57fe5b1415612e5d57848989806001019a50815181101515612e4a57fe5b9060200190602002018181525050612e6a565b8180600101925050612df4565b8480600101955050612a36565b8680600101975050612a0e565b889b505050505050505050505050919050565b600080600060016000815480929190600101919050559250600860008481526020019081526020016000209150828260000181905550878260010160006101000a81548173ffffffffffffffffffffffffffffffffffffffff021916908373ffffffffffffffffffffffffffffffffffffffff16021790555086826005019080519060200190612f28929190614651565b5084826006019080519060200190612f41929190614651565b5083826007019080519060200190612f5a929190614651565b5085826002019080519060200190612f739291906148f6565b5060028260040160006101000a81548160ff02191690836004811115612f9557fe5b021790555060098054806001018281612fae91906149a5565b916000526020600020900160008590919091505550600460008973ffffffffffffffffffffffffffffffffffffffff1673ffffffffffffffffffffffffffffffffffffffff168152602001908152602001600020905080600601805480600101828161301a91906149a5565b9160005260206000209001600085909190915055505050505050505050565b613041614711565b60008061304c61485d565b613054614711565b600080600080613062614871565b61306a61485d565b600080600260003373ffffffffffffffffffffffffffffffffffffffff1673ffffffffffffffffffffffffffffffffffffffff168152602001908152602001600020600701549b5060018054039a50600660008d815260200190815260200160002060040180548060200260200160405190810160405280929190818152602001828054801561314757602002820191906000526020600020906000905b82829054906101000a900460ff16600681111561312157fe5b815260200190600101906020826000010492830192600103820291508084116131085790505b505050505099508a8a510260405180591061315f5750595b9080825280602002602001820160405250985060009750600096505b89518710156135f157898781518110151561319257fe5b906020019060200201519550600194505b8a851115156135e457600860008681526020019081526020016000206101006040519081016040529081600082015481526020016001820160009054906101000a900473ffffffffffffffffffffffffffffffffffffffff1673ffffffffffffffffffffffffffffffffffffffff1673ffffffffffffffffffffffffffffffffffffffff168152602001600282018054806020026020016040519081016040528092919081815260200182805480156132a957602002820191906000526020600020906000905b82829054906101000a900460ff16600681111561328357fe5b8152602001906001019060208260000104928301926001038202915080841161326a5790505b505050505081526020016003820180548060200260200160405190810160405280929190818152602001828054801561333757602002820191906000526020600020905b8160009054906101000a900473ffffffffffffffffffffffffffffffffffffffff1673ffffffffffffffffffffffffffffffffffffffff16815260200190600101908083116132ed575b505050505081526020016004820160009054906101000a900460ff16600481111561335e57fe5b600481111561336957fe5b8152602001600582018054600181600116156101000203166002900480601f0160208091040260200160405190810160405280929190818152602001828054600181600116156101000203166002900480156134065780601f106133db57610100808354040283529160200191613406565b820191906000526020600020905b8154815290600101906020018083116133e957829003601f168201915b50505050508152602001600682018054600181600116156101000203166002900480601f0160208091040260200160405190810160405280929190818152602001828054600181600116156101000203166002900480156134a85780601f1061347d576101008083540402835291602001916134a8565b820191906000526020600020905b81548152906001019060200180831161348b57829003601f168201915b50505050508152602001600782018054600181600116156101000203166002900480601f01602080910402602001604051908101604052809291908181526020018280546001816001161561010002031660029004801561354a5780601f1061351f5761010080835404028352916020019161354a565b820191906000526020600020905b81548152906001019060200180831161352d57829003601f168201915b505050505081525050935083604001519250600091505b82518210156135d757828281518110151561357857fe5b90602001906020020151905080600681111561359057fe5b86600681111561359c57fe5b14156135ca57848989806001019a508151811015156135b757fe5b90602001906020020181815250506135d7565b8180600101925050613561565b84806001019550506131a3565b868060010197505061317b565b889c5050505050505050505050505090565b6000806000806000815480929190600101919050559250600660008481526020019081526020016000209150828260000181905550878260010160006101000a81548173ffffffffffffffffffffffffffffffffffffffff021916908373ffffffffffffffffffffffffffffffffffffffff16021790555086826002019080519060200190613693929190614651565b50858260040190805190602001906136ac9291906148f6565b50848260030190805190602001906136c5929190614651565b5060008260050160006101000a81548160ff021916908360048111156136e757fe5b02179055506007805480600101828161370091906149a5565b916000526020600020900160008590919091505550600260008973ffffffffffffffffffffffffffffffffffffffff1673ffffffffffffffffffffffffffffffffffffffff168152602001908152602001600020905080600601805480600101828161376c91906149a5565b9160005260206000209001600085909190915055508315613791578281600701819055505b5050505050505050565b60006137a56146fd565b6137ad61485d565b6137b56146fd565b6137bd6146fd565b6137c56147be565b60006137cf614871565b600860008a81526020019081526020016000206101006040519081016040529081600082015481526020016001820160009054906101000a900473ffffffffffffffffffffffffffffffffffffffff1673ffffffffffffffffffffffffffffffffffffffff1673ffffffffffffffffffffffffffffffffffffffff168152602001600282018054806020026020016040519081016040528092919081815260200182805480156138cc57602002820191906000526020600020906000905b82829054906101000a900460ff1660068111156138a657fe5b8152602001906001019060208260000104928301926001038202915080841161388d5790505b505050505081526020016003820180548060200260200160405190810160405280929190818152602001828054801561395a57602002820191906000526020600020905b8160009054906101000a900473ffffffffffffffffffffffffffffffffffffffff1673ffffffffffffffffffffffffffffffffffffffff1681526020019060010190808311613910575b505050505081526020016004820160009054906101000a900460ff16600481111561398157fe5b600481111561398c57fe5b8152602001600582018054600181600116156101000203166002900480601f016020809104026020016040519081016040528092919081815260200182805460018160011615610100020316600290048015613a295780601f106139fe57610100808354040283529160200191613a29565b820191906000526020600020905b815481529060010190602001808311613a0c57829003601f168201915b50505050508152602001600682018054600181600116156101000203166002900480601f016020809104026020016040519081016040528092919081815260200182805460018160011615610100020316600290048015613acb5780601f10613aa057610100808354040283529160200191613acb565b820191906000526020600020905b815481529060010190602001808311613aae57829003601f168201915b50505050508152602001600782018054600181600116156101000203166002900480601f016020809104026020016040519081016040528092919081815260200182805460018160011615610100020316600290048015613b6d5780601f10613b4257610100808354040283529160200191613b6d565b820191906000526020600020905b815481529060010190602001808311613b5057829003601f168201915b505050505081525050905080602001518160a0015182604001518360c001518460e0015185606001518660800151859550849450839350829250819150975097509750975097509750975050919395979092949650565b6000339050613bd781878787878761190e565b505050505050565b613be7614711565b6000613bf161485d565b613bf9614711565b600080600080613c0761485d565b6000806001600054039950600860008d8152602001908152602001600020600201805480602002602001604051908101604052809291908181526020018280548015613ca057602002820191906000526020600020906000905b82829054906101000a900460ff166006811115613c7a57fe5b81526020019060010190602082600001049283019260010382029150808411613c615790505b5050505050985088518a02604051805910613cb85750595b9080825280602002602001820160405250975060009650600095505b8851861015613e2f578886815181101515613ceb57fe5b906020019060200201519450600193505b8984111515613e225760066000858152602001908152602001600020600401805480602002602001604051908101604052809291908181526020018280548015613d9357602002820191906000526020600020906000905b82829054906101000a900460ff166006811115613d6d57fe5b81526020019060010190602082600001049283019260010382029150808411613d545790505b50505050509250600091505b8251821015613e15578282815181101515613db657fe5b906020019060200201519050846006811115613dce57fe5b816006811115613dda57fe5b1415613e0857838888806001019950815181101515613df557fe5b9060200190602002018181525050613e15565b8180600101925050613d9f565b8380600101945050613cfc565b8580600101965050613cd4565b879a5050505050505050505050919050565b613e49614711565b6000613e53614711565b600080613e5e614871565b613e6661485d565b6000806001805403975087604051805910613e7e5750595b9080825280602002602001820160405250965060009550600194505b87851115156142db57600860008681526020019081526020016000206101006040519081016040529081600082015481526020016001820160009054906101000a900473ffffffffffffffffffffffffffffffffffffffff1673ffffffffffffffffffffffffffffffffffffffff1673ffffffffffffffffffffffffffffffffffffffff16815260200160028201805480602002602001604051908101604052809291908181526020018280548015613fa057602002820191906000526020600020906000905b82829054906101000a900460ff166006811115613f7a57fe5b81526020019060010190602082600001049283019260010382029150808411613f615790505b505050505081526020016003820180548060200260200160405190810160405280929190818152602001828054801561402e57602002820191906000526020600020905b8160009054906101000a900473ffffffffffffffffffffffffffffffffffffffff1673ffffffffffffffffffffffffffffffffffffffff1681526020019060010190808311613fe4575b505050505081526020016004820160009054906101000a900460ff16600481111561405557fe5b600481111561406057fe5b8152602001600582018054600181600116156101000203166002900480601f0160208091040260200160405190810160405280929190818152602001828054600181600116156101000203166002900480156140fd5780601f106140d2576101008083540402835291602001916140fd565b820191906000526020600020905b8154815290600101906020018083116140e057829003601f168201915b50505050508152602001600682018054600181600116156101000203166002900480601f01602080910402602001604051908101604052809291908181526020018280546001816001161561010002031660029004801561419f5780601f106141745761010080835404028352916020019161419f565b820191906000526020600020905b81548152906001019060200180831161418257829003601f168201915b50505050508152602001600782018054600181600116156101000203166002900480601f0160208091040260200160405190810160405280929190818152602001828054600181600116156101000203166002900480156142415780601f1061421657610100808354040283529160200191614241565b820191906000526020600020905b81548152906001019060200180831161422457829003601f168201915b505050505081525050935083604001519250600091505b82518210156142ce57828281518110151561426f57fe5b90602001906020020151905080600681111561428757fe5b8a600681111561429357fe5b14156142c1578487878060010198508151811015156142ae57fe5b90602001906020020181815250506142ce565b8180600101925050614258565b8480600101955050613e9a565b8698505050505050505050919050565b60006142f56146fd565b6142fd61485d565b6143056146fd565b600061430f6149d1565b6006600088815260200190815260200160002060c06040519081016040529081600082015481526020016001820160009054906101000a900473ffffffffffffffffffffffffffffffffffffffff1673ffffffffffffffffffffffffffffffffffffffff1673ffffffffffffffffffffffffffffffffffffffff168152602001600282018054600181600116156101000203166002900480601f0160208091040260200160405190810160405280929190818152602001828054600181600116156101000203166002900480156144275780601f106143fc57610100808354040283529160200191614427565b820191906000526020600020905b81548152906001019060200180831161440a57829003601f168201915b50505050508152602001600382018054600181600116156101000203166002900480601f0160208091040260200160405190810160405280929190818152602001828054600181600116156101000203166002900480156144c95780601f1061449e576101008083540402835291602001916144c9565b820191906000526020600020905b8154815290600101906020018083116144ac57829003601f168201915b505050505081526020016004820180548060200260200160405190810160405280929190818152602001828054801561454f57602002820191906000526020600020906000905b82829054906101000a900460ff16600681111561452957fe5b815260200190600101906020826000010492830192600103820291508084116145105790505b505050505081526020016005820160009054906101000a900460ff16600481111561457657fe5b600481111561458157fe5b81525050905080602001518160400151826080015183606001518460a00151839350829250819150955095509550955095505091939590929450565b6145c56147be565b600380548060200260200160405190810160405280929190818152602001828054801561464757602002820191906000526020600020905b8160009054906101000a900473ffffffffffffffffffffffffffffffffffffffff1673ffffffffffffffffffffffffffffffffffffffff16815260200190600101908083116145fd575b5050505050905090565b828054600181600116156101000203166002900490600052602060002090601f016020900481019282601f1061469257805160ff19168380011785556146c0565b828001600101855582156146c0579182015b828111156146bf5782518255916020019190600101906146a4565b5b5090506146cd9190614a3b565b5090565b8154818355818115116146f8578183600052602060002091820191016146f79190614a3b565b5b505050565b602060405190810160405280600081525090565b602060405190810160405280600081525090565b61014060405190810160405280600073ffffffffffffffffffffffffffffffffffffffff168152602001614757614a60565b8152602001614764614a60565b8152602001614771614a60565b815260200161477e614a60565b815260200161478b614a60565b8152602001614798614a74565b81526020016000815260200160008152602001600060048111156147b857fe5b81525090565b602060405190810160405280600081525090565b61010060405190810160405280600073ffffffffffffffffffffffffffffffffffffffff168152602001614804614a60565b8152602001614811614a60565b815260200161481e614a60565b815260200161482b614a60565b8152602001614838614a60565b8152602001614845614a74565b81526020016000600481111561485757fe5b81525090565b602060405190810160405280600081525090565b6101006040519081016040528060008152602001600073ffffffffffffffffffffffffffffffffffffffff1681526020016148aa614a88565b81526020016148b7614a9c565b8152602001600060048111156148c957fe5b81526020016148d6614a60565b81526020016148e3614a60565b81526020016148f0614a60565b81525090565b82805482825590600052602060002090601f016020900481019282156149945791602002820160005b8382111561496557835183826101000a81548160ff0219169083600681111561494457fe5b0217905550926020019260010160208160000104928301926001030261491f565b80156149925782816101000a81549060ff0219169055600101602081600001049283019260010302614965565b505b5090506149a19190614ab0565b5090565b8154818355818115116149cc578183600052602060002091820191016149cb9190614a3b565b5b505050565b60c06040519081016040528060008152602001600073ffffffffffffffffffffffffffffffffffffffff168152602001614a09614a60565b8152602001614a16614a60565b8152602001614a23614a88565b815260200160006004811115614a3557fe5b81525090565b614a5d91905b80821115614a59576000816000905550600101614a41565b5090565b90565b602060405190810160405280600081525090565b602060405190810160405280600081525090565b602060405190810160405280600081525090565b602060405190810160405280600081525090565b614add91905b80821115614ad957600081816101000a81549060ff021916905550600101614ab6565b5090565b905600a165627a7a7230582030c453954b63645221f220e03ed360a748bcdc057b992d514c343446d6de3e180029",
  "source": "pragma solidity  ^0.4.18;\n\ncontract Market {\n\n    enum Status {ACTIVE, INACTIVE, VACANT, OFFERED, CANCELLED}\n    enum Skill {JAVA, JS, MYSQL, MONGO, SCALA, KOTLIN, OTHER}\n\n    uint profileId = 1;\n    uint jobId = 1;\n\n    mapping (address => Employee) employeeMap;\n    address[] employeeCodes;\n\n    mapping(address => Employer) employerMap;\n    address[] employerCodes;\n\n    mapping(uint => Profile) profileMap;\n    uint[] allProfileIds;\n\n    mapping(uint => Job) jobMap;\n    uint[] allJobIds;\n\n    struct Employee {\n        address code;\n        string name;\n        string email;\n        string phoneNo;\n        string statement;\n        string rate;\n        uint[] profileIds;\n        uint defaultProfileId;\n        uint id;\n        Status status;\n    }\n\n    struct Profile {\n        uint id;\n        address employeeCode;\n        string name;\n        string cvHash;\n        Skill[] skills;\n        Status status;\n    }\n\n    struct Employer {\n        address code;\n        string name;\n        string email;\n        string company;\n        string add;\n        string country;\n        uint[] jobIds;\n        Status status;\n    }\n\n\n    struct Job {\n        uint id;\n        address employerCode;\n        Skill[] requiredSkills;\n        address[] appliedEmployeeCodes;\n        Status status;\n        string JobTitle;\n        string hourlyRate;\n        string Description;\n    }\n\n\n    function setEmployee(string _name, string _email, string _phoneNo, string _statement, string _rate) public {\n        address _address = msg.sender;\n        setEmployeeWithAddress(_address, _name, _email, _phoneNo, _statement, _rate);\n    }\n    function setEmployeeWithAddress(address _address, string _name, string _email, string _phoneNo, string _statement, string _rate) public {\n        Employee storage employee = employeeMap[_address];\n        employee.code = _address;\n        employee.name = _name;\n        employee.email = _email;\n        employee.phoneNo = _phoneNo;\n        employee.statement = _statement;\n        employee.rate = _rate;\n        employee.status = Status.ACTIVE;\n        employeeCodes.push(_address);\n    }\n    function getEmployee(address _address) view public returns(string,string,string,string,string, uint[], uint, Status) {\n        Employee memory employee = employeeMap[_address];\n        return(employee.name,employee.email,employee.phoneNo,employee.statement,employee.rate, employee.profileIds, employee.defaultProfileId, employee.status);\n    }\n    function getEmployeeCodes() view public returns(address[] codes) {\n        return employeeCodes;\n    }\n\n\n    function setEmployer(string _name, string _email, string _company, string _add, string _country) public {\n        address _address = msg.sender;\n        setEmployerWithAddress(_address, _name, _email, _company, _add, _country);\n    }\n    function setEmployerWithAddress(address _address, string _name, string _email, string _company, string _add, string _country) public {\n        Employer storage employer = employerMap[_address];\n        employer.code = _address;\n        employer.name = _name;\n        employer.email = _email;\n        employer.company = _company;\n        employer.add = _add;\n        employer.country = _country;\n        employer.status = Status.ACTIVE;\n        employerCodes.push(_address);\n    }\n    function getEmployer(address _address) view public returns(string name,string email, string company, string add, string country, uint[] jobIds, Status status) {\n        Employer memory employer = employerMap[_address];\n        return (employer.name, employer.email, employer.company, employer.add, employer.country, employer.jobIds, employer.status);\n    }\n    function getEmployerCodes() view public returns(address[]) {\n        return employerCodes;\n    }\n\n\n    function setProfile(string _name, Skill[] _skills, string _cvHash, bool _defaultProfile) public {\n            address _employeeCode = msg.sender;\n            setProfileWithAddress(_employeeCode, _name, _skills, _cvHash, _defaultProfile);\n    }\n    function setProfileWithAddress(address _employeeCode, string _name, Skill[] _skills, string _cvHash, bool _defaultProfile) public {\n        //throw if employee not found\n        uint _id = profileId++;\n        Profile storage profile = profileMap[_id];\n        profile.id = _id;\n        profile.employeeCode = _employeeCode;\n        profile.name = _name;\n        profile.skills = _skills;\n        profile.cvHash = _cvHash;\n        profile.status = Status.ACTIVE;\n        allProfileIds.push(_id);\n        Employee storage employee = employeeMap[_employeeCode];\n        employee.profileIds.push(_id);\n        if(_defaultProfile) {\n            employee.defaultProfileId = _id;\n        }\n    }\n    function getProfile(uint _id) view public returns(address, string, Skill[], string, Status) {\n        Profile memory profile = profileMap[_id];\n        return(profile.employeeCode, profile.name, profile.skills, profile.cvHash, profile.status);\n    }\n    function getAllProfileIds() view public returns(uint[] ids) {\n        return allProfileIds;\n    }\n\n    function setJob(string _JobTitle, Skill[] _requiredSkills, string _hourlyRate, string _Description) public {\n        address _employerCode = msg.sender;\n        setJobWithAddress(_employerCode, _JobTitle, _requiredSkills,_hourlyRate,_Description);\n    }\n    function setJobWithAddress(address _employerCode, string _JobTitle, Skill[] _requiredSkills, string _hourlyRate, string _Description) public {\n        uint _id = jobId++;\n        Job storage job = jobMap[_id];\n        job.id = _id;\n        job.employerCode = _employerCode;\n        job.JobTitle = _JobTitle;\n        job.hourlyRate= _hourlyRate;\n        job.Description=_Description;\n        job.requiredSkills = _requiredSkills;\n        job.status = Status.VACANT;\n        //appliedEmployeeCodes\n        allJobIds.push(_id);\n        Employer storage employer = employerMap[_employerCode];\n        employer.jobIds.push(_id);\n    }\n    function updateJobAppliedEmployees(uint _jobId) public {\n        Job storage job = jobMap[_jobId];\n        job.appliedEmployeeCodes.push(msg.sender);\n    }\n    function getJob(uint _id) view public returns(address, string, Skill[],string,string, address[], Status) {\n        Job memory job = jobMap[_id];\n        return(job.employerCode, job.JobTitle, job.requiredSkills, job.hourlyRate, job.Description, job.appliedEmployeeCodes, job.status);\n    }\n    function getAllJobIds() view public returns(uint[] postedJobIds) {\n        return allJobIds;\n    }\n\n    //has duplicates\n    function findEmployeeProfilesByJob(uint _jobId) view public returns(uint[] matchingProfiles) {\n        uint noOfProfiles = profileId -1;\n        Skill[] memory requiredSkills = jobMap[_jobId].requiredSkills;\n        uint[] memory matchingProfileIds = new uint[](noOfProfiles * requiredSkills.length);\n        uint index = 0;\n\n        for(uint r=0; r<requiredSkills.length; r++) {\n            Skill required = requiredSkills[r];\n\n            for(uint p=1; p<=noOfProfiles; p++) {\n\n                Skill[] memory skills = profileMap[p].skills;\n                for(uint s=0; s<skills.length; s++) {\n                    Skill skill = skills[s];\n\n                    if(skill == required) {\n                        matchingProfileIds[index++] = p;\n                        break;\n                    }\n                }\n            }\n        }\n        return matchingProfileIds;\n    }\n\n    function findJobsByEmployee() view public returns(uint[]) {\n        uint defaultProfileId = employeeMap[msg.sender].defaultProfileId;\n        uint noOfJobs = jobId -1;\n        Skill[] memory skills = profileMap[defaultProfileId].skills;\n        uint[] memory matchingJobIds = new uint[](skills.length * noOfJobs);\n        uint index = 0;\n\n        for(uint s=0; s<skills.length; s++) {\n            Skill skill = skills[s];\n\n            for(uint j=1; j<=noOfJobs; j++) {\n                Job memory job = jobMap[j];\n\n                Skill[] memory requiredSkills = job.requiredSkills;\n                for(uint m=0; m<requiredSkills.length; m++) {\n                    Skill required = requiredSkills[m];\n\n                    if(skill == required) {\n                        matchingJobIds[index++] = j;\n                        break;\n                    }\n\n                }\n            }\n\n        }\n\n        return matchingJobIds;\n    }\n\n    //has duplicates\n    function findJobsByProfile(uint _profileId) view public returns(uint[] matchingIds) {\n        uint noOfJobs = jobId -1;\n        Skill[] memory skills = profileMap[_profileId].skills;\n        uint[] memory matchingJobIds = new uint[](skills.length * noOfJobs);\n        uint index = 0;\n\n        for(uint s=0; s<skills.length; s++) {\n            Skill skill = skills[s];\n\n            for(uint j=1; j<=noOfJobs; j++) {\n                Job memory job = jobMap[j];\n\n                Skill[] memory requiredSkills = job.requiredSkills;\n                for(uint m=0; m<requiredSkills.length; m++) {\n                    Skill required = requiredSkills[m];\n\n                    if(skill == required) {\n                        matchingJobIds[index++] = j;\n                        break;\n                    }\n\n                }\n            }\n\n        }\n\n        return matchingJobIds;\n    }\n\n    function findJobsBySkill(Skill _skill) view public returns(uint[] matchingIds) {\n        uint noOfJobs = jobId -1;\n\n        uint[] memory matchingJobIds = new uint[](noOfJobs);\n\n        uint index = 0;\n        for(uint j=1; j<=noOfJobs; j++) {\n            Job memory job = jobMap[j];\n\n            Skill[] memory requiredSkills = job.requiredSkills;\n            for(uint m=0; m<requiredSkills.length; m++) {\n                Skill required = requiredSkills[m];\n\n                if(_skill == required) {\n                    matchingJobIds[index++] = j;\n                    break;\n                }\n\n            }\n        }\n        return matchingJobIds;\n    }\n\n    // function findJobs(uint _profileId) view public returns(uint jobIds) {\n    //     uint[] memory matchingJobIds;\n    //     //uint matchingJobId;\n\n    //     Profile memory profile = profileMap[_profileId];\n    //     Skill[] memory skills = profile.skills;\n\n    //     uint jobCount = 0;\n    //     for(uint s=0; s<skills.length; s++) {\n    //         Skill skill = skills[s];\n\n    //         for(uint j=0; j<allJobIds.length; j++) {\n    //             uint thisJobId = allJobIds[j];\n    //             Job memory job = jobMap[thisJobId];\n\n    //             Skill[] memory requiredSkills = job.requiredSkills;\n    //             for(uint m=0; m<requiredSkills.length; m++) {\n    //                 Skill required = requiredSkills[m];\n\n    //                 if(skill == required) {\n\n    //                     matchingJobId = thisJobId;\n    //                     //matchingJobIds[jobCount++] = thisJobId;\n    //                     //break;\n    //                 }\n\n    //             }\n\n    //         }\n    //     }\n    //     //matchingJobIds[0] = matchingJobId;\n    //     //return matchingJobIds;\n    //     //uint storage x = 11;\n    //     return 11;\n    // }\n\n    function uintToSkill(uint _uint) pure public returns(string skill) {\n        if(_uint == uint(Skill.JAVA))\n            return \"JAVA\";\n        if(_uint == uint(Skill.JS))\n            return \"JS\";\n        return \"MONGO\";\n    }\n\n}\n",
  "sourcePath": "/home/archchitha/Blockchain-JobMarket/contracts/Market.sol",
  "compiler": {
    "name": "solc",
    "version": "0.4.18+commit.9cf6e910.Emscripten.clang"
  },
  "schemaVersion": "1.0.1",
  "updatedAt": "2018-04-03T04:04:01.766Z"
}