{
  "contractName": "Market",
  "abi": [
    {
      "constant": false,
      "inputs": [
        {
          "name": "_address",
          "type": "address"
        },
        {
          "name": "_name",
          "type": "string"
        },
        {
          "name": "_email",
          "type": "string"
        },
        {
          "name": "_phoneNo",
          "type": "string"
        },
        {
          "name": "_statement",
          "type": "string"
        },
        {
          "name": "_rate",
          "type": "uint256"
        }
      ],
      "name": "setEmployeeWithAddress",
      "outputs": [],
      "payable": false,
      "stateMutability": "nonpayable",
      "type": "function"
    },
    {
      "constant": false,
      "inputs": [
        {
          "name": "_name",
          "type": "string"
        },
        {
          "name": "_email",
          "type": "string"
        },
        {
          "name": "_phoneNo",
          "type": "string"
        },
        {
          "name": "_statement",
          "type": "string"
        },
        {
          "name": "_rate",
          "type": "uint256"
        }
      ],
      "name": "setEmployee",
      "outputs": [],
      "payable": false,
      "stateMutability": "nonpayable",
      "type": "function"
    },
    {
      "constant": true,
      "inputs": [
        {
          "name": "_address",
          "type": "address"
        }
      ],
      "name": "getEmployee",
      "outputs": [
        {
          "name": "",
          "type": "string"
        },
        {
          "name": "",
          "type": "string"
        },
        {
          "name": "",
          "type": "string"
        },
        {
          "name": "",
          "type": "string"
        },
        {
          "name": "",
          "type": "uint256"
        },
        {
          "name": "",
          "type": "uint256[]"
        },
        {
          "name": "",
          "type": "uint256"
        },
        {
          "name": "",
          "type": "uint8"
        }
      ],
      "payable": false,
      "stateMutability": "view",
      "type": "function"
    },
    {
      "constant": false,
      "inputs": [
        {
          "name": "_address",
          "type": "address"
        },
        {
          "name": "_name",
          "type": "string"
        },
        {
          "name": "_email",
          "type": "string"
        },
        {
          "name": "_company",
          "type": "string"
        },
        {
          "name": "_add",
          "type": "string"
        },
        {
          "name": "_country",
          "type": "string"
        }
      ],
      "name": "setEmployerWithAddress",
      "outputs": [],
      "payable": false,
      "stateMutability": "nonpayable",
      "type": "function"
    },
    {
      "constant": false,
      "inputs": [
        {
          "name": "_name",
          "type": "string"
        },
        {
          "name": "_email",
          "type": "string"
        },
        {
          "name": "_company",
          "type": "string"
        },
        {
          "name": "_add",
          "type": "string"
        },
        {
          "name": "_country",
          "type": "string"
        }
      ],
      "name": "setEmployer",
      "outputs": [],
      "payable": false,
      "stateMutability": "nonpayable",
      "type": "function"
    },
    {
      "constant": true,
      "inputs": [],
      "name": "getAllProfileIds",
      "outputs": [
        {
          "name": "ids",
          "type": "uint256[]"
        }
      ],
      "payable": false,
      "stateMutability": "view",
      "type": "function"
    },
    {
      "constant": true,
      "inputs": [],
      "name": "getEmployerCodes",
      "outputs": [
        {
          "name": "",
          "type": "address[]"
        }
      ],
      "payable": false,
      "stateMutability": "view",
      "type": "function"
    },
    {
      "constant": true,
      "inputs": [
        {
          "name": "_uint",
          "type": "uint256"
        }
      ],
      "name": "uintToSkill",
      "outputs": [
        {
          "name": "skill",
          "type": "string"
        }
      ],
      "payable": false,
      "stateMutability": "pure",
      "type": "function"
    },
    {
      "constant": false,
      "inputs": [
        {
          "name": "_jobId",
          "type": "uint256"
        }
      ],
      "name": "updateJobAppliedEmployees",
      "outputs": [],
      "payable": false,
      "stateMutability": "nonpayable",
      "type": "function"
    },
    {
      "constant": false,
      "inputs": [
        {
          "name": "_employerCode",
          "type": "address"
        },
        {
          "name": "_JobTitle",
          "type": "string"
        },
        {
          "name": "_requiredSkills",
          "type": "uint8[]"
        },
        {
          "name": "_hourlyRate",
          "type": "uint256"
        },
        {
          "name": "_Description",
          "type": "string"
        }
      ],
      "name": "setJobWithAddress",
      "outputs": [],
      "payable": false,
      "stateMutability": "nonpayable",
      "type": "function"
    },
    {
      "constant": true,
      "inputs": [
        {
          "name": "_address",
          "type": "address"
        }
      ],
      "name": "getEmployer",
      "outputs": [
        {
          "name": "name",
          "type": "string"
        },
        {
          "name": "email",
          "type": "string"
        },
        {
          "name": "company",
          "type": "string"
        },
        {
          "name": "add",
          "type": "string"
        },
        {
          "name": "country",
          "type": "string"
        },
        {
          "name": "jobIds",
          "type": "uint256[]"
        },
        {
          "name": "status",
          "type": "uint8"
        }
      ],
      "payable": false,
      "stateMutability": "view",
      "type": "function"
    },
    {
      "constant": false,
      "inputs": [
        {
          "name": "_name",
          "type": "string"
        },
        {
          "name": "_skills",
          "type": "uint8[]"
        },
        {
          "name": "_cvHash",
          "type": "string"
        },
        {
          "name": "_defaultProfile",
          "type": "bool"
        }
      ],
      "name": "setProfile",
      "outputs": [],
      "payable": false,
      "stateMutability": "nonpayable",
      "type": "function"
    },
    {
      "constant": true,
      "inputs": [],
      "name": "getAllJobIds",
      "outputs": [
        {
          "name": "postedJobIds",
          "type": "uint256[]"
        }
      ],
      "payable": false,
      "stateMutability": "view",
      "type": "function"
    },
    {
      "constant": true,
      "inputs": [
        {
          "name": "_profileId",
          "type": "uint256"
        }
      ],
      "name": "findJobsByProfile",
      "outputs": [
        {
          "name": "matchingIds",
          "type": "uint256[]"
        }
      ],
      "payable": false,
      "stateMutability": "view",
      "type": "function"
    },
    {
      "constant": true,
      "inputs": [],
      "name": "findJobsByEmployee",
      "outputs": [
        {
          "name": "",
          "type": "uint256[]"
        }
      ],
      "payable": false,
      "stateMutability": "view",
      "type": "function"
    },
    {
      "constant": false,
      "inputs": [
        {
          "name": "_employeeCode",
          "type": "address"
        },
        {
          "name": "_name",
          "type": "string"
        },
        {
          "name": "_skills",
          "type": "uint8[]"
        },
        {
          "name": "_cvHash",
          "type": "string"
        },
        {
          "name": "_defaultProfile",
          "type": "bool"
        }
      ],
      "name": "setProfileWithAddress",
      "outputs": [],
      "payable": false,
      "stateMutability": "nonpayable",
      "type": "function"
    },
    {
      "constant": true,
      "inputs": [
        {
          "name": "_id",
          "type": "uint256"
        }
      ],
      "name": "getJob",
      "outputs": [
        {
          "name": "",
          "type": "address"
        },
        {
          "name": "",
          "type": "string"
        },
        {
          "name": "",
          "type": "uint8[]"
        },
        {
          "name": "",
          "type": "uint256"
        },
        {
          "name": "",
          "type": "string"
        },
        {
          "name": "",
          "type": "address[]"
        },
        {
          "name": "",
          "type": "uint8"
        }
      ],
      "payable": false,
      "stateMutability": "view",
      "type": "function"
    },
    {
      "constant": false,
      "inputs": [
        {
          "name": "_JobTitle",
          "type": "string"
        },
        {
          "name": "_requiredSkills",
          "type": "uint8[]"
        },
        {
          "name": "_hourlyRate",
          "type": "uint256"
        },
        {
          "name": "_Description",
          "type": "string"
        }
      ],
      "name": "setJob",
      "outputs": [],
      "payable": false,
      "stateMutability": "nonpayable",
      "type": "function"
    },
    {
      "constant": true,
      "inputs": [
        {
          "name": "_jobId",
          "type": "uint256"
        }
      ],
      "name": "findEmployeeProfilesByJob",
      "outputs": [
        {
          "name": "matchingProfiles",
          "type": "uint256[]"
        }
      ],
      "payable": false,
      "stateMutability": "view",
      "type": "function"
    },
    {
      "constant": true,
      "inputs": [
        {
          "name": "_skill",
          "type": "uint8"
        }
      ],
      "name": "findJobsBySkill",
      "outputs": [
        {
          "name": "matchingIds",
          "type": "uint256[]"
        }
      ],
      "payable": false,
      "stateMutability": "view",
      "type": "function"
    },
    {
      "constant": true,
      "inputs": [
        {
          "name": "_address",
          "type": "address"
        }
      ],
      "name": "getJobIdFromAddress",
      "outputs": [
        {
          "name": "",
          "type": "uint256[]"
        }
      ],
      "payable": false,
      "stateMutability": "view",
      "type": "function"
    },
    {
      "constant": true,
      "inputs": [
        {
          "name": "_id",
          "type": "uint256"
        }
      ],
      "name": "getProfile",
      "outputs": [
        {
          "name": "",
          "type": "address"
        },
        {
          "name": "",
          "type": "string"
        },
        {
          "name": "",
          "type": "uint8[]"
        },
        {
          "name": "",
          "type": "string"
        },
        {
          "name": "",
          "type": "uint8"
        }
      ],
      "payable": false,
      "stateMutability": "view",
      "type": "function"
    },
    {
      "constant": true,
      "inputs": [],
      "name": "getEmployeeCodes",
      "outputs": [
        {
          "name": "codes",
          "type": "address[]"
        }
      ],
      "payable": false,
      "stateMutability": "view",
      "type": "function"
    }
  ],
  "bytecode": "0x6060604052600160005560018055341561001857600080fd5b61475d806100276000396000f300606060405260043610610133576000357c0100000000000000000000000000000000000000000000000000000000900463ffffffff16806305413db3146101385780631ca4174b1461028657806332648e09146103b5578063382f03e914610616578063563333261461079e5780635f317ace14610907578063633e0c2314610971578063689943b0146109db5780636df89ff714610a775780636f3c2e1714610a9a5780637560d4ce14610ba25780637c2911d914610e6157806388c8837f14610f4c57806389fbc0c214610fb65780639a76affa1461102e578063ae3887c214611098578063bf22c457146111a2578063c02ae3be14611389578063d1678e6a14611472578063dbe98dda146114ea578063e911687b14611565578063f08f4f64146115f3578063ff66aa621461178b575b600080fd5b341561014357600080fd5b610284600480803573ffffffffffffffffffffffffffffffffffffffff1690602001909190803590602001908201803590602001908080601f0160208091040260200160405190810160405280939291908181526020018383808284378201915050505050509190803590602001908201803590602001908080601f0160208091040260200160405190810160405280939291908181526020018383808284378201915050505050509190803590602001908201803590602001908080601f0160208091040260200160405190810160405280939291908181526020018383808284378201915050505050509190803590602001908201803590602001908080601f016020809104026020016040519081016040528093929190818152602001838380828437820191505050505050919080359060200190919050506117f5565b005b341561029157600080fd5b6103b3600480803590602001908201803590602001908080601f0160208091040260200160405190810160405280939291908181526020018383808284378201915050505050509190803590602001908201803590602001908080601f0160208091040260200160405190810160405280939291908181526020018383808284378201915050505050509190803590602001908201803590602001908080601f0160208091040260200160405190810160405280939291908181526020018383808284378201915050505050509190803590602001908201803590602001908080601f0160208091040260200160405190810160405280939291908181526020018383808284378201915050505050509190803590602001909190505061197a565b005b34156103c057600080fd5b6103ec600480803573ffffffffffffffffffffffffffffffffffffffff16906020019091905050611995565b60405180806020018060200180602001806020018981526020018060200188815260200187600481111561041c57fe5b60ff16815260200186810386528e818151815260200191508051906020019080838360005b8381101561045c578082015181840152602081019050610441565b50505050905090810190601f1680156104895780820380516001836020036101000a031916815260200191505b5086810385528d818151815260200191508051906020019080838360005b838110156104c25780820151818401526020810190506104a7565b50505050905090810190601f1680156104ef5780820380516001836020036101000a031916815260200191505b5086810384528c818151815260200191508051906020019080838360005b8381101561052857808201518184015260208101905061050d565b50505050905090810190601f1680156105555780820380516001836020036101000a031916815260200191505b5086810383528b818151815260200191508051906020019080838360005b8381101561058e578082015181840152602081019050610573565b50505050905090810190601f1680156105bb5780820380516001836020036101000a031916815260200191505b50868103825289818151815260200191508051906020019060200280838360005b838110156105f75780820151818401526020810190506105dc565b505050509050019d505050505050505050505050505060405180910390f35b341561062157600080fd5b61079c600480803573ffffffffffffffffffffffffffffffffffffffff1690602001909190803590602001908201803590602001908080601f0160208091040260200160405190810160405280939291908181526020018383808284378201915050505050509190803590602001908201803590602001908080601f0160208091040260200160405190810160405280939291908181526020018383808284378201915050505050509190803590602001908201803590602001908080601f0160208091040260200160405190810160405280939291908181526020018383808284378201915050505050509190803590602001908201803590602001908080601f0160208091040260200160405190810160405280939291908181526020018383808284378201915050505050509190803590602001908201803590602001908080601f01602080910402602001604051908101604052809392919081815260200183838082843782019150505050505091905050611ded565b005b34156107a957600080fd5b610905600480803590602001908201803590602001908080601f0160208091040260200160405190810160405280939291908181526020018383808284378201915050505050509190803590602001908201803590602001908080601f0160208091040260200160405190810160405280939291908181526020018383808284378201915050505050509190803590602001908201803590602001908080601f0160208091040260200160405190810160405280939291908181526020018383808284378201915050505050509190803590602001908201803590602001908080601f0160208091040260200160405190810160405280939291908181526020018383808284378201915050505050509190803590602001908201803590602001908080601f01602080910402602001604051908101604052809392919081815260200183838082843782019150505050505091905050611f82565b005b341561091257600080fd5b61091a611f9d565b6040518080602001828103825283818151815260200191508051906020019060200280838360005b8381101561095d578082015181840152602081019050610942565b505050509050019250505060405180910390f35b341561097c57600080fd5b610984611ffb565b6040518080602001828103825283818151815260200191508051906020019060200280838360005b838110156109c75780820151818401526020810190506109ac565b505050509050019250505060405180910390f35b34156109e657600080fd5b6109fc600480803590602001909190505061208f565b6040518080602001828103825283818151815260200191508051906020019080838360005b83811015610a3c578082015181840152602081019050610a21565b50505050905090810190601f168015610a695780820380516001836020036101000a031916815260200191505b509250505060405180910390f35b3415610a8257600080fd5b610a986004808035906020019091905050612177565b005b3415610aa557600080fd5b610ba0600480803573ffffffffffffffffffffffffffffffffffffffff1690602001909190803590602001908201803590602001908080601f016020809104026020016040519081016040528093929190818152602001838380828437820191505050505050919080359060200190820180359060200190808060200260200160405190810160405280939291908181526020018383602002808284378201915050505050509190803590602001909190803590602001908201803590602001908080601f016020809104026020016040519081016040528093929190818152602001838380828437820191505050505050919050506121f7565b005b3415610bad57600080fd5b610bd9600480803573ffffffffffffffffffffffffffffffffffffffff16906020019091905050612389565b60405180806020018060200180602001806020018060200180602001886004811115610c0157fe5b60ff16815260200187810387528e818151815260200191508051906020019080838360005b83811015610c41578082015181840152602081019050610c26565b50505050905090810190601f168015610c6e5780820380516001836020036101000a031916815260200191505b5087810386528d818151815260200191508051906020019080838360005b83811015610ca7578082015181840152602081019050610c8c565b50505050905090810190601f168015610cd45780820380516001836020036101000a031916815260200191505b5087810385528c818151815260200191508051906020019080838360005b83811015610d0d578082015181840152602081019050610cf2565b50505050905090810190601f168015610d3a5780820380516001836020036101000a031916815260200191505b5087810384528b818151815260200191508051906020019080838360005b83811015610d73578082015181840152602081019050610d58565b50505050905090810190601f168015610da05780820380516001836020036101000a031916815260200191505b5087810383528a818151815260200191508051906020019080838360005b83811015610dd9578082015181840152602081019050610dbe565b50505050905090810190601f168015610e065780820380516001836020036101000a031916815260200191505b50878103825289818151815260200191508051906020019060200280838360005b83811015610e42578082015181840152602081019050610e27565b505050509050019d505050505050505050505050505060405180910390f35b3415610e6c57600080fd5b610f4a600480803590602001908201803590602001908080601f016020809104026020016040519081016040528093929190818152602001838380828437820191505050505050919080359060200190820180359060200190808060200260200160405190810160405280939291908181526020018383602002808284378201915050505050509190803590602001908201803590602001908080601f016020809104026020016040519081016040528093929190818152602001838380828437820191505050505050919080351515906020019091905050612865565b005b3415610f5757600080fd5b610f5f61287e565b6040518080602001828103825283818151815260200191508051906020019060200280838360005b83811015610fa2578082015181840152602081019050610f87565b505050509050019250505060405180910390f35b3415610fc157600080fd5b610fd760048080359060200190919050506128dc565b6040518080602001828103825283818151815260200191508051906020019060200280838360005b8381101561101a578082015181840152602081019050610fff565b505050509050019250505060405180910390f35b341561103957600080fd5b611041612dc9565b6040518080602001828103825283818151815260200191508051906020019060200280838360005b83811015611084578082015181840152602081019050611069565b505050509050019250505060405180910390f35b34156110a357600080fd5b6111a0600480803573ffffffffffffffffffffffffffffffffffffffff1690602001909190803590602001908201803590602001908080601f016020809104026020016040519081016040528093929190818152602001838380828437820191505050505050919080359060200190820180359060200190808060200260200160405190810160405280939291908181526020018383602002808284378201915050505050509190803590602001908201803590602001908080601f0160208091040260200160405190810160405280939291908181526020018383808284378201915050505050509190803515159060200190919050506132fb565b005b34156111ad57600080fd5b6111c36004808035906020019091905050613493565b604051808873ffffffffffffffffffffffffffffffffffffffff1673ffffffffffffffffffffffffffffffffffffffff1681526020018060200180602001878152602001806020018060200186600481111561121b57fe5b60ff16815260200185810385528b818151815260200191508051906020019080838360005b8381101561125b578082015181840152602081019050611240565b50505050905090810190601f1680156112885780820380516001836020036101000a031916815260200191505b5085810384528a818151815260200191508051906020019060200280838360005b838110156112c45780820151818401526020810190506112a9565b50505050905001858103835288818151815260200191508051906020019080838360005b838110156113035780820151818401526020810190506112e8565b50505050905090810190601f1680156113305780820380516001836020036101000a031916815260200191505b50858103825287818151815260200191508051906020019060200280838360005b8381101561136c578082015181840152602081019050611351565b505050509050019b50505050505050505050505060405180910390f35b341561139457600080fd5b611470600480803590602001908201803590602001908080601f016020809104026020016040519081016040528093929190818152602001838380828437820191505050505050919080359060200190820180359060200190808060200260200160405190810160405280939291908181526020018383602002808284378201915050505050509190803590602001909190803590602001908201803590602001908080601f0160208091040260200160405190810160405280939291908181526020018383808284378201915050505050509190505061381b565b005b341561147d57600080fd5b6114936004808035906020019091905050613834565b6040518080602001828103825283818151815260200191508051906020019060200280838360005b838110156114d65780820151818401526020810190506114bb565b505050509050019250505060405180910390f35b34156114f557600080fd5b61150e600480803560ff16906020019091905050613a96565b6040518080602001828103825283818151815260200191508051906020019060200280838360005b83811015611551578082015181840152602081019050611536565b505050509050019250505060405180910390f35b341561157057600080fd5b61159c600480803573ffffffffffffffffffffffffffffffffffffffff16906020019091905050613ea8565b6040518080602001828103825283818151815260200191508051906020019060200280838360005b838110156115df5780820151818401526020810190506115c4565b505050509050019250505060405180910390f35b34156115fe57600080fd5b6116146004808035906020019091905050613f48565b604051808673ffffffffffffffffffffffffffffffffffffffff1673ffffffffffffffffffffffffffffffffffffffff16815260200180602001806020018060200185600481111561166257fe5b60ff168152602001848103845288818151815260200191508051906020019080838360005b838110156116a2578082015181840152602081019050611687565b50505050905090810190601f1680156116cf5780820380516001836020036101000a031916815260200191505b50848103835287818151815260200191508051906020019060200280838360005b8381101561170b5780820151818401526020810190506116f0565b50505050905001848103825286818151815260200191508051906020019080838360005b8381101561174a57808201518184015260208101905061172f565b50505050905090810190601f1680156117775780820380516001836020036101000a031916815260200191505b509850505050505050505060405180910390f35b341561179657600080fd5b61179e61421a565b6040518080602001828103825283818151815260200191508051906020019060200280838360005b838110156117e15780820151818401526020810190506117c6565b505050509050019250505060405180910390f35b6000600260008873ffffffffffffffffffffffffffffffffffffffff1673ffffffffffffffffffffffffffffffffffffffff1681526020019081526020016000209050868160000160006101000a81548173ffffffffffffffffffffffffffffffffffffffff021916908373ffffffffffffffffffffffffffffffffffffffff160217905550858160010190805190602001906118939291906142ae565b50848160020190805190602001906118ac9291906142ae565b50838160030190805190602001906118c59291906142ae565b50828160040190805190602001906118de9291906142ae565b5081816005018190555060008160090160006101000a81548160ff0219169083600481111561190957fe5b021790555060038054806001018281611922919061432e565b9160005260206000209001600089909190916101000a81548173ffffffffffffffffffffffffffffffffffffffff021916908373ffffffffffffffffffffffffffffffffffffffff1602179055505050505050505050565b600033905061198d8187878787876117f5565b505050505050565b61199d61435a565b6119a561435a565b6119ad61435a565b6119b561435a565b60006119bf61436e565b6000806119ca614382565b600260008b73ffffffffffffffffffffffffffffffffffffffff1673ffffffffffffffffffffffffffffffffffffffff16815260200190815260200160002061014060405190810160405290816000820160009054906101000a900473ffffffffffffffffffffffffffffffffffffffff1673ffffffffffffffffffffffffffffffffffffffff1673ffffffffffffffffffffffffffffffffffffffff168152602001600182018054600181600116156101000203166002900480601f016020809104026020016040519081016040528092919081815260200182805460018160011615610100020316600290048015611b055780601f10611ada57610100808354040283529160200191611b05565b820191906000526020600020905b815481529060010190602001808311611ae857829003601f168201915b50505050508152602001600282018054600181600116156101000203166002900480601f016020809104026020016040519081016040528092919081815260200182805460018160011615610100020316600290048015611ba75780601f10611b7c57610100808354040283529160200191611ba7565b820191906000526020600020905b815481529060010190602001808311611b8a57829003601f168201915b50505050508152602001600382018054600181600116156101000203166002900480601f016020809104026020016040519081016040528092919081815260200182805460018160011615610100020316600290048015611c495780601f10611c1e57610100808354040283529160200191611c49565b820191906000526020600020905b815481529060010190602001808311611c2c57829003601f168201915b50505050508152602001600482018054600181600116156101000203166002900480601f016020809104026020016040519081016040528092919081815260200182805460018160011615610100020316600290048015611ceb5780601f10611cc057610100808354040283529160200191611ceb565b820191906000526020600020905b815481529060010190602001808311611cce57829003601f168201915b505050505081526020016005820154815260200160068201805480602002602001604051908101604052809291908181526020018280548015611d4d57602002820191906000526020600020905b815481526020019060010190808311611d39575b5050505050815260200160078201548152602001600882015481526020016009820160009054906101000a900460ff166004811115611d8857fe5b6004811115611d9357fe5b81525050905080602001518160400151826060015183608001518460a001518560c001518660e001518761012001518797508696508595508494508292509850985098509850985098509850985050919395975091939597565b6000600460008873ffffffffffffffffffffffffffffffffffffffff1673ffffffffffffffffffffffffffffffffffffffff1681526020019081526020016000209050868160000160006101000a81548173ffffffffffffffffffffffffffffffffffffffff021916908373ffffffffffffffffffffffffffffffffffffffff16021790555085816001019080519060200190611e8b9291906142ae565b5084816002019080519060200190611ea49291906142ae565b5083816003019080519060200190611ebd9291906142ae565b5082816004019080519060200190611ed69291906142ae565b5081816005019080519060200190611eef9291906142ae565b5060008160070160006101000a81548160ff02191690836004811115611f1157fe5b021790555060058054806001018281611f2a919061432e565b9160005260206000209001600089909190916101000a81548173ffffffffffffffffffffffffffffffffffffffff021916908373ffffffffffffffffffffffffffffffffffffffff1602179055505050505050505050565b6000339050611f95818787878787611ded565b505050505050565b611fa561436e565b6007805480602002602001604051908101604052809291908181526020018280548015611ff157602002820191906000526020600020905b815481526020019060010190808311611fdd575b5050505050905090565b612003614415565b600580548060200260200160405190810160405280929190818152602001828054801561208557602002820191906000526020600020905b8160009054906101000a900473ffffffffffffffffffffffffffffffffffffffff1673ffffffffffffffffffffffffffffffffffffffff168152602001906001019080831161203b575b5050505050905090565b61209761435a565b600060068111156120a457fe5b8214156120e8576040805190810160405280600481526020017f4a415641000000000000000000000000000000000000000000000000000000008152509050612172565b600160068111156120f557fe5b821415612139576040805190810160405280600281526020017f4a530000000000000000000000000000000000000000000000000000000000008152509050612172565b6040805190810160405280600581526020017f4d4f4e474f00000000000000000000000000000000000000000000000000000081525090505b919050565b60006008600083815260200190815260200160002090508060030180548060010182816121a4919061432e565b9160005260206000209001600033909190916101000a81548173ffffffffffffffffffffffffffffffffffffffff021916908373ffffffffffffffffffffffffffffffffffffffff160217905550505050565b600080600060016000815480929190600101919050559250600860008481526020019081526020016000209150828260000181905550878260010160006101000a81548173ffffffffffffffffffffffffffffffffffffffff021916908373ffffffffffffffffffffffffffffffffffffffff160217905550868260050190805190602001906122889291906142ae565b50848260060181905550838260070190805190602001906122aa9291906142ae565b50858260020190805190602001906122c3929190614429565b5060028260040160006101000a81548160ff021916908360048111156122e557fe5b0217905550600980548060010182816122fe91906144d8565b916000526020600020900160008590919091505550600460008973ffffffffffffffffffffffffffffffffffffffff1673ffffffffffffffffffffffffffffffffffffffff168152602001908152602001600020905080600601805480600101828161236a91906144d8565b9160005260206000209001600085909190915055505050505050505050565b61239161435a565b61239961435a565b6123a161435a565b6123a961435a565b6123b161435a565b6123b961436e565b60006123c3614504565b600460008a73ffffffffffffffffffffffffffffffffffffffff1673ffffffffffffffffffffffffffffffffffffffff16815260200190815260200160002061010060405190810160405290816000820160009054906101000a900473ffffffffffffffffffffffffffffffffffffffff1673ffffffffffffffffffffffffffffffffffffffff1673ffffffffffffffffffffffffffffffffffffffff168152602001600182018054600181600116156101000203166002900480601f0160208091040260200160405190810160405280929190818152602001828054600181600116156101000203166002900480156124fe5780601f106124d3576101008083540402835291602001916124fe565b820191906000526020600020905b8154815290600101906020018083116124e157829003601f168201915b50505050508152602001600282018054600181600116156101000203166002900480601f0160208091040260200160405190810160405280929190818152602001828054600181600116156101000203166002900480156125a05780601f10612575576101008083540402835291602001916125a0565b820191906000526020600020905b81548152906001019060200180831161258357829003601f168201915b50505050508152602001600382018054600181600116156101000203166002900480601f0160208091040260200160405190810160405280929190818152602001828054600181600116156101000203166002900480156126425780601f1061261757610100808354040283529160200191612642565b820191906000526020600020905b81548152906001019060200180831161262557829003601f168201915b50505050508152602001600482018054600181600116156101000203166002900480601f0160208091040260200160405190810160405280929190818152602001828054600181600116156101000203166002900480156126e45780601f106126b9576101008083540402835291602001916126e4565b820191906000526020600020905b8154815290600101906020018083116126c757829003601f168201915b50505050508152602001600582018054600181600116156101000203166002900480601f0160208091040260200160405190810160405280929190818152602001828054600181600116156101000203166002900480156127865780601f1061275b57610100808354040283529160200191612786565b820191906000526020600020905b81548152906001019060200180831161276957829003601f168201915b50505050508152602001600682018054806020026020016040519081016040528092919081815260200182805480156127de57602002820191906000526020600020905b8154815260200190600101908083116127ca575b505050505081526020016007820160009054906101000a900460ff16600481111561280557fe5b600481111561281057fe5b81525050905080602001518160400151826060015183608001518460a001518560c001518660e00151869650859550849450839350829250819150975097509750975097509750975050919395979092949650565b600033905061287781868686866132fb565b5050505050565b61288661436e565b60098054806020026020016040519081016040528092919081815260200182805480156128d257602002820191906000526020600020905b8154815260200190600101908083116128be575b5050505050905090565b6128e461436e565b60006128ee61458f565b6128f661436e565b6000806000806129046145a3565b61290c61458f565b60008060018054039a50600660008e81526020019081526020016000206004018054806020026020016040519081016040528092919081815260200182805480156129a457602002820191906000526020600020906000905b82829054906101000a900460ff16600681111561297e57fe5b815260200190600101906020826000010492830192600103820291508084116129655790505b505050505099508a8a51026040518059106129bc5750595b9080825280602002602001820160405250985060009750600096505b8951871015612db65789878151811015156129ef57fe5b906020019060200201519550600194505b8a85111515612da957600860008681526020019081526020016000206101006040519081016040529081600082015481526020016001820160009054906101000a900473ffffffffffffffffffffffffffffffffffffffff1673ffffffffffffffffffffffffffffffffffffffff1673ffffffffffffffffffffffffffffffffffffffff16815260200160028201805480602002602001604051908101604052809291908181526020018280548015612b0657602002820191906000526020600020906000905b82829054906101000a900460ff166006811115612ae057fe5b81526020019060010190602082600001049283019260010382029150808411612ac75790505b5050505050815260200160038201805480602002602001604051908101604052809291908181526020018280548015612b9457602002820191906000526020600020905b8160009054906101000a900473ffffffffffffffffffffffffffffffffffffffff1673ffffffffffffffffffffffffffffffffffffffff1681526020019060010190808311612b4a575b505050505081526020016004820160009054906101000a900460ff166004811115612bbb57fe5b6004811115612bc657fe5b8152602001600582018054600181600116156101000203166002900480601f016020809104026020016040519081016040528092919081815260200182805460018160011615610100020316600290048015612c635780601f10612c3857610100808354040283529160200191612c63565b820191906000526020600020905b815481529060010190602001808311612c4657829003601f168201915b5050505050815260200160068201548152602001600782018054600181600116156101000203166002900480601f016020809104026020016040519081016040528092919081815260200182805460018160011615610100020316600290048015612d0f5780601f10612ce457610100808354040283529160200191612d0f565b820191906000526020600020905b815481529060010190602001808311612cf257829003601f168201915b505050505081525050935083604001519250600091505b8251821015612d9c578282815181101515612d3d57fe5b906020019060200201519050806006811115612d5557fe5b866006811115612d6157fe5b1415612d8f57848989806001019a50815181101515612d7c57fe5b9060200190602002018181525050612d9c565b8180600101925050612d26565b8480600101955050612a00565b86806001019750506129d8565b889b505050505050505050505050919050565b612dd161436e565b600080612ddc61458f565b612de461436e565b600080600080612df26145a3565b612dfa61458f565b600080600260003373ffffffffffffffffffffffffffffffffffffffff1673ffffffffffffffffffffffffffffffffffffffff168152602001908152602001600020600701549b5060018054039a50600660008d8152602001908152602001600020600401805480602002602001604051908101604052809291908181526020018280548015612ed757602002820191906000526020600020906000905b82829054906101000a900460ff166006811115612eb157fe5b81526020019060010190602082600001049283019260010382029150808411612e985790505b505050505099508a8a5102604051805910612eef5750595b9080825280602002602001820160405250985060009750600096505b89518710156132e9578987815181101515612f2257fe5b906020019060200201519550600194505b8a851115156132dc57600860008681526020019081526020016000206101006040519081016040529081600082015481526020016001820160009054906101000a900473ffffffffffffffffffffffffffffffffffffffff1673ffffffffffffffffffffffffffffffffffffffff1673ffffffffffffffffffffffffffffffffffffffff1681526020016002820180548060200260200160405190810160405280929190818152602001828054801561303957602002820191906000526020600020906000905b82829054906101000a900460ff16600681111561301357fe5b81526020019060010190602082600001049283019260010382029150808411612ffa5790505b50505050508152602001600382018054806020026020016040519081016040528092919081815260200182805480156130c757602002820191906000526020600020905b8160009054906101000a900473ffffffffffffffffffffffffffffffffffffffff1673ffffffffffffffffffffffffffffffffffffffff168152602001906001019080831161307d575b505050505081526020016004820160009054906101000a900460ff1660048111156130ee57fe5b60048111156130f957fe5b8152602001600582018054600181600116156101000203166002900480601f0160208091040260200160405190810160405280929190818152602001828054600181600116156101000203166002900480156131965780601f1061316b57610100808354040283529160200191613196565b820191906000526020600020905b81548152906001019060200180831161317957829003601f168201915b5050505050815260200160068201548152602001600782018054600181600116156101000203166002900480601f0160208091040260200160405190810160405280929190818152602001828054600181600116156101000203166002900480156132425780601f1061321757610100808354040283529160200191613242565b820191906000526020600020905b81548152906001019060200180831161322557829003601f168201915b505050505081525050935083604001519250600091505b82518210156132cf57828281518110151561327057fe5b90602001906020020151905080600681111561328857fe5b86600681111561329457fe5b14156132c257848989806001019a508151811015156132af57fe5b90602001906020020181815250506132cf565b8180600101925050613259565b8480600101955050612f33565b8680600101975050612f0b565b889c5050505050505050505050505090565b6000806000806000815480929190600101919050559250600660008481526020019081526020016000209150828260000181905550878260010160006101000a81548173ffffffffffffffffffffffffffffffffffffffff021916908373ffffffffffffffffffffffffffffffffffffffff1602179055508682600201908051906020019061338b9291906142ae565b50858260040190805190602001906133a4929190614429565b50848260030190805190602001906133bd9291906142ae565b5060008260050160006101000a81548160ff021916908360048111156133df57fe5b0217905550600780548060010182816133f891906144d8565b916000526020600020900160008590919091505550600260008973ffffffffffffffffffffffffffffffffffffffff1673ffffffffffffffffffffffffffffffffffffffff168152602001908152602001600020905080600601805480600101828161346491906144d8565b9160005260206000209001600085909190915055508315613489578281600701819055505b5050505050505050565b600061349d61435a565b6134a561458f565b60006134af61435a565b6134b7614415565b60006134c16145a3565b600860008a81526020019081526020016000206101006040519081016040529081600082015481526020016001820160009054906101000a900473ffffffffffffffffffffffffffffffffffffffff1673ffffffffffffffffffffffffffffffffffffffff1673ffffffffffffffffffffffffffffffffffffffff168152602001600282018054806020026020016040519081016040528092919081815260200182805480156135be57602002820191906000526020600020906000905b82829054906101000a900460ff16600681111561359857fe5b8152602001906001019060208260000104928301926001038202915080841161357f5790505b505050505081526020016003820180548060200260200160405190810160405280929190818152602001828054801561364c57602002820191906000526020600020905b8160009054906101000a900473ffffffffffffffffffffffffffffffffffffffff1673ffffffffffffffffffffffffffffffffffffffff1681526020019060010190808311613602575b505050505081526020016004820160009054906101000a900460ff16600481111561367357fe5b600481111561367e57fe5b8152602001600582018054600181600116156101000203166002900480601f01602080910402602001604051908101604052809291908181526020018280546001816001161561010002031660029004801561371b5780601f106136f05761010080835404028352916020019161371b565b820191906000526020600020905b8154815290600101906020018083116136fe57829003601f168201915b5050505050815260200160068201548152602001600782018054600181600116156101000203166002900480601f0160208091040260200160405190810160405280929190818152602001828054600181600116156101000203166002900480156137c75780601f1061379c576101008083540402835291602001916137c7565b820191906000526020600020905b8154815290600101906020018083116137aa57829003601f168201915b505050505081525050905080602001518160a0015182604001518360c001518460e0015185606001518660800151859550849450829250819150975097509750975097509750975050919395979092949650565b600033905061382d81868686866121f7565b5050505050565b61383c61436e565b600061384661458f565b61384e61436e565b60008060008061385c61458f565b6000806001600054039950600860008d81526020019081526020016000206002018054806020026020016040519081016040528092919081815260200182805480156138f557602002820191906000526020600020906000905b82829054906101000a900460ff1660068111156138cf57fe5b815260200190600101906020826000010492830192600103820291508084116138b65790505b5050505050985088518a0260405180591061390d5750595b9080825280602002602001820160405250975060009650600095505b8851861015613a8457888681518110151561394057fe5b906020019060200201519450600193505b8984111515613a7757600660008581526020019081526020016000206004018054806020026020016040519081016040528092919081815260200182805480156139e857602002820191906000526020600020906000905b82829054906101000a900460ff1660068111156139c257fe5b815260200190600101906020826000010492830192600103820291508084116139a95790505b50505050509250600091505b8251821015613a6a578282815181101515613a0b57fe5b906020019060200201519050846006811115613a2357fe5b816006811115613a2f57fe5b1415613a5d57838888806001019950815181101515613a4a57fe5b9060200190602002018181525050613a6a565b81806001019250506139f4565b8380600101945050613951565b8580600101965050613929565b879a5050505050505050505050919050565b613a9e61436e565b6000613aa861436e565b600080613ab36145a3565b613abb61458f565b6000806001805403975087604051805910613ad35750595b9080825280602002602001820160405250965060009550600194505b8785111515613e9857600860008681526020019081526020016000206101006040519081016040529081600082015481526020016001820160009054906101000a900473ffffffffffffffffffffffffffffffffffffffff1673ffffffffffffffffffffffffffffffffffffffff1673ffffffffffffffffffffffffffffffffffffffff16815260200160028201805480602002602001604051908101604052809291908181526020018280548015613bf557602002820191906000526020600020906000905b82829054906101000a900460ff166006811115613bcf57fe5b81526020019060010190602082600001049283019260010382029150808411613bb65790505b5050505050815260200160038201805480602002602001604051908101604052809291908181526020018280548015613c8357602002820191906000526020600020905b8160009054906101000a900473ffffffffffffffffffffffffffffffffffffffff1673ffffffffffffffffffffffffffffffffffffffff1681526020019060010190808311613c39575b505050505081526020016004820160009054906101000a900460ff166004811115613caa57fe5b6004811115613cb557fe5b8152602001600582018054600181600116156101000203166002900480601f016020809104026020016040519081016040528092919081815260200182805460018160011615610100020316600290048015613d525780601f10613d2757610100808354040283529160200191613d52565b820191906000526020600020905b815481529060010190602001808311613d3557829003601f168201915b5050505050815260200160068201548152602001600782018054600181600116156101000203166002900480601f016020809104026020016040519081016040528092919081815260200182805460018160011615610100020316600290048015613dfe5780601f10613dd357610100808354040283529160200191613dfe565b820191906000526020600020905b815481529060010190602001808311613de157829003601f168201915b505050505081525050935083604001519250600091505b8251821015613e8b578282815181101515613e2c57fe5b906020019060200201519050806006811115613e4457fe5b8a6006811115613e5057fe5b1415613e7e57848787806001019850815181101515613e6b57fe5b9060200190602002018181525050613e8b565b8180600101925050613e15565b8480600101955050613aef565b8698505050505050505050919050565b613eb061436e565b600460008373ffffffffffffffffffffffffffffffffffffffff1673ffffffffffffffffffffffffffffffffffffffff168152602001908152602001600020600601805480602002602001604051908101604052809291908181526020018280548015613f3c57602002820191906000526020600020905b815481526020019060010190808311613f28575b50505050509050919050565b6000613f5261435a565b613f5a61458f565b613f6261435a565b6000613f6c614622565b6006600088815260200190815260200160002060c06040519081016040529081600082015481526020016001820160009054906101000a900473ffffffffffffffffffffffffffffffffffffffff1673ffffffffffffffffffffffffffffffffffffffff1673ffffffffffffffffffffffffffffffffffffffff168152602001600282018054600181600116156101000203166002900480601f0160208091040260200160405190810160405280929190818152602001828054600181600116156101000203166002900480156140845780601f1061405957610100808354040283529160200191614084565b820191906000526020600020905b81548152906001019060200180831161406757829003601f168201915b50505050508152602001600382018054600181600116156101000203166002900480601f0160208091040260200160405190810160405280929190818152602001828054600181600116156101000203166002900480156141265780601f106140fb57610100808354040283529160200191614126565b820191906000526020600020905b81548152906001019060200180831161410957829003601f168201915b50505050508152602001600482018054806020026020016040519081016040528092919081815260200182805480156141ac57602002820191906000526020600020906000905b82829054906101000a900460ff16600681111561418657fe5b8152602001906001019060208260000104928301926001038202915080841161416d5790505b505050505081526020016005820160009054906101000a900460ff1660048111156141d357fe5b60048111156141de57fe5b81525050905080602001518160400151826080015183606001518460a00151839350829250819150955095509550955095505091939590929450565b614222614415565b60038054806020026020016040519081016040528092919081815260200182805480156142a457602002820191906000526020600020905b8160009054906101000a900473ffffffffffffffffffffffffffffffffffffffff1673ffffffffffffffffffffffffffffffffffffffff168152602001906001019080831161425a575b5050505050905090565b828054600181600116156101000203166002900490600052602060002090601f016020900481019282601f106142ef57805160ff191683800117855561431d565b8280016001018555821561431d579182015b8281111561431c578251825591602001919060010190614301565b5b50905061432a919061468c565b5090565b81548183558181151161435557818360005260206000209182019101614354919061468c565b5b505050565b602060405190810160405280600081525090565b602060405190810160405280600081525090565b61014060405190810160405280600073ffffffffffffffffffffffffffffffffffffffff1681526020016143b46146b1565b81526020016143c16146b1565b81526020016143ce6146b1565b81526020016143db6146b1565b8152602001600081526020016143ef6146c5565b815260200160008152602001600081526020016000600481111561440f57fe5b81525090565b602060405190810160405280600081525090565b82805482825590600052602060002090601f016020900481019282156144c75791602002820160005b8382111561449857835183826101000a81548160ff0219169083600681111561447757fe5b02179055509260200192600101602081600001049283019260010302614452565b80156144c55782816101000a81549060ff0219169055600101602081600001049283019260010302614498565b505b5090506144d491906146d9565b5090565b8154818355818115116144ff578183600052602060002091820191016144fe919061468c565b5b505050565b61010060405190810160405280600073ffffffffffffffffffffffffffffffffffffffff1681526020016145366146b1565b81526020016145436146b1565b81526020016145506146b1565b815260200161455d6146b1565b815260200161456a6146b1565b81526020016145776146c5565b81526020016000600481111561458957fe5b81525090565b602060405190810160405280600081525090565b6101006040519081016040528060008152602001600073ffffffffffffffffffffffffffffffffffffffff1681526020016145dc614709565b81526020016145e961471d565b8152602001600060048111156145fb57fe5b81526020016146086146b1565b81526020016000815260200161461c6146b1565b81525090565b60c06040519081016040528060008152602001600073ffffffffffffffffffffffffffffffffffffffff16815260200161465a6146b1565b81526020016146676146b1565b8152602001614674614709565b81526020016000600481111561468657fe5b81525090565b6146ae91905b808211156146aa576000816000905550600101614692565b5090565b90565b602060405190810160405280600081525090565b602060405190810160405280600081525090565b61470691905b8082111561470257600081816101000a81549060ff0219169055506001016146df565b5090565b90565b602060405190810160405280600081525090565b6020604051908101604052806000815250905600a165627a7a7230582044d87e188d27e44d4c2ef2494b97a76ac55e8fecc3863152922901e6bc2862300029",
  "source": "pragma solidity  ^0.4.18;\n\ncontract Market {\n\n    enum Status {ACTIVE, INACTIVE, VACANT, OFFERED, CANCELLED}\n    enum Skill {JAVA, JS, MYSQL, MONGO, SCALA, KOTLIN, OTHER}\n\n    uint profileId = 1;\n    uint jobId = 1;\n\n    mapping (address => Employee) employeeMap;\n    address[] employeeCodes;\n\n    mapping(address => Employer) employerMap;\n    address[] employerCodes;\n\n    mapping(uint => Profile) profileMap;\n    uint[] allProfileIds;\n\n    mapping(uint => Job) jobMap;\n    uint[] allJobIds;\n\n    struct Employee {\n        address code;\n        string name;\n        string email;\n        string phoneNo;\n        string statement;\n        uint rate;\n        uint[] profileIds;\n        uint defaultProfileId;\n        uint id;\n        Status status;\n    }\n\n    struct Profile {\n        uint id;\n        address employeeCode;\n        string name;\n        string cvHash;\n        Skill[] skills;\n        Status status;\n    }\n\n    struct Employer {\n        address code;\n        string name;\n        string email;\n        string company;\n        string add;\n        string country;\n        uint[] jobIds;\n        Status status;\n    }\n\n\n    struct Job {\n        uint id;\n        address employerCode;\n        Skill[] requiredSkills;\n        address[] appliedEmployeeCodes;\n        Status status;\n        string JobTitle;\n        uint hourlyRate;\n        string Description;\n    }\n\n\n    function setEmployee(string _name, string _email, string _phoneNo, string _statement, uint _rate) public {\n        address _address = msg.sender;\n        setEmployeeWithAddress(_address, _name, _email, _phoneNo, _statement, _rate);\n    }\n    function setEmployeeWithAddress(address _address, string _name, string _email, string _phoneNo, string _statement, uint _rate) public {\n        Employee storage employee = employeeMap[_address];\n        employee.code = _address;\n        employee.name = _name;\n        employee.email = _email;\n        employee.phoneNo = _phoneNo;\n        employee.statement = _statement;\n        employee.rate = _rate;\n        employee.status = Status.ACTIVE;\n        employeeCodes.push(_address);\n    }\n    function getEmployee(address _address) view public returns(string,string,string,string,uint, uint[], uint, Status) {\n        Employee memory employee = employeeMap[_address];\n        return(employee.name,employee.email,employee.phoneNo,employee.statement,employee.rate, employee.profileIds, employee.defaultProfileId, employee.status);\n    }\n    function getEmployeeCodes() view public returns(address[] codes) {\n        return employeeCodes;\n    }\n\n\n    function setEmployer(string _name, string _email, string _company, string _add, string _country) public {\n        address _address = msg.sender;\n        setEmployerWithAddress(_address, _name, _email, _company, _add, _country);\n    }\n    function setEmployerWithAddress(address _address, string _name, string _email, string _company, string _add, string _country) public {\n        Employer storage employer = employerMap[_address];\n        employer.code = _address;\n        employer.name = _name;\n        employer.email = _email;\n        employer.company = _company;\n        employer.add = _add;\n        employer.country = _country;\n        employer.status = Status.ACTIVE;\n        employerCodes.push(_address);\n    }\n    function getEmployer(address _address) view public returns(string name,string email, string company, string add, string country, uint[] jobIds, Status status) {\n        Employer memory employer = employerMap[_address];\n        return (employer.name,employer.email,employer.company,employer.add,employer.country, employer.jobIds, employer.status);\n    }\n    function getEmployerCodes() view public returns(address[]) {\n        return employerCodes;\n    }\n\n\n    function setProfile(string _name, Skill[] _skills, string _cvHash, bool _defaultProfile) public {\n            address _employeeCode = msg.sender;\n            setProfileWithAddress(_employeeCode, _name, _skills, _cvHash, _defaultProfile);\n    }\n    function setProfileWithAddress(address _employeeCode, string _name, Skill[] _skills, string _cvHash, bool _defaultProfile) public {\n        //throw if employee not found\n        uint _id = profileId++;\n        Profile storage profile = profileMap[_id];\n        profile.id = _id;\n        profile.employeeCode = _employeeCode;\n        profile.name = _name;\n        profile.skills = _skills;\n        profile.cvHash = _cvHash;\n        profile.status = Status.ACTIVE;\n        allProfileIds.push(_id);\n        Employee storage employee = employeeMap[_employeeCode];\n        employee.profileIds.push(_id);\n        if(_defaultProfile) {\n            employee.defaultProfileId = _id;\n        }\n    }\n    function getProfile(uint _id) view public returns(address, string, Skill[], string, Status) {\n        Profile memory profile = profileMap[_id];\n        return(profile.employeeCode, profile.name, profile.skills, profile.cvHash, profile.status);\n    }\n    function getAllProfileIds() view public returns(uint[] ids) {\n        return allProfileIds;\n    }\n\n    function setJob(string _JobTitle, Skill[] _requiredSkills, uint _hourlyRate, string _Description) public {\n        address _employerCode = msg.sender;\n        setJobWithAddress(_employerCode, _JobTitle, _requiredSkills,_hourlyRate,_Description);\n    }\n    function setJobWithAddress(address _employerCode, string _JobTitle, Skill[] _requiredSkills, uint _hourlyRate, string _Description) public {\n        uint _id = jobId++;\n        Job storage job = jobMap[_id];\n        job.id = _id;\n        job.employerCode = _employerCode;\n        job.JobTitle = _JobTitle;\n        job.hourlyRate= _hourlyRate;\n        job.Description=_Description;\n        job.requiredSkills = _requiredSkills;\n        job.status = Status.VACANT;\n        //appliedEmployeeCodes\n        allJobIds.push(_id);\n        Employer storage employer = employerMap[_employerCode];\n        employer.jobIds.push(_id);\n    }\n\n    function updateJobAppliedEmployees(uint _jobId) public {\n        Job storage job = jobMap[_jobId];\n        job.appliedEmployeeCodes.push(msg.sender);\n    }\n    function getJob(uint _id) view public returns(address, string, Skill[], uint, string, address[], Status) {\n        Job memory job = jobMap[_id];\n        return(job.employerCode, job.JobTitle, job.requiredSkills, job.hourlyRate, job.Description, job.appliedEmployeeCodes, job.status);\n    }\n\n    function getJobIdFromAddress(address _address) view public returns (uint[]) {\n        return (employerMap[_address].jobIds);\n    }\n\n    function getAllJobIds() view public returns(uint[] postedJobIds) {\n        return allJobIds;\n    }\n\n    //has duplicates\n    function findEmployeeProfilesByJob(uint _jobId) view public returns(uint[] matchingProfiles) {\n        uint noOfProfiles = profileId -1;\n        Skill[] memory requiredSkills = jobMap[_jobId].requiredSkills;\n        uint[] memory matchingProfileIds = new uint[](noOfProfiles * requiredSkills.length);\n        uint index = 0;\n\n        for(uint r=0; r<requiredSkills.length; r++) {\n            Skill required = requiredSkills[r];\n\n            for(uint p=1; p<=noOfProfiles; p++) {\n\n                Skill[] memory skills = profileMap[p].skills;\n                for(uint s=0; s<skills.length; s++) {\n                    Skill skill = skills[s];\n\n                    if(skill == required) {\n                        matchingProfileIds[index++] = p;\n                        break;\n                    }\n                }\n            }\n        }\n        return matchingProfileIds;\n    }\n\n    function findJobsByEmployee() view public returns(uint[]) {\n        uint defaultProfileId = employeeMap[msg.sender].defaultProfileId;\n        uint noOfJobs = jobId -1;\n        Skill[] memory skills = profileMap[defaultProfileId].skills;\n        uint[] memory matchingJobIds = new uint[](skills.length * noOfJobs);\n        uint index = 0;\n\n        for(uint s=0; s<skills.length; s++) {\n            Skill skill = skills[s];\n\n            for(uint j=1; j<=noOfJobs; j++) {\n                Job memory job = jobMap[j];\n\n                Skill[] memory requiredSkills = job.requiredSkills;\n                for(uint m=0; m<requiredSkills.length; m++) {\n                    Skill required = requiredSkills[m];\n\n                    if(skill == required) {\n                        matchingJobIds[index++] = j;\n                        break;\n                    }\n\n                }\n            }\n\n        }\n\n        return matchingJobIds;\n    }\n\n    //has duplicates\n    function findJobsByProfile(uint _profileId) view public returns(uint[] matchingIds) {\n        uint noOfJobs = jobId -1;\n        Skill[] memory skills = profileMap[_profileId].skills;\n        uint[] memory matchingJobIds = new uint[](skills.length * noOfJobs);\n        uint index = 0;\n\n        for(uint s=0; s<skills.length; s++) {\n            Skill skill = skills[s];\n\n            for(uint j=1; j<=noOfJobs; j++) {\n                Job memory job = jobMap[j];\n\n                Skill[] memory requiredSkills = job.requiredSkills;\n                for(uint m=0; m<requiredSkills.length; m++) {\n                    Skill required = requiredSkills[m];\n\n                    if(skill == required) {\n                        matchingJobIds[index++] = j;\n                        break;\n                    }\n\n                }\n            }\n\n        }\n\n        return matchingJobIds;\n    }\n\n    function findJobsBySkill(Skill _skill) view public returns(uint[] matchingIds) {\n        uint noOfJobs = jobId -1;\n\n        uint[] memory matchingJobIds = new uint[](noOfJobs);\n\n        uint index = 0;\n        for(uint j=1; j<=noOfJobs; j++) {\n            Job memory job = jobMap[j];\n\n            Skill[] memory requiredSkills = job.requiredSkills;\n            for(uint m=0; m<requiredSkills.length; m++) {\n                Skill required = requiredSkills[m];\n\n                if(_skill == required) {\n                    matchingJobIds[index++] = j;\n                    break;\n                }\n\n            }\n        }\n        return matchingJobIds;\n    }\n\n    function uintToSkill(uint _uint) pure public returns(string skill) {\n        if(_uint == uint(Skill.JAVA))\n            return \"JAVA\";\n        if(_uint == uint(Skill.JS))\n            return \"JS\";\n        return \"MONGO\";\n    }\n\n}\n",
  "sourcePath": "/home/archchitha/Blockchain-JobMarket/contracts/Market.sol",
  "compiler": {
    "name": "solc",
    "version": "0.4.18+commit.9cf6e910.Emscripten.clang"
  },
  "schemaVersion": "1.0.1",
  "updatedAt": "2018-04-11T02:15:24.900Z"
}