{
  "contractName": "Market",
  "abi": [
    {
      "constant": false,
      "inputs": [
        {
          "name": "_name",
          "type": "string"
        }
      ],
      "name": "setEmployee",
      "outputs": [],
      "payable": false,
      "stateMutability": "nonpayable",
      "type": "function"
    },
    {
      "constant": true,
      "inputs": [
        {
          "name": "_address",
          "type": "address"
        }
      ],
      "name": "getEmployee",
      "outputs": [
        {
          "name": "name",
          "type": "string"
        },
        {
          "name": "profileIds",
          "type": "uint256[]"
        },
        {
          "name": "status",
          "type": "uint8"
        }
      ],
      "payable": false,
      "stateMutability": "view",
      "type": "function"
    },
    {
      "constant": true,
      "inputs": [],
      "name": "getEmployeeCodes",
      "outputs": [
        {
          "name": "",
          "type": "address[]"
        }
      ],
      "payable": false,
      "stateMutability": "view",
      "type": "function"
    },
    {
      "constant": false,
      "inputs": [
        {
          "name": "_address",
          "type": "address"
        },
        {
          "name": "_name",
          "type": "string"
        }
      ],
      "name": "setEmployer",
      "outputs": [],
      "payable": false,
      "stateMutability": "nonpayable",
      "type": "function"
    },
    {
      "constant": true,
      "inputs": [
        {
          "name": "_address",
          "type": "address"
        }
      ],
      "name": "getEmployer",
      "outputs": [
        {
          "name": "name",
          "type": "string"
        },
        {
          "name": "jobIds",
          "type": "uint256[]"
        },
        {
          "name": "status",
          "type": "uint8"
        }
      ],
      "payable": false,
      "stateMutability": "view",
      "type": "function"
    },
    {
      "constant": true,
      "inputs": [],
      "name": "getEmployerCodes",
      "outputs": [
        {
          "name": "",
          "type": "address[]"
        }
      ],
      "payable": false,
      "stateMutability": "view",
      "type": "function"
    },
    {
      "constant": false,
      "inputs": [
        {
          "name": "_employeeCode",
          "type": "address"
        },
        {
          "name": "_name",
          "type": "string"
        },
        {
          "name": "_skills",
          "type": "uint8[]"
        }
      ],
      "name": "setProfile",
      "outputs": [],
      "payable": false,
      "stateMutability": "nonpayable",
      "type": "function"
    },
    {
      "constant": true,
      "inputs": [
        {
          "name": "_id",
          "type": "uint256"
        }
      ],
      "name": "getProfile",
      "outputs": [
        {
          "name": "employeeCode",
          "type": "address"
        },
        {
          "name": "name",
          "type": "string"
        },
        {
          "name": "skills",
          "type": "uint8[]"
        },
        {
          "name": "status",
          "type": "uint8"
        }
      ],
      "payable": false,
      "stateMutability": "view",
      "type": "function"
    },
    {
      "constant": true,
      "inputs": [],
      "name": "getProileIds",
      "outputs": [
        {
          "name": "",
          "type": "uint256[]"
        }
      ],
      "payable": false,
      "stateMutability": "view",
      "type": "function"
    },
    {
      "constant": false,
      "inputs": [
        {
          "name": "_employerCode",
          "type": "address"
        },
        {
          "name": "_name",
          "type": "string"
        },
        {
          "name": "_requiredSkills",
          "type": "uint8[]"
        }
      ],
      "name": "setJob",
      "outputs": [],
      "payable": false,
      "stateMutability": "nonpayable",
      "type": "function"
    },
    {
      "constant": true,
      "inputs": [
        {
          "name": "_id",
          "type": "uint256"
        }
      ],
      "name": "getJob",
      "outputs": [
        {
          "name": "employerCode",
          "type": "address"
        },
        {
          "name": "name",
          "type": "string"
        },
        {
          "name": "requiredSkills",
          "type": "uint8[]"
        },
        {
          "name": "appliedEmployeeCodes",
          "type": "address[]"
        },
        {
          "name": "status",
          "type": "uint8"
        }
      ],
      "payable": false,
      "stateMutability": "view",
      "type": "function"
    },
    {
      "constant": true,
      "inputs": [],
      "name": "getJobIds",
      "outputs": [
        {
          "name": "",
          "type": "uint256[]"
        }
      ],
      "payable": false,
      "stateMutability": "view",
      "type": "function"
    },
    {
      "constant": false,
      "inputs": [
        {
          "name": "_ad1",
          "type": "address"
        },
        {
          "name": "_ad2",
          "type": "address"
        },
        {
          "name": "_ad3",
          "type": "address"
        }
      ],
      "name": "setInitialData",
      "outputs": [],
      "payable": false,
      "stateMutability": "nonpayable",
      "type": "function"
    }
  ],
  "bytecode": "0x6060604052600160005560018055341561001857600080fd5b6120ea806100276000396000f3006060604052600436106100c5576000357c0100000000000000000000000000000000000000000000000000000000900463ffffffff1680630738e287146100ca57806310f4c5971461018657806332648e09146101e35780634b0fa847146102f2578063633e0c231461035c5780637560d4ce146103c65780638a77cbcf146104d55780639e1b78cd1461054c578063afca0715146105b6578063bf22c45714610632578063cfcd56ee146107a6578063f08f4f6414610862578063ff66aa621461098e575b600080fd5b34156100d557600080fd5b610184600480803573ffffffffffffffffffffffffffffffffffffffff1690602001909190803590602001908201803590602001908080601f01602080910402602001604051908101604052809392919081815260200183838082843782019150505050505091908035906020019082018035906020019080806020026020016040519081016040528093929190818152602001838360200280828437820191505050505050919050506109f8565b005b341561019157600080fd5b6101e1600480803590602001908201803590602001908080601f01602080910402602001604051908101604052809392919081815260200183838082843782019150505050505091905050610b66565b005b34156101ee57600080fd5b61021a600480803573ffffffffffffffffffffffffffffffffffffffff16906020019091905050610c97565b60405180806020018060200184600481111561023257fe5b60ff168152602001838103835286818151815260200191508051906020019080838360005b83811015610272578082015181840152602081019050610257565b50505050905090810190601f16801561029f5780820380516001836020036101000a031916815260200191505b50838103825285818151815260200191508051906020019060200280838360005b838110156102db5780820151818401526020810190506102c0565b505050509050019550505050505060405180910390f35b34156102fd57600080fd5b610305610e9e565b6040518080602001828103825283818151815260200191508051906020019060200280838360005b8381101561034857808201518184015260208101905061032d565b505050509050019250505060405180910390f35b341561036757600080fd5b61036f610efc565b6040518080602001828103825283818151815260200191508051906020019060200280838360005b838110156103b2578082015181840152602081019050610397565b505050509050019250505060405180910390f35b34156103d157600080fd5b6103fd600480803573ffffffffffffffffffffffffffffffffffffffff16906020019091905050610f90565b60405180806020018060200184600481111561041557fe5b60ff168152602001838103835286818151815260200191508051906020019080838360005b8381101561045557808201518184015260208101905061043a565b50505050905090810190601f1680156104825780820380516001836020036101000a031916815260200191505b50838103825285818151815260200191508051906020019060200280838360005b838110156104be5780820151818401526020810190506104a3565b505050509050019550505050505060405180910390f35b34156104e057600080fd5b61054a600480803573ffffffffffffffffffffffffffffffffffffffff1690602001909190803573ffffffffffffffffffffffffffffffffffffffff1690602001909190803573ffffffffffffffffffffffffffffffffffffffff16906020019091905050611197565b005b341561055757600080fd5b61055f61126f565b6040518080602001828103825283818151815260200191508051906020019060200280838360005b838110156105a2578082015181840152602081019050610587565b505050509050019250505060405180910390f35b34156105c157600080fd5b610630600480803573ffffffffffffffffffffffffffffffffffffffff1690602001909190803590602001908201803590602001908080601f016020809104026020016040519081016040528093929190818152602001838380828437820191505050505050919050506112cd565b005b341561063d57600080fd5b61065360048080359060200190919050506113fa565b604051808673ffffffffffffffffffffffffffffffffffffffff1673ffffffffffffffffffffffffffffffffffffffff1681526020018060200180602001806020018560048111156106a157fe5b60ff168152602001848103845288818151815260200191508051906020019080838360005b838110156106e15780820151818401526020810190506106c6565b50505050905090810190601f16801561070e5780820380516001836020036101000a031916815260200191505b50848103835287818151815260200191508051906020019060200280838360005b8381101561074a57808201518184015260208101905061072f565b50505050905001848103825286818151815260200191508051906020019060200280838360005b8381101561078c578082015181840152602081019050610771565b505050509050019850505050505050505060405180910390f35b34156107b157600080fd5b610860600480803573ffffffffffffffffffffffffffffffffffffffff1690602001909190803590602001908201803590602001908080601f01602080910402602001604051908101604052809392919081815260200183838082843782019150505050505091908035906020019082018035906020019080806020026020016040519081016040528093929190818152602001838360200280828437820191505050505050919050506116b8565b005b341561086d57600080fd5b6108836004808035906020019091905050611825565b604051808573ffffffffffffffffffffffffffffffffffffffff1673ffffffffffffffffffffffffffffffffffffffff16815260200180602001806020018460048111156108cd57fe5b60ff168152602001838103835286818151815260200191508051906020019080838360005b8381101561090d5780820151818401526020810190506108f2565b50505050905090810190601f16801561093a5780820380516001836020036101000a031916815260200191505b50838103825285818151815260200191508051906020019060200280838360005b8381101561097657808201518184015260208101905061095b565b50505050905001965050505050505060405180910390f35b341561099957600080fd5b6109a1611a41565b6040518080602001828103825283818151815260200191508051906020019060200280838360005b838110156109e45780820151818401526020810190506109c9565b505050509050019250505060405180910390f35b600080600060016000815480929190600101919050559250600860008481526020019081526020016000209150828260000181905550858260010160006101000a81548173ffffffffffffffffffffffffffffffffffffffff021916908373ffffffffffffffffffffffffffffffffffffffff16021790555084826002019080519060200190610a89929190611ccf565b5083826003019080519060200190610aa2929190611d4f565b5060028260050160006101000a81548160ff02191690836004811115610ac457fe5b021790555060098054806001018281610add9190611dfe565b916000526020600020900160008590919091505550600460008773ffffffffffffffffffffffffffffffffffffffff1673ffffffffffffffffffffffffffffffffffffffff1681526020019081526020016000209050806002018054806001018281610b499190611dfe565b916000526020600020900160008590919091505550505050505050565b600080339150600260008373ffffffffffffffffffffffffffffffffffffffff1673ffffffffffffffffffffffffffffffffffffffff1681526020019081526020016000209050818160000160006101000a81548173ffffffffffffffffffffffffffffffffffffffff021916908373ffffffffffffffffffffffffffffffffffffffff16021790555082816001019080519060200190610c08929190611ccf565b5060008160030160006101000a81548160ff02191690836004811115610c2a57fe5b021790555060038054806001018281610c439190611e2a565b9160005260206000209001600084909190916101000a81548173ffffffffffffffffffffffffffffffffffffffff021916908373ffffffffffffffffffffffffffffffffffffffff16021790555050505050565b610c9f611e56565b610ca7611e6a565b6000610cb1611e7e565b600260008673ffffffffffffffffffffffffffffffffffffffff1673ffffffffffffffffffffffffffffffffffffffff168152602001908152602001600020608060405190810160405290816000820160009054906101000a900473ffffffffffffffffffffffffffffffffffffffff1673ffffffffffffffffffffffffffffffffffffffff1673ffffffffffffffffffffffffffffffffffffffff168152602001600182018054600181600116156101000203166002900480601f016020809104026020016040519081016040528092919081815260200182805460018160011615610100020316600290048015610deb5780601f10610dc057610100808354040283529160200191610deb565b820191906000526020600020905b815481529060010190602001808311610dce57829003601f168201915b5050505050815260200160028201805480602002602001604051908101604052809291908181526020018280548015610e4357602002820191906000526020600020905b815481526020019060010190808311610e2f575b505050505081526020016003820160009054906101000a900460ff166004811115610e6a57fe5b6004811115610e7557fe5b815250509050806020015181604001518260600151829250819150935093509350509193909250565b610ea6611e6a565b6009805480602002602001604051908101604052809291908181526020018280548015610ef257602002820191906000526020600020905b815481526020019060010190808311610ede575b5050505050905090565b610f04611ed4565b6005805480602002602001604051908101604052809291908181526020018280548015610f8657602002820191906000526020600020905b8160009054906101000a900473ffffffffffffffffffffffffffffffffffffffff1673ffffffffffffffffffffffffffffffffffffffff1681526020019060010190808311610f3c575b5050505050905090565b610f98611e56565b610fa0611e6a565b6000610faa611ee8565b600460008673ffffffffffffffffffffffffffffffffffffffff1673ffffffffffffffffffffffffffffffffffffffff168152602001908152602001600020608060405190810160405290816000820160009054906101000a900473ffffffffffffffffffffffffffffffffffffffff1673ffffffffffffffffffffffffffffffffffffffff1673ffffffffffffffffffffffffffffffffffffffff168152602001600182018054600181600116156101000203166002900480601f0160208091040260200160405190810160405280929190818152602001828054600181600116156101000203166002900480156110e45780601f106110b9576101008083540402835291602001916110e4565b820191906000526020600020905b8154815290600101906020018083116110c757829003601f168201915b505050505081526020016002820180548060200260200160405190810160405280929190818152602001828054801561113c57602002820191906000526020600020905b815481526020019060010190808311611128575b505050505081526020016003820160009054906101000a900460ff16600481111561116357fe5b600481111561116e57fe5b815250509050806020015181604001518260600151829250819150935093509350509193909250565b82600a60006101000a81548173ffffffffffffffffffffffffffffffffffffffff021916908373ffffffffffffffffffffffffffffffffffffffff16021790555081600b60006101000a81548173ffffffffffffffffffffffffffffffffffffffff021916908373ffffffffffffffffffffffffffffffffffffffff16021790555080600c60006101000a81548173ffffffffffffffffffffffffffffffffffffffff021916908373ffffffffffffffffffffffffffffffffffffffff160217905550611262611ad5565b61126a611ad7565b505050565b611277611e6a565b60078054806020026020016040519081016040528092919081815260200182805480156112c357602002820191906000526020600020905b8154815260200190600101908083116112af575b5050505050905090565b6000600460008473ffffffffffffffffffffffffffffffffffffffff1673ffffffffffffffffffffffffffffffffffffffff1681526020019081526020016000209050828160000160006101000a81548173ffffffffffffffffffffffffffffffffffffffff021916908373ffffffffffffffffffffffffffffffffffffffff1602179055508181600101908051906020019061136b929190611ccf565b5060008160030160006101000a81548160ff0219169083600481111561138d57fe5b0217905550600580548060010182816113a69190611e2a565b9160005260206000209001600085909190916101000a81548173ffffffffffffffffffffffffffffffffffffffff021916908373ffffffffffffffffffffffffffffffffffffffff16021790555050505050565b6000611404611e56565b61140c611f3e565b611414611ed4565b600061141e611f52565b6008600088815260200190815260200160002060c06040519081016040529081600082015481526020016001820160009054906101000a900473ffffffffffffffffffffffffffffffffffffffff1673ffffffffffffffffffffffffffffffffffffffff1673ffffffffffffffffffffffffffffffffffffffff168152602001600282018054600181600116156101000203166002900480601f0160208091040260200160405190810160405280929190818152602001828054600181600116156101000203166002900480156115365780601f1061150b57610100808354040283529160200191611536565b820191906000526020600020905b81548152906001019060200180831161151957829003601f168201915b50505050508152602001600382018054806020026020016040519081016040528092919081815260200182805480156115bc57602002820191906000526020600020906000905b82829054906101000a900460ff16600681111561159657fe5b8152602001906001019060208260000104928301926001038202915080841161157d5790505b505050505081526020016004820180548060200260200160405190810160405280929190818152602001828054801561164a57602002820191906000526020600020905b8160009054906101000a900473ffffffffffffffffffffffffffffffffffffffff1673ffffffffffffffffffffffffffffffffffffffff1681526020019060010190808311611600575b505050505081526020016005820160009054906101000a900460ff16600481111561167157fe5b600481111561167c57fe5b81525050905080602001518160400151826060015183608001518460a00151839350829250819150955095509550955095505091939590929450565b6000806000806000815480929190600101919050559250600660008481526020019081526020016000209150828260000181905550858260010160006101000a81548173ffffffffffffffffffffffffffffffffffffffff021916908373ffffffffffffffffffffffffffffffffffffffff16021790555084826002019080519060200190611748929190611ccf565b5083826003019080519060200190611761929190611d4f565b5060008260040160006101000a81548160ff0219169083600481111561178357fe5b02179055506007805480600101828161179c9190611dfe565b916000526020600020900160008590919091505550600260008773ffffffffffffffffffffffffffffffffffffffff1673ffffffffffffffffffffffffffffffffffffffff16815260200190815260200160002090508060020180548060010182816118089190611dfe565b916000526020600020900160008590919091505550505050505050565b600061182f611e56565b611837611f3e565b6000611841611fbc565b6006600087815260200190815260200160002060a06040519081016040529081600082015481526020016001820160009054906101000a900473ffffffffffffffffffffffffffffffffffffffff1673ffffffffffffffffffffffffffffffffffffffff1673ffffffffffffffffffffffffffffffffffffffff168152602001600282018054600181600116156101000203166002900480601f0160208091040260200160405190810160405280929190818152602001828054600181600116156101000203166002900480156119595780601f1061192e57610100808354040283529160200191611959565b820191906000526020600020905b81548152906001019060200180831161193c57829003601f168201915b50505050508152602001600382018054806020026020016040519081016040528092919081815260200182805480156119df57602002820191906000526020600020906000905b82829054906101000a900460ff1660068111156119b957fe5b815260200190600101906020826000010492830192600103820291508084116119a05790505b505050505081526020016004820160009054906101000a900460ff166004811115611a0657fe5b6004811115611a1157fe5b81525050905080602001518160400151826060015183608001518292508191509450945094509450509193509193565b611a49611ed4565b6003805480602002602001604051908101604052809291908181526020018280548015611acb57602002820191906000526020600020905b8160009054906101000a900473ffffffffffffffffffffffffffffffffffffffff1673ffffffffffffffffffffffffffffffffffffffff1681526020019060010190808311611a81575b5050505050905090565b565b611adf611f3e565b611ae7611f3e565b6002604051805910611af65750595b908082528060200260200182016040525091506000826000815181101515611b1a57fe5b906020019060200201906006811115611b2f57fe5b90816006811115611b3c57fe5b815250506001826001815181101515611b5157fe5b906020019060200201906006811115611b6657fe5b90816006811115611b7357fe5b81525050611bd9600a60009054906101000a900473ffffffffffffffffffffffffffffffffffffffff166040805190810160405280600f81526020017f646576656c6f70657250726f696c650000000000000000000000000000000000815250846116b8565b6002604051805910611be85750595b908082528060200260200182016040525090506001816000815181101515611c0c57fe5b906020019060200201906006811115611c2157fe5b90816006811115611c2e57fe5b815250506003816001815181101515611c4357fe5b906020019060200201906006811115611c5857fe5b90816006811115611c6557fe5b81525050611ccb600b60009054906101000a900473ffffffffffffffffffffffffffffffffffffffff166040805190810160405280600f81526020017f646576656c6f70657250726f696c650000000000000000000000000000000000815250836116b8565b5050565b828054600181600116156101000203166002900490600052602060002090601f016020900481019282601f10611d1057805160ff1916838001178555611d3e565b82800160010185558215611d3e579182015b82811115611d3d578251825591602001919060010190611d22565b5b509050611d4b9190612019565b5090565b82805482825590600052602060002090601f01602090048101928215611ded5791602002820160005b83821115611dbe57835183826101000a81548160ff02191690836006811115611d9d57fe5b02179055509260200192600101602081600001049283019260010302611d78565b8015611deb5782816101000a81549060ff0219169055600101602081600001049283019260010302611dbe565b505b509050611dfa919061203e565b5090565b815481835581811511611e2557818360005260206000209182019101611e249190612019565b5b505050565b815481835581811511611e5157818360005260206000209182019101611e509190612019565b5b505050565b602060405190810160405280600081525090565b602060405190810160405280600081525090565b608060405190810160405280600073ffffffffffffffffffffffffffffffffffffffff168152602001611eaf61206e565b8152602001611ebc612082565b815260200160006004811115611ece57fe5b81525090565b602060405190810160405280600081525090565b608060405190810160405280600073ffffffffffffffffffffffffffffffffffffffff168152602001611f1961206e565b8152602001611f26612082565b815260200160006004811115611f3857fe5b81525090565b602060405190810160405280600081525090565b60c06040519081016040528060008152602001600073ffffffffffffffffffffffffffffffffffffffff168152602001611f8a61206e565b8152602001611f97612096565b8152602001611fa46120aa565b815260200160006004811115611fb657fe5b81525090565b60a06040519081016040528060008152602001600073ffffffffffffffffffffffffffffffffffffffff168152602001611ff461206e565b8152602001612001612096565b81526020016000600481111561201357fe5b81525090565b61203b91905b8082111561203757600081600090555060010161201f565b5090565b90565b61206b91905b8082111561206757600081816101000a81549060ff021916905550600101612044565b5090565b90565b602060405190810160405280600081525090565b602060405190810160405280600081525090565b602060405190810160405280600081525090565b6020604051908101604052806000815250905600a165627a7a723058200e5d03bb57142ddcb258b6c2744a2a59fae1959dfc79c6e438aa2c6e7a28326a0029",
  "source": "pragma solidity  ^0.4.18;\n\ncontract Market {\n\n    enum Status {ACTIVE, INACTIVE, VACANT, OFFERED, CANCELLED}\n    enum Skill {JAVA, JS, SCALA, KOTLIN, MYSQL, MONGO, OTHER}\n\n    uint profileId = 1;\n    uint jobId = 1;\n\n    mapping (address => Employee) employeeMap;\n    address[] employeeCodes;\n\n    mapping(address => Employer) employerMap;\n    address[] employerCodes;\n\n    mapping(uint => Profile) proileMap;\n    uint[] profileIds;\n\n    mapping(uint => Job) jobMap;\n    uint[] jobIds;\n\n    struct Employee {\n        address code;\n        string name;\n        uint[] profileIds;\n        Status status;\n    }\n\n    struct Employer {\n        address code;\n        string name;\n        uint[] jobIds;\n        Status status;\n    }\n\n    struct Profile {\n        uint id;\n        address employeeCode;\n        string name;\n        Skill[] skills;\n        Status status;\n    }\n\n    struct Job {\n        uint id;\n        address employerCode;\n        string name;\n        Skill[] requiredSkills;\n        address[] appliedEmployeeCodes;\n        Status status;\n    }\n\n\n    // function setEmployee(address _address, string _name) public {\n    //     Employee storage employee = employeeMap[_address];\n    //     employee.code = _address;\n    //     employee.name = _name;\n    //     employee.status = Status.ACTIVE;\n    //     employeeCodes.push(_address);\n    // }\n    function setEmployee(string _name) public {\n        address _address = msg.sender;\n        Employee storage employee = employeeMap[_address];\n        employee.code = _address;\n        employee.name = _name;\n        employee.status = Status.ACTIVE;\n        employeeCodes.push(_address);\n    }\n    function getEmployee(address _address) view public returns(string name, uint[] profileIds, Status status) {\n        Employee memory employee = employeeMap[_address];\n        return(employee.name, employee.profileIds, employee.status);\n    }\n    function getEmployeeCodes() view public returns(address[]) {\n        return employeeCodes;\n    }\n\n\n    function setEmployer(address _address, string _name) public {\n        Employer storage employer = employerMap[_address];\n        employer.code = _address;\n        employer.name = _name;\n        employer.status = Status.ACTIVE;\n        employerCodes.push(_address);\n    }\n    function getEmployer(address _address) view public returns(string name, uint[] jobIds, Status status) {\n        Employer memory employer = employerMap[_address];\n        return (employer.name, employer.jobIds, employer.status);\n    }\n    function getEmployerCodes() view public returns(address[]) {\n        return employerCodes;\n    }\n\n\n    function setProfile(address _employeeCode, string _name, Skill[] _skills) public {\n        uint _id = profileId++;\n        Profile storage profile = proileMap[_id];\n        profile.id = _id;\n        profile.employeeCode = _employeeCode;\n        profile.name = _name;\n        profile.skills = _skills;\n        profile.status = Status.ACTIVE;\n        profileIds.push(_id);\n        Employee storage employee = employeeMap[_employeeCode];\n        employee.profileIds.push(_id);\n    }\n    function getProfile(uint _id) view public returns(address employeeCode, string name, Skill[] skills, Status status) {\n        Profile memory profile = proileMap[_id];\n        return(profile.employeeCode, profile.name, profile.skills, profile.status);\n    }\n    function getProileIds() view public returns(uint[]) {\n        return profileIds;\n    }\n\n\n    function setJob(address _employerCode, string _name, Skill[] _requiredSkills) public {\n        uint _id = jobId++;\n        Job storage job = jobMap[_id];\n        job.id = _id;\n        job.employerCode = _employerCode;\n        job.name = _name;\n        job.requiredSkills = _requiredSkills;\n        job.status = Status.VACANT;\n        //appliedEmployeeCodes\n        jobIds.push(_id);\n        Employer storage employer = employerMap[_employerCode];\n        employer.jobIds.push(_id);\n    }\n    function getJob(uint _id) view public returns(address employerCode, string name, Skill[] requiredSkills, address[] appliedEmployeeCodes, Status status) {\n        Job memory job = jobMap[_id];\n        return(job.employerCode, job.name, job.requiredSkills, job.appliedEmployeeCodes, job.status);\n    }\n    function getJobIds() view public returns(uint[]) {\n        return jobIds;\n    }\n\n    //test\n    //remix 0xca35b7d915458ef540ade6068dfe2f44e8fa733c, 0x14723a09acff6d2a60dcdf7aa4aff308fddc160c, 0x4b0897b0513fdc7c541b6d9d7e929c4e5364d2db\n\n    address employeeCode1; // = 0xa30ea249288854c80e1498573c9a844deef264d6;\n    address employeeCode2; // = 0x13080693728f49c3e15483a84425c2b42edd3444;\n    address employerCode1; // = 0xe6aaf0e009c677475217c7f30cc3956609603323;\n\n    function setInitialData(address _ad1, address _ad2, address _ad3) public {\n        employeeCode1 = _ad1;\n        employeeCode2 = _ad2;\n        employerCode1 = _ad3;\n        setEmployees();\n        setProfiles();\n        //setEmployers();\n        //setJobs();\n    }\n\n    function setEmployees() internal {\n        // setEmployee(employeeCode1, \"Mr.Smith\");\n        // setEmployee(employeeCode2, \"Mrs.Smith\");\n    }\n\n    function setProfiles() internal {\n        Skill[] memory skills = new Skill[](2);\n        skills[0] = Skill.JAVA;\n        skills[1] = Skill.JS;\n        setProfile(employeeCode1, 'developerProile', skills);\n\n        Skill[] memory skills2 = new Skill[](2);\n        skills2[0] = Skill.JS;\n        skills2[1] = Skill.KOTLIN;\n        setProfile(employeeCode2, 'developerProile', skills2);\n    }\n\n    function setEmployers() internal {\n        setEmployer(employerCode1, 'Optimus');\n        //setEmployer(employeeCode2, 'Maximus');\n    }\n\n    function setJobs() internal {\n        Skill[] memory skills = new Skill[](2);\n        skills[0] = Skill.JAVA;\n        skills[1] = Skill.MYSQL;\n        setJob(employerCode1, 'SE', skills);\n\n        Skill[] memory skills2 = new Skill[](2);\n        skills2[0] = Skill.JS;\n        skills2[1] = Skill.MONGO;\n        setJob(employerCode1, 'SSE', skills2);\n    }\n\n}",
  "sourcePath": "/home/jana/projects/yarlIt/Blockchain-JobMarket/contracts/Market.sol",
  "compiler": {
    "name": "solc",
    "version": "0.4.19+commit.c4cbbb05.Emscripten.clang"
  },
  "schemaVersion": "2.0.0",
  "updatedAt": "2018-03-11T20:13:15.506Z"
}