{
  "contractName": "Market",
  "abi": [
    {
      "constant": false,
      "inputs": [
        {
          "name": "_name",
          "type": "string"
        }
      ],
      "name": "setEmployee",
      "outputs": [],
      "payable": false,
      "stateMutability": "nonpayable",
      "type": "function"
    },
    {
      "constant": false,
      "inputs": [
        {
          "name": "_address",
          "type": "address"
        },
        {
          "name": "_name",
          "type": "string"
        }
      ],
      "name": "setEmployeeWithAddress",
      "outputs": [],
      "payable": false,
      "stateMutability": "nonpayable",
      "type": "function"
    },
    {
      "constant": true,
      "inputs": [
        {
          "name": "_address",
          "type": "address"
        }
      ],
      "name": "getEmployee",
      "outputs": [
        {
          "name": "",
          "type": "string"
        },
        {
          "name": "",
          "type": "uint256[]"
        },
        {
          "name": "",
          "type": "uint256"
        },
        {
          "name": "",
          "type": "uint8"
        }
      ],
      "payable": false,
      "stateMutability": "view",
      "type": "function"
    },
    {
      "constant": true,
      "inputs": [],
      "name": "getEmployeeCodes",
      "outputs": [
        {
          "name": "codes",
          "type": "address[]"
        }
      ],
      "payable": false,
      "stateMutability": "view",
      "type": "function"
    },
    {
      "constant": false,
      "inputs": [
        {
          "name": "_name",
          "type": "string"
        }
      ],
      "name": "setEmployer",
      "outputs": [],
      "payable": false,
      "stateMutability": "nonpayable",
      "type": "function"
    },
    {
      "constant": false,
      "inputs": [
        {
          "name": "_address",
          "type": "address"
        },
        {
          "name": "_name",
          "type": "string"
        }
      ],
      "name": "setEmployerWithAddress",
      "outputs": [],
      "payable": false,
      "stateMutability": "nonpayable",
      "type": "function"
    },
    {
      "constant": true,
      "inputs": [
        {
          "name": "_address",
          "type": "address"
        }
      ],
      "name": "getEmployer",
      "outputs": [
        {
          "name": "name",
          "type": "string"
        },
        {
          "name": "jobIds",
          "type": "uint256[]"
        },
        {
          "name": "status",
          "type": "uint8"
        }
      ],
      "payable": false,
      "stateMutability": "view",
      "type": "function"
    },
    {
      "constant": true,
      "inputs": [],
      "name": "getEmployerCodes",
      "outputs": [
        {
          "name": "",
          "type": "address[]"
        }
      ],
      "payable": false,
      "stateMutability": "view",
      "type": "function"
    },
    {
      "constant": false,
      "inputs": [
        {
          "name": "_name",
          "type": "string"
        },
        {
          "name": "_skills",
          "type": "uint8[]"
        },
        {
          "name": "_cvHash",
          "type": "string"
        },
        {
          "name": "_defaultProfile",
          "type": "bool"
        }
      ],
      "name": "setProfile",
      "outputs": [],
      "payable": false,
      "stateMutability": "nonpayable",
      "type": "function"
    },
    {
      "constant": false,
      "inputs": [
        {
          "name": "_employeeCode",
          "type": "address"
        },
        {
          "name": "_name",
          "type": "string"
        },
        {
          "name": "_skills",
          "type": "uint8[]"
        },
        {
          "name": "_cvHash",
          "type": "string"
        },
        {
          "name": "_defaultProfile",
          "type": "bool"
        }
      ],
      "name": "setProfileWithAddress",
      "outputs": [],
      "payable": false,
      "stateMutability": "nonpayable",
      "type": "function"
    },
    {
      "constant": true,
      "inputs": [
        {
          "name": "_id",
          "type": "uint256"
        }
      ],
      "name": "getProfile",
      "outputs": [
        {
          "name": "",
          "type": "address"
        },
        {
          "name": "",
          "type": "string"
        },
        {
          "name": "",
          "type": "uint8[]"
        },
        {
          "name": "",
          "type": "string"
        },
        {
          "name": "",
          "type": "uint8"
        }
      ],
      "payable": false,
      "stateMutability": "view",
      "type": "function"
    },
    {
      "constant": true,
      "inputs": [],
      "name": "getAllProfileIds",
      "outputs": [
        {
          "name": "ids",
          "type": "uint256[]"
        }
      ],
      "payable": false,
      "stateMutability": "view",
      "type": "function"
    },
    {
      "constant": false,
      "inputs": [
        {
          "name": "_name",
          "type": "string"
        },
        {
          "name": "_requiredSkills",
          "type": "uint8[]"
        }
      ],
      "name": "setJob",
      "outputs": [],
      "payable": false,
      "stateMutability": "nonpayable",
      "type": "function"
    },
    {
      "constant": false,
      "inputs": [
        {
          "name": "_employerCode",
          "type": "address"
        },
        {
          "name": "_name",
          "type": "string"
        },
        {
          "name": "_requiredSkills",
          "type": "uint8[]"
        }
      ],
      "name": "setJobWithAddress",
      "outputs": [],
      "payable": false,
      "stateMutability": "nonpayable",
      "type": "function"
    },
    {
      "constant": true,
      "inputs": [
        {
          "name": "_id",
          "type": "uint256"
        }
      ],
      "name": "getJob",
      "outputs": [
        {
          "name": "employerCode",
          "type": "address"
        },
        {
          "name": "name",
          "type": "string"
        },
        {
          "name": "requiredSkills",
          "type": "uint8[]"
        },
        {
          "name": "appliedEmployeeCodes",
          "type": "address[]"
        },
        {
          "name": "status",
          "type": "uint8"
        }
      ],
      "payable": false,
      "stateMutability": "view",
      "type": "function"
    },
    {
      "constant": true,
      "inputs": [],
      "name": "getAllJobIds",
      "outputs": [
        {
          "name": "postedJobIds",
          "type": "uint256[]"
        }
      ],
      "payable": false,
      "stateMutability": "view",
      "type": "function"
    },
    {
      "constant": true,
      "inputs": [
        {
          "name": "_jobId",
          "type": "uint256"
        }
      ],
      "name": "findEmployeeProfilesByJob",
      "outputs": [
        {
          "name": "matchingProfiles",
          "type": "uint256[]"
        }
      ],
      "payable": false,
      "stateMutability": "view",
      "type": "function"
    },
    {
      "constant": true,
      "inputs": [],
      "name": "findJobsByEmployee",
      "outputs": [
        {
          "name": "",
          "type": "uint256[]"
        }
      ],
      "payable": false,
      "stateMutability": "view",
      "type": "function"
    },
    {
      "constant": true,
      "inputs": [
        {
          "name": "_profileId",
          "type": "uint256"
        }
      ],
      "name": "findJobsByProfile",
      "outputs": [
        {
          "name": "matchingIds",
          "type": "uint256[]"
        }
      ],
      "payable": false,
      "stateMutability": "view",
      "type": "function"
    },
    {
      "constant": true,
      "inputs": [
        {
          "name": "_skill",
          "type": "uint8"
        }
      ],
      "name": "findJobsBySkill",
      "outputs": [
        {
          "name": "matchingIds",
          "type": "uint256[]"
        }
      ],
      "payable": false,
      "stateMutability": "view",
      "type": "function"
    },
    {
      "constant": false,
      "inputs": [],
      "name": "testSetInitialData",
      "outputs": [],
      "payable": false,
      "stateMutability": "nonpayable",
      "type": "function"
    },
    {
      "constant": true,
      "inputs": [
        {
          "name": "_uint",
          "type": "uint256"
        }
      ],
      "name": "uintToSkill",
      "outputs": [
        {
          "name": "skill",
          "type": "string"
        }
      ],
      "payable": false,
      "stateMutability": "pure",
      "type": "function"
    }
  ],
  "bytecode": "0x6060604052600160005560018055341561001857600080fd5b613691806100276000396000f300606060405260043610610128576000357c0100000000000000000000000000000000000000000000000000000000900463ffffffff16806310f4c5971461012d578063124e84e61461018a5780632dd46cf71461022757806332648e09146102e35780634ed4a297146103f95780635f317ace14610475578063633e0c23146104df578063689943b014610549578063701486c9146105e55780637560d4ce146105fa5780637c2911d91461070957806388c8837f146107f457806389fbc0c21461085e5780638f778bb9146108d65780639a76affa14610933578063ae3887c21461099d578063b06a90d014610aa7578063bf22c45714610b23578063d1678e6a14610c97578063dbe98dda14610d0f578063f08f4f6414610d8a578063ff66aa6214610f22575b600080fd5b341561013857600080fd5b610188600480803590602001908201803590602001908080601f01602080910402602001604051908101604052809392919081815260200183838082843782019150505050505091905050610f8c565b005b341561019557600080fd5b610225600480803590602001908201803590602001908080601f0160208091040260200160405190810160405280939291908181526020018383808284378201915050505050509190803590602001908201803590602001908080602002602001604051908101604052809392919081815260200183836020028082843782019150505050505091905050610f9f565b005b341561023257600080fd5b6102e1600480803573ffffffffffffffffffffffffffffffffffffffff1690602001909190803590602001908201803590602001908080601f0160208091040260200160405190810160405280939291908181526020018383808284378201915050505050509190803590602001908201803590602001908080602002602001604051908101604052809392919081815260200183836020028082843782019150505050505091905050610fb4565b005b34156102ee57600080fd5b61031a600480803573ffffffffffffffffffffffffffffffffffffffff16906020019091905050611122565b60405180806020018060200185815260200184600481111561033857fe5b60ff168152602001838103835287818151815260200191508051906020019080838360005b8381101561037857808201518184015260208101905061035d565b50505050905090810190601f1680156103a55780820380516001836020036101000a031916815260200191505b50838103825286818151815260200191508051906020019060200280838360005b838110156103e15780820151818401526020810190506103c6565b50505050905001965050505050505060405180910390f35b341561040457600080fd5b610473600480803573ffffffffffffffffffffffffffffffffffffffff1690602001909190803590602001908201803590602001908080601f0160208091040260200160405190810160405280939291908181526020018383808284378201915050505050509190505061133b565b005b341561048057600080fd5b610488611468565b6040518080602001828103825283818151815260200191508051906020019060200280838360005b838110156104cb5780820151818401526020810190506104b0565b505050509050019250505060405180910390f35b34156104ea57600080fd5b6104f26114c6565b6040518080602001828103825283818151815260200191508051906020019060200280838360005b8381101561053557808201518184015260208101905061051a565b505050509050019250505060405180910390f35b341561055457600080fd5b61056a600480803590602001909190505061155a565b6040518080602001828103825283818151815260200191508051906020019080838360005b838110156105aa57808201518184015260208101905061058f565b50505050905090810190601f1680156105d75780820380516001836020036101000a031916815260200191505b509250505060405180910390f35b34156105f057600080fd5b6105f8611642565b005b341561060557600080fd5b610631600480803573ffffffffffffffffffffffffffffffffffffffff1690602001909190505061185c565b60405180806020018060200184600481111561064957fe5b60ff168152602001838103835286818151815260200191508051906020019080838360005b8381101561068957808201518184015260208101905061066e565b50505050905090810190601f1680156106b65780820380516001836020036101000a031916815260200191505b50838103825285818151815260200191508051906020019060200280838360005b838110156106f25780820151818401526020810190506106d7565b505050509050019550505050505060405180910390f35b341561071457600080fd5b6107f2600480803590602001908201803590602001908080601f016020809104026020016040519081016040528093929190818152602001838380828437820191505050505050919080359060200190820180359060200190808060200260200160405190810160405280939291908181526020018383602002808284378201915050505050509190803590602001908201803590602001908080601f016020809104026020016040519081016040528093929190818152602001838380828437820191505050505050919080351515906020019091905050611a63565b005b34156107ff57600080fd5b610807611a7c565b6040518080602001828103825283818151815260200191508051906020019060200280838360005b8381101561084a57808201518184015260208101905061082f565b505050509050019250505060405180910390f35b341561086957600080fd5b61087f6004808035906020019091905050611ada565b6040518080602001828103825283818151815260200191508051906020019060200280838360005b838110156108c25780820151818401526020810190506108a7565b505050509050019250505060405180910390f35b34156108e157600080fd5b610931600480803590602001908201803590602001908080601f01602080910402602001604051908101604052809392919081815260200183838082843782019150505050505091905050611f1a565b005b341561093e57600080fd5b610946611f2d565b6040518080602001828103825283818151815260200191508051906020019060200280838360005b8381101561098957808201518184015260208101905061096e565b505050509050019250505060405180910390f35b34156109a857600080fd5b610aa5600480803573ffffffffffffffffffffffffffffffffffffffff1690602001909190803590602001908201803590602001908080601f016020809104026020016040519081016040528093929190818152602001838380828437820191505050505050919080359060200190820180359060200190808060200260200160405190810160405280939291908181526020018383602002808284378201915050505050509190803590602001908201803590602001908080601f0160208091040260200160405190810160405280939291908181526020018383808284378201915050505050509190803515159060200190919050506123b2565b005b3415610ab257600080fd5b610b21600480803573ffffffffffffffffffffffffffffffffffffffff1690602001909190803590602001908201803590602001908080601f0160208091040260200160405190810160405280939291908181526020018383808284378201915050505050509190505061254a565b005b3415610b2e57600080fd5b610b446004808035906020019091905050612677565b604051808673ffffffffffffffffffffffffffffffffffffffff1673ffffffffffffffffffffffffffffffffffffffff168152602001806020018060200180602001856004811115610b9257fe5b60ff168152602001848103845288818151815260200191508051906020019080838360005b83811015610bd2578082015181840152602081019050610bb7565b50505050905090810190601f168015610bff5780820380516001836020036101000a031916815260200191505b50848103835287818151815260200191508051906020019060200280838360005b83811015610c3b578082015181840152602081019050610c20565b50505050905001848103825286818151815260200191508051906020019060200280838360005b83811015610c7d578082015181840152602081019050610c62565b505050509050019850505050505050505060405180910390f35b3415610ca257600080fd5b610cb86004808035906020019091905050612935565b6040518080602001828103825283818151815260200191508051906020019060200280838360005b83811015610cfb578082015181840152602081019050610ce0565b505050509050019250505060405180910390f35b3415610d1a57600080fd5b610d33600480803560ff16906020019091905050612b97565b6040518080602001828103825283818151815260200191508051906020019060200280838360005b83811015610d76578082015181840152602081019050610d5b565b505050509050019250505060405180910390f35b3415610d9557600080fd5b610dab6004808035906020019091905050612efc565b604051808673ffffffffffffffffffffffffffffffffffffffff1673ffffffffffffffffffffffffffffffffffffffff168152602001806020018060200180602001856004811115610df957fe5b60ff168152602001848103845288818151815260200191508051906020019080838360005b83811015610e39578082015181840152602081019050610e1e565b50505050905090810190601f168015610e665780820380516001836020036101000a031916815260200191505b50848103835287818151815260200191508051906020019060200280838360005b83811015610ea2578082015181840152602081019050610e87565b50505050905001848103825286818151815260200191508051906020019080838360005b83811015610ee1578082015181840152602081019050610ec6565b50505050905090810190601f168015610f0e5780820380516001836020036101000a031916815260200191505b509850505050505050505060405180910390f35b3415610f2d57600080fd5b610f356131ce565b6040518080602001828103825283818151815260200191508051906020019060200280838360005b83811015610f78578082015181840152602081019050610f5d565b505050509050019250505060405180910390f35b6000339050610f9b818361254a565b5050565b6000339050610faf818484610fb4565b505050565b600080600060016000815480929190600101919050559250600860008481526020019081526020016000209150828260000181905550858260010160006101000a81548173ffffffffffffffffffffffffffffffffffffffff021916908373ffffffffffffffffffffffffffffffffffffffff16021790555084826002019080519060200190611045929190613262565b508382600301908051906020019061105e9291906132e2565b5060028260050160006101000a81548160ff0219169083600481111561108057fe5b0217905550600980548060010182816110999190613391565b916000526020600020900160008590919091505550600460008773ffffffffffffffffffffffffffffffffffffffff1673ffffffffffffffffffffffffffffffffffffffff16815260200190815260200160002090508060020180548060010182816111059190613391565b916000526020600020900160008590919091505550505050505050565b61112a6133bd565b6111326133d1565b60008061113d6133e5565b600260008773ffffffffffffffffffffffffffffffffffffffff1673ffffffffffffffffffffffffffffffffffffffff16815260200190815260200160002060a060405190810160405290816000820160009054906101000a900473ffffffffffffffffffffffffffffffffffffffff1673ffffffffffffffffffffffffffffffffffffffff1673ffffffffffffffffffffffffffffffffffffffff168152602001600182018054600181600116156101000203166002900480601f0160208091040260200160405190810160405280929190818152602001828054600181600116156101000203166002900480156112775780601f1061124c57610100808354040283529160200191611277565b820191906000526020600020905b81548152906001019060200180831161125a57829003601f168201915b50505050508152602001600282018054806020026020016040519081016040528092919081815260200182805480156112cf57602002820191906000526020600020905b8154815260200190600101908083116112bb575b50505050508152602001600382015481526020016004820160009054906101000a900460ff16600481111561130057fe5b600481111561130b57fe5b81525050905080602001518160400151826060015183608001518393508292509450945094509450509193509193565b6000600460008473ffffffffffffffffffffffffffffffffffffffff1673ffffffffffffffffffffffffffffffffffffffff1681526020019081526020016000209050828160000160006101000a81548173ffffffffffffffffffffffffffffffffffffffff021916908373ffffffffffffffffffffffffffffffffffffffff160217905550818160010190805190602001906113d9929190613262565b5060008160030160006101000a81548160ff021916908360048111156113fb57fe5b0217905550600580548060010182816114149190613442565b9160005260206000209001600085909190916101000a81548173ffffffffffffffffffffffffffffffffffffffff021916908373ffffffffffffffffffffffffffffffffffffffff16021790555050505050565b6114706133d1565b60078054806020026020016040519081016040528092919081815260200182805480156114bc57602002820191906000526020600020905b8154815260200190600101908083116114a8575b5050505050905090565b6114ce61346e565b600580548060200260200160405190810160405280929190818152602001828054801561155057602002820191906000526020600020905b8160009054906101000a900473ffffffffffffffffffffffffffffffffffffffff1673ffffffffffffffffffffffffffffffffffffffff1681526020019060010190808311611506575b5050505050905090565b6115626133bd565b6000600681111561156f57fe5b8214156115b3576040805190810160405280600481526020017f4a41564100000000000000000000000000000000000000000000000000000000815250905061163d565b600160068111156115c057fe5b821415611604576040805190810160405280600281526020017f4a53000000000000000000000000000000000000000000000000000000000000815250905061163d565b6040805190810160405280600581526020017f4d4f4e474f00000000000000000000000000000000000000000000000000000081525090505b919050565b600080600080611650613482565b611658613482565b735f0e611dbcb5a4a1dc8ec4c7e1a02a8eb60182f3955073cea3b456c72dae97a256199c24dab28fb4863ed194507338921ab62710300785722cfc538b3cabefb12845935073da93fc20797a06d7273335788a4914a89d3bedaf925060026040518059106116c35750595b9080825280602002602001820160405250915060008260008151811015156116e757fe5b9060200190602002019060068111156116fc57fe5b9081600681111561170957fe5b81525050600282600181518110151561171e57fe5b90602001906020020190600681111561173357fe5b9081600681111561174057fe5b8152505060026040518059106117535750595b90808252806020026020018201604052509050600181600081518110151561177757fe5b90602001906020020190600681111561178c57fe5b9081600681111561179957fe5b8152505060038160018151811015156117ae57fe5b9060200190602002019060068111156117c357fe5b908160068111156117d057fe5b81525050611814846040805190810160405280600281526020017f6a3100000000000000000000000000000000000000000000000000000000000081525084610fb4565b611854846040805190810160405280600281526020017f6a3200000000000000000000000000000000000000000000000000000000000081525084610fb4565b505050505050565b6118646133bd565b61186c6133d1565b6000611876613496565b600460008673ffffffffffffffffffffffffffffffffffffffff1673ffffffffffffffffffffffffffffffffffffffff168152602001908152602001600020608060405190810160405290816000820160009054906101000a900473ffffffffffffffffffffffffffffffffffffffff1673ffffffffffffffffffffffffffffffffffffffff1673ffffffffffffffffffffffffffffffffffffffff168152602001600182018054600181600116156101000203166002900480601f0160208091040260200160405190810160405280929190818152602001828054600181600116156101000203166002900480156119b05780601f10611985576101008083540402835291602001916119b0565b820191906000526020600020905b81548152906001019060200180831161199357829003601f168201915b5050505050815260200160028201805480602002602001604051908101604052809291908181526020018280548015611a0857602002820191906000526020600020905b8154815260200190600101908083116119f4575b505050505081526020016003820160009054906101000a900460ff166004811115611a2f57fe5b6004811115611a3a57fe5b815250509050806020015181604001518260600151829250819150935093509350509193909250565b6000339050611a7581868686866123b2565b5050505050565b611a846133d1565b6009805480602002602001604051908101604052809291908181526020018280548015611ad057602002820191906000526020600020905b815481526020019060010190808311611abc575b5050505050905090565b611ae26133d1565b6000611aec613482565b611af46133d1565b600080600080611b026134ec565b611b0a613482565b60008060018054039a50600660008e8152602001908152602001600020600401805480602002602001604051908101604052809291908181526020018280548015611ba257602002820191906000526020600020906000905b82829054906101000a900460ff166006811115611b7c57fe5b81526020019060010190602082600001049283019260010382029150808411611b635790505b505050505099508a8a5102604051805910611bba5750595b9080825280602002602001820160405250985060009750600096505b8951871015611f07578987815181101515611bed57fe5b906020019060200201519550600194505b8a85111515611efa576008600086815260200190815260200160002060c06040519081016040529081600082015481526020016001820160009054906101000a900473ffffffffffffffffffffffffffffffffffffffff1673ffffffffffffffffffffffffffffffffffffffff1673ffffffffffffffffffffffffffffffffffffffff168152602001600282018054600181600116156101000203166002900480601f016020809104026020016040519081016040528092919081815260200182805460018160011615610100020316600290048015611d1f5780601f10611cf457610100808354040283529160200191611d1f565b820191906000526020600020905b815481529060010190602001808311611d0257829003601f168201915b5050505050815260200160038201805480602002602001604051908101604052809291908181526020018280548015611da557602002820191906000526020600020906000905b82829054906101000a900460ff166006811115611d7f57fe5b81526020019060010190602082600001049283019260010382029150808411611d665790505b5050505050815260200160048201805480602002602001604051908101604052809291908181526020018280548015611e3357602002820191906000526020600020905b8160009054906101000a900473ffffffffffffffffffffffffffffffffffffffff1673ffffffffffffffffffffffffffffffffffffffff1681526020019060010190808311611de9575b505050505081526020016005820160009054906101000a900460ff166004811115611e5a57fe5b6004811115611e6557fe5b81525050935083606001519250600091505b8251821015611eed578282815181101515611e8e57fe5b906020019060200201519050806006811115611ea657fe5b866006811115611eb257fe5b1415611ee057848989806001019a50815181101515611ecd57fe5b9060200190602002018181525050611eed565b8180600101925050611e77565b8480600101955050611bfe565b8680600101975050611bd6565b889b505050505050505050505050919050565b6000339050611f29818361133b565b5050565b611f356133d1565b600080611f40613482565b611f486133d1565b600080600080611f566134ec565b611f5e613482565b600080600260003373ffffffffffffffffffffffffffffffffffffffff1673ffffffffffffffffffffffffffffffffffffffff168152602001908152602001600020600301549b5060018054039a50600660008d815260200190815260200160002060040180548060200260200160405190810160405280929190818152602001828054801561203b57602002820191906000526020600020906000905b82829054906101000a900460ff16600681111561201557fe5b81526020019060010190602082600001049283019260010382029150808411611ffc5790505b505050505099508a8a51026040518059106120535750595b9080825280602002602001820160405250985060009750600096505b89518710156123a057898781518110151561208657fe5b906020019060200201519550600194505b8a85111515612393576008600086815260200190815260200160002060c06040519081016040529081600082015481526020016001820160009054906101000a900473ffffffffffffffffffffffffffffffffffffffff1673ffffffffffffffffffffffffffffffffffffffff1673ffffffffffffffffffffffffffffffffffffffff168152602001600282018054600181600116156101000203166002900480601f0160208091040260200160405190810160405280929190818152602001828054600181600116156101000203166002900480156121b85780601f1061218d576101008083540402835291602001916121b8565b820191906000526020600020905b81548152906001019060200180831161219b57829003601f168201915b505050505081526020016003820180548060200260200160405190810160405280929190818152602001828054801561223e57602002820191906000526020600020906000905b82829054906101000a900460ff16600681111561221857fe5b815260200190600101906020826000010492830192600103820291508084116121ff5790505b50505050508152602001600482018054806020026020016040519081016040528092919081815260200182805480156122cc57602002820191906000526020600020905b8160009054906101000a900473ffffffffffffffffffffffffffffffffffffffff1673ffffffffffffffffffffffffffffffffffffffff1681526020019060010190808311612282575b505050505081526020016005820160009054906101000a900460ff1660048111156122f357fe5b60048111156122fe57fe5b81525050935083606001519250600091505b825182101561238657828281518110151561232757fe5b90602001906020020151905080600681111561233f57fe5b86600681111561234b57fe5b141561237957848989806001019a5081518110151561236657fe5b9060200190602002018181525050612386565b8180600101925050612310565b8480600101955050612097565b868060010197505061206f565b889c5050505050505050505050505090565b6000806000806000815480929190600101919050559250600660008481526020019081526020016000209150828260000181905550878260010160006101000a81548173ffffffffffffffffffffffffffffffffffffffff021916908373ffffffffffffffffffffffffffffffffffffffff16021790555086826002019080519060200190612442929190613262565b508582600401908051906020019061245b9291906132e2565b5084826003019080519060200190612474929190613262565b5060008260050160006101000a81548160ff0219169083600481111561249657fe5b0217905550600780548060010182816124af9190613391565b916000526020600020900160008590919091505550600260008973ffffffffffffffffffffffffffffffffffffffff1673ffffffffffffffffffffffffffffffffffffffff168152602001908152602001600020905080600201805480600101828161251b9190613391565b9160005260206000209001600085909190915055508315612540578281600301819055505b5050505050505050565b6000600260008473ffffffffffffffffffffffffffffffffffffffff1673ffffffffffffffffffffffffffffffffffffffff1681526020019081526020016000209050828160000160006101000a81548173ffffffffffffffffffffffffffffffffffffffff021916908373ffffffffffffffffffffffffffffffffffffffff160217905550818160010190805190602001906125e8929190613262565b5060008160040160006101000a81548160ff0219169083600481111561260a57fe5b0217905550600380548060010182816126239190613442565b9160005260206000209001600085909190916101000a81548173ffffffffffffffffffffffffffffffffffffffff021916908373ffffffffffffffffffffffffffffffffffffffff16021790555050505050565b60006126816133bd565b612689613482565b61269161346e565b600061269b6134ec565b6008600088815260200190815260200160002060c06040519081016040529081600082015481526020016001820160009054906101000a900473ffffffffffffffffffffffffffffffffffffffff1673ffffffffffffffffffffffffffffffffffffffff1673ffffffffffffffffffffffffffffffffffffffff168152602001600282018054600181600116156101000203166002900480601f0160208091040260200160405190810160405280929190818152602001828054600181600116156101000203166002900480156127b35780601f10612788576101008083540402835291602001916127b3565b820191906000526020600020905b81548152906001019060200180831161279657829003601f168201915b505050505081526020016003820180548060200260200160405190810160405280929190818152602001828054801561283957602002820191906000526020600020906000905b82829054906101000a900460ff16600681111561281357fe5b815260200190600101906020826000010492830192600103820291508084116127fa5790505b50505050508152602001600482018054806020026020016040519081016040528092919081815260200182805480156128c757602002820191906000526020600020905b8160009054906101000a900473ffffffffffffffffffffffffffffffffffffffff1673ffffffffffffffffffffffffffffffffffffffff168152602001906001019080831161287d575b505050505081526020016005820160009054906101000a900460ff1660048111156128ee57fe5b60048111156128f957fe5b81525050905080602001518160400151826060015183608001518460a00151839350829250819150955095509550955095505091939590929450565b61293d6133d1565b6000612947613482565b61294f6133d1565b60008060008061295d613482565b6000806001600054039950600860008d81526020019081526020016000206003018054806020026020016040519081016040528092919081815260200182805480156129f657602002820191906000526020600020906000905b82829054906101000a900460ff1660068111156129d057fe5b815260200190600101906020826000010492830192600103820291508084116129b75790505b5050505050985088518a02604051805910612a0e5750595b9080825280602002602001820160405250975060009650600095505b8851861015612b85578886815181101515612a4157fe5b906020019060200201519450600193505b8984111515612b785760066000858152602001908152602001600020600401805480602002602001604051908101604052809291908181526020018280548015612ae957602002820191906000526020600020906000905b82829054906101000a900460ff166006811115612ac357fe5b81526020019060010190602082600001049283019260010382029150808411612aaa5790505b50505050509250600091505b8251821015612b6b578282815181101515612b0c57fe5b906020019060200201519050846006811115612b2457fe5b816006811115612b3057fe5b1415612b5e57838888806001019950815181101515612b4b57fe5b9060200190602002018181525050612b6b565b8180600101925050612af5565b8380600101945050612a52565b8580600101965050612a2a565b879a5050505050505050505050919050565b612b9f6133d1565b6000612ba96133d1565b600080612bb46134ec565b612bbc613482565b6000806001805403975087604051805910612bd45750595b9080825280602002602001820160405250965060009550600194505b8785111515612eec576008600086815260200190815260200160002060c06040519081016040529081600082015481526020016001820160009054906101000a900473ffffffffffffffffffffffffffffffffffffffff1673ffffffffffffffffffffffffffffffffffffffff1673ffffffffffffffffffffffffffffffffffffffff168152602001600282018054600181600116156101000203166002900480601f016020809104026020016040519081016040528092919081815260200182805460018160011615610100020316600290048015612d115780601f10612ce657610100808354040283529160200191612d11565b820191906000526020600020905b815481529060010190602001808311612cf457829003601f168201915b5050505050815260200160038201805480602002602001604051908101604052809291908181526020018280548015612d9757602002820191906000526020600020906000905b82829054906101000a900460ff166006811115612d7157fe5b81526020019060010190602082600001049283019260010382029150808411612d585790505b5050505050815260200160048201805480602002602001604051908101604052809291908181526020018280548015612e2557602002820191906000526020600020905b8160009054906101000a900473ffffffffffffffffffffffffffffffffffffffff1673ffffffffffffffffffffffffffffffffffffffff1681526020019060010190808311612ddb575b505050505081526020016005820160009054906101000a900460ff166004811115612e4c57fe5b6004811115612e5757fe5b81525050935083606001519250600091505b8251821015612edf578282815181101515612e8057fe5b906020019060200201519050806006811115612e9857fe5b8a6006811115612ea457fe5b1415612ed257848787806001019850815181101515612ebf57fe5b9060200190602002018181525050612edf565b8180600101925050612e69565b8480600101955050612bf0565b8698505050505050505050919050565b6000612f066133bd565b612f0e613482565b612f166133bd565b6000612f20613556565b6006600088815260200190815260200160002060c06040519081016040529081600082015481526020016001820160009054906101000a900473ffffffffffffffffffffffffffffffffffffffff1673ffffffffffffffffffffffffffffffffffffffff1673ffffffffffffffffffffffffffffffffffffffff168152602001600282018054600181600116156101000203166002900480601f0160208091040260200160405190810160405280929190818152602001828054600181600116156101000203166002900480156130385780601f1061300d57610100808354040283529160200191613038565b820191906000526020600020905b81548152906001019060200180831161301b57829003601f168201915b50505050508152602001600382018054600181600116156101000203166002900480601f0160208091040260200160405190810160405280929190818152602001828054600181600116156101000203166002900480156130da5780601f106130af576101008083540402835291602001916130da565b820191906000526020600020905b8154815290600101906020018083116130bd57829003601f168201915b505050505081526020016004820180548060200260200160405190810160405280929190818152602001828054801561316057602002820191906000526020600020906000905b82829054906101000a900460ff16600681111561313a57fe5b815260200190600101906020826000010492830192600103820291508084116131215790505b505050505081526020016005820160009054906101000a900460ff16600481111561318757fe5b600481111561319257fe5b81525050905080602001518160400151826080015183606001518460a00151839350829250819150955095509550955095505091939590929450565b6131d661346e565b600380548060200260200160405190810160405280929190818152602001828054801561325857602002820191906000526020600020905b8160009054906101000a900473ffffffffffffffffffffffffffffffffffffffff1673ffffffffffffffffffffffffffffffffffffffff168152602001906001019080831161320e575b5050505050905090565b828054600181600116156101000203166002900490600052602060002090601f016020900481019282601f106132a357805160ff19168380011785556132d1565b828001600101855582156132d1579182015b828111156132d05782518255916020019190600101906132b5565b5b5090506132de91906135c0565b5090565b82805482825590600052602060002090601f016020900481019282156133805791602002820160005b8382111561335157835183826101000a81548160ff0219169083600681111561333057fe5b0217905550926020019260010160208160000104928301926001030261330b565b801561337e5782816101000a81549060ff0219169055600101602081600001049283019260010302613351565b505b50905061338d91906135e5565b5090565b8154818355818115116133b8578183600052602060002091820191016133b791906135c0565b5b505050565b602060405190810160405280600081525090565b602060405190810160405280600081525090565b60a060405190810160405280600073ffffffffffffffffffffffffffffffffffffffff168152602001613416613615565b8152602001613423613629565b8152602001600081526020016000600481111561343c57fe5b81525090565b8154818355818115116134695781836000526020600020918201910161346891906135c0565b5b505050565b602060405190810160405280600081525090565b602060405190810160405280600081525090565b608060405190810160405280600073ffffffffffffffffffffffffffffffffffffffff1681526020016134c7613615565b81526020016134d4613629565b8152602001600060048111156134e657fe5b81525090565b60c06040519081016040528060008152602001600073ffffffffffffffffffffffffffffffffffffffff168152602001613524613615565b815260200161353161363d565b815260200161353e613651565b81526020016000600481111561355057fe5b81525090565b60c06040519081016040528060008152602001600073ffffffffffffffffffffffffffffffffffffffff16815260200161358e613615565b815260200161359b613615565b81526020016135a861363d565b8152602001600060048111156135ba57fe5b81525090565b6135e291905b808211156135de5760008160009055506001016135c6565b5090565b90565b61361291905b8082111561360e57600081816101000a81549060ff0219169055506001016135eb565b5090565b90565b602060405190810160405280600081525090565b602060405190810160405280600081525090565b602060405190810160405280600081525090565b6020604051908101604052806000815250905600a165627a7a723058201281402bbab53589ad2fa476b62c8e99f430474afeecd10245deebac369d9dad0029",
  "source": "pragma solidity  ^0.4.18;\n\ncontract Market {\n\n    enum Status {ACTIVE, INACTIVE, VACANT, OFFERED, CANCELLED}\n    enum Skill {JAVA, JS, MYSQL, MONGO, SCALA, KOTLIN, OTHER}\n\n    uint profileId = 1;\n    uint jobId = 1;\n\n    mapping (address => Employee) employeeMap;\n    address[] employeeCodes;\n\n    mapping(address => Employer) employerMap;\n    address[] employerCodes;\n\n    mapping(uint => Profile) profileMap;\n    uint[] allProfileIds;\n\n    mapping(uint => Job) jobMap;\n    uint[] allJobIds;\n\n    struct Employee {\n        address code;\n        string name;\n        uint[] profileIds;\n        uint defaultProfileId;\n        Status status;\n    }\n\n    struct Employer {\n        address code;\n        string name;\n        uint[] jobIds;\n        Status status;\n    }\n\n    struct Profile {\n        uint id;\n        address employeeCode;\n        string name;\n        string cvHash;\n        Skill[] skills;\n        Status status;\n    }\n\n    struct Job {\n        uint id;\n        address employerCode;\n        string name;\n        Skill[] requiredSkills;\n        address[] appliedEmployeeCodes;\n        Status status;\n    }\n\n\n    function setEmployee(string _name) public {\n        address _address = msg.sender;\n        setEmployeeWithAddress(_address, _name);\n    }\n    function setEmployeeWithAddress(address _address, string _name) public {\n        Employee storage employee = employeeMap[_address];\n        employee.code = _address;\n        employee.name = _name;\n        employee.status = Status.ACTIVE;\n        employeeCodes.push(_address);\n    }\n    function getEmployee(address _address) view public returns(string, uint[], uint, Status) {\n        Employee memory employee = employeeMap[_address];\n        return(employee.name, employee.profileIds, employee.defaultProfileId, employee.status);\n    }\n    function getEmployeeCodes() view public returns(address[] codes) {\n        return employeeCodes;\n    }\n\n\n    function setEmployer(string _name) public {\n        address _address = msg.sender;\n        setEmployerWithAddress(_address, _name);\n    }\n    function setEmployerWithAddress(address _address, string _name) public {\n        Employer storage employer = employerMap[_address];\n        employer.code = _address;\n        employer.name = _name;\n        employer.status = Status.ACTIVE;\n        employerCodes.push(_address);\n    }\n    function getEmployer(address _address) view public returns(string name, uint[] jobIds, Status status) {\n        Employer memory employer = employerMap[_address];\n        return (employer.name, employer.jobIds, employer.status);\n    }\n    function getEmployerCodes() view public returns(address[]) {\n        return employerCodes;\n    }\n\n\n    function setProfile(string _name, Skill[] _skills, string _cvHash, bool _defaultProfile) public {\n            address _employeeCode = msg.sender;\n            setProfileWithAddress(_employeeCode, _name, _skills, _cvHash, _defaultProfile);\n    }\n    function setProfileWithAddress(address _employeeCode, string _name, Skill[] _skills, string _cvHash, bool _defaultProfile) public {\n        //throw if employee not found\n        uint _id = profileId++;\n        Profile storage profile = profileMap[_id];\n        profile.id = _id;\n        profile.employeeCode = _employeeCode;\n        profile.name = _name;\n        profile.skills = _skills;\n        profile.cvHash = _cvHash;\n        profile.status = Status.ACTIVE;\n        allProfileIds.push(_id);\n        Employee storage employee = employeeMap[_employeeCode];\n        employee.profileIds.push(_id);\n        if(_defaultProfile) {\n            employee.defaultProfileId = _id;\n        }\n    }\n    function getProfile(uint _id) view public returns(address, string, Skill[], string, Status) {\n        Profile memory profile = profileMap[_id];\n        return(profile.employeeCode, profile.name, profile.skills, profile.cvHash, profile.status);\n    }\n    function getAllProfileIds() view public returns(uint[] ids) {\n        return allProfileIds;\n    }\n\n    function setJob(string _name, Skill[] _requiredSkills) public {\n        address _employerCode = msg.sender;\n        setJobWithAddress(_employerCode, _name, _requiredSkills);\n    }\n    function setJobWithAddress(address _employerCode, string _name, Skill[] _requiredSkills) public {\n        uint _id = jobId++;\n        Job storage job = jobMap[_id];\n        job.id = _id;\n        job.employerCode = _employerCode;\n        job.name = _name;\n        job.requiredSkills = _requiredSkills;\n        job.status = Status.VACANT;\n        //appliedEmployeeCodes\n        allJobIds.push(_id);\n        Employer storage employer = employerMap[_employerCode];\n        employer.jobIds.push(_id);\n    }\n    function getJob(uint _id) view public returns(address employerCode, string name, Skill[] requiredSkills, address[] appliedEmployeeCodes, Status status) {\n        Job memory job = jobMap[_id];\n        return(job.employerCode, job.name, job.requiredSkills, job.appliedEmployeeCodes, job.status);\n    }\n    function getAllJobIds() view public returns(uint[] postedJobIds) {\n        return allJobIds;\n    }\n\n    //has duplicates\n    function findEmployeeProfilesByJob(uint _jobId) view public returns(uint[] matchingProfiles) {\n        uint noOfProfiles = profileId -1;\n        Skill[] memory requiredSkills = jobMap[_jobId].requiredSkills;\n        uint[] memory matchingProfileIds = new uint[](noOfProfiles * requiredSkills.length);\n        uint index = 0;\n\n        for(uint r=0; r<requiredSkills.length; r++) {\n            Skill required = requiredSkills[r];\n\n            for(uint p=1; p<=noOfProfiles; p++) {\n\n                Skill[] memory skills = profileMap[p].skills;\n                for(uint s=0; s<skills.length; s++) {\n                    Skill skill = skills[s];\n\n                    if(skill == required) {\n                        matchingProfileIds[index++] = p;\n                        break;\n                    }\n                }\n            }\n        }\n        return matchingProfileIds;\n    }\n\n    function findJobsByEmployee() view public returns(uint[]) {\n        uint defaultProfileId = employeeMap[msg.sender].defaultProfileId;\n        uint noOfJobs = jobId -1;\n        Skill[] memory skills = profileMap[defaultProfileId].skills;\n        uint[] memory matchingJobIds = new uint[](skills.length * noOfJobs);\n        uint index = 0;\n\n        for(uint s=0; s<skills.length; s++) {\n            Skill skill = skills[s];\n\n            for(uint j=1; j<=noOfJobs; j++) {\n                Job memory job = jobMap[j];\n\n                Skill[] memory requiredSkills = job.requiredSkills;\n                for(uint m=0; m<requiredSkills.length; m++) {\n                    Skill required = requiredSkills[m];\n\n                    if(skill == required) {\n                        matchingJobIds[index++] = j;\n                        break;\n                    }\n\n                }\n            }\n\n        }\n\n        return matchingJobIds;\n    }\n\n    //has duplicates\n    function findJobsByProfile(uint _profileId) view public returns(uint[] matchingIds) {\n        uint noOfJobs = jobId -1;\n        Skill[] memory skills = profileMap[_profileId].skills;\n        uint[] memory matchingJobIds = new uint[](skills.length * noOfJobs);\n        uint index = 0;\n\n        for(uint s=0; s<skills.length; s++) {\n            Skill skill = skills[s];\n\n            for(uint j=1; j<=noOfJobs; j++) {\n                Job memory job = jobMap[j];\n\n                Skill[] memory requiredSkills = job.requiredSkills;\n                for(uint m=0; m<requiredSkills.length; m++) {\n                    Skill required = requiredSkills[m];\n\n                    if(skill == required) {\n                        matchingJobIds[index++] = j;\n                        break;\n                    }\n\n                }\n            }\n\n        }\n\n        return matchingJobIds;\n    }\n\n    function findJobsBySkill(Skill _skill) view public returns(uint[] matchingIds) {\n        uint noOfJobs = jobId -1;\n\n        uint[] memory matchingJobIds = new uint[](noOfJobs);\n\n        uint index = 0;\n        for(uint j=1; j<=noOfJobs; j++) {\n            Job memory job = jobMap[j];\n\n            Skill[] memory requiredSkills = job.requiredSkills;\n            for(uint m=0; m<requiredSkills.length; m++) {\n                Skill required = requiredSkills[m];\n\n                if(_skill == required) {\n                    matchingJobIds[index++] = j;\n                    break;\n                }\n\n            }\n        }\n        return matchingJobIds;\n    }\n\n    // function findJobs(uint _profileId) view public returns(uint jobIds) {\n    //     uint[] memory matchingJobIds;\n    //     //uint matchingJobId;\n\n    //     Profile memory profile = profileMap[_profileId];\n    //     Skill[] memory skills = profile.skills;\n\n    //     uint jobCount = 0;\n    //     for(uint s=0; s<skills.length; s++) {\n    //         Skill skill = skills[s];\n\n    //         for(uint j=0; j<allJobIds.length; j++) {\n    //             uint thisJobId = allJobIds[j];\n    //             Job memory job = jobMap[thisJobId];\n\n    //             Skill[] memory requiredSkills = job.requiredSkills;\n    //             for(uint m=0; m<requiredSkills.length; m++) {\n    //                 Skill required = requiredSkills[m];\n\n    //                 if(skill == required) {\n\n    //                     matchingJobId = thisJobId;\n    //                     //matchingJobIds[jobCount++] = thisJobId;\n    //                     //break;\n    //                 }\n\n    //             }\n\n    //         }\n    //     }\n    //     //matchingJobIds[0] = matchingJobId;\n    //     //return matchingJobIds;\n    //     //uint storage x = 11;\n    //     return 11;\n    // }\n\n\n    //test\n    function testSetInitialData() public {\n\n        // testrpc\n        address addressE1 = 0x5f0e611dbcb5a4a1dc8ec4c7e1a02a8eb60182f3;\n        address addressE2 = 0xcea3b456c72dae97a256199c24dab28fb4863ed1;\n        address addressR1 = 0x38921ab62710300785722cfc538b3cabefb12845;\n        address addressR2 = 0xda93fc20797a06d7273335788a4914a89d3bedaf;\n\n        /* remix\n        address addressE1 = 0xca35b7d915458ef540ade6068dfe2f44e8fa733c;\n        address addressE2 = 0x4b0897b0513fdc7c541b6d9d7e929c4e5364d2db;\n        address addressR1 = 0x14723a09acff6d2a60dcdf7aa4aff308fddc160c;\n        address addressR2 = 0x583031d1113ad414f02576bd6afabfb302140225;\n        */\n\n        //setEmployeeWithAddress(addressE1, \"e1\");\n        //setEmployerWithAddress(addressR1, \"r1\");\n\n        Skill[] memory skills1 = new Skill[](2);\n        skills1[0] = Skill.JAVA;\n        skills1[1] = Skill.MYSQL;\n\n        Skill[] memory skills2 = new Skill[](2);\n        skills2[0] = Skill.JS;\n        skills2[1] = Skill.MONGO;\n\n        //setProfileWithAddress(addressE1, \"p1\", skills1);\n        //setProfileWithAddress(addressE1, \"p2\", skills2);\n\n        setJobWithAddress(addressR1, \"j1\", skills1);\n        setJobWithAddress(addressR1, \"j2\", skills1);\n    }\n\n    function uintToSkill(uint _uint) pure public returns(string skill) {\n        if(_uint == uint(Skill.JAVA))\n            return \"JAVA\";\n        if(_uint == uint(Skill.JS))\n            return \"JS\";\n        return \"MONGO\";\n    }\n\n}",
  "sourcePath": "/home/janarthan/practice/yit/Blockchain-JobMarket/contracts/Market.sol",
  "compiler": {
    "name": "solc",
    "version": "0.4.19+commit.c4cbbb05.Emscripten.clang"
  },
  "schemaVersion": "2.0.0",
  "updatedAt": "2018-03-22T10:00:27.097Z"
}