{
  "contractName": "Market",
  "abi": [
    {
      "constant": false,
      "inputs": [
        {
          "name": "_address",
          "type": "address"
        },
        {
          "name": "_name",
          "type": "string"
        },
        {
          "name": "_email",
          "type": "string"
        },
        {
          "name": "_phoneNo",
          "type": "string"
        },
        {
          "name": "_statement",
          "type": "string"
        },
        {
          "name": "_rate",
          "type": "string"
        }
      ],
      "name": "setEmployeeWithAddress",
      "outputs": [],
      "payable": false,
      "stateMutability": "nonpayable",
      "type": "function"
    },
    {
      "constant": true,
      "inputs": [
        {
          "name": "_address",
          "type": "address"
        },
        {
          "name": "_name",
          "type": "string"
        },
        {
          "name": "_email",
          "type": "string"
        },
        {
          "name": "_phoneNo",
          "type": "string"
        },
        {
          "name": "_statement",
          "type": "string"
        },
        {
          "name": "_rate",
          "type": "string"
        }
      ],
      "name": "getEmployee",
      "outputs": [
        {
          "name": "",
          "type": "string"
        },
        {
          "name": "",
          "type": "string"
        },
        {
          "name": "",
          "type": "string"
        },
        {
          "name": "",
          "type": "string"
        },
        {
          "name": "",
          "type": "string"
        },
        {
          "name": "",
          "type": "uint256[]"
        },
        {
          "name": "",
          "type": "uint256"
        },
        {
          "name": "",
          "type": "uint8"
        }
      ],
      "payable": false,
      "stateMutability": "view",
      "type": "function"
    },
    {
      "constant": false,
      "inputs": [
        {
          "name": "_address",
          "type": "address"
        },
        {
          "name": "_name",
          "type": "string"
        },
        {
          "name": "_email",
          "type": "string"
        },
        {
          "name": "_company",
          "type": "string"
        },
        {
          "name": "_add",
          "type": "string"
        },
        {
          "name": "_country",
          "type": "string"
        }
      ],
      "name": "setEmployerWithAddress",
      "outputs": [],
      "payable": false,
      "stateMutability": "nonpayable",
      "type": "function"
    },
    {
      "constant": false,
      "inputs": [
        {
          "name": "_name",
          "type": "string"
        },
        {
          "name": "_email",
          "type": "string"
        },
        {
          "name": "_company",
          "type": "string"
        },
        {
          "name": "_add",
          "type": "string"
        },
        {
          "name": "_country",
          "type": "string"
        }
      ],
      "name": "setEmployer",
      "outputs": [
        {
          "name": "",
          "type": "string"
        },
        {
          "name": "",
          "type": "uint256[]"
        },
        {
          "name": "",
          "type": "uint256"
        },
        {
          "name": "",
          "type": "uint8"
        }
      ],
      "payable": false,
      "stateMutability": "nonpayable",
      "type": "function"
    },
    {
      "constant": true,
      "inputs": [
        {
          "name": "_address",
          "type": "address"
        },
        {
          "name": "_name",
          "type": "string"
        }
      ],
      "name": "getAllProfileIds",
      "outputs": [
        {
          "name": "ids",
          "type": "uint256[]"
        }
      ],
      "payable": false,
      "stateMutability": "view",
      "type": "function"
    },
    {
      "constant": true,
      "inputs": [],
      "name": "getEmployerCodes",
      "outputs": [
        {
          "name": "",
          "type": "address[]"
        }
      ],
      "payable": false,
      "stateMutability": "view",
      "type": "function"
    },
    {
      "constant": false,
      "inputs": [
        {
          "name": "_JobTitle",
          "type": "string"
        },
        {
          "name": "_requiredSkills",
          "type": "uint8[]"
        },
        {
          "name": "_hourlyRate",
          "type": "string"
        },
        {
          "name": "_Description",
          "type": "string"
        }
      ],
      "name": "setJob",
      "outputs": [
        {
          "name": "",
          "type": "address[]"
        }
      ],
      "payable": false,
      "stateMutability": "nonpayable",
      "type": "function"
    },
    {
      "constant": true,
      "inputs": [
        {
          "name": "_uint",
          "type": "uint256"
        }
      ],
      "name": "uintToSkill",
      "outputs": [
        {
          "name": "skill",
          "type": "string"
        }
      ],
      "payable": false,
      "stateMutability": "pure",
      "type": "function"
    },
    {
      "constant": false,
      "inputs": [
        {
          "name": "_jobId",
          "type": "uint256"
        }
      ],
      "name": "updateJobAppliedEmployees",
      "outputs": [],
      "payable": false,
      "stateMutability": "nonpayable",
      "type": "function"
    },
    {
      "constant": false,
      "inputs": [],
      "name": "testSetInitialData",
      "outputs": [],
      "payable": false,
      "stateMutability": "nonpayable",
      "type": "function"
    },
    {
      "constant": true,
      "inputs": [
        {
          "name": "_address",
          "type": "address"
        }
      ],
      "name": "getEmployer",
      "outputs": [
        {
          "name": "name",
          "type": "string"
        },
        {
          "name": "email",
          "type": "string"
        },
        {
          "name": "company",
          "type": "string"
        },
        {
          "name": "add",
          "type": "string"
        },
        {
          "name": "country",
          "type": "string"
        },
        {
          "name": "jobIds",
          "type": "uint256[]"
        },
        {
          "name": "status",
          "type": "uint8"
        }
      ],
      "payable": false,
      "stateMutability": "view",
      "type": "function"
    },
    {
      "constant": false,
      "inputs": [
        {
          "name": "_name",
          "type": "string"
        },
        {
          "name": "_skills",
          "type": "uint8[]"
        },
        {
          "name": "_cvHash",
          "type": "string"
        },
        {
          "name": "_defaultProfile",
          "type": "bool"
        }
      ],
      "name": "setProfile",
      "outputs": [],
      "payable": false,
      "stateMutability": "nonpayable",
      "type": "function"
    },
    {
      "constant": true,
      "inputs": [],
      "name": "getAllJobIds",
      "outputs": [
        {
          "name": "postedJobIds",
          "type": "uint256[]"
        }
      ],
      "payable": false,
      "stateMutability": "view",
      "type": "function"
    },
    {
      "constant": true,
      "inputs": [
        {
          "name": "_profileId",
          "type": "uint256"
        }
      ],
      "name": "findJobsByProfile",
      "outputs": [
        {
          "name": "matchingIds",
          "type": "uint256[]"
        }
      ],
      "payable": false,
      "stateMutability": "view",
      "type": "function"
    },
    {
      "constant": false,
      "inputs": [
        {
          "name": "_employerCode",
          "type": "address"
        },
        {
          "name": "_JobTitle",
          "type": "string"
        },
        {
          "name": "_requiredSkills",
          "type": "uint8[]"
        },
        {
          "name": "_hourlyRate",
          "type": "string"
        },
        {
          "name": "_Description",
          "type": "string"
        }
      ],
      "name": "setJobWithAddress",
      "outputs": [],
      "payable": false,
      "stateMutability": "nonpayable",
      "type": "function"
    },
    {
      "constant": true,
      "inputs": [],
      "name": "findJobsByEmployee",
      "outputs": [
        {
          "name": "",
          "type": "uint256[]"
        }
      ],
      "payable": false,
      "stateMutability": "view",
      "type": "function"
    },
    {
      "constant": false,
      "inputs": [
        {
          "name": "_employeeCode",
          "type": "address"
        },
        {
          "name": "_name",
          "type": "string"
        },
        {
          "name": "_skills",
          "type": "uint8[]"
        },
        {
          "name": "_cvHash",
          "type": "string"
        },
        {
          "name": "_defaultProfile",
          "type": "bool"
        }
      ],
      "name": "setProfileWithAddress",
      "outputs": [],
      "payable": false,
      "stateMutability": "nonpayable",
      "type": "function"
    },
    {
      "constant": true,
      "inputs": [
        {
          "name": "_id",
          "type": "uint256"
        },
        {
          "name": "_name",
          "type": "string"
        }
      ],
      "name": "getJob",
      "outputs": [
        {
          "name": "",
          "type": "address"
        },
        {
          "name": "",
          "type": "string"
        },
        {
          "name": "",
          "type": "uint8[]"
        },
        {
          "name": "",
          "type": "address[]"
        },
        {
          "name": "",
          "type": "uint8"
        }
      ],
      "payable": false,
      "stateMutability": "view",
      "type": "function"
    },
    {
      "constant": false,
      "inputs": [
        {
          "name": "_name",
          "type": "string"
        },
        {
          "name": "_email",
          "type": "string"
        },
        {
          "name": "_phoneNo",
          "type": "string"
        },
        {
          "name": "_statement",
          "type": "string"
        },
        {
          "name": "_rate",
          "type": "string"
        }
      ],
      "name": "setEmployee",
      "outputs": [
        {
          "name": "",
          "type": "address"
        },
        {
          "name": "",
          "type": "string"
        },
        {
          "name": "",
          "type": "uint8[]"
        },
        {
          "name": "",
          "type": "address[]"
        },
        {
          "name": "",
          "type": "uint8"
        }
      ],
      "payable": false,
      "stateMutability": "nonpayable",
      "type": "function"
    },
    {
      "constant": true,
      "inputs": [
        {
          "name": "_jobId",
          "type": "uint256"
        }
      ],
      "name": "findEmployeeProfilesByJob",
      "outputs": [
        {
          "name": "matchingProfiles",
          "type": "uint256[]"
        }
      ],
      "payable": false,
      "stateMutability": "view",
      "type": "function"
    },
    {
      "constant": true,
      "inputs": [
        {
          "name": "_skill",
          "type": "uint8"
        }
      ],
      "name": "findJobsBySkill",
      "outputs": [
        {
          "name": "matchingIds",
          "type": "uint256[]"
        }
      ],
      "payable": false,
      "stateMutability": "view",
      "type": "function"
    },
    {
      "constant": true,
      "inputs": [
        {
          "name": "_id",
          "type": "uint256"
        }
      ],
      "name": "getProfile",
      "outputs": [
        {
          "name": "",
          "type": "address"
        },
        {
          "name": "",
          "type": "string"
        },
        {
          "name": "",
          "type": "uint8[]"
        },
        {
          "name": "",
          "type": "string"
        },
        {
          "name": "",
          "type": "uint8"
        }
      ],
      "payable": false,
      "stateMutability": "view",
      "type": "function"
    },
    {
      "constant": true,
      "inputs": [],
      "name": "getEmployeeCodes",
      "outputs": [
        {
          "name": "codes",
          "type": "address[]"
        }
      ],
      "payable": false,
      "stateMutability": "view",
      "type": "function"
    }
  ],
  "bytecode": "0x6060604052600160005560018055341561001857600080fd5b614917806100276000396000f300606060405260043610610133576000357c0100000000000000000000000000000000000000000000000000000000900463ffffffff16806320fc28811461013857806332648e09146102c0578063382f03e914610586578063563333261461070e5780635f317ace14610877578063633e0c23146108e15780636754a2291461094b578063689943b014610a6e5780636df89ff714610b0a578063701486c914610b2d5780637560d4ce14610b425780637c2911d914610e0157806388c8837f14610eec57806389fbc0c214610f5657806392822f5214610fce5780639a76affa14611110578063ae3887c21461117a578063bf22c45714611284578063cbcf2295146113f8578063d1678e6a14611561578063dbe98dda146115d9578063f08f4f6414611654578063ff66aa62146117ec575b600080fd5b341561014357600080fd5b6102be600480803573ffffffffffffffffffffffffffffffffffffffff1690602001909190803590602001908201803590602001908080601f0160208091040260200160405190810160405280939291908181526020018383808284378201915050505050509190803590602001908201803590602001908080601f0160208091040260200160405190810160405280939291908181526020018383808284378201915050505050509190803590602001908201803590602001908080601f0160208091040260200160405190810160405280939291908181526020018383808284378201915050505050509190803590602001908201803590602001908080601f0160208091040260200160405190810160405280939291908181526020018383808284378201915050505050509190803590602001908201803590602001908080601f01602080910402602001604051908101604052809392919081815260200183838082843782019150505050505091905050611856565b005b34156102cb57600080fd5b6102f7600480803573ffffffffffffffffffffffffffffffffffffffff169060200190919050506119eb565b6040518080602001806020018060200180602001806020018060200189815260200188600481111561032557fe5b60ff16815260200187810387528f818151815260200191508051906020019080838360005b8381101561036557808201518184015260208101905061034a565b50505050905090810190601f1680156103925780820380516001836020036101000a031916815260200191505b5087810386528e818151815260200191508051906020019080838360005b838110156103cb5780820151818401526020810190506103b0565b50505050905090810190601f1680156103f85780820380516001836020036101000a031916815260200191505b5087810385528d818151815260200191508051906020019080838360005b83811015610431578082015181840152602081019050610416565b50505050905090810190601f16801561045e5780820380516001836020036101000a031916815260200191505b5087810384528c818151815260200191508051906020019080838360005b8381101561049757808201518184015260208101905061047c565b50505050905090810190601f1680156104c45780820380516001836020036101000a031916815260200191505b5087810383528b818151815260200191508051906020019080838360005b838110156104fd5780820151818401526020810190506104e2565b50505050905090810190601f16801561052a5780820380516001836020036101000a031916815260200191505b5087810382528a818151815260200191508051906020019060200280838360005b8381101561056657808201518184015260208101905061054b565b505050509050019e50505050505050505050505050505060405180910390f35b341561059157600080fd5b61070c600480803573ffffffffffffffffffffffffffffffffffffffff1690602001909190803590602001908201803590602001908080601f0160208091040260200160405190810160405280939291908181526020018383808284378201915050505050509190803590602001908201803590602001908080601f0160208091040260200160405190810160405280939291908181526020018383808284378201915050505050509190803590602001908201803590602001908080601f0160208091040260200160405190810160405280939291908181526020018383808284378201915050505050509190803590602001908201803590602001908080601f0160208091040260200160405190810160405280939291908181526020018383808284378201915050505050509190803590602001908201803590602001908080601f01602080910402602001604051908101604052809392919081815260200183838082843782019150505050505091905050611ee4565b005b341561071957600080fd5b610875600480803590602001908201803590602001908080601f0160208091040260200160405190810160405280939291908181526020018383808284378201915050505050509190803590602001908201803590602001908080601f0160208091040260200160405190810160405280939291908181526020018383808284378201915050505050509190803590602001908201803590602001908080601f0160208091040260200160405190810160405280939291908181526020018383808284378201915050505050509190803590602001908201803590602001908080601f0160208091040260200160405190810160405280939291908181526020018383808284378201915050505050509190803590602001908201803590602001908080601f01602080910402602001604051908101604052809392919081815260200183838082843782019150505050505091905050612060565b005b341561088257600080fd5b61088a61207b565b6040518080602001828103825283818151815260200191508051906020019060200280838360005b838110156108cd5780820151818401526020810190506108b2565b505050509050019250505060405180910390f35b34156108ec57600080fd5b6108f46120d9565b6040518080602001828103825283818151815260200191508051906020019060200280838360005b8381101561093757808201518184015260208101905061091c565b505050509050019250505060405180910390f35b341561095657600080fd5b610a6c600480803590602001908201803590602001908080601f016020809104026020016040519081016040528093929190818152602001838380828437820191505050505050919080359060200190820180359060200190808060200260200160405190810160405280939291908181526020018383602002808284378201915050505050509190803590602001908201803590602001908080601f0160208091040260200160405190810160405280939291908181526020018383808284378201915050505050509190803590602001908201803590602001908080601f0160208091040260200160405190810160405280939291908181526020018383808284378201915050505050509190505061216d565b005b3415610a7957600080fd5b610a8f6004808035906020019091905050612186565b6040518080602001828103825283818151815260200191508051906020019080838360005b83811015610acf578082015181840152602081019050610ab4565b50505050905090810190601f168015610afc5780820380516001836020036101000a031916815260200191505b509250505060405180910390f35b3415610b1557600080fd5b610b2b600480803590602001909190505061226e565b005b3415610b3857600080fd5b610b406122ee565b005b3415610b4d57600080fd5b610b79600480803573ffffffffffffffffffffffffffffffffffffffff16906020019091905050612488565b60405180806020018060200180602001806020018060200180602001886004811115610ba157fe5b60ff16815260200187810387528e818151815260200191508051906020019080838360005b83811015610be1578082015181840152602081019050610bc6565b50505050905090810190601f168015610c0e5780820380516001836020036101000a031916815260200191505b5087810386528d818151815260200191508051906020019080838360005b83811015610c47578082015181840152602081019050610c2c565b50505050905090810190601f168015610c745780820380516001836020036101000a031916815260200191505b5087810385528c818151815260200191508051906020019080838360005b83811015610cad578082015181840152602081019050610c92565b50505050905090810190601f168015610cda5780820380516001836020036101000a031916815260200191505b5087810384528b818151815260200191508051906020019080838360005b83811015610d13578082015181840152602081019050610cf8565b50505050905090810190601f168015610d405780820380516001836020036101000a031916815260200191505b5087810383528a818151815260200191508051906020019080838360005b83811015610d79578082015181840152602081019050610d5e565b50505050905090810190601f168015610da65780820380516001836020036101000a031916815260200191505b50878103825289818151815260200191508051906020019060200280838360005b83811015610de2578082015181840152602081019050610dc7565b505050509050019d505050505050505050505050505060405180910390f35b3415610e0c57600080fd5b610eea600480803590602001908201803590602001908080601f016020809104026020016040519081016040528093929190818152602001838380828437820191505050505050919080359060200190820180359060200190808060200260200160405190810160405280939291908181526020018383602002808284378201915050505050509190803590602001908201803590602001908080601f016020809104026020016040519081016040528093929190818152602001838380828437820191505050505050919080351515906020019091905050612964565b005b3415610ef757600080fd5b610eff61297d565b6040518080602001828103825283818151815260200191508051906020019060200280838360005b83811015610f42578082015181840152602081019050610f27565b505050509050019250505060405180910390f35b3415610f6157600080fd5b610f7760048080359060200190919050506129db565b6040518080602001828103825283818151815260200191508051906020019060200280838360005b83811015610fba578082015181840152602081019050610f9f565b505050509050019250505060405180910390f35b3415610fd957600080fd5b61110e600480803573ffffffffffffffffffffffffffffffffffffffff1690602001909190803590602001908201803590602001908080601f016020809104026020016040519081016040528093929190818152602001838380828437820191505050505050919080359060200190820180359060200190808060200260200160405190810160405280939291908181526020018383602002808284378201915050505050509190803590602001908201803590602001908080601f0160208091040260200160405190810160405280939291908181526020018383808284378201915050505050509190803590602001908201803590602001908080601f01602080910402602001604051908101604052809392919081815260200183838082843782019150505050505091905050612ec8565b005b341561111b57600080fd5b611123613038565b6040518080602001828103825283818151815260200191508051906020019060200280838360005b8381101561116657808201518184015260208101905061114b565b505050509050019250505060405180910390f35b341561118557600080fd5b611282600480803573ffffffffffffffffffffffffffffffffffffffff1690602001909190803590602001908201803590602001908080601f016020809104026020016040519081016040528093929190818152602001838380828437820191505050505050919080359060200190820180359060200190808060200260200160405190810160405280939291908181526020018383602002808284378201915050505050509190803590602001908201803590602001908080601f01602080910402602001604051908101604052809392919081815260200183838082843782019150505050505091908035151590602001909190505061356a565b005b341561128f57600080fd5b6112a56004808035906020019091905050613702565b604051808673ffffffffffffffffffffffffffffffffffffffff1673ffffffffffffffffffffffffffffffffffffffff1681526020018060200180602001806020018560048111156112f357fe5b60ff168152602001848103845288818151815260200191508051906020019080838360005b83811015611333578082015181840152602081019050611318565b50505050905090810190601f1680156113605780820380516001836020036101000a031916815260200191505b50848103835287818151815260200191508051906020019060200280838360005b8381101561139c578082015181840152602081019050611381565b50505050905001848103825286818151815260200191508051906020019060200280838360005b838110156113de5780820151818401526020810190506113c3565b505050509050019850505050505050505060405180910390f35b341561140357600080fd5b61155f600480803590602001908201803590602001908080601f0160208091040260200160405190810160405280939291908181526020018383808284378201915050505050509190803590602001908201803590602001908080601f0160208091040260200160405190810160405280939291908181526020018383808284378201915050505050509190803590602001908201803590602001908080601f0160208091040260200160405190810160405280939291908181526020018383808284378201915050505050509190803590602001908201803590602001908080601f0160208091040260200160405190810160405280939291908181526020018383808284378201915050505050509190803590602001908201803590602001908080601f01602080910402602001604051908101604052809392919081815260200183838082843782019150505050505091905050613a6d565b005b341561156c57600080fd5b6115826004808035906020019091905050613a88565b6040518080602001828103825283818151815260200191508051906020019060200280838360005b838110156115c55780820151818401526020810190506115aa565b505050509050019250505060405180910390f35b34156115e457600080fd5b6115fd600480803560ff16906020019091905050613cea565b6040518080602001828103825283818151815260200191508051906020019060200280838360005b83811015611640578082015181840152602081019050611625565b505050509050019250505060405180910390f35b341561165f57600080fd5b61167560048080359060200190919050506140fc565b604051808673ffffffffffffffffffffffffffffffffffffffff1673ffffffffffffffffffffffffffffffffffffffff1681526020018060200180602001806020018560048111156116c357fe5b60ff168152602001848103845288818151815260200191508051906020019080838360005b838110156117035780820151818401526020810190506116e8565b50505050905090810190601f1680156117305780820380516001836020036101000a031916815260200191505b50848103835287818151815260200191508051906020019060200280838360005b8381101561176c578082015181840152602081019050611751565b50505050905001848103825286818151815260200191508051906020019080838360005b838110156117ab578082015181840152602081019050611790565b50505050905090810190601f1680156117d85780820380516001836020036101000a031916815260200191505b509850505050505050505060405180910390f35b34156117f757600080fd5b6117ff6143ce565b6040518080602001828103825283818151815260200191508051906020019060200280838360005b83811015611842578082015181840152602081019050611827565b505050509050019250505060405180910390f35b6000600260008873ffffffffffffffffffffffffffffffffffffffff1673ffffffffffffffffffffffffffffffffffffffff1681526020019081526020016000209050868160000160006101000a81548173ffffffffffffffffffffffffffffffffffffffff021916908373ffffffffffffffffffffffffffffffffffffffff160217905550858160010190805190602001906118f4929190614462565b508481600201908051906020019061190d929190614462565b5083816003019080519060200190611926929190614462565b508281600401908051906020019061193f929190614462565b5081816005019080519060200190611958929190614462565b5060008160090160006101000a81548160ff0219169083600481111561197a57fe5b02179055506003805480600101828161199391906144e2565b9160005260206000209001600089909190916101000a81548173ffffffffffffffffffffffffffffffffffffffff021916908373ffffffffffffffffffffffffffffffffffffffff1602179055505050505050505050565b6119f361450e565b6119fb61450e565b611a0361450e565b611a0b61450e565b611a1361450e565b611a1b614522565b600080611a26614536565b600260008b73ffffffffffffffffffffffffffffffffffffffff1673ffffffffffffffffffffffffffffffffffffffff16815260200190815260200160002061014060405190810160405290816000820160009054906101000a900473ffffffffffffffffffffffffffffffffffffffff1673ffffffffffffffffffffffffffffffffffffffff1673ffffffffffffffffffffffffffffffffffffffff168152602001600182018054600181600116156101000203166002900480601f016020809104026020016040519081016040528092919081815260200182805460018160011615610100020316600290048015611b615780601f10611b3657610100808354040283529160200191611b61565b820191906000526020600020905b815481529060010190602001808311611b4457829003601f168201915b50505050508152602001600282018054600181600116156101000203166002900480601f016020809104026020016040519081016040528092919081815260200182805460018160011615610100020316600290048015611c035780601f10611bd857610100808354040283529160200191611c03565b820191906000526020600020905b815481529060010190602001808311611be657829003601f168201915b50505050508152602001600382018054600181600116156101000203166002900480601f016020809104026020016040519081016040528092919081815260200182805460018160011615610100020316600290048015611ca55780601f10611c7a57610100808354040283529160200191611ca5565b820191906000526020600020905b815481529060010190602001808311611c8857829003601f168201915b50505050508152602001600482018054600181600116156101000203166002900480601f016020809104026020016040519081016040528092919081815260200182805460018160011615610100020316600290048015611d475780601f10611d1c57610100808354040283529160200191611d47565b820191906000526020600020905b815481529060010190602001808311611d2a57829003601f168201915b50505050508152602001600582018054600181600116156101000203166002900480601f016020809104026020016040519081016040528092919081815260200182805460018160011615610100020316600290048015611de95780601f10611dbe57610100808354040283529160200191611de9565b820191906000526020600020905b815481529060010190602001808311611dcc57829003601f168201915b5050505050815260200160068201805480602002602001604051908101604052809291908181526020018280548015611e4157602002820191906000526020600020905b815481526020019060010190808311611e2d575b5050505050815260200160078201548152602001600882015481526020016009820160009054906101000a900460ff166004811115611e7c57fe5b6004811115611e8757fe5b81525050905080602001518160400151826060015183608001518460a001518560c001518660e001518761012001518797508696508595508494508393508292509850985098509850985098509850985050919395975091939597565b6000600460008873ffffffffffffffffffffffffffffffffffffffff1673ffffffffffffffffffffffffffffffffffffffff1681526020019081526020016000209050868160000160006101000a81548173ffffffffffffffffffffffffffffffffffffffff021916908373ffffffffffffffffffffffffffffffffffffffff16021790555084816002019080519060200190611f82929190614462565b5083816003019080519060200190611f9b929190614462565b5082816004019080519060200190611fb4929190614462565b5081816005019080519060200190611fcd929190614462565b5060008160070160006101000a81548160ff02191690836004811115611fef57fe5b02179055506005805480600101828161200891906144e2565b9160005260206000209001600089909190916101000a81548173ffffffffffffffffffffffffffffffffffffffff021916908373ffffffffffffffffffffffffffffffffffffffff1602179055505050505050505050565b6000339050612073818787878787611ee4565b505050505050565b612083614522565b60078054806020026020016040519081016040528092919081815260200182805480156120cf57602002820191906000526020600020905b8154815260200190600101908083116120bb575b5050505050905090565b6120e16145cf565b600580548060200260200160405190810160405280929190818152602001828054801561216357602002820191906000526020600020905b8160009054906101000a900473ffffffffffffffffffffffffffffffffffffffff1673ffffffffffffffffffffffffffffffffffffffff1681526020019060010190808311612119575b5050505050905090565b600033905061217f8186868686612ec8565b5050505050565b61218e61450e565b6000600681111561219b57fe5b8214156121df576040805190810160405280600481526020017f4a415641000000000000000000000000000000000000000000000000000000008152509050612269565b600160068111156121ec57fe5b821415612230576040805190810160405280600281526020017f4a530000000000000000000000000000000000000000000000000000000000008152509050612269565b6040805190810160405280600581526020017f4d4f4e474f00000000000000000000000000000000000000000000000000000081525090505b919050565b600060086000838152602001908152602001600020905080600301805480600101828161229b91906144e2565b9160005260206000209001600033909190916101000a81548173ffffffffffffffffffffffffffffffffffffffff021916908373ffffffffffffffffffffffffffffffffffffffff160217905550505050565b6000806000806122fc6145e3565b6123046145e3565b735f0e611dbcb5a4a1dc8ec4c7e1a02a8eb60182f3955073cea3b456c72dae97a256199c24dab28fb4863ed194507338921ab62710300785722cfc538b3cabefb12845935073da93fc20797a06d7273335788a4914a89d3bedaf9250600260405180591061236f5750595b90808252806020026020018201604052509150600082600081518110151561239357fe5b9060200190602002019060068111156123a857fe5b908160068111156123b557fe5b8152505060028260018151811015156123ca57fe5b9060200190602002019060068111156123df57fe5b908160068111156123ec57fe5b8152505060026040518059106123ff5750595b90808252806020026020018201604052509050600181600081518110151561242357fe5b90602001906020020190600681111561243857fe5b9081600681111561244557fe5b81525050600381600181518110151561245a57fe5b90602001906020020190600681111561246f57fe5b9081600681111561247c57fe5b81525050505050505050565b61249061450e565b61249861450e565b6124a061450e565b6124a861450e565b6124b061450e565b6124b8614522565b60006124c26145f7565b600460008a73ffffffffffffffffffffffffffffffffffffffff1673ffffffffffffffffffffffffffffffffffffffff16815260200190815260200160002061010060405190810160405290816000820160009054906101000a900473ffffffffffffffffffffffffffffffffffffffff1673ffffffffffffffffffffffffffffffffffffffff1673ffffffffffffffffffffffffffffffffffffffff168152602001600182018054600181600116156101000203166002900480601f0160208091040260200160405190810160405280929190818152602001828054600181600116156101000203166002900480156125fd5780601f106125d2576101008083540402835291602001916125fd565b820191906000526020600020905b8154815290600101906020018083116125e057829003601f168201915b50505050508152602001600282018054600181600116156101000203166002900480601f01602080910402602001604051908101604052809291908181526020018280546001816001161561010002031660029004801561269f5780601f106126745761010080835404028352916020019161269f565b820191906000526020600020905b81548152906001019060200180831161268257829003601f168201915b50505050508152602001600382018054600181600116156101000203166002900480601f0160208091040260200160405190810160405280929190818152602001828054600181600116156101000203166002900480156127415780601f1061271657610100808354040283529160200191612741565b820191906000526020600020905b81548152906001019060200180831161272457829003601f168201915b50505050508152602001600482018054600181600116156101000203166002900480601f0160208091040260200160405190810160405280929190818152602001828054600181600116156101000203166002900480156127e35780601f106127b8576101008083540402835291602001916127e3565b820191906000526020600020905b8154815290600101906020018083116127c657829003601f168201915b50505050508152602001600582018054600181600116156101000203166002900480601f0160208091040260200160405190810160405280929190818152602001828054600181600116156101000203166002900480156128855780601f1061285a57610100808354040283529160200191612885565b820191906000526020600020905b81548152906001019060200180831161286857829003601f168201915b50505050508152602001600682018054806020026020016040519081016040528092919081815260200182805480156128dd57602002820191906000526020600020905b8154815260200190600101908083116128c9575b505050505081526020016007820160009054906101000a900460ff16600481111561290457fe5b600481111561290f57fe5b81525050905080602001518160400151826060015183608001518460a001518560c001518660e00151869650859550849450839350829250819150975097509750975097509750975050919395979092949650565b6000339050612976818686868661356a565b5050505050565b612985614522565b60098054806020026020016040519081016040528092919081815260200182805480156129d157602002820191906000526020600020905b8154815260200190600101908083116129bd575b5050505050905090565b6129e3614522565b60006129ed6145e3565b6129f5614522565b600080600080612a03614682565b612a0b6145e3565b60008060018054039a50600660008e8152602001908152602001600020600401805480602002602001604051908101604052809291908181526020018280548015612aa357602002820191906000526020600020906000905b82829054906101000a900460ff166006811115612a7d57fe5b81526020019060010190602082600001049283019260010382029150808411612a645790505b505050505099508a8a5102604051805910612abb5750595b9080825280602002602001820160405250985060009750600096505b8951871015612eb5578987815181101515612aee57fe5b906020019060200201519550600194505b8a85111515612ea857600860008681526020019081526020016000206101006040519081016040529081600082015481526020016001820160009054906101000a900473ffffffffffffffffffffffffffffffffffffffff1673ffffffffffffffffffffffffffffffffffffffff1673ffffffffffffffffffffffffffffffffffffffff16815260200160028201805480602002602001604051908101604052809291908181526020018280548015612c0557602002820191906000526020600020906000905b82829054906101000a900460ff166006811115612bdf57fe5b81526020019060010190602082600001049283019260010382029150808411612bc65790505b5050505050815260200160038201805480602002602001604051908101604052809291908181526020018280548015612c9357602002820191906000526020600020905b8160009054906101000a900473ffffffffffffffffffffffffffffffffffffffff1673ffffffffffffffffffffffffffffffffffffffff1681526020019060010190808311612c49575b505050505081526020016004820160009054906101000a900460ff166004811115612cba57fe5b6004811115612cc557fe5b8152602001600582018054600181600116156101000203166002900480601f016020809104026020016040519081016040528092919081815260200182805460018160011615610100020316600290048015612d625780601f10612d3757610100808354040283529160200191612d62565b820191906000526020600020905b815481529060010190602001808311612d4557829003601f168201915b5050505050815260200160068201548152602001600782018054600181600116156101000203166002900480601f016020809104026020016040519081016040528092919081815260200182805460018160011615610100020316600290048015612e0e5780601f10612de357610100808354040283529160200191612e0e565b820191906000526020600020905b815481529060010190602001808311612df157829003601f168201915b505050505081525050935083604001519250600091505b8251821015612e9b578282815181101515612e3c57fe5b906020019060200201519050806006811115612e5457fe5b866006811115612e6057fe5b1415612e8e57848989806001019a50815181101515612e7b57fe5b9060200190602002018181525050612e9b565b8180600101925050612e25565b8480600101955050612aff565b8680600101975050612ad7565b889b505050505050505050505050919050565b600080600060016000815480929190600101919050559250600860008481526020019081526020016000209150828260000181905550878260010160006101000a81548173ffffffffffffffffffffffffffffffffffffffff021916908373ffffffffffffffffffffffffffffffffffffffff16021790555086826005019080519060200190612f59929190614462565b5085826002019080519060200190612f72929190614701565b5060028260040160006101000a81548160ff02191690836004811115612f9457fe5b021790555060098054806001018281612fad91906147b0565b916000526020600020900160008590919091505550600460008973ffffffffffffffffffffffffffffffffffffffff1673ffffffffffffffffffffffffffffffffffffffff168152602001908152602001600020905080600601805480600101828161301991906147b0565b9160005260206000209001600085909190915055505050505050505050565b613040614522565b60008061304b6145e3565b613053614522565b600080600080613061614682565b6130696145e3565b600080600260003373ffffffffffffffffffffffffffffffffffffffff1673ffffffffffffffffffffffffffffffffffffffff168152602001908152602001600020600701549b5060018054039a50600660008d815260200190815260200160002060040180548060200260200160405190810160405280929190818152602001828054801561314657602002820191906000526020600020906000905b82829054906101000a900460ff16600681111561312057fe5b815260200190600101906020826000010492830192600103820291508084116131075790505b505050505099508a8a510260405180591061315e5750595b9080825280602002602001820160405250985060009750600096505b895187101561355857898781518110151561319157fe5b906020019060200201519550600194505b8a8511151561354b57600860008681526020019081526020016000206101006040519081016040529081600082015481526020016001820160009054906101000a900473ffffffffffffffffffffffffffffffffffffffff1673ffffffffffffffffffffffffffffffffffffffff1673ffffffffffffffffffffffffffffffffffffffff168152602001600282018054806020026020016040519081016040528092919081815260200182805480156132a857602002820191906000526020600020906000905b82829054906101000a900460ff16600681111561328257fe5b815260200190600101906020826000010492830192600103820291508084116132695790505b505050505081526020016003820180548060200260200160405190810160405280929190818152602001828054801561333657602002820191906000526020600020905b8160009054906101000a900473ffffffffffffffffffffffffffffffffffffffff1673ffffffffffffffffffffffffffffffffffffffff16815260200190600101908083116132ec575b505050505081526020016004820160009054906101000a900460ff16600481111561335d57fe5b600481111561336857fe5b8152602001600582018054600181600116156101000203166002900480601f0160208091040260200160405190810160405280929190818152602001828054600181600116156101000203166002900480156134055780601f106133da57610100808354040283529160200191613405565b820191906000526020600020905b8154815290600101906020018083116133e857829003601f168201915b5050505050815260200160068201548152602001600782018054600181600116156101000203166002900480601f0160208091040260200160405190810160405280929190818152602001828054600181600116156101000203166002900480156134b15780601f10613486576101008083540402835291602001916134b1565b820191906000526020600020905b81548152906001019060200180831161349457829003601f168201915b505050505081525050935083604001519250600091505b825182101561353e5782828151811015156134df57fe5b9060200190602002015190508060068111156134f757fe5b86600681111561350357fe5b141561353157848989806001019a5081518110151561351e57fe5b906020019060200201818152505061353e565b81806001019250506134c8565b84806001019550506131a2565b868060010197505061317a565b889c5050505050505050505050505090565b6000806000806000815480929190600101919050559250600660008481526020019081526020016000209150828260000181905550878260010160006101000a81548173ffffffffffffffffffffffffffffffffffffffff021916908373ffffffffffffffffffffffffffffffffffffffff160217905550868260020190805190602001906135fa929190614462565b5085826004019080519060200190613613929190614701565b508482600301908051906020019061362c929190614462565b5060008260050160006101000a81548160ff0219169083600481111561364e57fe5b02179055506007805480600101828161366791906147b0565b916000526020600020900160008590919091505550600260008973ffffffffffffffffffffffffffffffffffffffff1673ffffffffffffffffffffffffffffffffffffffff16815260200190815260200160002090508060060180548060010182816136d391906147b0565b91600052602060002090016000859091909150555083156136f8578281600701819055505b5050505050505050565b600061370c61450e565b6137146145e3565b61371c6145cf565b6000613726614682565b600860008881526020019081526020016000206101006040519081016040529081600082015481526020016001820160009054906101000a900473ffffffffffffffffffffffffffffffffffffffff1673ffffffffffffffffffffffffffffffffffffffff1673ffffffffffffffffffffffffffffffffffffffff1681526020016002820180548060200260200160405190810160405280929190818152602001828054801561382357602002820191906000526020600020906000905b82829054906101000a900460ff1660068111156137fd57fe5b815260200190600101906020826000010492830192600103820291508084116137e45790505b50505050508152602001600382018054806020026020016040519081016040528092919081815260200182805480156138b157602002820191906000526020600020905b8160009054906101000a900473ffffffffffffffffffffffffffffffffffffffff1673ffffffffffffffffffffffffffffffffffffffff1681526020019060010190808311613867575b505050505081526020016004820160009054906101000a900460ff1660048111156138d857fe5b60048111156138e357fe5b8152602001600582018054600181600116156101000203166002900480601f0160208091040260200160405190810160405280929190818152602001828054600181600116156101000203166002900480156139805780601f1061395557610100808354040283529160200191613980565b820191906000526020600020905b81548152906001019060200180831161396357829003601f168201915b5050505050815260200160068201548152602001600782018054600181600116156101000203166002900480601f016020809104026020016040519081016040528092919081815260200182805460018160011615610100020316600290048015613a2c5780601f10613a0157610100808354040283529160200191613a2c565b820191906000526020600020905b815481529060010190602001808311613a0f57829003601f168201915b505050505081525050905080602001518160a00151826040015183606001518460800151839350829250819150955095509550955095505091939590929450565b6000339050613a80818787878787611856565b505050505050565b613a90614522565b6000613a9a6145e3565b613aa2614522565b600080600080613ab06145e3565b6000806001600054039950600860008d8152602001908152602001600020600201805480602002602001604051908101604052809291908181526020018280548015613b4957602002820191906000526020600020906000905b82829054906101000a900460ff166006811115613b2357fe5b81526020019060010190602082600001049283019260010382029150808411613b0a5790505b5050505050985088518a02604051805910613b615750595b9080825280602002602001820160405250975060009650600095505b8851861015613cd8578886815181101515613b9457fe5b906020019060200201519450600193505b8984111515613ccb5760066000858152602001908152602001600020600401805480602002602001604051908101604052809291908181526020018280548015613c3c57602002820191906000526020600020906000905b82829054906101000a900460ff166006811115613c1657fe5b81526020019060010190602082600001049283019260010382029150808411613bfd5790505b50505050509250600091505b8251821015613cbe578282815181101515613c5f57fe5b906020019060200201519050846006811115613c7757fe5b816006811115613c8357fe5b1415613cb157838888806001019950815181101515613c9e57fe5b9060200190602002018181525050613cbe565b8180600101925050613c48565b8380600101945050613ba5565b8580600101965050613b7d565b879a5050505050505050505050919050565b613cf2614522565b6000613cfc614522565b600080613d07614682565b613d0f6145e3565b6000806001805403975087604051805910613d275750595b9080825280602002602001820160405250965060009550600194505b87851115156140ec57600860008681526020019081526020016000206101006040519081016040529081600082015481526020016001820160009054906101000a900473ffffffffffffffffffffffffffffffffffffffff1673ffffffffffffffffffffffffffffffffffffffff1673ffffffffffffffffffffffffffffffffffffffff16815260200160028201805480602002602001604051908101604052809291908181526020018280548015613e4957602002820191906000526020600020906000905b82829054906101000a900460ff166006811115613e2357fe5b81526020019060010190602082600001049283019260010382029150808411613e0a5790505b5050505050815260200160038201805480602002602001604051908101604052809291908181526020018280548015613ed757602002820191906000526020600020905b8160009054906101000a900473ffffffffffffffffffffffffffffffffffffffff1673ffffffffffffffffffffffffffffffffffffffff1681526020019060010190808311613e8d575b505050505081526020016004820160009054906101000a900460ff166004811115613efe57fe5b6004811115613f0957fe5b8152602001600582018054600181600116156101000203166002900480601f016020809104026020016040519081016040528092919081815260200182805460018160011615610100020316600290048015613fa65780601f10613f7b57610100808354040283529160200191613fa6565b820191906000526020600020905b815481529060010190602001808311613f8957829003601f168201915b5050505050815260200160068201548152602001600782018054600181600116156101000203166002900480601f0160208091040260200160405190810160405280929190818152602001828054600181600116156101000203166002900480156140525780601f1061402757610100808354040283529160200191614052565b820191906000526020600020905b81548152906001019060200180831161403557829003601f168201915b505050505081525050935083604001519250600091505b82518210156140df57828281518110151561408057fe5b90602001906020020151905080600681111561409857fe5b8a60068111156140a457fe5b14156140d2578487878060010198508151811015156140bf57fe5b90602001906020020181815250506140df565b8180600101925050614069565b8480600101955050613d43565b8698505050505050505050919050565b600061410661450e565b61410e6145e3565b61411661450e565b60006141206147dc565b6006600088815260200190815260200160002060c06040519081016040529081600082015481526020016001820160009054906101000a900473ffffffffffffffffffffffffffffffffffffffff1673ffffffffffffffffffffffffffffffffffffffff1673ffffffffffffffffffffffffffffffffffffffff168152602001600282018054600181600116156101000203166002900480601f0160208091040260200160405190810160405280929190818152602001828054600181600116156101000203166002900480156142385780601f1061420d57610100808354040283529160200191614238565b820191906000526020600020905b81548152906001019060200180831161421b57829003601f168201915b50505050508152602001600382018054600181600116156101000203166002900480601f0160208091040260200160405190810160405280929190818152602001828054600181600116156101000203166002900480156142da5780601f106142af576101008083540402835291602001916142da565b820191906000526020600020905b8154815290600101906020018083116142bd57829003601f168201915b505050505081526020016004820180548060200260200160405190810160405280929190818152602001828054801561436057602002820191906000526020600020906000905b82829054906101000a900460ff16600681111561433a57fe5b815260200190600101906020826000010492830192600103820291508084116143215790505b505050505081526020016005820160009054906101000a900460ff16600481111561438757fe5b600481111561439257fe5b81525050905080602001518160400151826080015183606001518460a00151839350829250819150955095509550955095505091939590929450565b6143d66145cf565b600380548060200260200160405190810160405280929190818152602001828054801561445857602002820191906000526020600020905b8160009054906101000a900473ffffffffffffffffffffffffffffffffffffffff1673ffffffffffffffffffffffffffffffffffffffff168152602001906001019080831161440e575b5050505050905090565b828054600181600116156101000203166002900490600052602060002090601f016020900481019282601f106144a357805160ff19168380011785556144d1565b828001600101855582156144d1579182015b828111156144d05782518255916020019190600101906144b5565b5b5090506144de9190614846565b5090565b815481835581811511614509578183600052602060002091820191016145089190614846565b5b505050565b602060405190810160405280600081525090565b602060405190810160405280600081525090565b61014060405190810160405280600073ffffffffffffffffffffffffffffffffffffffff16815260200161456861486b565b815260200161457561486b565b815260200161458261486b565b815260200161458f61486b565b815260200161459c61486b565b81526020016145a961487f565b81526020016000815260200160008152602001600060048111156145c957fe5b81525090565b602060405190810160405280600081525090565b602060405190810160405280600081525090565b61010060405190810160405280600073ffffffffffffffffffffffffffffffffffffffff16815260200161462961486b565b815260200161463661486b565b815260200161464361486b565b815260200161465061486b565b815260200161465d61486b565b815260200161466a61487f565b81526020016000600481111561467c57fe5b81525090565b6101006040519081016040528060008152602001600073ffffffffffffffffffffffffffffffffffffffff1681526020016146bb614893565b81526020016146c86148a7565b8152602001600060048111156146da57fe5b81526020016146e761486b565b8152602001600081526020016146fb61486b565b81525090565b82805482825590600052602060002090601f0160209004810192821561479f5791602002820160005b8382111561477057835183826101000a81548160ff0219169083600681111561474f57fe5b0217905550926020019260010160208160000104928301926001030261472a565b801561479d5782816101000a81549060ff0219169055600101602081600001049283019260010302614770565b505b5090506147ac91906148bb565b5090565b8154818355818115116147d7578183600052602060002091820191016147d69190614846565b5b505050565b60c06040519081016040528060008152602001600073ffffffffffffffffffffffffffffffffffffffff16815260200161481461486b565b815260200161482161486b565b815260200161482e614893565b81526020016000600481111561484057fe5b81525090565b61486891905b8082111561486457600081600090555060010161484c565b5090565b90565b602060405190810160405280600081525090565b602060405190810160405280600081525090565b602060405190810160405280600081525090565b602060405190810160405280600081525090565b6148e891905b808211156148e457600081816101000a81549060ff0219169055506001016148c1565b5090565b905600a165627a7a72305820851f8d3b4d819229c3f97ce1096fe429314522eb732ffe9c95e71241fc6db5ac0029",
  "source": "pragma solidity  ^0.4.18;\n\ncontract Market {\n\n    enum Status {ACTIVE, INACTIVE, VACANT, OFFERED, CANCELLED}\n    enum Skill {JAVA, JS, MYSQL, MONGO, SCALA, KOTLIN, OTHER}\n\n    uint profileId = 1;\n    uint jobId = 1;\n\n    mapping (address => Employee) employeeMap;\n    address[] employeeCodes;\n\n    mapping(address => Employer) employerMap;\n    address[] employerCodes;\n\n    mapping(uint => Profile) profileMap;\n    uint[] allProfileIds;\n\n    mapping(uint => Job) jobMap;\n    uint[] allJobIds;\n\n    struct Employee {\n        address code;\n        string name;\n        string email;\n        string phoneNo;\n        string statement;\n        string rate;\n        uint[] profileIds;\n        uint defaultProfileId;\n        uint id;\n        Status status;\n    }\n\n    struct Profile {\n        uint id;\n        address employeeCode;\n        string name;\n        string cvHash;\n        Skill[] skills;\n        Status status;\n    }\n\n    struct Employer {\n        address code;\n        string name;\n        string email;\n        string company;\n        string add;\n        string country;\n        uint[] jobIds;\n        Status status;\n    }\n\n\n    struct Job {\n        uint id;\n        address employerCode;\n        Skill[] requiredSkills;\n        address[] appliedEmployeeCodes;\n        Status status;\n        string JobTitle;\n        uint hourlyRate;\n        string Description;\n    }\n\n\n    function setEmployee(string _name, string _email, string _phoneNo, string _statement, string _rate) public {\n        address _address = msg.sender;\n        setEmployeeWithAddress(_address, _name, _email, _phoneNo, _statement, _rate);\n    }\n    function setEmployeeWithAddress(address _address, string _name, string _email, string _phoneNo, string _statement, string _rate) public {\n        Employee storage employee = employeeMap[_address];\n        employee.code = _address;\n        employee.name = _name;\n        employee.email = _email;\n        employee.phoneNo = _phoneNo;\n        employee.statement = _statement;\n        employee.rate = _rate;\n        employee.status = Status.ACTIVE;\n        employeeCodes.push(_address);\n    }\n    function getEmployee(address _address) view public returns(string,string,string,string,string, uint[], uint, Status) {\n        Employee memory employee = employeeMap[_address];\n        return(employee.name,employee.email,employee.phoneNo,employee.statement,employee.rate, employee.profileIds, employee.defaultProfileId, employee.status);\n    }\n    function getEmployeeCodes() view public returns(address[] codes) {\n        return employeeCodes;\n    }\n\n\n    function setEmployer(string _name, string _email, string _company, string _add, string _country) public {\n        address _address = msg.sender;\n        setEmployerWithAddress(_address, _name, _email, _company, _add, _country);\n    }\n    function setEmployerWithAddress(address _address, string _name, string _email, string _company, string _add, string _country) public {\n        Employer storage employer = employerMap[_address];\n        employer.code = _address;\n        employer.email = _email;\n        employer.company = _company;\n        employer.add = _add;\n        employer.country = _country;\n        employer.status = Status.ACTIVE;\n        employerCodes.push(_address);\n    }\n    function getEmployer(address _address) view public returns(string name,string email, string company, string add, string country, uint[] jobIds, Status status) {\n        Employer memory employer = employerMap[_address];\n        return (employer.name,employer.email,employer.company,employer.add,employer.country, employer.jobIds, employer.status);\n    }\n    function getEmployerCodes() view public returns(address[]) {\n        return employerCodes;\n    }\n\n\n    function setProfile(string _name, Skill[] _skills, string _cvHash, bool _defaultProfile) public {\n            address _employeeCode = msg.sender;\n            setProfileWithAddress(_employeeCode, _name, _skills, _cvHash, _defaultProfile);\n    }\n    function setProfileWithAddress(address _employeeCode, string _name, Skill[] _skills, string _cvHash, bool _defaultProfile) public {\n        //throw if employee not found\n        uint _id = profileId++;\n        Profile storage profile = profileMap[_id];\n        profile.id = _id;\n        profile.employeeCode = _employeeCode;\n        profile.name = _name;\n        profile.skills = _skills;\n        profile.cvHash = _cvHash;\n        profile.status = Status.ACTIVE;\n        allProfileIds.push(_id);\n        Employee storage employee = employeeMap[_employeeCode];\n        employee.profileIds.push(_id);\n        if(_defaultProfile) {\n            employee.defaultProfileId = _id;\n        }\n    }\n    function getProfile(uint _id) view public returns(address, string, Skill[], string, Status) {\n        Profile memory profile = profileMap[_id];\n        return(profile.employeeCode, profile.name, profile.skills, profile.cvHash, profile.status);\n    }\n    function getAllProfileIds() view public returns(uint[] ids) {\n        return allProfileIds;\n    }\n\n    function setJob(string _JobTitle, Skill[] _requiredSkills, string _hourlyRate, string _Description) public {\n        address _employerCode = msg.sender;\n        setJobWithAddress(_employerCode, _JobTitle, _requiredSkills,_hourlyRate,_Description);\n    }\n    function setJobWithAddress(address _employerCode, string _JobTitle, Skill[] _requiredSkills, string _hourlyRate, string _Description) public {\n        uint _id = jobId++;\n        Job storage job = jobMap[_id];\n        job.id = _id;\n        job.employerCode = _employerCode;\n        job.JobTitle = _JobTitle;\n        job.requiredSkills = _requiredSkills;\n        job.status = Status.VACANT;\n        //appliedEmployeeCodes\n        allJobIds.push(_id);\n        Employer storage employer = employerMap[_employerCode];\n        employer.jobIds.push(_id);\n    }\n    function updateJobAppliedEmployees(uint _jobId) public {\n        Job storage job = jobMap[_jobId];\n        job.appliedEmployeeCodes.push(msg.sender);\n    }\n    function getJob(uint _id) view public returns(address, string, Skill[], address[], Status) {\n        Job memory job = jobMap[_id];\n        return(job.employerCode, job.JobTitle, job.requiredSkills, job.appliedEmployeeCodes, job.status);\n    }\n    function getAllJobIds() view public returns(uint[] postedJobIds) {\n        return allJobIds;\n    }\n\n    //has duplicates\n    function findEmployeeProfilesByJob(uint _jobId) view public returns(uint[] matchingProfiles) {\n        uint noOfProfiles = profileId -1;\n        Skill[] memory requiredSkills = jobMap[_jobId].requiredSkills;\n        uint[] memory matchingProfileIds = new uint[](noOfProfiles * requiredSkills.length);\n        uint index = 0;\n\n        for(uint r=0; r<requiredSkills.length; r++) {\n            Skill required = requiredSkills[r];\n\n            for(uint p=1; p<=noOfProfiles; p++) {\n\n                Skill[] memory skills = profileMap[p].skills;\n                for(uint s=0; s<skills.length; s++) {\n                    Skill skill = skills[s];\n\n                    if(skill == required) {\n                        matchingProfileIds[index++] = p;\n                        break;\n                    }\n                }\n            }\n        }\n        return matchingProfileIds;\n    }\n\n    function findJobsByEmployee() view public returns(uint[]) {\n        uint defaultProfileId = employeeMap[msg.sender].defaultProfileId;\n        uint noOfJobs = jobId -1;\n        Skill[] memory skills = profileMap[defaultProfileId].skills;\n        uint[] memory matchingJobIds = new uint[](skills.length * noOfJobs);\n        uint index = 0;\n\n        for(uint s=0; s<skills.length; s++) {\n            Skill skill = skills[s];\n\n            for(uint j=1; j<=noOfJobs; j++) {\n                Job memory job = jobMap[j];\n\n                Skill[] memory requiredSkills = job.requiredSkills;\n                for(uint m=0; m<requiredSkills.length; m++) {\n                    Skill required = requiredSkills[m];\n\n                    if(skill == required) {\n                        matchingJobIds[index++] = j;\n                        break;\n                    }\n\n                }\n            }\n\n        }\n\n        return matchingJobIds;\n    }\n\n    //has duplicates\n    function findJobsByProfile(uint _profileId) view public returns(uint[] matchingIds) {\n        uint noOfJobs = jobId -1;\n        Skill[] memory skills = profileMap[_profileId].skills;\n        uint[] memory matchingJobIds = new uint[](skills.length * noOfJobs);\n        uint index = 0;\n\n        for(uint s=0; s<skills.length; s++) {\n            Skill skill = skills[s];\n\n            for(uint j=1; j<=noOfJobs; j++) {\n                Job memory job = jobMap[j];\n\n                Skill[] memory requiredSkills = job.requiredSkills;\n                for(uint m=0; m<requiredSkills.length; m++) {\n                    Skill required = requiredSkills[m];\n\n                    if(skill == required) {\n                        matchingJobIds[index++] = j;\n                        break;\n                    }\n\n                }\n            }\n\n        }\n\n        return matchingJobIds;\n    }\n\n    function findJobsBySkill(Skill _skill) view public returns(uint[] matchingIds) {\n        uint noOfJobs = jobId -1;\n\n        uint[] memory matchingJobIds = new uint[](noOfJobs);\n\n        uint index = 0;\n        for(uint j=1; j<=noOfJobs; j++) {\n            Job memory job = jobMap[j];\n\n            Skill[] memory requiredSkills = job.requiredSkills;\n            for(uint m=0; m<requiredSkills.length; m++) {\n                Skill required = requiredSkills[m];\n\n                if(_skill == required) {\n                    matchingJobIds[index++] = j;\n                    break;\n                }\n\n            }\n        }\n        return matchingJobIds;\n    }\n\n    // function findJobs(uint _profileId) view public returns(uint jobIds) {\n    //     uint[] memory matchingJobIds;\n    //     //uint matchingJobId;\n\n    //     Profile memory profile = profileMap[_profileId];\n    //     Skill[] memory skills = profile.skills;\n\n    //     uint jobCount = 0;\n    //     for(uint s=0; s<skills.length; s++) {\n    //         Skill skill = skills[s];\n\n    //         for(uint j=0; j<allJobIds.length; j++) {\n    //             uint thisJobId = allJobIds[j];\n    //             Job memory job = jobMap[thisJobId];\n\n    //             Skill[] memory requiredSkills = job.requiredSkills;\n    //             for(uint m=0; m<requiredSkills.length; m++) {\n    //                 Skill required = requiredSkills[m];\n\n    //                 if(skill == required) {\n\n    //                     matchingJobId = thisJobId;\n    //                     //matchingJobIds[jobCount++] = thisJobId;\n    //                     //break;\n    //                 }\n\n    //             }\n\n    //         }\n    //     }\n    //     //matchingJobIds[0] = matchingJobId;\n    //     //return matchingJobIds;\n    //     //uint storage x = 11;\n    //     return 11;\n    // }\n\n\n    //test\n    function testSetInitialData() public {\n\n        // testrpc\n        address addressE1 = 0x5f0e611dbcb5a4a1dc8ec4c7e1a02a8eb60182f3;\n        address addressE2 = 0xcea3b456c72dae97a256199c24dab28fb4863ed1;\n        address addressR1 = 0x38921ab62710300785722cfc538b3cabefb12845;\n        address addressR2 = 0xda93fc20797a06d7273335788a4914a89d3bedaf;\n\n        /* remix\n        address addressE1 = 0xca35b7d915458ef540ade6068dfe2f44e8fa733c;\n        address addressE2 = 0x4b0897b0513fdc7c541b6d9d7e929c4e5364d2db;\n        address addressR1 = 0x14723a09acff6d2a60dcdf7aa4aff308fddc160c;\n        address addressR2 = 0x583031d1113ad414f02576bd6afabfb302140225;\n        */\n\n        //setEmployeeWithAddress(addressE1, \"e1\");\n        //setEmployerWithAddress(addressR1, \"r1\");\n\n        Skill[] memory skills1 = new Skill[](2);\n        skills1[0] = Skill.JAVA;\n        skills1[1] = Skill.MYSQL;\n\n        Skill[] memory skills2 = new Skill[](2);\n        skills2[0] = Skill.JS;\n        skills2[1] = Skill.MONGO;\n\n        //setProfileWithAddress(addressE1, \"p1\", skills1);\n        //setProfileWithAddress(addressE1, \"p2\", skills2);\n\n       // setJobWithAddress(addressR1, \"j1\", skills1);\n       // setJobWithAddress(addressR1, \"j2\", skills1);\n    }\n\n    function uintToSkill(uint _uint) pure public returns(string skill) {\n        if(_uint == uint(Skill.JAVA))\n            return \"JAVA\";\n        if(_uint == uint(Skill.JS))\n            return \"JS\";\n        return \"MONGO\";\n    }\n\n}\n",
  "sourcePath": "/home/archchitha/Blockchain-JobMarket/contracts/Market.sol",
  "compiler": {
    "name": "solc",
    "version": "0.4.18+commit.9cf6e910.Emscripten.clang"
  },
  "schemaVersion": "1.0.1",
  "updatedAt": "2018-03-28T13:59:56.662Z"
}