{
  "contractName": "Market",
  "abi": [
    {
      "constant": false,
      "inputs": [
        {
          "name": "_name",
          "type": "string"
        }
      ],
      "name": "setEmployee",
      "outputs": [],
      "payable": false,
      "stateMutability": "nonpayable",
      "type": "function"
    },
    {
      "constant": false,
      "inputs": [
        {
          "name": "_address",
          "type": "address"
        },
        {
          "name": "_name",
          "type": "string"
        }
      ],
      "name": "setEmployeeWithAddress",
      "outputs": [],
      "payable": false,
      "stateMutability": "nonpayable",
      "type": "function"
    },
    {
      "constant": true,
      "inputs": [
        {
          "name": "_address",
          "type": "address"
        }
      ],
      "name": "getEmployee",
      "outputs": [
        {
          "name": "name",
          "type": "string"
        },
        {
          "name": "ids",
          "type": "uint256[]"
        },
        {
          "name": "status",
          "type": "uint8"
        }
      ],
      "payable": false,
      "stateMutability": "view",
      "type": "function"
    },
    {
      "constant": true,
      "inputs": [],
      "name": "getEmployeeCodes",
      "outputs": [
        {
          "name": "codes",
          "type": "address[]"
        }
      ],
      "payable": false,
      "stateMutability": "view",
      "type": "function"
    },
    {
      "constant": false,
      "inputs": [
        {
          "name": "_name",
          "type": "string"
        }
      ],
      "name": "setEmployer",
      "outputs": [],
      "payable": false,
      "stateMutability": "nonpayable",
      "type": "function"
    },
    {
      "constant": false,
      "inputs": [
        {
          "name": "_address",
          "type": "address"
        },
        {
          "name": "_name",
          "type": "string"
        }
      ],
      "name": "setEmployerWithAddress",
      "outputs": [],
      "payable": false,
      "stateMutability": "nonpayable",
      "type": "function"
    },
    {
      "constant": true,
      "inputs": [
        {
          "name": "_address",
          "type": "address"
        }
      ],
      "name": "getEmployer",
      "outputs": [
        {
          "name": "name",
          "type": "string"
        },
        {
          "name": "jobIds",
          "type": "uint256[]"
        },
        {
          "name": "status",
          "type": "uint8"
        }
      ],
      "payable": false,
      "stateMutability": "view",
      "type": "function"
    },
    {
      "constant": true,
      "inputs": [],
      "name": "getEmployerCodes",
      "outputs": [
        {
          "name": "",
          "type": "address[]"
        }
      ],
      "payable": false,
      "stateMutability": "view",
      "type": "function"
    },
    {
      "constant": false,
      "inputs": [
        {
          "name": "_name",
          "type": "string"
        },
        {
          "name": "_skills",
          "type": "uint8[]"
        }
      ],
      "name": "setProfile",
      "outputs": [],
      "payable": false,
      "stateMutability": "nonpayable",
      "type": "function"
    },
    {
      "constant": false,
      "inputs": [
        {
          "name": "_employeeCode",
          "type": "address"
        },
        {
          "name": "_name",
          "type": "string"
        },
        {
          "name": "_skills",
          "type": "uint8[]"
        }
      ],
      "name": "setProfileWithAddress",
      "outputs": [],
      "payable": false,
      "stateMutability": "nonpayable",
      "type": "function"
    },
    {
      "constant": true,
      "inputs": [
        {
          "name": "_id",
          "type": "uint256"
        }
      ],
      "name": "getProfile",
      "outputs": [
        {
          "name": "employeeCode",
          "type": "address"
        },
        {
          "name": "name",
          "type": "string"
        },
        {
          "name": "skills",
          "type": "uint8[]"
        },
        {
          "name": "status",
          "type": "uint8"
        }
      ],
      "payable": false,
      "stateMutability": "view",
      "type": "function"
    },
    {
      "constant": true,
      "inputs": [],
      "name": "getAllProfileIds",
      "outputs": [
        {
          "name": "ids",
          "type": "uint256[]"
        }
      ],
      "payable": false,
      "stateMutability": "view",
      "type": "function"
    },
    {
      "constant": false,
      "inputs": [
        {
          "name": "_name",
          "type": "string"
        },
        {
          "name": "_requiredSkills",
          "type": "uint8[]"
        }
      ],
      "name": "setJob",
      "outputs": [],
      "payable": false,
      "stateMutability": "nonpayable",
      "type": "function"
    },
    {
      "constant": false,
      "inputs": [
        {
          "name": "_employerCode",
          "type": "address"
        },
        {
          "name": "_name",
          "type": "string"
        },
        {
          "name": "_requiredSkills",
          "type": "uint8[]"
        }
      ],
      "name": "setJobWithAddress",
      "outputs": [],
      "payable": false,
      "stateMutability": "nonpayable",
      "type": "function"
    },
    {
      "constant": true,
      "inputs": [
        {
          "name": "_id",
          "type": "uint256"
        }
      ],
      "name": "getJob",
      "outputs": [
        {
          "name": "employerCode",
          "type": "address"
        },
        {
          "name": "name",
          "type": "string"
        },
        {
          "name": "requiredSkills",
          "type": "uint8[]"
        },
        {
          "name": "appliedEmployeeCodes",
          "type": "address[]"
        },
        {
          "name": "status",
          "type": "uint8"
        }
      ],
      "payable": false,
      "stateMutability": "view",
      "type": "function"
    },
    {
      "constant": true,
      "inputs": [],
      "name": "getAllJobIds",
      "outputs": [
        {
          "name": "postedJobIds",
          "type": "uint256[]"
        }
      ],
      "payable": false,
      "stateMutability": "view",
      "type": "function"
    },
    {
      "constant": true,
      "inputs": [
        {
          "name": "_profileId",
          "type": "uint256"
        }
      ],
      "name": "findJobsByProfile",
      "outputs": [
        {
          "name": "matchingIds",
          "type": "uint256[]"
        }
      ],
      "payable": false,
      "stateMutability": "view",
      "type": "function"
    },
    {
      "constant": true,
      "inputs": [
        {
          "name": "_skill",
          "type": "uint8"
        }
      ],
      "name": "findJobsBySkill",
      "outputs": [
        {
          "name": "matchingIds",
          "type": "uint256[]"
        }
      ],
      "payable": false,
      "stateMutability": "view",
      "type": "function"
    },
    {
      "constant": false,
      "inputs": [],
      "name": "testSetInitialData",
      "outputs": [],
      "payable": false,
      "stateMutability": "nonpayable",
      "type": "function"
    },
    {
      "constant": true,
      "inputs": [
        {
          "name": "_uint",
          "type": "uint256"
        }
      ],
      "name": "uintToSkill",
      "outputs": [
        {
          "name": "skill",
          "type": "string"
        }
      ],
      "payable": false,
      "stateMutability": "pure",
      "type": "function"
    }
  ],
  "bytecode": "0x6060604052600160005560018055341561001857600080fd5b612d18806100276000396000f300606060405260043610610112576000357c0100000000000000000000000000000000000000000000000000000000900463ffffffff16806309b9597a1461011757806310f4c597146101b4578063124e84e6146102115780632dd46cf7146102ae57806332648e091461036a5780634ed4a297146104795780635f317ace146104f5578063633e0c231461055f578063689943b0146105c9578063701486c9146106655780637560d4ce1461067a57806388c8837f1461078957806389fbc0c2146107f35780638f778bb91461086b578063a597a198146108c8578063b06a90d014610984578063bf22c45714610a00578063dbe98dda14610b74578063f08f4f6414610bef578063ff66aa6214610d1b575b600080fd5b341561012257600080fd5b6101b2600480803590602001908201803590602001908080601f0160208091040260200160405190810160405280939291908181526020018383808284378201915050505050509190803590602001908201803590602001908080602002602001604051908101604052809392919081815260200183836020028082843782019150505050505091905050610d85565b005b34156101bf57600080fd5b61020f600480803590602001908201803590602001908080601f01602080910402602001604051908101604052809392919081815260200183838082843782019150505050505091905050610d9a565b005b341561021c57600080fd5b6102ac600480803590602001908201803590602001908080601f0160208091040260200160405190810160405280939291908181526020018383808284378201915050505050509190803590602001908201803590602001908080602002602001604051908101604052809392919081815260200183836020028082843782019150505050505091905050610dad565b005b34156102b957600080fd5b610368600480803573ffffffffffffffffffffffffffffffffffffffff1690602001909190803590602001908201803590602001908080601f0160208091040260200160405190810160405280939291908181526020018383808284378201915050505050509190803590602001908201803590602001908080602002602001604051908101604052809392919081815260200183836020028082843782019150505050505091905050610dc2565b005b341561037557600080fd5b6103a1600480803573ffffffffffffffffffffffffffffffffffffffff16906020019091905050610f30565b6040518080602001806020018460048111156103b957fe5b60ff168152602001838103835286818151815260200191508051906020019080838360005b838110156103f95780820151818401526020810190506103de565b50505050905090810190601f1680156104265780820380516001836020036101000a031916815260200191505b50838103825285818151815260200191508051906020019060200280838360005b83811015610462578082015181840152602081019050610447565b505050509050019550505050505060405180910390f35b341561048457600080fd5b6104f3600480803573ffffffffffffffffffffffffffffffffffffffff1690602001909190803590602001908201803590602001908080601f01602080910402602001604051908101604052809392919081815260200183838082843782019150505050505091905050611137565b005b341561050057600080fd5b610508611264565b6040518080602001828103825283818151815260200191508051906020019060200280838360005b8381101561054b578082015181840152602081019050610530565b505050509050019250505060405180910390f35b341561056a57600080fd5b6105726112c2565b6040518080602001828103825283818151815260200191508051906020019060200280838360005b838110156105b557808201518184015260208101905061059a565b505050509050019250505060405180910390f35b34156105d457600080fd5b6105ea6004808035906020019091905050611356565b6040518080602001828103825283818151815260200191508051906020019080838360005b8381101561062a57808201518184015260208101905061060f565b50505050905090810190601f1680156106575780820380516001836020036101000a031916815260200191505b509250505060405180910390f35b341561067057600080fd5b61067861143e565b005b341561068557600080fd5b6106b1600480803573ffffffffffffffffffffffffffffffffffffffff169060200190919050506116d8565b6040518080602001806020018460048111156106c957fe5b60ff168152602001838103835286818151815260200191508051906020019080838360005b838110156107095780820151818401526020810190506106ee565b50505050905090810190601f1680156107365780820380516001836020036101000a031916815260200191505b50838103825285818151815260200191508051906020019060200280838360005b83811015610772578082015181840152602081019050610757565b505050509050019550505050505060405180910390f35b341561079457600080fd5b61079c6118df565b6040518080602001828103825283818151815260200191508051906020019060200280838360005b838110156107df5780820151818401526020810190506107c4565b505050509050019250505060405180910390f35b34156107fe57600080fd5b610814600480803590602001909190505061193d565b6040518080602001828103825283818151815260200191508051906020019060200280838360005b8381101561085757808201518184015260208101905061083c565b505050509050019250505060405180910390f35b341561087657600080fd5b6108c6600480803590602001908201803590602001908080601f01602080910402602001604051908101604052809392919081815260200183838082843782019150505050505091905050611d7d565b005b34156108d357600080fd5b610982600480803573ffffffffffffffffffffffffffffffffffffffff1690602001909190803590602001908201803590602001908080601f0160208091040260200160405190810160405280939291908181526020018383808284378201915050505050509190803590602001908201803590602001908080602002602001604051908101604052809392919081815260200183836020028082843782019150505050505091905050611d90565b005b341561098f57600080fd5b6109fe600480803573ffffffffffffffffffffffffffffffffffffffff1690602001909190803590602001908201803590602001908080601f01602080910402602001604051908101604052809392919081815260200183838082843782019150505050505091905050611efd565b005b3415610a0b57600080fd5b610a21600480803590602001909190505061202a565b604051808673ffffffffffffffffffffffffffffffffffffffff1673ffffffffffffffffffffffffffffffffffffffff168152602001806020018060200180602001856004811115610a6f57fe5b60ff168152602001848103845288818151815260200191508051906020019080838360005b83811015610aaf578082015181840152602081019050610a94565b50505050905090810190601f168015610adc5780820380516001836020036101000a031916815260200191505b50848103835287818151815260200191508051906020019060200280838360005b83811015610b18578082015181840152602081019050610afd565b50505050905001848103825286818151815260200191508051906020019060200280838360005b83811015610b5a578082015181840152602081019050610b3f565b505050509050019850505050505050505060405180910390f35b3415610b7f57600080fd5b610b98600480803560ff169060200190919050506122e8565b6040518080602001828103825283818151815260200191508051906020019060200280838360005b83811015610bdb578082015181840152602081019050610bc0565b505050509050019250505060405180910390f35b3415610bfa57600080fd5b610c10600480803590602001909190505061264d565b604051808573ffffffffffffffffffffffffffffffffffffffff1673ffffffffffffffffffffffffffffffffffffffff1681526020018060200180602001846004811115610c5a57fe5b60ff168152602001838103835286818151815260200191508051906020019080838360005b83811015610c9a578082015181840152602081019050610c7f565b50505050905090810190601f168015610cc75780820380516001836020036101000a031916815260200191505b50838103825285818151815260200191508051906020019060200280838360005b83811015610d03578082015181840152602081019050610ce8565b50505050905001965050505050505060405180910390f35b3415610d2657600080fd5b610d2e612869565b6040518080602001828103825283818151815260200191508051906020019060200280838360005b83811015610d71578082015181840152602081019050610d56565b505050509050019250505060405180910390f35b6000339050610d95818484611d90565b505050565b6000339050610da98183611efd565b5050565b6000339050610dbd818484610dc2565b505050565b600080600060016000815480929190600101919050559250600860008481526020019081526020016000209150828260000181905550858260010160006101000a81548173ffffffffffffffffffffffffffffffffffffffff021916908373ffffffffffffffffffffffffffffffffffffffff16021790555084826002019080519060200190610e539291906128fd565b5083826003019080519060200190610e6c92919061297d565b5060028260050160006101000a81548160ff02191690836004811115610e8e57fe5b021790555060098054806001018281610ea79190612a2c565b916000526020600020900160008590919091505550600460008773ffffffffffffffffffffffffffffffffffffffff1673ffffffffffffffffffffffffffffffffffffffff1681526020019081526020016000209050806002018054806001018281610f139190612a2c565b916000526020600020900160008590919091505550505050505050565b610f38612a58565b610f40612a6c565b6000610f4a612a80565b600260008673ffffffffffffffffffffffffffffffffffffffff1673ffffffffffffffffffffffffffffffffffffffff168152602001908152602001600020608060405190810160405290816000820160009054906101000a900473ffffffffffffffffffffffffffffffffffffffff1673ffffffffffffffffffffffffffffffffffffffff1673ffffffffffffffffffffffffffffffffffffffff168152602001600182018054600181600116156101000203166002900480601f0160208091040260200160405190810160405280929190818152602001828054600181600116156101000203166002900480156110845780601f1061105957610100808354040283529160200191611084565b820191906000526020600020905b81548152906001019060200180831161106757829003601f168201915b50505050508152602001600282018054806020026020016040519081016040528092919081815260200182805480156110dc57602002820191906000526020600020905b8154815260200190600101908083116110c8575b505050505081526020016003820160009054906101000a900460ff16600481111561110357fe5b600481111561110e57fe5b815250509050806020015181604001518260600151829250819150935093509350509193909250565b6000600460008473ffffffffffffffffffffffffffffffffffffffff1673ffffffffffffffffffffffffffffffffffffffff1681526020019081526020016000209050828160000160006101000a81548173ffffffffffffffffffffffffffffffffffffffff021916908373ffffffffffffffffffffffffffffffffffffffff160217905550818160010190805190602001906111d59291906128fd565b5060008160030160006101000a81548160ff021916908360048111156111f757fe5b0217905550600580548060010182816112109190612ad6565b9160005260206000209001600085909190916101000a81548173ffffffffffffffffffffffffffffffffffffffff021916908373ffffffffffffffffffffffffffffffffffffffff16021790555050505050565b61126c612a6c565b60078054806020026020016040519081016040528092919081815260200182805480156112b857602002820191906000526020600020905b8154815260200190600101908083116112a4575b5050505050905090565b6112ca612b02565b600580548060200260200160405190810160405280929190818152602001828054801561134c57602002820191906000526020600020905b8160009054906101000a900473ffffffffffffffffffffffffffffffffffffffff1673ffffffffffffffffffffffffffffffffffffffff1681526020019060010190808311611302575b5050505050905090565b61135e612a58565b6000600681111561136b57fe5b8214156113af576040805190810160405280600481526020017f4a415641000000000000000000000000000000000000000000000000000000008152509050611439565b600160068111156113bc57fe5b821415611400576040805190810160405280600281526020017f4a530000000000000000000000000000000000000000000000000000000000008152509050611439565b6040805190810160405280600581526020017f4d4f4e474f00000000000000000000000000000000000000000000000000000081525090505b919050565b60008060008061144c612b16565b611454612b16565b735f0e611dbcb5a4a1dc8ec4c7e1a02a8eb60182f3955073cea3b456c72dae97a256199c24dab28fb4863ed194507338921ab62710300785722cfc538b3cabefb12845935073da93fc20797a06d7273335788a4914a89d3bedaf925060026040518059106114bf5750595b9080825280602002602001820160405250915060008260008151811015156114e357fe5b9060200190602002019060068111156114f857fe5b9081600681111561150557fe5b81525050600282600181518110151561151a57fe5b90602001906020020190600681111561152f57fe5b9081600681111561153c57fe5b81525050600260405180591061154f5750595b90808252806020026020018201604052509050600181600081518110151561157357fe5b90602001906020020190600681111561158857fe5b9081600681111561159557fe5b8152505060038160018151811015156115aa57fe5b9060200190602002019060068111156115bf57fe5b908160068111156115cc57fe5b81525050611610866040805190810160405280600281526020017f703100000000000000000000000000000000000000000000000000000000000081525084611d90565b611650866040805190810160405280600281526020017f703200000000000000000000000000000000000000000000000000000000000081525083611d90565b611690846040805190810160405280600281526020017f6a3100000000000000000000000000000000000000000000000000000000000081525084610dc2565b6116d0846040805190810160405280600281526020017f6a3200000000000000000000000000000000000000000000000000000000000081525084610dc2565b505050505050565b6116e0612a58565b6116e8612a6c565b60006116f2612b2a565b600460008673ffffffffffffffffffffffffffffffffffffffff1673ffffffffffffffffffffffffffffffffffffffff168152602001908152602001600020608060405190810160405290816000820160009054906101000a900473ffffffffffffffffffffffffffffffffffffffff1673ffffffffffffffffffffffffffffffffffffffff1673ffffffffffffffffffffffffffffffffffffffff168152602001600182018054600181600116156101000203166002900480601f01602080910402602001604051908101604052809291908181526020018280546001816001161561010002031660029004801561182c5780601f106118015761010080835404028352916020019161182c565b820191906000526020600020905b81548152906001019060200180831161180f57829003601f168201915b505050505081526020016002820180548060200260200160405190810160405280929190818152602001828054801561188457602002820191906000526020600020905b815481526020019060010190808311611870575b505050505081526020016003820160009054906101000a900460ff1660048111156118ab57fe5b60048111156118b657fe5b815250509050806020015181604001518260600151829250819150935093509350509193909250565b6118e7612a6c565b600980548060200260200160405190810160405280929190818152602001828054801561193357602002820191906000526020600020905b81548152602001906001019080831161191f575b5050505050905090565b611945612a6c565b600061194f612b16565b611957612a6c565b600080600080611965612b80565b61196d612b16565b60008060018054039a50600660008e8152602001908152602001600020600301805480602002602001604051908101604052809291908181526020018280548015611a0557602002820191906000526020600020906000905b82829054906101000a900460ff1660068111156119df57fe5b815260200190600101906020826000010492830192600103820291508084116119c65790505b505050505099508a8a5102604051805910611a1d5750595b9080825280602002602001820160405250985060009750600096505b8951871015611d6a578987815181101515611a5057fe5b906020019060200201519550600194505b8a85111515611d5d576008600086815260200190815260200160002060c06040519081016040529081600082015481526020016001820160009054906101000a900473ffffffffffffffffffffffffffffffffffffffff1673ffffffffffffffffffffffffffffffffffffffff1673ffffffffffffffffffffffffffffffffffffffff168152602001600282018054600181600116156101000203166002900480601f016020809104026020016040519081016040528092919081815260200182805460018160011615610100020316600290048015611b825780601f10611b5757610100808354040283529160200191611b82565b820191906000526020600020905b815481529060010190602001808311611b6557829003601f168201915b5050505050815260200160038201805480602002602001604051908101604052809291908181526020018280548015611c0857602002820191906000526020600020906000905b82829054906101000a900460ff166006811115611be257fe5b81526020019060010190602082600001049283019260010382029150808411611bc95790505b5050505050815260200160048201805480602002602001604051908101604052809291908181526020018280548015611c9657602002820191906000526020600020905b8160009054906101000a900473ffffffffffffffffffffffffffffffffffffffff1673ffffffffffffffffffffffffffffffffffffffff1681526020019060010190808311611c4c575b505050505081526020016005820160009054906101000a900460ff166004811115611cbd57fe5b6004811115611cc857fe5b81525050935083606001519250600091505b8251821015611d50578282815181101515611cf157fe5b906020019060200201519050806006811115611d0957fe5b866006811115611d1557fe5b1415611d4357848989806001019a50815181101515611d3057fe5b9060200190602002018181525050611d50565b8180600101925050611cda565b8480600101955050611a61565b8680600101975050611a39565b889b505050505050505050505050919050565b6000339050611d8c8183611137565b5050565b6000806000806000815480929190600101919050559250600660008481526020019081526020016000209150828260000181905550858260010160006101000a81548173ffffffffffffffffffffffffffffffffffffffff021916908373ffffffffffffffffffffffffffffffffffffffff16021790555084826002019080519060200190611e209291906128fd565b5083826003019080519060200190611e3992919061297d565b5060008260040160006101000a81548160ff02191690836004811115611e5b57fe5b021790555060078054806001018281611e749190612a2c565b916000526020600020900160008590919091505550600260008773ffffffffffffffffffffffffffffffffffffffff1673ffffffffffffffffffffffffffffffffffffffff1681526020019081526020016000209050806002018054806001018281611ee09190612a2c565b916000526020600020900160008590919091505550505050505050565b6000600260008473ffffffffffffffffffffffffffffffffffffffff1673ffffffffffffffffffffffffffffffffffffffff1681526020019081526020016000209050828160000160006101000a81548173ffffffffffffffffffffffffffffffffffffffff021916908373ffffffffffffffffffffffffffffffffffffffff16021790555081816001019080519060200190611f9b9291906128fd565b5060008160030160006101000a81548160ff02191690836004811115611fbd57fe5b021790555060038054806001018281611fd69190612ad6565b9160005260206000209001600085909190916101000a81548173ffffffffffffffffffffffffffffffffffffffff021916908373ffffffffffffffffffffffffffffffffffffffff16021790555050505050565b6000612034612a58565b61203c612b16565b612044612b02565b600061204e612b80565b6008600088815260200190815260200160002060c06040519081016040529081600082015481526020016001820160009054906101000a900473ffffffffffffffffffffffffffffffffffffffff1673ffffffffffffffffffffffffffffffffffffffff1673ffffffffffffffffffffffffffffffffffffffff168152602001600282018054600181600116156101000203166002900480601f0160208091040260200160405190810160405280929190818152602001828054600181600116156101000203166002900480156121665780601f1061213b57610100808354040283529160200191612166565b820191906000526020600020905b81548152906001019060200180831161214957829003601f168201915b50505050508152602001600382018054806020026020016040519081016040528092919081815260200182805480156121ec57602002820191906000526020600020906000905b82829054906101000a900460ff1660068111156121c657fe5b815260200190600101906020826000010492830192600103820291508084116121ad5790505b505050505081526020016004820180548060200260200160405190810160405280929190818152602001828054801561227a57602002820191906000526020600020905b8160009054906101000a900473ffffffffffffffffffffffffffffffffffffffff1673ffffffffffffffffffffffffffffffffffffffff1681526020019060010190808311612230575b505050505081526020016005820160009054906101000a900460ff1660048111156122a157fe5b60048111156122ac57fe5b81525050905080602001518160400151826060015183608001518460a00151839350829250819150955095509550955095505091939590929450565b6122f0612a6c565b60006122fa612a6c565b600080612305612b80565b61230d612b16565b60008060018054039750876040518059106123255750595b9080825280602002602001820160405250965060009550600194505b878511151561263d576008600086815260200190815260200160002060c06040519081016040529081600082015481526020016001820160009054906101000a900473ffffffffffffffffffffffffffffffffffffffff1673ffffffffffffffffffffffffffffffffffffffff1673ffffffffffffffffffffffffffffffffffffffff168152602001600282018054600181600116156101000203166002900480601f0160208091040260200160405190810160405280929190818152602001828054600181600116156101000203166002900480156124625780601f1061243757610100808354040283529160200191612462565b820191906000526020600020905b81548152906001019060200180831161244557829003601f168201915b50505050508152602001600382018054806020026020016040519081016040528092919081815260200182805480156124e857602002820191906000526020600020906000905b82829054906101000a900460ff1660068111156124c257fe5b815260200190600101906020826000010492830192600103820291508084116124a95790505b505050505081526020016004820180548060200260200160405190810160405280929190818152602001828054801561257657602002820191906000526020600020905b8160009054906101000a900473ffffffffffffffffffffffffffffffffffffffff1673ffffffffffffffffffffffffffffffffffffffff168152602001906001019080831161252c575b505050505081526020016005820160009054906101000a900460ff16600481111561259d57fe5b60048111156125a857fe5b81525050935083606001519250600091505b82518210156126305782828151811015156125d157fe5b9060200190602002015190508060068111156125e957fe5b8a60068111156125f557fe5b14156126235784878780600101985081518110151561261057fe5b9060200190602002018181525050612630565b81806001019250506125ba565b8480600101955050612341565b8698505050505050505050919050565b6000612657612a58565b61265f612b16565b6000612669612bea565b6006600087815260200190815260200160002060a06040519081016040529081600082015481526020016001820160009054906101000a900473ffffffffffffffffffffffffffffffffffffffff1673ffffffffffffffffffffffffffffffffffffffff1673ffffffffffffffffffffffffffffffffffffffff168152602001600282018054600181600116156101000203166002900480601f0160208091040260200160405190810160405280929190818152602001828054600181600116156101000203166002900480156127815780601f1061275657610100808354040283529160200191612781565b820191906000526020600020905b81548152906001019060200180831161276457829003601f168201915b505050505081526020016003820180548060200260200160405190810160405280929190818152602001828054801561280757602002820191906000526020600020906000905b82829054906101000a900460ff1660068111156127e157fe5b815260200190600101906020826000010492830192600103820291508084116127c85790505b505050505081526020016004820160009054906101000a900460ff16600481111561282e57fe5b600481111561283957fe5b81525050905080602001518160400151826060015183608001518292508191509450945094509450509193509193565b612871612b02565b60038054806020026020016040519081016040528092919081815260200182805480156128f357602002820191906000526020600020905b8160009054906101000a900473ffffffffffffffffffffffffffffffffffffffff1673ffffffffffffffffffffffffffffffffffffffff16815260200190600101908083116128a9575b5050505050905090565b828054600181600116156101000203166002900490600052602060002090601f016020900481019282601f1061293e57805160ff191683800117855561296c565b8280016001018555821561296c579182015b8281111561296b578251825591602001919060010190612950565b5b5090506129799190612c47565b5090565b82805482825590600052602060002090601f01602090048101928215612a1b5791602002820160005b838211156129ec57835183826101000a81548160ff021916908360068111156129cb57fe5b021790555092602001926001016020816000010492830192600103026129a6565b8015612a195782816101000a81549060ff02191690556001016020816000010492830192600103026129ec565b505b509050612a289190612c6c565b5090565b815481835581811511612a5357818360005260206000209182019101612a529190612c47565b5b505050565b602060405190810160405280600081525090565b602060405190810160405280600081525090565b608060405190810160405280600073ffffffffffffffffffffffffffffffffffffffff168152602001612ab1612c9c565b8152602001612abe612cb0565b815260200160006004811115612ad057fe5b81525090565b815481835581811511612afd57818360005260206000209182019101612afc9190612c47565b5b505050565b602060405190810160405280600081525090565b602060405190810160405280600081525090565b608060405190810160405280600073ffffffffffffffffffffffffffffffffffffffff168152602001612b5b612c9c565b8152602001612b68612cb0565b815260200160006004811115612b7a57fe5b81525090565b60c06040519081016040528060008152602001600073ffffffffffffffffffffffffffffffffffffffff168152602001612bb8612c9c565b8152602001612bc5612cc4565b8152602001612bd2612cd8565b815260200160006004811115612be457fe5b81525090565b60a06040519081016040528060008152602001600073ffffffffffffffffffffffffffffffffffffffff168152602001612c22612c9c565b8152602001612c2f612cc4565b815260200160006004811115612c4157fe5b81525090565b612c6991905b80821115612c65576000816000905550600101612c4d565b5090565b90565b612c9991905b80821115612c9557600081816101000a81549060ff021916905550600101612c72565b5090565b90565b602060405190810160405280600081525090565b602060405190810160405280600081525090565b602060405190810160405280600081525090565b6020604051908101604052806000815250905600a165627a7a7230582074fec390591ecc5368480135a949b7900a17f8baa89341bc0439bf4b6ed5b9de0029",
  "source": "pragma solidity  ^0.4.18;\n\ncontract Market {\n\n    enum Status {ACTIVE, INACTIVE, VACANT, OFFERED, CANCELLED}\n    enum Skill {JAVA, JS, MYSQL, MONGO, SCALA, KOTLIN, OTHER}\n\n    uint profileId = 1;\n    uint jobId = 1;\n\n    mapping (address => Employee) employeeMap;\n    address[] employeeCodes;\n\n    mapping(address => Employer) employerMap;\n    address[] employerCodes;\n\n    mapping(uint => Profile) profileMap;\n    uint[] allProfileIds;\n\n    mapping(uint => Job) jobMap;\n    uint[] allJobIds;\n\n    struct Employee {\n        address code;\n        string name;\n        uint[] profileIds;\n        Status status;\n    }\n\n    struct Employer {\n        address code;\n        string name;\n        uint[] jobIds;\n        Status status;\n    }\n\n    struct Profile {\n        uint id;\n        address employeeCode;\n        string name;\n        Skill[] skills;\n        Status status;\n    }\n\n    struct Job {\n        uint id;\n        address employerCode;\n        string name;\n        Skill[] requiredSkills;\n        address[] appliedEmployeeCodes;\n        Status status;\n    }\n\n\n    function setEmployee(string _name) public {\n        address _address = msg.sender;\n        setEmployeeWithAddress(_address, _name);\n    }\n    function setEmployeeWithAddress(address _address, string _name) public {\n        Employee storage employee = employeeMap[_address];\n        employee.code = _address;\n        employee.name = _name;\n        employee.status = Status.ACTIVE;\n        employeeCodes.push(_address);\n    }\n    function getEmployee(address _address) view public returns(string name, uint[] ids, Status status) {\n        Employee memory employee = employeeMap[_address];\n        return(employee.name, employee.profileIds, employee.status);\n    }\n    function getEmployeeCodes() view public returns(address[] codes) {\n        return employeeCodes;\n    }\n\n\n    function setEmployer(string _name) public {\n        address _address = msg.sender;\n        setEmployerWithAddress(_address, _name);\n    }\n    function setEmployerWithAddress(address _address, string _name) public {\n        Employer storage employer = employerMap[_address];\n        employer.code = _address;\n        employer.name = _name;\n        employer.status = Status.ACTIVE;\n        employerCodes.push(_address);\n    }\n    function getEmployer(address _address) view public returns(string name, uint[] jobIds, Status status) {\n        Employer memory employer = employerMap[_address];\n        return (employer.name, employer.jobIds, employer.status);\n    }\n    function getEmployerCodes() view public returns(address[]) {\n        return employerCodes;\n    }\n\n\n    function setProfile(string _name, Skill[] _skills) public {\n        address _employeeCode = msg.sender;\n        setProfileWithAddress(_employeeCode, _name, _skills);\n    }\n    function setProfileWithAddress(address _employeeCode, string _name, Skill[] _skills) public {\n        //throw if employee not found\n        uint _id = profileId++;\n        Profile storage profile = profileMap[_id];\n        profile.id = _id;\n        profile.employeeCode = _employeeCode;\n        profile.name = _name;\n        profile.skills = _skills;\n        profile.status = Status.ACTIVE;\n        allProfileIds.push(_id);\n        Employee storage employee = employeeMap[_employeeCode];\n        employee.profileIds.push(_id);\n    }\n    function getProfile(uint _id) view public returns(address employeeCode, string name, Skill[] skills, Status status) {\n        Profile memory profile = profileMap[_id];\n        return(profile.employeeCode, profile.name, profile.skills, profile.status);\n    }\n    function getAllProfileIds() view public returns(uint[] ids) {\n        return allProfileIds;\n    }\n\n    function setJob(string _name, Skill[] _requiredSkills) public {\n        address _employerCode = msg.sender;\n        setJobWithAddress(_employerCode, _name, _requiredSkills);\n    }\n    function setJobWithAddress(address _employerCode, string _name, Skill[] _requiredSkills) public {\n        uint _id = jobId++;\n        Job storage job = jobMap[_id];\n        job.id = _id;\n        job.employerCode = _employerCode;\n        job.name = _name;\n        job.requiredSkills = _requiredSkills;\n        job.status = Status.VACANT;\n        //appliedEmployeeCodes\n        allJobIds.push(_id);\n        Employer storage employer = employerMap[_employerCode];\n        employer.jobIds.push(_id);\n    }\n    function getJob(uint _id) view public returns(address employerCode, string name, Skill[] requiredSkills, address[] appliedEmployeeCodes, Status status) {\n        Job memory job = jobMap[_id];\n        return(job.employerCode, job.name, job.requiredSkills, job.appliedEmployeeCodes, job.status);\n    }\n    function getAllJobIds() view public returns(uint[] postedJobIds) {\n        return allJobIds;\n    }\n\n    //has duplicates\n    function findJobsByProfile(uint _profileId) view public returns(uint[] matchingIds) {\n        uint noOfJobs = jobId -1;\n        Skill[] memory skills = profileMap[_profileId].skills;\n        uint[] memory matchingJobIds = new uint[](skills.length * noOfJobs);\n        uint index = 0;\n\n        for(uint s=0; s<skills.length; s++) {\n            Skill skill = skills[s];\n\n            for(uint j=1; j<=noOfJobs; j++) {\n                Job memory job = jobMap[j];\n\n                Skill[] memory requiredSkills = job.requiredSkills;\n                for(uint m=0; m<requiredSkills.length; m++) {\n                    Skill required = requiredSkills[m];\n\n                    if(skill == required) {\n                        matchingJobIds[index++] = j;\n                        break;\n                    }\n\n                }\n            }\n\n        }\n\n        return matchingJobIds;\n    }\n\n    function findJobsBySkill(Skill _skill) view public returns(uint[] matchingIds) {\n        uint noOfJobs = jobId -1;\n\n        uint[] memory matchingJobIds = new uint[](noOfJobs);\n\n        uint index = 0;\n        for(uint j=1; j<=noOfJobs; j++) {\n            Job memory job = jobMap[j];\n\n            Skill[] memory requiredSkills = job.requiredSkills;\n            for(uint m=0; m<requiredSkills.length; m++) {\n                Skill required = requiredSkills[m];\n\n                if(_skill == required) {\n                    matchingJobIds[index++] = j;\n                    break;\n                }\n\n            }\n        }\n        return matchingJobIds;\n    }\n\n    // function findJobs(uint _profileId) view public returns(uint jobIds) {\n    //     uint[] memory matchingJobIds;\n    //     //uint matchingJobId;\n\n    //     Profile memory profile = profileMap[_profileId];\n    //     Skill[] memory skills = profile.skills;\n\n    //     uint jobCount = 0;\n    //     for(uint s=0; s<skills.length; s++) {\n    //         Skill skill = skills[s];\n\n    //         for(uint j=0; j<allJobIds.length; j++) {\n    //             uint thisJobId = allJobIds[j];\n    //             Job memory job = jobMap[thisJobId];\n\n    //             Skill[] memory requiredSkills = job.requiredSkills;\n    //             for(uint m=0; m<requiredSkills.length; m++) {\n    //                 Skill required = requiredSkills[m];\n\n    //                 if(skill == required) {\n\n    //                     matchingJobId = thisJobId;\n    //                     //matchingJobIds[jobCount++] = thisJobId;\n    //                     //break;\n    //                 }\n\n    //             }\n\n    //         }\n    //     }\n    //     //matchingJobIds[0] = matchingJobId;\n    //     //return matchingJobIds;\n    //     //uint storage x = 11;\n    //     return 11;\n    // }\n\n\n    //test\n    function testSetInitialData() public {\n\n        // testrpc\n        address addressE1 = 0x5f0e611dbcb5a4a1dc8ec4c7e1a02a8eb60182f3;\n        address addressE2 = 0xcea3b456c72dae97a256199c24dab28fb4863ed1;\n        address addressR1 = 0x38921ab62710300785722cfc538b3cabefb12845;\n        address addressR2 = 0xda93fc20797a06d7273335788a4914a89d3bedaf;\n\n        /* remix\n        address addressE1 = 0xca35b7d915458ef540ade6068dfe2f44e8fa733c;\n        address addressE2 = 0x4b0897b0513fdc7c541b6d9d7e929c4e5364d2db;\n        address addressR1 = 0x14723a09acff6d2a60dcdf7aa4aff308fddc160c;\n        address addressR2 = 0x583031d1113ad414f02576bd6afabfb302140225;\n        */\n\n        //setEmployeeWithAddress(addressE1, \"e1\");\n        //setEmployerWithAddress(addressR1, \"r1\");\n\n        Skill[] memory skills1 = new Skill[](2);\n        skills1[0] = Skill.JAVA;\n        skills1[1] = Skill.MYSQL;\n\n        Skill[] memory skills2 = new Skill[](2);\n        skills2[0] = Skill.JS;\n        skills2[1] = Skill.MONGO;\n\n        setProfileWithAddress(addressE1, \"p1\", skills1);\n        setProfileWithAddress(addressE1, \"p2\", skills2);\n\n        setJobWithAddress(addressR1, \"j1\", skills1);\n        setJobWithAddress(addressR1, \"j2\", skills1);\n    }\n\n    function uintToSkill(uint _uint) pure public returns(string skill) {\n        if(_uint == uint(Skill.JAVA))\n            return \"JAVA\";\n        if(_uint == uint(Skill.JS))\n            return \"JS\";\n        return \"MONGO\";\n    }\n\n}",
  "sourcePath": "/home/janarthan/practice/yit/Blockchain-JobMarket/contracts/Market.sol",
  "compiler": {
    "name": "solc",
    "version": "0.4.19+commit.c4cbbb05.Emscripten.clang"
  },
  "schemaVersion": "2.0.0",
  "updatedAt": "2018-03-15T12:30:08.904Z"
}