{
  "contractName": "Market",
  "abi": [
    {
      "constant": false,
      "inputs": [
        {
          "name": "_address",
          "type": "address"
        },
        {
          "name": "_name",
          "type": "string"
        },
        {
          "name": "_email",
          "type": "string"
        },
        {
          "name": "_phoneNo",
          "type": "string"
        },
        {
          "name": "_statement",
          "type": "string"
        },
        {
          "name": "_rate",
          "type": "uint256"
        }
      ],
      "name": "setEmployeeWithAddress",
      "outputs": [],
      "payable": false,
      "stateMutability": "nonpayable",
      "type": "function"
    },
    {
      "constant": false,
      "inputs": [
        {
          "name": "_name",
          "type": "string"
        },
        {
          "name": "_email",
          "type": "string"
        },
        {
          "name": "_phoneNo",
          "type": "string"
        },
        {
          "name": "_statement",
          "type": "string"
        },
        {
          "name": "_rate",
          "type": "uint256"
        }
      ],
      "name": "setEmployee",
      "outputs": [
        {
          "name": "",
          "type": "string"
        },
        {
          "name": "",
          "type": "string"
        },
        {
          "name": "",
          "type": "string"
        },
        {
          "name": "",
          "type": "string"
        },
        {
          "name": "",
          "type": "string"
        },
        {
          "name": "",
          "type": "uint256[]"
        },
        {
          "name": "",
          "type": "uint256"
        },
        {
          "name": "",
          "type": "uint8"
        }
      ],
      "payable": false,
      "stateMutability": "nonpayable",
      "type": "function"
    },
    {
      "constant": true,
      "inputs": [
        {
          "name": "_address",
          "type": "address"
        },
        {
          "name": "_name",
          "type": "string"
        },
        {
          "name": "_email",
          "type": "string"
        },
        {
          "name": "_company",
          "type": "string"
        },
        {
          "name": "_add",
          "type": "string"
        },
        {
          "name": "_country",
          "type": "string"
        }
      ],
      "name": "getEmployee",
      "outputs": [
        {
          "name": "",
          "type": "string"
        },
        {
          "name": "",
          "type": "string"
        },
        {
          "name": "",
          "type": "string"
        },
        {
          "name": "",
          "type": "string"
        },
        {
          "name": "",
          "type": "uint256"
        },
        {
          "name": "",
          "type": "uint256[]"
        },
        {
          "name": "",
          "type": "uint256"
        },
        {
          "name": "",
          "type": "uint8"
        }
      ],
      "payable": false,
      "stateMutability": "view",
      "type": "function"
    },
    {
      "constant": false,
      "inputs": [
        {
          "name": "_address",
          "type": "address"
        },
        {
          "name": "_name",
          "type": "string"
        },
        {
          "name": "_email",
          "type": "string"
        },
        {
          "name": "_company",
          "type": "string"
        },
        {
          "name": "_add",
          "type": "string"
        },
        {
          "name": "_country",
          "type": "string"
        }
      ],
      "name": "setEmployerWithAddress",
      "outputs": [],
      "payable": false,
      "stateMutability": "nonpayable",
      "type": "function"
    },
    {
      "constant": false,
      "inputs": [
        {
          "name": "_name",
          "type": "string"
        },
        {
          "name": "_email",
          "type": "string"
        },
        {
          "name": "_company",
          "type": "string"
        },
        {
          "name": "_add",
          "type": "string"
        },
        {
          "name": "_country",
          "type": "string"
        }
      ],
      "name": "setEmployer",
      "outputs": [
        {
          "name": "ids",
          "type": "uint256[]"
        }
      ],
      "payable": false,
      "stateMutability": "nonpayable",
      "type": "function"
    },
    {
      "constant": true,
      "inputs": [],
      "name": "getAllProfileIds",
      "outputs": [
        {
          "name": "ids",
          "type": "uint256[]"
        }
      ],
      "payable": false,
      "stateMutability": "view",
      "type": "function"
    },
    {
      "constant": true,
      "inputs": [
        {
          "name": "_JobTitle",
          "type": "string"
        },
        {
          "name": "_requiredSkills",
          "type": "uint8[]"
        },
        {
          "name": "_hourlyRate",
          "type": "string"
        },
        {
          "name": "_Description",
          "type": "string"
        }
      ],
      "name": "getEmployerCodes",
      "outputs": [
        {
          "name": "",
          "type": "address[]"
        }
      ],
      "payable": false,
      "stateMutability": "view",
      "type": "function"
    },
    {
      "constant": true,
      "inputs": [
        {
          "name": "_uint",
          "type": "uint256"
        }
      ],
      "name": "uintToSkill",
      "outputs": [
        {
          "name": "skill",
          "type": "string"
        }
      ],
      "payable": false,
      "stateMutability": "pure",
      "type": "function"
    },
    {
      "constant": false,
      "inputs": [
        {
          "name": "_jobId",
          "type": "uint256"
        }
      ],
      "name": "updateJobAppliedEmployees",
      "outputs": [],
      "payable": false,
      "stateMutability": "nonpayable",
      "type": "function"
    },
    {
      "constant": false,
      "inputs": [
        {
          "name": "_employerCode",
          "type": "address"
        },
        {
          "name": "_JobTitle",
          "type": "string"
        },
        {
          "name": "_requiredSkills",
          "type": "uint8[]"
        },
        {
          "name": "_hourlyRate",
          "type": "uint256"
        },
        {
          "name": "_Description",
          "type": "string"
        }
      ],
      "name": "setJobWithAddress",
      "outputs": [],
      "payable": false,
      "stateMutability": "nonpayable",
      "type": "function"
    },
    {
      "constant": false,
      "inputs": [
        {
          "name": "_address",
          "type": "address"
        }
      ],
      "name": "testSetInitialData",
      "outputs": [
        {
          "name": "name",
          "type": "string"
        },
        {
          "name": "email",
          "type": "string"
        },
        {
          "name": "company",
          "type": "string"
        },
        {
          "name": "add",
          "type": "string"
        },
        {
          "name": "country",
          "type": "string"
        },
        {
          "name": "jobIds",
          "type": "uint256[]"
        },
        {
          "name": "status",
          "type": "uint8"
        }
      ],
      "payable": false,
      "stateMutability": "nonpayable",
      "type": "function"
    },
    {
      "constant": true,
      "inputs": [
        {
          "name": "_address",
          "type": "address"
        },
        {
          "name": "_skills",
          "type": "uint8[]"
        },
        {
          "name": "_cvHash",
          "type": "string"
        },
        {
          "name": "_defaultProfile",
          "type": "bool"
        }
      ],
      "name": "getEmployer",
      "outputs": [
        {
          "name": "name",
          "type": "string"
        },
        {
          "name": "email",
          "type": "string"
        },
        {
          "name": "company",
          "type": "string"
        },
        {
          "name": "add",
          "type": "string"
        },
        {
          "name": "country",
          "type": "string"
        },
        {
          "name": "jobIds",
          "type": "uint256[]"
        },
        {
          "name": "status",
          "type": "uint8"
        }
      ],
      "payable": false,
      "stateMutability": "view",
      "type": "function"
    },
    {
      "constant": false,
      "inputs": [
        {
          "name": "_name",
          "type": "string"
        },
        {
          "name": "_skills",
          "type": "uint8[]"
        },
        {
          "name": "_cvHash",
          "type": "string"
        },
        {
          "name": "_defaultProfile",
          "type": "bool"
        }
      ],
      "name": "setProfile",
      "outputs": [
        {
          "name": "postedJobIds",
          "type": "uint256[]"
        }
      ],
      "payable": false,
      "stateMutability": "nonpayable",
      "type": "function"
    },
    {
      "constant": true,
      "inputs": [
        {
          "name": "_profileId",
          "type": "uint256"
        }
      ],
      "name": "getAllJobIds",
      "outputs": [
        {
          "name": "postedJobIds",
          "type": "uint256[]"
        }
      ],
      "payable": false,
      "stateMutability": "view",
      "type": "function"
    },
    {
      "constant": true,
      "inputs": [
        {
          "name": "_profileId",
          "type": "uint256"
        },
        {
          "name": "_JobTitle",
          "type": "string"
        },
        {
          "name": "_requiredSkills",
          "type": "uint8[]"
        },
        {
          "name": "_hourlyRate",
          "type": "string"
        },
        {
          "name": "_Description",
          "type": "string"
        }
      ],
      "name": "findJobsByProfile",
      "outputs": [
        {
          "name": "matchingIds",
          "type": "uint256[]"
        }
      ],
      "payable": false,
      "stateMutability": "view",
      "type": "function"
    },
    {
      "constant": true,
      "inputs": [],
      "name": "findJobsByEmployee",
      "outputs": [
        {
          "name": "",
          "type": "uint256[]"
        }
      ],
      "payable": false,
      "stateMutability": "view",
      "type": "function"
    },
    {
      "constant": false,
      "inputs": [
        {
          "name": "_employeeCode",
          "type": "address"
        },
        {
          "name": "_name",
          "type": "string"
        },
        {
          "name": "_skills",
          "type": "uint8[]"
        },
        {
          "name": "_cvHash",
          "type": "string"
        },
        {
          "name": "_defaultProfile",
          "type": "bool"
        }
      ],
      "name": "setProfileWithAddress",
      "outputs": [],
      "payable": false,
      "stateMutability": "nonpayable",
      "type": "function"
    },
    {
      "constant": true,
      "inputs": [
        {
          "name": "_id",
          "type": "uint256"
        }
      ],
      "name": "getJob",
      "outputs": [
        {
          "name": "",
          "type": "address"
        },
        {
          "name": "",
          "type": "string"
        },
        {
          "name": "",
          "type": "uint8[]"
        },
        {
          "name": "",
          "type": "uint256"
        },
        {
          "name": "",
          "type": "string"
        },
        {
          "name": "",
          "type": "address[]"
        },
        {
          "name": "",
          "type": "uint8"
        }
      ],
      "payable": false,
      "stateMutability": "view",
      "type": "function"
    },
    {
      "constant": false,
      "inputs": [
        {
          "name": "_JobTitle",
          "type": "string"
        },
        {
          "name": "_requiredSkills",
          "type": "uint8[]"
        },
        {
          "name": "_hourlyRate",
          "type": "uint256"
        },
        {
          "name": "_Description",
          "type": "string"
        },
        {
          "name": "_rate",
          "type": "string"
        }
      ],
      "name": "setJob",
      "outputs": [],
      "payable": false,
      "stateMutability": "nonpayable",
      "type": "function"
    },
    {
      "constant": true,
      "inputs": [
        {
          "name": "_jobId",
          "type": "uint256"
        }
      ],
      "name": "findEmployeeProfilesByJob",
      "outputs": [
        {
          "name": "matchingProfiles",
          "type": "uint256[]"
        }
      ],
      "payable": false,
      "stateMutability": "view",
      "type": "function"
    },
    {
      "constant": true,
      "inputs": [
        {
          "name": "_skill",
          "type": "uint8"
        }
      ],
      "name": "findJobsBySkill",
      "outputs": [
        {
          "name": "matchingIds",
          "type": "uint256[]"
        }
      ],
      "payable": false,
      "stateMutability": "view",
      "type": "function"
    },
    {
      "constant": true,
      "inputs": [
        {
          "name": "_id",
          "type": "uint256"
        }
      ],
      "name": "getProfile",
      "outputs": [
        {
          "name": "",
          "type": "address"
        },
        {
          "name": "",
          "type": "string"
        },
        {
          "name": "",
          "type": "uint8[]"
        },
        {
          "name": "",
          "type": "string"
        },
        {
          "name": "",
          "type": "uint8"
        }
      ],
      "payable": false,
      "stateMutability": "view",
      "type": "function"
    },
    {
      "constant": true,
      "inputs": [],
      "name": "getEmployeeCodes",
      "outputs": [
        {
          "name": "codes",
          "type": "address[]"
        }
      ],
      "payable": false,
      "stateMutability": "view",
      "type": "function"
    }
  ],
  "bytecode": "0x6060604052600160005560018055341561001857600080fd5b6147c5806100276000396000f300606060405260043610610133576000357c0100000000000000000000000000000000000000000000000000000000900463ffffffff16806305413db3146101385780631ca4174b1461028657806332648e09146103b5578063382f03e914610616578063563333261461079e5780635f317ace14610907578063633e0c2314610971578063689943b0146109db5780636df89ff714610a775780636f3c2e1714610a9a578063701486c914610ba25780637560d4ce14610bb75780637c2911d914610e7657806388c8837f14610f6157806389fbc0c214610fcb5780639a76affa14611043578063ae3887c2146110ad578063bf22c457146111b7578063c02ae3be1461139e578063d1678e6a14611487578063dbe98dda146114ff578063f08f4f641461157a578063ff66aa6214611712575b600080fd5b341561014357600080fd5b610284600480803573ffffffffffffffffffffffffffffffffffffffff1690602001909190803590602001908201803590602001908080601f0160208091040260200160405190810160405280939291908181526020018383808284378201915050505050509190803590602001908201803590602001908080601f0160208091040260200160405190810160405280939291908181526020018383808284378201915050505050509190803590602001908201803590602001908080601f0160208091040260200160405190810160405280939291908181526020018383808284378201915050505050509190803590602001908201803590602001908080601f0160208091040260200160405190810160405280939291908181526020018383808284378201915050505050509190803590602001909190505061177c565b005b341561029157600080fd5b6103b3600480803590602001908201803590602001908080601f0160208091040260200160405190810160405280939291908181526020018383808284378201915050505050509190803590602001908201803590602001908080601f0160208091040260200160405190810160405280939291908181526020018383808284378201915050505050509190803590602001908201803590602001908080601f0160208091040260200160405190810160405280939291908181526020018383808284378201915050505050509190803590602001908201803590602001908080601f01602080910402602001604051908101604052809392919081815260200183838082843782019150505050505091908035906020019091905050611901565b005b34156103c057600080fd5b6103ec600480803573ffffffffffffffffffffffffffffffffffffffff1690602001909190505061191c565b60405180806020018060200180602001806020018981526020018060200188815260200187600481111561041c57fe5b60ff16815260200186810386528e818151815260200191508051906020019080838360005b8381101561045c578082015181840152602081019050610441565b50505050905090810190601f1680156104895780820380516001836020036101000a031916815260200191505b5086810385528d818151815260200191508051906020019080838360005b838110156104c25780820151818401526020810190506104a7565b50505050905090810190601f1680156104ef5780820380516001836020036101000a031916815260200191505b5086810384528c818151815260200191508051906020019080838360005b8381101561052857808201518184015260208101905061050d565b50505050905090810190601f1680156105555780820380516001836020036101000a031916815260200191505b5086810383528b818151815260200191508051906020019080838360005b8381101561058e578082015181840152602081019050610573565b50505050905090810190601f1680156105bb5780820380516001836020036101000a031916815260200191505b50868103825289818151815260200191508051906020019060200280838360005b838110156105f75780820151818401526020810190506105dc565b505050509050019d505050505050505050505050505060405180910390f35b341561062157600080fd5b61079c600480803573ffffffffffffffffffffffffffffffffffffffff1690602001909190803590602001908201803590602001908080601f0160208091040260200160405190810160405280939291908181526020018383808284378201915050505050509190803590602001908201803590602001908080601f0160208091040260200160405190810160405280939291908181526020018383808284378201915050505050509190803590602001908201803590602001908080601f0160208091040260200160405190810160405280939291908181526020018383808284378201915050505050509190803590602001908201803590602001908080601f0160208091040260200160405190810160405280939291908181526020018383808284378201915050505050509190803590602001908201803590602001908080601f01602080910402602001604051908101604052809392919081815260200183838082843782019150505050505091905050611d74565b005b34156107a957600080fd5b610905600480803590602001908201803590602001908080601f0160208091040260200160405190810160405280939291908181526020018383808284378201915050505050509190803590602001908201803590602001908080601f0160208091040260200160405190810160405280939291908181526020018383808284378201915050505050509190803590602001908201803590602001908080601f0160208091040260200160405190810160405280939291908181526020018383808284378201915050505050509190803590602001908201803590602001908080601f0160208091040260200160405190810160405280939291908181526020018383808284378201915050505050509190803590602001908201803590602001908080601f01602080910402602001604051908101604052809392919081815260200183838082843782019150505050505091905050611ef0565b005b341561091257600080fd5b61091a611f0b565b6040518080602001828103825283818151815260200191508051906020019060200280838360005b8381101561095d578082015181840152602081019050610942565b505050509050019250505060405180910390f35b341561097c57600080fd5b610984611f69565b6040518080602001828103825283818151815260200191508051906020019060200280838360005b838110156109c75780820151818401526020810190506109ac565b505050509050019250505060405180910390f35b34156109e657600080fd5b6109fc6004808035906020019091905050611ffd565b6040518080602001828103825283818151815260200191508051906020019080838360005b83811015610a3c578082015181840152602081019050610a21565b50505050905090810190601f168015610a695780820380516001836020036101000a031916815260200191505b509250505060405180910390f35b3415610a8257600080fd5b610a9860048080359060200190919050506120e5565b005b3415610aa557600080fd5b610ba0600480803573ffffffffffffffffffffffffffffffffffffffff1690602001909190803590602001908201803590602001908080601f016020809104026020016040519081016040528093929190818152602001838380828437820191505050505050919080359060200190820180359060200190808060200260200160405190810160405280939291908181526020018383602002808284378201915050505050509190803590602001909190803590602001908201803590602001908080601f01602080910402602001604051908101604052809392919081815260200183838082843782019150505050505091905050612165565b005b3415610bad57600080fd5b610bb56122f7565b005b3415610bc257600080fd5b610bee600480803573ffffffffffffffffffffffffffffffffffffffff16906020019091905050612491565b60405180806020018060200180602001806020018060200180602001886004811115610c1657fe5b60ff16815260200187810387528e818151815260200191508051906020019080838360005b83811015610c56578082015181840152602081019050610c3b565b50505050905090810190601f168015610c835780820380516001836020036101000a031916815260200191505b5087810386528d818151815260200191508051906020019080838360005b83811015610cbc578082015181840152602081019050610ca1565b50505050905090810190601f168015610ce95780820380516001836020036101000a031916815260200191505b5087810385528c818151815260200191508051906020019080838360005b83811015610d22578082015181840152602081019050610d07565b50505050905090810190601f168015610d4f5780820380516001836020036101000a031916815260200191505b5087810384528b818151815260200191508051906020019080838360005b83811015610d88578082015181840152602081019050610d6d565b50505050905090810190601f168015610db55780820380516001836020036101000a031916815260200191505b5087810383528a818151815260200191508051906020019080838360005b83811015610dee578082015181840152602081019050610dd3565b50505050905090810190601f168015610e1b5780820380516001836020036101000a031916815260200191505b50878103825289818151815260200191508051906020019060200280838360005b83811015610e57578082015181840152602081019050610e3c565b505050509050019d505050505050505050505050505060405180910390f35b3415610e8157600080fd5b610f5f600480803590602001908201803590602001908080601f016020809104026020016040519081016040528093929190818152602001838380828437820191505050505050919080359060200190820180359060200190808060200260200160405190810160405280939291908181526020018383602002808284378201915050505050509190803590602001908201803590602001908080601f01602080910402602001604051908101604052809392919081815260200183838082843782019150505050505091908035151590602001909190505061296d565b005b3415610f6c57600080fd5b610f74612986565b6040518080602001828103825283818151815260200191508051906020019060200280838360005b83811015610fb7578082015181840152602081019050610f9c565b505050509050019250505060405180910390f35b3415610fd657600080fd5b610fec60048080359060200190919050506129e4565b6040518080602001828103825283818151815260200191508051906020019060200280838360005b8381101561102f578082015181840152602081019050611014565b505050509050019250505060405180910390f35b341561104e57600080fd5b611056612ed1565b6040518080602001828103825283818151815260200191508051906020019060200280838360005b8381101561109957808201518184015260208101905061107e565b505050509050019250505060405180910390f35b34156110b857600080fd5b6111b5600480803573ffffffffffffffffffffffffffffffffffffffff1690602001909190803590602001908201803590602001908080601f016020809104026020016040519081016040528093929190818152602001838380828437820191505050505050919080359060200190820180359060200190808060200260200160405190810160405280939291908181526020018383602002808284378201915050505050509190803590602001908201803590602001908080601f016020809104026020016040519081016040528093929190818152602001838380828437820191505050505050919080351515906020019091905050613403565b005b34156111c257600080fd5b6111d8600480803590602001909190505061359b565b604051808873ffffffffffffffffffffffffffffffffffffffff1673ffffffffffffffffffffffffffffffffffffffff1681526020018060200180602001878152602001806020018060200186600481111561123057fe5b60ff16815260200185810385528b818151815260200191508051906020019080838360005b83811015611270578082015181840152602081019050611255565b50505050905090810190601f16801561129d5780820380516001836020036101000a031916815260200191505b5085810384528a818151815260200191508051906020019060200280838360005b838110156112d95780820151818401526020810190506112be565b50505050905001858103835288818151815260200191508051906020019080838360005b838110156113185780820151818401526020810190506112fd565b50505050905090810190601f1680156113455780820380516001836020036101000a031916815260200191505b50858103825287818151815260200191508051906020019060200280838360005b83811015611381578082015181840152602081019050611366565b505050509050019b50505050505050505050505060405180910390f35b34156113a957600080fd5b611485600480803590602001908201803590602001908080601f016020809104026020016040519081016040528093929190818152602001838380828437820191505050505050919080359060200190820180359060200190808060200260200160405190810160405280939291908181526020018383602002808284378201915050505050509190803590602001909190803590602001908201803590602001908080601f01602080910402602001604051908101604052809392919081815260200183838082843782019150505050505091905050613923565b005b341561149257600080fd5b6114a8600480803590602001909190505061393c565b6040518080602001828103825283818151815260200191508051906020019060200280838360005b838110156114eb5780820151818401526020810190506114d0565b505050509050019250505060405180910390f35b341561150a57600080fd5b611523600480803560ff16906020019091905050613b9e565b6040518080602001828103825283818151815260200191508051906020019060200280838360005b8381101561156657808201518184015260208101905061154b565b505050509050019250505060405180910390f35b341561158557600080fd5b61159b6004808035906020019091905050613fb0565b604051808673ffffffffffffffffffffffffffffffffffffffff1673ffffffffffffffffffffffffffffffffffffffff1681526020018060200180602001806020018560048111156115e957fe5b60ff168152602001848103845288818151815260200191508051906020019080838360005b8381101561162957808201518184015260208101905061160e565b50505050905090810190601f1680156116565780820380516001836020036101000a031916815260200191505b50848103835287818151815260200191508051906020019060200280838360005b83811015611692578082015181840152602081019050611677565b50505050905001848103825286818151815260200191508051906020019080838360005b838110156116d15780820151818401526020810190506116b6565b50505050905090810190601f1680156116fe5780820380516001836020036101000a031916815260200191505b509850505050505050505060405180910390f35b341561171d57600080fd5b611725614282565b6040518080602001828103825283818151815260200191508051906020019060200280838360005b8381101561176857808201518184015260208101905061174d565b505050509050019250505060405180910390f35b6000600260008873ffffffffffffffffffffffffffffffffffffffff1673ffffffffffffffffffffffffffffffffffffffff1681526020019081526020016000209050868160000160006101000a81548173ffffffffffffffffffffffffffffffffffffffff021916908373ffffffffffffffffffffffffffffffffffffffff1602179055508581600101908051906020019061181a929190614316565b5084816002019080519060200190611833929190614316565b508381600301908051906020019061184c929190614316565b5082816004019080519060200190611865929190614316565b5081816005018190555060008160090160006101000a81548160ff0219169083600481111561189057fe5b0217905550600380548060010182816118a99190614396565b9160005260206000209001600089909190916101000a81548173ffffffffffffffffffffffffffffffffffffffff021916908373ffffffffffffffffffffffffffffffffffffffff1602179055505050505050505050565b600033905061191481878787878761177c565b505050505050565b6119246143c2565b61192c6143c2565b6119346143c2565b61193c6143c2565b60006119466143d6565b6000806119516143ea565b600260008b73ffffffffffffffffffffffffffffffffffffffff1673ffffffffffffffffffffffffffffffffffffffff16815260200190815260200160002061014060405190810160405290816000820160009054906101000a900473ffffffffffffffffffffffffffffffffffffffff1673ffffffffffffffffffffffffffffffffffffffff1673ffffffffffffffffffffffffffffffffffffffff168152602001600182018054600181600116156101000203166002900480601f016020809104026020016040519081016040528092919081815260200182805460018160011615610100020316600290048015611a8c5780601f10611a6157610100808354040283529160200191611a8c565b820191906000526020600020905b815481529060010190602001808311611a6f57829003601f168201915b50505050508152602001600282018054600181600116156101000203166002900480601f016020809104026020016040519081016040528092919081815260200182805460018160011615610100020316600290048015611b2e5780601f10611b0357610100808354040283529160200191611b2e565b820191906000526020600020905b815481529060010190602001808311611b1157829003601f168201915b50505050508152602001600382018054600181600116156101000203166002900480601f016020809104026020016040519081016040528092919081815260200182805460018160011615610100020316600290048015611bd05780601f10611ba557610100808354040283529160200191611bd0565b820191906000526020600020905b815481529060010190602001808311611bb357829003601f168201915b50505050508152602001600482018054600181600116156101000203166002900480601f016020809104026020016040519081016040528092919081815260200182805460018160011615610100020316600290048015611c725780601f10611c4757610100808354040283529160200191611c72565b820191906000526020600020905b815481529060010190602001808311611c5557829003601f168201915b505050505081526020016005820154815260200160068201805480602002602001604051908101604052809291908181526020018280548015611cd457602002820191906000526020600020905b815481526020019060010190808311611cc0575b5050505050815260200160078201548152602001600882015481526020016009820160009054906101000a900460ff166004811115611d0f57fe5b6004811115611d1a57fe5b81525050905080602001518160400151826060015183608001518460a001518560c001518660e001518761012001518797508696508595508494508292509850985098509850985098509850985050919395975091939597565b6000600460008873ffffffffffffffffffffffffffffffffffffffff1673ffffffffffffffffffffffffffffffffffffffff1681526020019081526020016000209050868160000160006101000a81548173ffffffffffffffffffffffffffffffffffffffff021916908373ffffffffffffffffffffffffffffffffffffffff16021790555084816002019080519060200190611e12929190614316565b5083816003019080519060200190611e2b929190614316565b5082816004019080519060200190611e44929190614316565b5081816005019080519060200190611e5d929190614316565b5060008160070160006101000a81548160ff02191690836004811115611e7f57fe5b021790555060058054806001018281611e989190614396565b9160005260206000209001600089909190916101000a81548173ffffffffffffffffffffffffffffffffffffffff021916908373ffffffffffffffffffffffffffffffffffffffff1602179055505050505050505050565b6000339050611f03818787878787611d74565b505050505050565b611f136143d6565b6007805480602002602001604051908101604052809291908181526020018280548015611f5f57602002820191906000526020600020905b815481526020019060010190808311611f4b575b5050505050905090565b611f7161447d565b6005805480602002602001604051908101604052809291908181526020018280548015611ff357602002820191906000526020600020905b8160009054906101000a900473ffffffffffffffffffffffffffffffffffffffff1673ffffffffffffffffffffffffffffffffffffffff1681526020019060010190808311611fa9575b5050505050905090565b6120056143c2565b6000600681111561201257fe5b821415612056576040805190810160405280600481526020017f4a4156410000000000000000000000000000000000000000000000000000000081525090506120e0565b6001600681111561206357fe5b8214156120a7576040805190810160405280600281526020017f4a5300000000000000000000000000000000000000000000000000000000000081525090506120e0565b6040805190810160405280600581526020017f4d4f4e474f00000000000000000000000000000000000000000000000000000081525090505b919050565b60006008600083815260200190815260200160002090508060030180548060010182816121129190614396565b9160005260206000209001600033909190916101000a81548173ffffffffffffffffffffffffffffffffffffffff021916908373ffffffffffffffffffffffffffffffffffffffff160217905550505050565b600080600060016000815480929190600101919050559250600860008481526020019081526020016000209150828260000181905550878260010160006101000a81548173ffffffffffffffffffffffffffffffffffffffff021916908373ffffffffffffffffffffffffffffffffffffffff160217905550868260050190805190602001906121f6929190614316565b5084826006018190555083826007019080519060200190612218929190614316565b5085826002019080519060200190612231929190614491565b5060028260040160006101000a81548160ff0219169083600481111561225357fe5b02179055506009805480600101828161226c9190614540565b916000526020600020900160008590919091505550600460008973ffffffffffffffffffffffffffffffffffffffff1673ffffffffffffffffffffffffffffffffffffffff16815260200190815260200160002090508060060180548060010182816122d89190614540565b9160005260206000209001600085909190915055505050505050505050565b60008060008061230561456c565b61230d61456c565b735f0e611dbcb5a4a1dc8ec4c7e1a02a8eb60182f3955073cea3b456c72dae97a256199c24dab28fb4863ed194507338921ab62710300785722cfc538b3cabefb12845935073da93fc20797a06d7273335788a4914a89d3bedaf925060026040518059106123785750595b90808252806020026020018201604052509150600082600081518110151561239c57fe5b9060200190602002019060068111156123b157fe5b908160068111156123be57fe5b8152505060028260018151811015156123d357fe5b9060200190602002019060068111156123e857fe5b908160068111156123f557fe5b8152505060026040518059106124085750595b90808252806020026020018201604052509050600181600081518110151561242c57fe5b90602001906020020190600681111561244157fe5b9081600681111561244e57fe5b81525050600381600181518110151561246357fe5b90602001906020020190600681111561247857fe5b9081600681111561248557fe5b81525050505050505050565b6124996143c2565b6124a16143c2565b6124a96143c2565b6124b16143c2565b6124b96143c2565b6124c16143d6565b60006124cb614580565b600460008a73ffffffffffffffffffffffffffffffffffffffff1673ffffffffffffffffffffffffffffffffffffffff16815260200190815260200160002061010060405190810160405290816000820160009054906101000a900473ffffffffffffffffffffffffffffffffffffffff1673ffffffffffffffffffffffffffffffffffffffff1673ffffffffffffffffffffffffffffffffffffffff168152602001600182018054600181600116156101000203166002900480601f0160208091040260200160405190810160405280929190818152602001828054600181600116156101000203166002900480156126065780601f106125db57610100808354040283529160200191612606565b820191906000526020600020905b8154815290600101906020018083116125e957829003601f168201915b50505050508152602001600282018054600181600116156101000203166002900480601f0160208091040260200160405190810160405280929190818152602001828054600181600116156101000203166002900480156126a85780601f1061267d576101008083540402835291602001916126a8565b820191906000526020600020905b81548152906001019060200180831161268b57829003601f168201915b50505050508152602001600382018054600181600116156101000203166002900480601f01602080910402602001604051908101604052809291908181526020018280546001816001161561010002031660029004801561274a5780601f1061271f5761010080835404028352916020019161274a565b820191906000526020600020905b81548152906001019060200180831161272d57829003601f168201915b50505050508152602001600482018054600181600116156101000203166002900480601f0160208091040260200160405190810160405280929190818152602001828054600181600116156101000203166002900480156127ec5780601f106127c1576101008083540402835291602001916127ec565b820191906000526020600020905b8154815290600101906020018083116127cf57829003601f168201915b50505050508152602001600582018054600181600116156101000203166002900480601f01602080910402602001604051908101604052809291908181526020018280546001816001161561010002031660029004801561288e5780601f106128635761010080835404028352916020019161288e565b820191906000526020600020905b81548152906001019060200180831161287157829003601f168201915b50505050508152602001600682018054806020026020016040519081016040528092919081815260200182805480156128e657602002820191906000526020600020905b8154815260200190600101908083116128d2575b505050505081526020016007820160009054906101000a900460ff16600481111561290d57fe5b600481111561291857fe5b81525050905080602001518160400151826060015183608001518460a001518560c001518660e00151869650859550849450839350829250819150975097509750975097509750975050919395979092949650565b600033905061297f8186868686613403565b5050505050565b61298e6143d6565b60098054806020026020016040519081016040528092919081815260200182805480156129da57602002820191906000526020600020905b8154815260200190600101908083116129c6575b5050505050905090565b6129ec6143d6565b60006129f661456c565b6129fe6143d6565b600080600080612a0c61460b565b612a1461456c565b60008060018054039a50600660008e8152602001908152602001600020600401805480602002602001604051908101604052809291908181526020018280548015612aac57602002820191906000526020600020906000905b82829054906101000a900460ff166006811115612a8657fe5b81526020019060010190602082600001049283019260010382029150808411612a6d5790505b505050505099508a8a5102604051805910612ac45750595b9080825280602002602001820160405250985060009750600096505b8951871015612ebe578987815181101515612af757fe5b906020019060200201519550600194505b8a85111515612eb157600860008681526020019081526020016000206101006040519081016040529081600082015481526020016001820160009054906101000a900473ffffffffffffffffffffffffffffffffffffffff1673ffffffffffffffffffffffffffffffffffffffff1673ffffffffffffffffffffffffffffffffffffffff16815260200160028201805480602002602001604051908101604052809291908181526020018280548015612c0e57602002820191906000526020600020906000905b82829054906101000a900460ff166006811115612be857fe5b81526020019060010190602082600001049283019260010382029150808411612bcf5790505b5050505050815260200160038201805480602002602001604051908101604052809291908181526020018280548015612c9c57602002820191906000526020600020905b8160009054906101000a900473ffffffffffffffffffffffffffffffffffffffff1673ffffffffffffffffffffffffffffffffffffffff1681526020019060010190808311612c52575b505050505081526020016004820160009054906101000a900460ff166004811115612cc357fe5b6004811115612cce57fe5b8152602001600582018054600181600116156101000203166002900480601f016020809104026020016040519081016040528092919081815260200182805460018160011615610100020316600290048015612d6b5780601f10612d4057610100808354040283529160200191612d6b565b820191906000526020600020905b815481529060010190602001808311612d4e57829003601f168201915b5050505050815260200160068201548152602001600782018054600181600116156101000203166002900480601f016020809104026020016040519081016040528092919081815260200182805460018160011615610100020316600290048015612e175780601f10612dec57610100808354040283529160200191612e17565b820191906000526020600020905b815481529060010190602001808311612dfa57829003601f168201915b505050505081525050935083604001519250600091505b8251821015612ea4578282815181101515612e4557fe5b906020019060200201519050806006811115612e5d57fe5b866006811115612e6957fe5b1415612e9757848989806001019a50815181101515612e8457fe5b9060200190602002018181525050612ea4565b8180600101925050612e2e565b8480600101955050612b08565b8680600101975050612ae0565b889b505050505050505050505050919050565b612ed96143d6565b600080612ee461456c565b612eec6143d6565b600080600080612efa61460b565b612f0261456c565b600080600260003373ffffffffffffffffffffffffffffffffffffffff1673ffffffffffffffffffffffffffffffffffffffff168152602001908152602001600020600701549b5060018054039a50600660008d8152602001908152602001600020600401805480602002602001604051908101604052809291908181526020018280548015612fdf57602002820191906000526020600020906000905b82829054906101000a900460ff166006811115612fb957fe5b81526020019060010190602082600001049283019260010382029150808411612fa05790505b505050505099508a8a5102604051805910612ff75750595b9080825280602002602001820160405250985060009750600096505b89518710156133f157898781518110151561302a57fe5b906020019060200201519550600194505b8a851115156133e457600860008681526020019081526020016000206101006040519081016040529081600082015481526020016001820160009054906101000a900473ffffffffffffffffffffffffffffffffffffffff1673ffffffffffffffffffffffffffffffffffffffff1673ffffffffffffffffffffffffffffffffffffffff1681526020016002820180548060200260200160405190810160405280929190818152602001828054801561314157602002820191906000526020600020906000905b82829054906101000a900460ff16600681111561311b57fe5b815260200190600101906020826000010492830192600103820291508084116131025790505b50505050508152602001600382018054806020026020016040519081016040528092919081815260200182805480156131cf57602002820191906000526020600020905b8160009054906101000a900473ffffffffffffffffffffffffffffffffffffffff1673ffffffffffffffffffffffffffffffffffffffff1681526020019060010190808311613185575b505050505081526020016004820160009054906101000a900460ff1660048111156131f657fe5b600481111561320157fe5b8152602001600582018054600181600116156101000203166002900480601f01602080910402602001604051908101604052809291908181526020018280546001816001161561010002031660029004801561329e5780601f106132735761010080835404028352916020019161329e565b820191906000526020600020905b81548152906001019060200180831161328157829003601f168201915b5050505050815260200160068201548152602001600782018054600181600116156101000203166002900480601f01602080910402602001604051908101604052809291908181526020018280546001816001161561010002031660029004801561334a5780601f1061331f5761010080835404028352916020019161334a565b820191906000526020600020905b81548152906001019060200180831161332d57829003601f168201915b505050505081525050935083604001519250600091505b82518210156133d757828281518110151561337857fe5b90602001906020020151905080600681111561339057fe5b86600681111561339c57fe5b14156133ca57848989806001019a508151811015156133b757fe5b90602001906020020181815250506133d7565b8180600101925050613361565b848060010195505061303b565b8680600101975050613013565b889c5050505050505050505050505090565b6000806000806000815480929190600101919050559250600660008481526020019081526020016000209150828260000181905550878260010160006101000a81548173ffffffffffffffffffffffffffffffffffffffff021916908373ffffffffffffffffffffffffffffffffffffffff16021790555086826002019080519060200190613493929190614316565b50858260040190805190602001906134ac929190614491565b50848260030190805190602001906134c5929190614316565b5060008260050160006101000a81548160ff021916908360048111156134e757fe5b0217905550600780548060010182816135009190614540565b916000526020600020900160008590919091505550600260008973ffffffffffffffffffffffffffffffffffffffff1673ffffffffffffffffffffffffffffffffffffffff168152602001908152602001600020905080600601805480600101828161356c9190614540565b9160005260206000209001600085909190915055508315613591578281600701819055505b5050505050505050565b60006135a56143c2565b6135ad61456c565b60006135b76143c2565b6135bf61447d565b60006135c961460b565b600860008a81526020019081526020016000206101006040519081016040529081600082015481526020016001820160009054906101000a900473ffffffffffffffffffffffffffffffffffffffff1673ffffffffffffffffffffffffffffffffffffffff1673ffffffffffffffffffffffffffffffffffffffff168152602001600282018054806020026020016040519081016040528092919081815260200182805480156136c657602002820191906000526020600020906000905b82829054906101000a900460ff1660068111156136a057fe5b815260200190600101906020826000010492830192600103820291508084116136875790505b505050505081526020016003820180548060200260200160405190810160405280929190818152602001828054801561375457602002820191906000526020600020905b8160009054906101000a900473ffffffffffffffffffffffffffffffffffffffff1673ffffffffffffffffffffffffffffffffffffffff168152602001906001019080831161370a575b505050505081526020016004820160009054906101000a900460ff16600481111561377b57fe5b600481111561378657fe5b8152602001600582018054600181600116156101000203166002900480601f0160208091040260200160405190810160405280929190818152602001828054600181600116156101000203166002900480156138235780601f106137f857610100808354040283529160200191613823565b820191906000526020600020905b81548152906001019060200180831161380657829003601f168201915b5050505050815260200160068201548152602001600782018054600181600116156101000203166002900480601f0160208091040260200160405190810160405280929190818152602001828054600181600116156101000203166002900480156138cf5780601f106138a4576101008083540402835291602001916138cf565b820191906000526020600020905b8154815290600101906020018083116138b257829003601f168201915b505050505081525050905080602001518160a0015182604001518360c001518460e0015185606001518660800151859550849450829250819150975097509750975097509750975050919395979092949650565b60003390506139358186868686612165565b5050505050565b6139446143d6565b600061394e61456c565b6139566143d6565b60008060008061396461456c565b6000806001600054039950600860008d81526020019081526020016000206002018054806020026020016040519081016040528092919081815260200182805480156139fd57602002820191906000526020600020906000905b82829054906101000a900460ff1660068111156139d757fe5b815260200190600101906020826000010492830192600103820291508084116139be5790505b5050505050985088518a02604051805910613a155750595b9080825280602002602001820160405250975060009650600095505b8851861015613b8c578886815181101515613a4857fe5b906020019060200201519450600193505b8984111515613b7f5760066000858152602001908152602001600020600401805480602002602001604051908101604052809291908181526020018280548015613af057602002820191906000526020600020906000905b82829054906101000a900460ff166006811115613aca57fe5b81526020019060010190602082600001049283019260010382029150808411613ab15790505b50505050509250600091505b8251821015613b72578282815181101515613b1357fe5b906020019060200201519050846006811115613b2b57fe5b816006811115613b3757fe5b1415613b6557838888806001019950815181101515613b5257fe5b9060200190602002018181525050613b72565b8180600101925050613afc565b8380600101945050613a59565b8580600101965050613a31565b879a5050505050505050505050919050565b613ba66143d6565b6000613bb06143d6565b600080613bbb61460b565b613bc361456c565b6000806001805403975087604051805910613bdb5750595b9080825280602002602001820160405250965060009550600194505b8785111515613fa057600860008681526020019081526020016000206101006040519081016040529081600082015481526020016001820160009054906101000a900473ffffffffffffffffffffffffffffffffffffffff1673ffffffffffffffffffffffffffffffffffffffff1673ffffffffffffffffffffffffffffffffffffffff16815260200160028201805480602002602001604051908101604052809291908181526020018280548015613cfd57602002820191906000526020600020906000905b82829054906101000a900460ff166006811115613cd757fe5b81526020019060010190602082600001049283019260010382029150808411613cbe5790505b5050505050815260200160038201805480602002602001604051908101604052809291908181526020018280548015613d8b57602002820191906000526020600020905b8160009054906101000a900473ffffffffffffffffffffffffffffffffffffffff1673ffffffffffffffffffffffffffffffffffffffff1681526020019060010190808311613d41575b505050505081526020016004820160009054906101000a900460ff166004811115613db257fe5b6004811115613dbd57fe5b8152602001600582018054600181600116156101000203166002900480601f016020809104026020016040519081016040528092919081815260200182805460018160011615610100020316600290048015613e5a5780601f10613e2f57610100808354040283529160200191613e5a565b820191906000526020600020905b815481529060010190602001808311613e3d57829003601f168201915b5050505050815260200160068201548152602001600782018054600181600116156101000203166002900480601f016020809104026020016040519081016040528092919081815260200182805460018160011615610100020316600290048015613f065780601f10613edb57610100808354040283529160200191613f06565b820191906000526020600020905b815481529060010190602001808311613ee957829003601f168201915b505050505081525050935083604001519250600091505b8251821015613f93578282815181101515613f3457fe5b906020019060200201519050806006811115613f4c57fe5b8a6006811115613f5857fe5b1415613f8657848787806001019850815181101515613f7357fe5b9060200190602002018181525050613f93565b8180600101925050613f1d565b8480600101955050613bf7565b8698505050505050505050919050565b6000613fba6143c2565b613fc261456c565b613fca6143c2565b6000613fd461468a565b6006600088815260200190815260200160002060c06040519081016040529081600082015481526020016001820160009054906101000a900473ffffffffffffffffffffffffffffffffffffffff1673ffffffffffffffffffffffffffffffffffffffff1673ffffffffffffffffffffffffffffffffffffffff168152602001600282018054600181600116156101000203166002900480601f0160208091040260200160405190810160405280929190818152602001828054600181600116156101000203166002900480156140ec5780601f106140c1576101008083540402835291602001916140ec565b820191906000526020600020905b8154815290600101906020018083116140cf57829003601f168201915b50505050508152602001600382018054600181600116156101000203166002900480601f01602080910402602001604051908101604052809291908181526020018280546001816001161561010002031660029004801561418e5780601f106141635761010080835404028352916020019161418e565b820191906000526020600020905b81548152906001019060200180831161417157829003601f168201915b505050505081526020016004820180548060200260200160405190810160405280929190818152602001828054801561421457602002820191906000526020600020906000905b82829054906101000a900460ff1660068111156141ee57fe5b815260200190600101906020826000010492830192600103820291508084116141d55790505b505050505081526020016005820160009054906101000a900460ff16600481111561423b57fe5b600481111561424657fe5b81525050905080602001518160400151826080015183606001518460a00151839350829250819150955095509550955095505091939590929450565b61428a61447d565b600380548060200260200160405190810160405280929190818152602001828054801561430c57602002820191906000526020600020905b8160009054906101000a900473ffffffffffffffffffffffffffffffffffffffff1673ffffffffffffffffffffffffffffffffffffffff16815260200190600101908083116142c2575b5050505050905090565b828054600181600116156101000203166002900490600052602060002090601f016020900481019282601f1061435757805160ff1916838001178555614385565b82800160010185558215614385579182015b82811115614384578251825591602001919060010190614369565b5b50905061439291906146f4565b5090565b8154818355818115116143bd578183600052602060002091820191016143bc91906146f4565b5b505050565b602060405190810160405280600081525090565b602060405190810160405280600081525090565b61014060405190810160405280600073ffffffffffffffffffffffffffffffffffffffff16815260200161441c614719565b8152602001614429614719565b8152602001614436614719565b8152602001614443614719565b81526020016000815260200161445761472d565b815260200160008152602001600081526020016000600481111561447757fe5b81525090565b602060405190810160405280600081525090565b82805482825590600052602060002090601f0160209004810192821561452f5791602002820160005b8382111561450057835183826101000a81548160ff021916908360068111156144df57fe5b021790555092602001926001016020816000010492830192600103026144ba565b801561452d5782816101000a81549060ff0219169055600101602081600001049283019260010302614500565b505b50905061453c9190614741565b5090565b8154818355818115116145675781836000526020600020918201910161456691906146f4565b5b505050565b602060405190810160405280600081525090565b61010060405190810160405280600073ffffffffffffffffffffffffffffffffffffffff1681526020016145b2614719565b81526020016145bf614719565b81526020016145cc614719565b81526020016145d9614719565b81526020016145e6614719565b81526020016145f361472d565b81526020016000600481111561460557fe5b81525090565b6101006040519081016040528060008152602001600073ffffffffffffffffffffffffffffffffffffffff168152602001614644614771565b8152602001614651614785565b81526020016000600481111561466357fe5b8152602001614670614719565b815260200160008152602001614684614719565b81525090565b60c06040519081016040528060008152602001600073ffffffffffffffffffffffffffffffffffffffff1681526020016146c2614719565b81526020016146cf614719565b81526020016146dc614771565b8152602001600060048111156146ee57fe5b81525090565b61471691905b808211156147125760008160009055506001016146fa565b5090565b90565b602060405190810160405280600081525090565b602060405190810160405280600081525090565b61476e91905b8082111561476a57600081816101000a81549060ff021916905550600101614747565b5090565b90565b602060405190810160405280600081525090565b6020604051908101604052806000815250905600a165627a7a72305820e4b7fe86c708cab909eccdc9b2482e087f2dbb40900c5e356b0115d824b3721f0029",
  "source": "pragma solidity  ^0.4.18;\n\ncontract Market {\n\n    enum Status {ACTIVE, INACTIVE, VACANT, OFFERED, CANCELLED}\n    enum Skill {JAVA, JS, MYSQL, MONGO, SCALA, KOTLIN, OTHER}\n\n    uint profileId = 1;\n    uint jobId = 1;\n\n    mapping (address => Employee) employeeMap;\n    address[] employeeCodes;\n\n    mapping(address => Employer) employerMap;\n    address[] employerCodes;\n\n    mapping(uint => Profile) profileMap;\n    uint[] allProfileIds;\n\n    mapping(uint => Job) jobMap;\n    uint[] allJobIds;\n\n    struct Employee {\n        address code;\n        string name;\n        string email;\n        string phoneNo;\n        string statement;\n        uint rate;\n        uint[] profileIds;\n        uint defaultProfileId;\n        uint id;\n        Status status;\n    }\n\n    struct Profile {\n        uint id;\n        address employeeCode;\n        string name;\n        string cvHash;\n        Skill[] skills;\n        Status status;\n    }\n\n    struct Employer {\n        address code;\n        string name;\n        string email;\n        string company;\n        string add;\n        string country;\n        uint[] jobIds;\n        Status status;\n    }\n\n\n    struct Job {\n        uint id;\n        address employerCode;\n        Skill[] requiredSkills;\n        address[] appliedEmployeeCodes;\n        Status status;\n        string JobTitle;\n        uint hourlyRate;\n        string Description;\n    }\n\n\n    function setEmployee(string _name, string _email, string _phoneNo, string _statement, uint _rate) public {\n        address _address = msg.sender;\n        setEmployeeWithAddress(_address, _name, _email, _phoneNo, _statement, _rate);\n    }\n    function setEmployeeWithAddress(address _address, string _name, string _email, string _phoneNo, string _statement, uint _rate) public {\n        Employee storage employee = employeeMap[_address];\n        employee.code = _address;\n        employee.name = _name;\n        employee.email = _email;\n        employee.phoneNo = _phoneNo;\n        employee.statement = _statement;\n        employee.rate = _rate;\n        employee.status = Status.ACTIVE;\n        employeeCodes.push(_address);\n    }\n    function getEmployee(address _address) view public returns(string,string,string,string,uint, uint[], uint, Status) {\n        Employee memory employee = employeeMap[_address];\n        return(employee.name,employee.email,employee.phoneNo,employee.statement,employee.rate, employee.profileIds, employee.defaultProfileId, employee.status);\n    }\n    function getEmployeeCodes() view public returns(address[] codes) {\n        return employeeCodes;\n    }\n\n\n    function setEmployer(string _name, string _email, string _company, string _add, string _country) public {\n        address _address = msg.sender;\n        setEmployerWithAddress(_address, _name, _email, _company, _add, _country);\n    }\n    function setEmployerWithAddress(address _address, string _name, string _email, string _company, string _add, string _country) public {\n        Employer storage employer = employerMap[_address];\n        employer.code = _address;\n        employer.email = _email;\n        employer.company = _company;\n        employer.add = _add;\n        employer.country = _country;\n        employer.status = Status.ACTIVE;\n        employerCodes.push(_address);\n    }\n    function getEmployer(address _address) view public returns(string name,string email, string company, string add, string country, uint[] jobIds, Status status) {\n        Employer memory employer = employerMap[_address];\n        return (employer.name,employer.email,employer.company,employer.add,employer.country, employer.jobIds, employer.status);\n    }\n    function getEmployerCodes() view public returns(address[]) {\n        return employerCodes;\n    }\n\n\n    function setProfile(string _name, Skill[] _skills, string _cvHash, bool _defaultProfile) public {\n            address _employeeCode = msg.sender;\n            setProfileWithAddress(_employeeCode, _name, _skills, _cvHash, _defaultProfile);\n    }\n    function setProfileWithAddress(address _employeeCode, string _name, Skill[] _skills, string _cvHash, bool _defaultProfile) public {\n        //throw if employee not found\n        uint _id = profileId++;\n        Profile storage profile = profileMap[_id];\n        profile.id = _id;\n        profile.employeeCode = _employeeCode;\n        profile.name = _name;\n        profile.skills = _skills;\n        profile.cvHash = _cvHash;\n        profile.status = Status.ACTIVE;\n        allProfileIds.push(_id);\n        Employee storage employee = employeeMap[_employeeCode];\n        employee.profileIds.push(_id);\n        if(_defaultProfile) {\n            employee.defaultProfileId = _id;\n        }\n    }\n    function getProfile(uint _id) view public returns(address, string, Skill[], string, Status) {\n        Profile memory profile = profileMap[_id];\n        return(profile.employeeCode, profile.name, profile.skills, profile.cvHash, profile.status);\n    }\n    function getAllProfileIds() view public returns(uint[] ids) {\n        return allProfileIds;\n    }\n\n    function setJob(string _JobTitle, Skill[] _requiredSkills, uint _hourlyRate, string _Description) public {\n        address _employerCode = msg.sender;\n        setJobWithAddress(_employerCode, _JobTitle, _requiredSkills,_hourlyRate,_Description);\n    }\n    function setJobWithAddress(address _employerCode, string _JobTitle, Skill[] _requiredSkills, uint _hourlyRate, string _Description) public {\n        uint _id = jobId++;\n        Job storage job = jobMap[_id];\n        job.id = _id;\n        job.employerCode = _employerCode;\n        job.JobTitle = _JobTitle;\n        job.hourlyRate= _hourlyRate;\n        job.Description=_Description;\n        job.requiredSkills = _requiredSkills;\n        job.status = Status.VACANT;\n        //appliedEmployeeCodes\n        allJobIds.push(_id);\n        Employer storage employer = employerMap[_employerCode];\n        employer.jobIds.push(_id);\n    }\n\n    function updateJobAppliedEmployees(uint _jobId) public {\n        Job storage job = jobMap[_jobId];\n        job.appliedEmployeeCodes.push(msg.sender);\n    }\n    function getJob(uint _id) view public returns(address, string, Skill[], uint, string, address[], Status) {\n        Job memory job = jobMap[_id];\n        return(job.employerCode, job.JobTitle, job.requiredSkills, job.hourlyRate, job.Description, job.appliedEmployeeCodes, job.status);\n    }\n    function getAllJobIds() view public returns(uint[] postedJobIds) {\n        return allJobIds;\n    }\n\n    //has duplicates\n    function findEmployeeProfilesByJob(uint _jobId) view public returns(uint[] matchingProfiles) {\n        uint noOfProfiles = profileId -1;\n        Skill[] memory requiredSkills = jobMap[_jobId].requiredSkills;\n        uint[] memory matchingProfileIds = new uint[](noOfProfiles * requiredSkills.length);\n        uint index = 0;\n\n        for(uint r=0; r<requiredSkills.length; r++) {\n            Skill required = requiredSkills[r];\n\n            for(uint p=1; p<=noOfProfiles; p++) {\n\n                Skill[] memory skills = profileMap[p].skills;\n                for(uint s=0; s<skills.length; s++) {\n                    Skill skill = skills[s];\n\n                    if(skill == required) {\n                        matchingProfileIds[index++] = p;\n                        break;\n                    }\n                }\n            }\n        }\n        return matchingProfileIds;\n    }\n\n    function findJobsByEmployee() view public returns(uint[]) {\n        uint defaultProfileId = employeeMap[msg.sender].defaultProfileId;\n        uint noOfJobs = jobId -1;\n        Skill[] memory skills = profileMap[defaultProfileId].skills;\n        uint[] memory matchingJobIds = new uint[](skills.length * noOfJobs);\n        uint index = 0;\n\n        for(uint s=0; s<skills.length; s++) {\n            Skill skill = skills[s];\n\n            for(uint j=1; j<=noOfJobs; j++) {\n                Job memory job = jobMap[j];\n\n                Skill[] memory requiredSkills = job.requiredSkills;\n                for(uint m=0; m<requiredSkills.length; m++) {\n                    Skill required = requiredSkills[m];\n\n                    if(skill == required) {\n                        matchingJobIds[index++] = j;\n                        break;\n                    }\n\n                }\n            }\n\n        }\n\n        return matchingJobIds;\n    }\n\n    //has duplicates\n    function findJobsByProfile(uint _profileId) view public returns(uint[] matchingIds) {\n        uint noOfJobs = jobId -1;\n        Skill[] memory skills = profileMap[_profileId].skills;\n        uint[] memory matchingJobIds = new uint[](skills.length * noOfJobs);\n        uint index = 0;\n\n        for(uint s=0; s<skills.length; s++) {\n            Skill skill = skills[s];\n\n            for(uint j=1; j<=noOfJobs; j++) {\n                Job memory job = jobMap[j];\n\n                Skill[] memory requiredSkills = job.requiredSkills;\n                for(uint m=0; m<requiredSkills.length; m++) {\n                    Skill required = requiredSkills[m];\n\n                    if(skill == required) {\n                        matchingJobIds[index++] = j;\n                        break;\n                    }\n\n                }\n            }\n\n        }\n\n        return matchingJobIds;\n    }\n\n    function findJobsBySkill(Skill _skill) view public returns(uint[] matchingIds) {\n        uint noOfJobs = jobId -1;\n\n        uint[] memory matchingJobIds = new uint[](noOfJobs);\n\n        uint index = 0;\n        for(uint j=1; j<=noOfJobs; j++) {\n            Job memory job = jobMap[j];\n\n            Skill[] memory requiredSkills = job.requiredSkills;\n            for(uint m=0; m<requiredSkills.length; m++) {\n                Skill required = requiredSkills[m];\n\n                if(_skill == required) {\n                    matchingJobIds[index++] = j;\n                    break;\n                }\n\n            }\n        }\n        return matchingJobIds;\n    }\n\n    // function findJobs(uint _profileId) view public returns(uint jobIds) {\n    //     uint[] memory matchingJobIds;\n    //     //uint matchingJobId;\n\n    //     Profile memory profile = profileMap[_profileId];\n    //     Skill[] memory skills = profile.skills;\n\n    //     uint jobCount = 0;\n    //     for(uint s=0; s<skills.length; s++) {\n    //         Skill skill = skills[s];\n\n    //         for(uint j=0; j<allJobIds.length; j++) {\n    //             uint thisJobId = allJobIds[j];\n    //             Job memory job = jobMap[thisJobId];\n\n    //             Skill[] memory requiredSkills = job.requiredSkills;\n    //             for(uint m=0; m<requiredSkills.length; m++) {\n    //                 Skill required = requiredSkills[m];\n\n    //                 if(skill == required) {\n\n    //                     matchingJobId = thisJobId;\n    //                     //matchingJobIds[jobCount++] = thisJobId;\n    //                     //break;\n    //                 }\n\n    //             }\n\n    //         }\n    //     }\n    //     //matchingJobIds[0] = matchingJobId;\n    //     //return matchingJobIds;\n    //     //uint storage x = 11;\n    //     return 11;\n    // }\n\n\n    //test\n    function testSetInitialData() public {\n\n        // testrpc\n        address addressE1 = 0x5f0e611dbcb5a4a1dc8ec4c7e1a02a8eb60182f3;\n        address addressE2 = 0xcea3b456c72dae97a256199c24dab28fb4863ed1;\n        address addressR1 = 0x38921ab62710300785722cfc538b3cabefb12845;\n        address addressR2 = 0xda93fc20797a06d7273335788a4914a89d3bedaf;\n\n        /* remix\n        address addressE1 = 0xca35b7d915458ef540ade6068dfe2f44e8fa733c;\n        address addressE2 = 0x4b0897b0513fdc7c541b6d9d7e929c4e5364d2db;\n        address addressR1 = 0x14723a09acff6d2a60dcdf7aa4aff308fddc160c;\n        address addressR2 = 0x583031d1113ad414f02576bd6afabfb302140225;\n        */\n\n        //setEmployeeWithAddress(addressE1, \"e1\");\n        //setEmployerWithAddress(addressR1, \"r1\");\n\n        Skill[] memory skills1 = new Skill[](2);\n        skills1[0] = Skill.JAVA;\n        skills1[1] = Skill.MYSQL;\n\n        Skill[] memory skills2 = new Skill[](2);\n        skills2[0] = Skill.JS;\n        skills2[1] = Skill.MONGO;\n\n        //setProfileWithAddress(addressE1, \"p1\", skills1);\n        //setProfileWithAddress(addressE1, \"p2\", skills2);\n\n       // setJobWithAddress(addressR1, \"j1\", skills1);\n       // setJobWithAddress(addressR1, \"j2\", skills1);\n    }\n\n    function uintToSkill(uint _uint) pure public returns(string skill) {\n        if(_uint == uint(Skill.JAVA))\n            return \"JAVA\";\n        if(_uint == uint(Skill.JS))\n            return \"JS\";\n        return \"MONGO\";\n    }\n\n}\n",
  "sourcePath": "/home/archchitha/Blockchain-JobMarket/contracts/Market.sol",
  "compiler": {
    "name": "solc",
    "version": "0.4.18+commit.9cf6e910.Emscripten.clang"
  },
  "schemaVersion": "1.0.1",
  "updatedAt": "2018-04-03T11:09:43.004Z"
}