{
  "contractName": "Market",
  "abi": [
    {
      "constant": false,
      "inputs": [
        {
          "name": "_name",
          "type": "string"
        }
      ],
      "name": "setEmployee",
      "outputs": [],
      "payable": false,
      "stateMutability": "nonpayable",
      "type": "function"
    },
    {
      "constant": false,
      "inputs": [
        {
          "name": "_address",
          "type": "address"
        },
        {
          "name": "_name",
          "type": "string"
        }
      ],
      "name": "setEmployeeWithAddress",
      "outputs": [],
      "payable": false,
      "stateMutability": "nonpayable",
      "type": "function"
    },
    {
      "constant": true,
      "inputs": [
        {
          "name": "_address",
          "type": "address"
        }
      ],
      "name": "getEmployee",
      "outputs": [
        {
          "name": "",
          "type": "string"
        },
        {
          "name": "",
          "type": "uint256[]"
        },
        {
          "name": "",
          "type": "uint256"
        },
        {
          "name": "",
          "type": "uint8"
        }
      ],
      "payable": false,
      "stateMutability": "view",
      "type": "function"
    },
    {
      "constant": true,
      "inputs": [],
      "name": "getEmployeeCodes",
      "outputs": [
        {
          "name": "codes",
          "type": "address[]"
        }
      ],
      "payable": false,
      "stateMutability": "view",
      "type": "function"
    },
    {
      "constant": false,
      "inputs": [
        {
          "name": "_name",
          "type": "string"
        }
      ],
      "name": "setEmployer",
      "outputs": [],
      "payable": false,
      "stateMutability": "nonpayable",
      "type": "function"
    },
    {
      "constant": false,
      "inputs": [
        {
          "name": "_address",
          "type": "address"
        },
        {
          "name": "_name",
          "type": "string"
        }
      ],
      "name": "setEmployerWithAddress",
      "outputs": [],
      "payable": false,
      "stateMutability": "nonpayable",
      "type": "function"
    },
    {
      "constant": true,
      "inputs": [
        {
          "name": "_address",
          "type": "address"
        }
      ],
      "name": "getEmployer",
      "outputs": [
        {
          "name": "name",
          "type": "string"
        },
        {
          "name": "jobIds",
          "type": "uint256[]"
        },
        {
          "name": "status",
          "type": "uint8"
        }
      ],
      "payable": false,
      "stateMutability": "view",
      "type": "function"
    },
    {
      "constant": true,
      "inputs": [],
      "name": "getEmployerCodes",
      "outputs": [
        {
          "name": "",
          "type": "address[]"
        }
      ],
      "payable": false,
      "stateMutability": "view",
      "type": "function"
    },
    {
      "constant": false,
      "inputs": [
        {
          "name": "_name",
          "type": "string"
        },
        {
          "name": "_skills",
          "type": "uint8[]"
        },
        {
          "name": "_cvHash",
          "type": "string"
        },
        {
          "name": "_defaultProfile",
          "type": "bool"
        }
      ],
      "name": "setProfile",
      "outputs": [],
      "payable": false,
      "stateMutability": "nonpayable",
      "type": "function"
    },
    {
      "constant": false,
      "inputs": [
        {
          "name": "_employeeCode",
          "type": "address"
        },
        {
          "name": "_name",
          "type": "string"
        },
        {
          "name": "_skills",
          "type": "uint8[]"
        },
        {
          "name": "_cvHash",
          "type": "string"
        },
        {
          "name": "_defaultProfile",
          "type": "bool"
        }
      ],
      "name": "setProfileWithAddress",
      "outputs": [],
      "payable": false,
      "stateMutability": "nonpayable",
      "type": "function"
    },
    {
      "constant": true,
      "inputs": [
        {
          "name": "_id",
          "type": "uint256"
        }
      ],
      "name": "getProfile",
      "outputs": [
        {
          "name": "",
          "type": "address"
        },
        {
          "name": "",
          "type": "string"
        },
        {
          "name": "",
          "type": "uint8[]"
        },
        {
          "name": "",
          "type": "string"
        },
        {
          "name": "",
          "type": "uint8"
        }
      ],
      "payable": false,
      "stateMutability": "view",
      "type": "function"
    },
    {
      "constant": true,
      "inputs": [],
      "name": "getAllProfileIds",
      "outputs": [
        {
          "name": "ids",
          "type": "uint256[]"
        }
      ],
      "payable": false,
      "stateMutability": "view",
      "type": "function"
    },
    {
      "constant": false,
      "inputs": [
        {
          "name": "_name",
          "type": "string"
        },
        {
          "name": "_requiredSkills",
          "type": "uint8[]"
        }
      ],
      "name": "setJob",
      "outputs": [],
      "payable": false,
      "stateMutability": "nonpayable",
      "type": "function"
    },
    {
      "constant": false,
      "inputs": [
        {
          "name": "_employerCode",
          "type": "address"
        },
        {
          "name": "_name",
          "type": "string"
        },
        {
          "name": "_requiredSkills",
          "type": "uint8[]"
        }
      ],
      "name": "setJobWithAddress",
      "outputs": [],
      "payable": false,
      "stateMutability": "nonpayable",
      "type": "function"
    },
    {
      "constant": true,
      "inputs": [
        {
          "name": "_id",
          "type": "uint256"
        }
      ],
      "name": "getJob",
      "outputs": [
        {
          "name": "employerCode",
          "type": "address"
        },
        {
          "name": "name",
          "type": "string"
        },
        {
          "name": "requiredSkills",
          "type": "uint8[]"
        },
        {
          "name": "appliedEmployeeCodes",
          "type": "address[]"
        },
        {
          "name": "status",
          "type": "uint8"
        }
      ],
      "payable": false,
      "stateMutability": "view",
      "type": "function"
    },
    {
      "constant": true,
      "inputs": [],
      "name": "getAllJobIds",
      "outputs": [
        {
          "name": "postedJobIds",
          "type": "uint256[]"
        }
      ],
      "payable": false,
      "stateMutability": "view",
      "type": "function"
    },
    {
      "constant": true,
      "inputs": [
        {
          "name": "_jobId",
          "type": "uint256"
        }
      ],
      "name": "findEmployeeProfilesByJob",
      "outputs": [
        {
          "name": "matchingProfiles",
          "type": "uint256[]"
        }
      ],
      "payable": false,
      "stateMutability": "view",
      "type": "function"
    },
    {
      "constant": true,
      "inputs": [
        {
          "name": "_profileId",
          "type": "uint256"
        }
      ],
      "name": "findJobsByProfile",
      "outputs": [
        {
          "name": "matchingIds",
          "type": "uint256[]"
        }
      ],
      "payable": false,
      "stateMutability": "view",
      "type": "function"
    },
    {
      "constant": true,
      "inputs": [
        {
          "name": "_skill",
          "type": "uint8"
        }
      ],
      "name": "findJobsBySkill",
      "outputs": [
        {
          "name": "matchingIds",
          "type": "uint256[]"
        }
      ],
      "payable": false,
      "stateMutability": "view",
      "type": "function"
    },
    {
      "constant": false,
      "inputs": [],
      "name": "testSetInitialData",
      "outputs": [],
      "payable": false,
      "stateMutability": "nonpayable",
      "type": "function"
    },
    {
      "constant": true,
      "inputs": [
        {
          "name": "_uint",
          "type": "uint256"
        }
      ],
      "name": "uintToSkill",
      "outputs": [
        {
          "name": "skill",
          "type": "string"
        }
      ],
      "payable": false,
      "stateMutability": "pure",
      "type": "function"
    }
  ],
  "bytecode": "0x6060604052600160005560018055341561001857600080fd5b613197806100276000396000f30060606040526004361061011d576000357c0100000000000000000000000000000000000000000000000000000000900463ffffffff16806310f4c59714610122578063124e84e61461017f5780632dd46cf71461021c57806332648e09146102d85780634ed4a297146103ee5780635f317ace1461046a578063633e0c23146104d4578063689943b01461053e578063701486c9146105da5780637560d4ce146105ef5780637c2911d9146106fe57806388c8837f146107e957806389fbc0c2146108535780638f778bb9146108cb578063ae3887c214610928578063b06a90d014610a32578063bf22c45714610aae578063d1678e6a14610c22578063dbe98dda14610c9a578063f08f4f6414610d15578063ff66aa6214610ead575b600080fd5b341561012d57600080fd5b61017d600480803590602001908201803590602001908080601f01602080910402602001604051908101604052809392919081815260200183838082843782019150505050505091905050610f17565b005b341561018a57600080fd5b61021a600480803590602001908201803590602001908080601f0160208091040260200160405190810160405280939291908181526020018383808284378201915050505050509190803590602001908201803590602001908080602002602001604051908101604052809392919081815260200183836020028082843782019150505050505091905050610f2a565b005b341561022757600080fd5b6102d6600480803573ffffffffffffffffffffffffffffffffffffffff1690602001909190803590602001908201803590602001908080601f0160208091040260200160405190810160405280939291908181526020018383808284378201915050505050509190803590602001908201803590602001908080602002602001604051908101604052809392919081815260200183836020028082843782019150505050505091905050610f3f565b005b34156102e357600080fd5b61030f600480803573ffffffffffffffffffffffffffffffffffffffff169060200190919050506110ad565b60405180806020018060200185815260200184600481111561032d57fe5b60ff168152602001838103835287818151815260200191508051906020019080838360005b8381101561036d578082015181840152602081019050610352565b50505050905090810190601f16801561039a5780820380516001836020036101000a031916815260200191505b50838103825286818151815260200191508051906020019060200280838360005b838110156103d65780820151818401526020810190506103bb565b50505050905001965050505050505060405180910390f35b34156103f957600080fd5b610468600480803573ffffffffffffffffffffffffffffffffffffffff1690602001909190803590602001908201803590602001908080601f016020809104026020016040519081016040528093929190818152602001838380828437820191505050505050919050506112c6565b005b341561047557600080fd5b61047d6113f3565b6040518080602001828103825283818151815260200191508051906020019060200280838360005b838110156104c05780820151818401526020810190506104a5565b505050509050019250505060405180910390f35b34156104df57600080fd5b6104e7611451565b6040518080602001828103825283818151815260200191508051906020019060200280838360005b8381101561052a57808201518184015260208101905061050f565b505050509050019250505060405180910390f35b341561054957600080fd5b61055f60048080359060200190919050506114e5565b6040518080602001828103825283818151815260200191508051906020019080838360005b8381101561059f578082015181840152602081019050610584565b50505050905090810190601f1680156105cc5780820380516001836020036101000a031916815260200191505b509250505060405180910390f35b34156105e557600080fd5b6105ed6115cd565b005b34156105fa57600080fd5b610626600480803573ffffffffffffffffffffffffffffffffffffffff169060200190919050506117e7565b60405180806020018060200184600481111561063e57fe5b60ff168152602001838103835286818151815260200191508051906020019080838360005b8381101561067e578082015181840152602081019050610663565b50505050905090810190601f1680156106ab5780820380516001836020036101000a031916815260200191505b50838103825285818151815260200191508051906020019060200280838360005b838110156106e75780820151818401526020810190506106cc565b505050509050019550505050505060405180910390f35b341561070957600080fd5b6107e7600480803590602001908201803590602001908080601f016020809104026020016040519081016040528093929190818152602001838380828437820191505050505050919080359060200190820180359060200190808060200260200160405190810160405280939291908181526020018383602002808284378201915050505050509190803590602001908201803590602001908080601f0160208091040260200160405190810160405280939291908181526020018383808284378201915050505050509190803515159060200190919050506119ee565b005b34156107f457600080fd5b6107fc611a07565b6040518080602001828103825283818151815260200191508051906020019060200280838360005b8381101561083f578082015181840152602081019050610824565b505050509050019250505060405180910390f35b341561085e57600080fd5b6108746004808035906020019091905050611a65565b6040518080602001828103825283818151815260200191508051906020019060200280838360005b838110156108b757808201518184015260208101905061089c565b505050509050019250505060405180910390f35b34156108d657600080fd5b610926600480803590602001908201803590602001908080601f01602080910402602001604051908101604052809392919081815260200183838082843782019150505050505091905050611ea5565b005b341561093357600080fd5b610a30600480803573ffffffffffffffffffffffffffffffffffffffff1690602001909190803590602001908201803590602001908080601f016020809104026020016040519081016040528093929190818152602001838380828437820191505050505050919080359060200190820180359060200190808060200260200160405190810160405280939291908181526020018383602002808284378201915050505050509190803590602001908201803590602001908080601f016020809104026020016040519081016040528093929190818152602001838380828437820191505050505050919080351515906020019091905050611eb8565b005b3415610a3d57600080fd5b610aac600480803573ffffffffffffffffffffffffffffffffffffffff1690602001909190803590602001908201803590602001908080601f01602080910402602001604051908101604052809392919081815260200183838082843782019150505050505091905050612050565b005b3415610ab957600080fd5b610acf600480803590602001909190505061217d565b604051808673ffffffffffffffffffffffffffffffffffffffff1673ffffffffffffffffffffffffffffffffffffffff168152602001806020018060200180602001856004811115610b1d57fe5b60ff168152602001848103845288818151815260200191508051906020019080838360005b83811015610b5d578082015181840152602081019050610b42565b50505050905090810190601f168015610b8a5780820380516001836020036101000a031916815260200191505b50848103835287818151815260200191508051906020019060200280838360005b83811015610bc6578082015181840152602081019050610bab565b50505050905001848103825286818151815260200191508051906020019060200280838360005b83811015610c08578082015181840152602081019050610bed565b505050509050019850505050505050505060405180910390f35b3415610c2d57600080fd5b610c43600480803590602001909190505061243b565b6040518080602001828103825283818151815260200191508051906020019060200280838360005b83811015610c86578082015181840152602081019050610c6b565b505050509050019250505060405180910390f35b3415610ca557600080fd5b610cbe600480803560ff1690602001909190505061269d565b6040518080602001828103825283818151815260200191508051906020019060200280838360005b83811015610d01578082015181840152602081019050610ce6565b505050509050019250505060405180910390f35b3415610d2057600080fd5b610d366004808035906020019091905050612a02565b604051808673ffffffffffffffffffffffffffffffffffffffff1673ffffffffffffffffffffffffffffffffffffffff168152602001806020018060200180602001856004811115610d8457fe5b60ff168152602001848103845288818151815260200191508051906020019080838360005b83811015610dc4578082015181840152602081019050610da9565b50505050905090810190601f168015610df15780820380516001836020036101000a031916815260200191505b50848103835287818151815260200191508051906020019060200280838360005b83811015610e2d578082015181840152602081019050610e12565b50505050905001848103825286818151815260200191508051906020019080838360005b83811015610e6c578082015181840152602081019050610e51565b50505050905090810190601f168015610e995780820380516001836020036101000a031916815260200191505b509850505050505050505060405180910390f35b3415610eb857600080fd5b610ec0612cd4565b6040518080602001828103825283818151815260200191508051906020019060200280838360005b83811015610f03578082015181840152602081019050610ee8565b505050509050019250505060405180910390f35b6000339050610f268183612050565b5050565b6000339050610f3a818484610f3f565b505050565b600080600060016000815480929190600101919050559250600860008481526020019081526020016000209150828260000181905550858260010160006101000a81548173ffffffffffffffffffffffffffffffffffffffff021916908373ffffffffffffffffffffffffffffffffffffffff16021790555084826002019080519060200190610fd0929190612d68565b5083826003019080519060200190610fe9929190612de8565b5060028260050160006101000a81548160ff0219169083600481111561100b57fe5b0217905550600980548060010182816110249190612e97565b916000526020600020900160008590919091505550600460008773ffffffffffffffffffffffffffffffffffffffff1673ffffffffffffffffffffffffffffffffffffffff16815260200190815260200160002090508060020180548060010182816110909190612e97565b916000526020600020900160008590919091505550505050505050565b6110b5612ec3565b6110bd612ed7565b6000806110c8612eeb565b600260008773ffffffffffffffffffffffffffffffffffffffff1673ffffffffffffffffffffffffffffffffffffffff16815260200190815260200160002060a060405190810160405290816000820160009054906101000a900473ffffffffffffffffffffffffffffffffffffffff1673ffffffffffffffffffffffffffffffffffffffff1673ffffffffffffffffffffffffffffffffffffffff168152602001600182018054600181600116156101000203166002900480601f0160208091040260200160405190810160405280929190818152602001828054600181600116156101000203166002900480156112025780601f106111d757610100808354040283529160200191611202565b820191906000526020600020905b8154815290600101906020018083116111e557829003601f168201915b505050505081526020016002820180548060200260200160405190810160405280929190818152602001828054801561125a57602002820191906000526020600020905b815481526020019060010190808311611246575b50505050508152602001600382015481526020016004820160009054906101000a900460ff16600481111561128b57fe5b600481111561129657fe5b81525050905080602001518160400151826060015183608001518393508292509450945094509450509193509193565b6000600460008473ffffffffffffffffffffffffffffffffffffffff1673ffffffffffffffffffffffffffffffffffffffff1681526020019081526020016000209050828160000160006101000a81548173ffffffffffffffffffffffffffffffffffffffff021916908373ffffffffffffffffffffffffffffffffffffffff16021790555081816001019080519060200190611364929190612d68565b5060008160030160006101000a81548160ff0219169083600481111561138657fe5b02179055506005805480600101828161139f9190612f48565b9160005260206000209001600085909190916101000a81548173ffffffffffffffffffffffffffffffffffffffff021916908373ffffffffffffffffffffffffffffffffffffffff16021790555050505050565b6113fb612ed7565b600780548060200260200160405190810160405280929190818152602001828054801561144757602002820191906000526020600020905b815481526020019060010190808311611433575b5050505050905090565b611459612f74565b60058054806020026020016040519081016040528092919081815260200182805480156114db57602002820191906000526020600020905b8160009054906101000a900473ffffffffffffffffffffffffffffffffffffffff1673ffffffffffffffffffffffffffffffffffffffff1681526020019060010190808311611491575b5050505050905090565b6114ed612ec3565b600060068111156114fa57fe5b82141561153e576040805190810160405280600481526020017f4a4156410000000000000000000000000000000000000000000000000000000081525090506115c8565b6001600681111561154b57fe5b82141561158f576040805190810160405280600281526020017f4a5300000000000000000000000000000000000000000000000000000000000081525090506115c8565b6040805190810160405280600581526020017f4d4f4e474f00000000000000000000000000000000000000000000000000000081525090505b919050565b6000806000806115db612f88565b6115e3612f88565b735f0e611dbcb5a4a1dc8ec4c7e1a02a8eb60182f3955073cea3b456c72dae97a256199c24dab28fb4863ed194507338921ab62710300785722cfc538b3cabefb12845935073da93fc20797a06d7273335788a4914a89d3bedaf9250600260405180591061164e5750595b90808252806020026020018201604052509150600082600081518110151561167257fe5b90602001906020020190600681111561168757fe5b9081600681111561169457fe5b8152505060028260018151811015156116a957fe5b9060200190602002019060068111156116be57fe5b908160068111156116cb57fe5b8152505060026040518059106116de5750595b90808252806020026020018201604052509050600181600081518110151561170257fe5b90602001906020020190600681111561171757fe5b9081600681111561172457fe5b81525050600381600181518110151561173957fe5b90602001906020020190600681111561174e57fe5b9081600681111561175b57fe5b8152505061179f846040805190810160405280600281526020017f6a3100000000000000000000000000000000000000000000000000000000000081525084610f3f565b6117df846040805190810160405280600281526020017f6a3200000000000000000000000000000000000000000000000000000000000081525084610f3f565b505050505050565b6117ef612ec3565b6117f7612ed7565b6000611801612f9c565b600460008673ffffffffffffffffffffffffffffffffffffffff1673ffffffffffffffffffffffffffffffffffffffff168152602001908152602001600020608060405190810160405290816000820160009054906101000a900473ffffffffffffffffffffffffffffffffffffffff1673ffffffffffffffffffffffffffffffffffffffff1673ffffffffffffffffffffffffffffffffffffffff168152602001600182018054600181600116156101000203166002900480601f01602080910402602001604051908101604052809291908181526020018280546001816001161561010002031660029004801561193b5780601f106119105761010080835404028352916020019161193b565b820191906000526020600020905b81548152906001019060200180831161191e57829003601f168201915b505050505081526020016002820180548060200260200160405190810160405280929190818152602001828054801561199357602002820191906000526020600020905b81548152602001906001019080831161197f575b505050505081526020016003820160009054906101000a900460ff1660048111156119ba57fe5b60048111156119c557fe5b815250509050806020015181604001518260600151829250819150935093509350509193909250565b6000339050611a008186868686611eb8565b5050505050565b611a0f612ed7565b6009805480602002602001604051908101604052809291908181526020018280548015611a5b57602002820191906000526020600020905b815481526020019060010190808311611a47575b5050505050905090565b611a6d612ed7565b6000611a77612f88565b611a7f612ed7565b600080600080611a8d612ff2565b611a95612f88565b60008060018054039a50600660008e8152602001908152602001600020600401805480602002602001604051908101604052809291908181526020018280548015611b2d57602002820191906000526020600020906000905b82829054906101000a900460ff166006811115611b0757fe5b81526020019060010190602082600001049283019260010382029150808411611aee5790505b505050505099508a8a5102604051805910611b455750595b9080825280602002602001820160405250985060009750600096505b8951871015611e92578987815181101515611b7857fe5b906020019060200201519550600194505b8a85111515611e85576008600086815260200190815260200160002060c06040519081016040529081600082015481526020016001820160009054906101000a900473ffffffffffffffffffffffffffffffffffffffff1673ffffffffffffffffffffffffffffffffffffffff1673ffffffffffffffffffffffffffffffffffffffff168152602001600282018054600181600116156101000203166002900480601f016020809104026020016040519081016040528092919081815260200182805460018160011615610100020316600290048015611caa5780601f10611c7f57610100808354040283529160200191611caa565b820191906000526020600020905b815481529060010190602001808311611c8d57829003601f168201915b5050505050815260200160038201805480602002602001604051908101604052809291908181526020018280548015611d3057602002820191906000526020600020906000905b82829054906101000a900460ff166006811115611d0a57fe5b81526020019060010190602082600001049283019260010382029150808411611cf15790505b5050505050815260200160048201805480602002602001604051908101604052809291908181526020018280548015611dbe57602002820191906000526020600020905b8160009054906101000a900473ffffffffffffffffffffffffffffffffffffffff1673ffffffffffffffffffffffffffffffffffffffff1681526020019060010190808311611d74575b505050505081526020016005820160009054906101000a900460ff166004811115611de557fe5b6004811115611df057fe5b81525050935083606001519250600091505b8251821015611e78578282815181101515611e1957fe5b906020019060200201519050806006811115611e3157fe5b866006811115611e3d57fe5b1415611e6b57848989806001019a50815181101515611e5857fe5b9060200190602002018181525050611e78565b8180600101925050611e02565b8480600101955050611b89565b8680600101975050611b61565b889b505050505050505050505050919050565b6000339050611eb481836112c6565b5050565b6000806000806000815480929190600101919050559250600660008481526020019081526020016000209150828260000181905550878260010160006101000a81548173ffffffffffffffffffffffffffffffffffffffff021916908373ffffffffffffffffffffffffffffffffffffffff16021790555086826002019080519060200190611f48929190612d68565b5085826004019080519060200190611f61929190612de8565b5084826003019080519060200190611f7a929190612d68565b5060008260050160006101000a81548160ff02191690836004811115611f9c57fe5b021790555060078054806001018281611fb59190612e97565b916000526020600020900160008590919091505550600260008973ffffffffffffffffffffffffffffffffffffffff1673ffffffffffffffffffffffffffffffffffffffff16815260200190815260200160002090508060020180548060010182816120219190612e97565b9160005260206000209001600085909190915055508315612046578281600301819055505b5050505050505050565b6000600260008473ffffffffffffffffffffffffffffffffffffffff1673ffffffffffffffffffffffffffffffffffffffff1681526020019081526020016000209050828160000160006101000a81548173ffffffffffffffffffffffffffffffffffffffff021916908373ffffffffffffffffffffffffffffffffffffffff160217905550818160010190805190602001906120ee929190612d68565b5060008160040160006101000a81548160ff0219169083600481111561211057fe5b0217905550600380548060010182816121299190612f48565b9160005260206000209001600085909190916101000a81548173ffffffffffffffffffffffffffffffffffffffff021916908373ffffffffffffffffffffffffffffffffffffffff16021790555050505050565b6000612187612ec3565b61218f612f88565b612197612f74565b60006121a1612ff2565b6008600088815260200190815260200160002060c06040519081016040529081600082015481526020016001820160009054906101000a900473ffffffffffffffffffffffffffffffffffffffff1673ffffffffffffffffffffffffffffffffffffffff1673ffffffffffffffffffffffffffffffffffffffff168152602001600282018054600181600116156101000203166002900480601f0160208091040260200160405190810160405280929190818152602001828054600181600116156101000203166002900480156122b95780601f1061228e576101008083540402835291602001916122b9565b820191906000526020600020905b81548152906001019060200180831161229c57829003601f168201915b505050505081526020016003820180548060200260200160405190810160405280929190818152602001828054801561233f57602002820191906000526020600020906000905b82829054906101000a900460ff16600681111561231957fe5b815260200190600101906020826000010492830192600103820291508084116123005790505b50505050508152602001600482018054806020026020016040519081016040528092919081815260200182805480156123cd57602002820191906000526020600020905b8160009054906101000a900473ffffffffffffffffffffffffffffffffffffffff1673ffffffffffffffffffffffffffffffffffffffff1681526020019060010190808311612383575b505050505081526020016005820160009054906101000a900460ff1660048111156123f457fe5b60048111156123ff57fe5b81525050905080602001518160400151826060015183608001518460a00151839350829250819150955095509550955095505091939590929450565b612443612ed7565b600061244d612f88565b612455612ed7565b600080600080612463612f88565b6000806001600054039950600860008d81526020019081526020016000206003018054806020026020016040519081016040528092919081815260200182805480156124fc57602002820191906000526020600020906000905b82829054906101000a900460ff1660068111156124d657fe5b815260200190600101906020826000010492830192600103820291508084116124bd5790505b5050505050985088518a026040518059106125145750595b9080825280602002602001820160405250975060009650600095505b885186101561268b57888681518110151561254757fe5b906020019060200201519450600193505b898411151561267e57600660008581526020019081526020016000206004018054806020026020016040519081016040528092919081815260200182805480156125ef57602002820191906000526020600020906000905b82829054906101000a900460ff1660068111156125c957fe5b815260200190600101906020826000010492830192600103820291508084116125b05790505b50505050509250600091505b825182101561267157828281518110151561261257fe5b90602001906020020151905084600681111561262a57fe5b81600681111561263657fe5b14156126645783888880600101995081518110151561265157fe5b9060200190602002018181525050612671565b81806001019250506125fb565b8380600101945050612558565b8580600101965050612530565b879a5050505050505050505050919050565b6126a5612ed7565b60006126af612ed7565b6000806126ba612ff2565b6126c2612f88565b60008060018054039750876040518059106126da5750595b9080825280602002602001820160405250965060009550600194505b87851115156129f2576008600086815260200190815260200160002060c06040519081016040529081600082015481526020016001820160009054906101000a900473ffffffffffffffffffffffffffffffffffffffff1673ffffffffffffffffffffffffffffffffffffffff1673ffffffffffffffffffffffffffffffffffffffff168152602001600282018054600181600116156101000203166002900480601f0160208091040260200160405190810160405280929190818152602001828054600181600116156101000203166002900480156128175780601f106127ec57610100808354040283529160200191612817565b820191906000526020600020905b8154815290600101906020018083116127fa57829003601f168201915b505050505081526020016003820180548060200260200160405190810160405280929190818152602001828054801561289d57602002820191906000526020600020906000905b82829054906101000a900460ff16600681111561287757fe5b8152602001906001019060208260000104928301926001038202915080841161285e5790505b505050505081526020016004820180548060200260200160405190810160405280929190818152602001828054801561292b57602002820191906000526020600020905b8160009054906101000a900473ffffffffffffffffffffffffffffffffffffffff1673ffffffffffffffffffffffffffffffffffffffff16815260200190600101908083116128e1575b505050505081526020016005820160009054906101000a900460ff16600481111561295257fe5b600481111561295d57fe5b81525050935083606001519250600091505b82518210156129e557828281518110151561298657fe5b90602001906020020151905080600681111561299e57fe5b8a60068111156129aa57fe5b14156129d8578487878060010198508151811015156129c557fe5b90602001906020020181815250506129e5565b818060010192505061296f565b84806001019550506126f6565b8698505050505050505050919050565b6000612a0c612ec3565b612a14612f88565b612a1c612ec3565b6000612a2661305c565b6006600088815260200190815260200160002060c06040519081016040529081600082015481526020016001820160009054906101000a900473ffffffffffffffffffffffffffffffffffffffff1673ffffffffffffffffffffffffffffffffffffffff1673ffffffffffffffffffffffffffffffffffffffff168152602001600282018054600181600116156101000203166002900480601f016020809104026020016040519081016040528092919081815260200182805460018160011615610100020316600290048015612b3e5780601f10612b1357610100808354040283529160200191612b3e565b820191906000526020600020905b815481529060010190602001808311612b2157829003601f168201915b50505050508152602001600382018054600181600116156101000203166002900480601f016020809104026020016040519081016040528092919081815260200182805460018160011615610100020316600290048015612be05780601f10612bb557610100808354040283529160200191612be0565b820191906000526020600020905b815481529060010190602001808311612bc357829003601f168201915b5050505050815260200160048201805480602002602001604051908101604052809291908181526020018280548015612c6657602002820191906000526020600020906000905b82829054906101000a900460ff166006811115612c4057fe5b81526020019060010190602082600001049283019260010382029150808411612c275790505b505050505081526020016005820160009054906101000a900460ff166004811115612c8d57fe5b6004811115612c9857fe5b81525050905080602001518160400151826080015183606001518460a00151839350829250819150955095509550955095505091939590929450565b612cdc612f74565b6003805480602002602001604051908101604052809291908181526020018280548015612d5e57602002820191906000526020600020905b8160009054906101000a900473ffffffffffffffffffffffffffffffffffffffff1673ffffffffffffffffffffffffffffffffffffffff1681526020019060010190808311612d14575b5050505050905090565b828054600181600116156101000203166002900490600052602060002090601f016020900481019282601f10612da957805160ff1916838001178555612dd7565b82800160010185558215612dd7579182015b82811115612dd6578251825591602001919060010190612dbb565b5b509050612de491906130c6565b5090565b82805482825590600052602060002090601f01602090048101928215612e865791602002820160005b83821115612e5757835183826101000a81548160ff02191690836006811115612e3657fe5b02179055509260200192600101602081600001049283019260010302612e11565b8015612e845782816101000a81549060ff0219169055600101602081600001049283019260010302612e57565b505b509050612e9391906130eb565b5090565b815481835581811511612ebe57818360005260206000209182019101612ebd91906130c6565b5b505050565b602060405190810160405280600081525090565b602060405190810160405280600081525090565b60a060405190810160405280600073ffffffffffffffffffffffffffffffffffffffff168152602001612f1c61311b565b8152602001612f2961312f565b81526020016000815260200160006004811115612f4257fe5b81525090565b815481835581811511612f6f57818360005260206000209182019101612f6e91906130c6565b5b505050565b602060405190810160405280600081525090565b602060405190810160405280600081525090565b608060405190810160405280600073ffffffffffffffffffffffffffffffffffffffff168152602001612fcd61311b565b8152602001612fda61312f565b815260200160006004811115612fec57fe5b81525090565b60c06040519081016040528060008152602001600073ffffffffffffffffffffffffffffffffffffffff16815260200161302a61311b565b8152602001613037613143565b8152602001613044613157565b81526020016000600481111561305657fe5b81525090565b60c06040519081016040528060008152602001600073ffffffffffffffffffffffffffffffffffffffff16815260200161309461311b565b81526020016130a161311b565b81526020016130ae613143565b8152602001600060048111156130c057fe5b81525090565b6130e891905b808211156130e45760008160009055506001016130cc565b5090565b90565b61311891905b8082111561311457600081816101000a81549060ff0219169055506001016130f1565b5090565b90565b602060405190810160405280600081525090565b602060405190810160405280600081525090565b602060405190810160405280600081525090565b6020604051908101604052806000815250905600a165627a7a72305820b822b403b59d2bb7842951736c1f496a91cc808c46642e2cb87b8955956ca0810029",
  "source": "pragma solidity  ^0.4.18;\n\ncontract Market {\n\n    enum Status {ACTIVE, INACTIVE, VACANT, OFFERED, CANCELLED}\n    enum Skill {JAVA, JS, MYSQL, MONGO, SCALA, KOTLIN, OTHER}\n\n    uint profileId = 1;\n    uint jobId = 1;\n\n    mapping (address => Employee) employeeMap;\n    address[] employeeCodes;\n\n    mapping(address => Employer) employerMap;\n    address[] employerCodes;\n\n    mapping(uint => Profile) profileMap;\n    uint[] allProfileIds;\n\n    mapping(uint => Job) jobMap;\n    uint[] allJobIds;\n\n    struct Employee {\n        address code;\n        string name;\n        uint[] profileIds;\n        uint defaultProfileId;\n        Status status;\n    }\n\n    struct Employer {\n        address code;\n        string name;\n        uint[] jobIds;\n        Status status;\n    }\n\n    struct Profile {\n        uint id;\n        address employeeCode;\n        string name;\n        string cvHash;\n        Skill[] skills;\n        Status status;\n    }\n\n    struct Job {\n        uint id;\n        address employerCode;\n        string name;\n        Skill[] requiredSkills;\n        address[] appliedEmployeeCodes;\n        Status status;\n    }\n\n\n    function setEmployee(string _name) public {\n        address _address = msg.sender;\n        setEmployeeWithAddress(_address, _name);\n    }\n    function setEmployeeWithAddress(address _address, string _name) public {\n        Employee storage employee = employeeMap[_address];\n        employee.code = _address;\n        employee.name = _name;\n        employee.status = Status.ACTIVE;\n        employeeCodes.push(_address);\n    }\n    function getEmployee(address _address) view public returns(string, uint[], uint, Status) {\n        Employee memory employee = employeeMap[_address];\n        return(employee.name, employee.profileIds, employee.defaultProfileId, employee.status);\n    }\n    function getEmployeeCodes() view public returns(address[] codes) {\n        return employeeCodes;\n    }\n\n\n    function setEmployer(string _name) public {\n        address _address = msg.sender;\n        setEmployerWithAddress(_address, _name);\n    }\n    function setEmployerWithAddress(address _address, string _name) public {\n        Employer storage employer = employerMap[_address];\n        employer.code = _address;\n        employer.name = _name;\n        employer.status = Status.ACTIVE;\n        employerCodes.push(_address);\n    }\n    function getEmployer(address _address) view public returns(string name, uint[] jobIds, Status status) {\n        Employer memory employer = employerMap[_address];\n        return (employer.name, employer.jobIds, employer.status);\n    }\n    function getEmployerCodes() view public returns(address[]) {\n        return employerCodes;\n    }\n\n\n    function setProfile(string _name, Skill[] _skills, string _cvHash, bool _defaultProfile) public {\n            address _employeeCode = msg.sender;\n            setProfileWithAddress(_employeeCode, _name, _skills, _cvHash, _defaultProfile);\n    }\n    function setProfileWithAddress(address _employeeCode, string _name, Skill[] _skills, string _cvHash, bool _defaultProfile) public {\n        //throw if employee not found\n        uint _id = profileId++;\n        Profile storage profile = profileMap[_id];\n        profile.id = _id;\n        profile.employeeCode = _employeeCode;\n        profile.name = _name;\n        profile.skills = _skills;\n        profile.cvHash = _cvHash;\n        profile.status = Status.ACTIVE;\n        allProfileIds.push(_id);\n        Employee storage employee = employeeMap[_employeeCode];\n        employee.profileIds.push(_id);\n        if(_defaultProfile) {\n            employee.defaultProfileId = _id;\n        }\n    }\n    function getProfile(uint _id) view public returns(address, string, Skill[], string, Status) {\n        Profile memory profile = profileMap[_id];\n        return(profile.employeeCode, profile.name, profile.skills, profile.cvHash, profile.status);\n    }\n    function getAllProfileIds() view public returns(uint[] ids) {\n        return allProfileIds;\n    }\n\n    function setJob(string _name, Skill[] _requiredSkills) public {\n        address _employerCode = msg.sender;\n        setJobWithAddress(_employerCode, _name, _requiredSkills);\n    }\n    function setJobWithAddress(address _employerCode, string _name, Skill[] _requiredSkills) public {\n        uint _id = jobId++;\n        Job storage job = jobMap[_id];\n        job.id = _id;\n        job.employerCode = _employerCode;\n        job.name = _name;\n        job.requiredSkills = _requiredSkills;\n        job.status = Status.VACANT;\n        //appliedEmployeeCodes\n        allJobIds.push(_id);\n        Employer storage employer = employerMap[_employerCode];\n        employer.jobIds.push(_id);\n    }\n    function getJob(uint _id) view public returns(address employerCode, string name, Skill[] requiredSkills, address[] appliedEmployeeCodes, Status status) {\n        Job memory job = jobMap[_id];\n        return(job.employerCode, job.name, job.requiredSkills, job.appliedEmployeeCodes, job.status);\n    }\n    function getAllJobIds() view public returns(uint[] postedJobIds) {\n        return allJobIds;\n    }\n\n    //has duplicates\n    function findEmployeeProfilesByJob(uint _jobId) view public returns(uint[] matchingProfiles) {\n        uint noOfProfiles = profileId -1;\n        Skill[] memory requiredSkills = jobMap[_jobId].requiredSkills;\n        uint[] memory matchingProfileIds = new uint[](noOfProfiles * requiredSkills.length);\n        uint index = 0;\n\n        for(uint r=0; r<requiredSkills.length; r++) {\n            Skill required = requiredSkills[r];\n\n            for(uint p=1; p<=noOfProfiles; p++) {\n\n                Skill[] memory skills = profileMap[p].skills;\n                for(uint s=0; s<skills.length; s++) {\n                    Skill skill = skills[s];\n\n                    if(skill == required) {\n                        matchingProfileIds[index++] = p;\n                        break;\n                    }\n                }\n            }\n        }\n        return matchingProfileIds;\n    }\n\n    //has duplicates\n    function findJobsByProfile(uint _profileId) view public returns(uint[] matchingIds) {\n        uint noOfJobs = jobId -1;\n        Skill[] memory skills = profileMap[_profileId].skills;\n        uint[] memory matchingJobIds = new uint[](skills.length * noOfJobs);\n        uint index = 0;\n\n        for(uint s=0; s<skills.length; s++) {\n            Skill skill = skills[s];\n\n            for(uint j=1; j<=noOfJobs; j++) {\n                Job memory job = jobMap[j];\n\n                Skill[] memory requiredSkills = job.requiredSkills;\n                for(uint m=0; m<requiredSkills.length; m++) {\n                    Skill required = requiredSkills[m];\n\n                    if(skill == required) {\n                        matchingJobIds[index++] = j;\n                        break;\n                    }\n\n                }\n            }\n\n        }\n\n        return matchingJobIds;\n    }\n\n    function findJobsBySkill(Skill _skill) view public returns(uint[] matchingIds) {\n        uint noOfJobs = jobId -1;\n\n        uint[] memory matchingJobIds = new uint[](noOfJobs);\n\n        uint index = 0;\n        for(uint j=1; j<=noOfJobs; j++) {\n            Job memory job = jobMap[j];\n\n            Skill[] memory requiredSkills = job.requiredSkills;\n            for(uint m=0; m<requiredSkills.length; m++) {\n                Skill required = requiredSkills[m];\n\n                if(_skill == required) {\n                    matchingJobIds[index++] = j;\n                    break;\n                }\n\n            }\n        }\n        return matchingJobIds;\n    }\n\n    // function findJobs(uint _profileId) view public returns(uint jobIds) {\n    //     uint[] memory matchingJobIds;\n    //     //uint matchingJobId;\n\n    //     Profile memory profile = profileMap[_profileId];\n    //     Skill[] memory skills = profile.skills;\n\n    //     uint jobCount = 0;\n    //     for(uint s=0; s<skills.length; s++) {\n    //         Skill skill = skills[s];\n\n    //         for(uint j=0; j<allJobIds.length; j++) {\n    //             uint thisJobId = allJobIds[j];\n    //             Job memory job = jobMap[thisJobId];\n\n    //             Skill[] memory requiredSkills = job.requiredSkills;\n    //             for(uint m=0; m<requiredSkills.length; m++) {\n    //                 Skill required = requiredSkills[m];\n\n    //                 if(skill == required) {\n\n    //                     matchingJobId = thisJobId;\n    //                     //matchingJobIds[jobCount++] = thisJobId;\n    //                     //break;\n    //                 }\n\n    //             }\n\n    //         }\n    //     }\n    //     //matchingJobIds[0] = matchingJobId;\n    //     //return matchingJobIds;\n    //     //uint storage x = 11;\n    //     return 11;\n    // }\n\n\n    //test\n    function testSetInitialData() public {\n\n        // testrpc\n        address addressE1 = 0x5f0e611dbcb5a4a1dc8ec4c7e1a02a8eb60182f3;\n        address addressE2 = 0xcea3b456c72dae97a256199c24dab28fb4863ed1;\n        address addressR1 = 0x38921ab62710300785722cfc538b3cabefb12845;\n        address addressR2 = 0xda93fc20797a06d7273335788a4914a89d3bedaf;\n\n        /* remix\n        address addressE1 = 0xca35b7d915458ef540ade6068dfe2f44e8fa733c;\n        address addressE2 = 0x4b0897b0513fdc7c541b6d9d7e929c4e5364d2db;\n        address addressR1 = 0x14723a09acff6d2a60dcdf7aa4aff308fddc160c;\n        address addressR2 = 0x583031d1113ad414f02576bd6afabfb302140225;\n        */\n\n        //setEmployeeWithAddress(addressE1, \"e1\");\n        //setEmployerWithAddress(addressR1, \"r1\");\n\n        Skill[] memory skills1 = new Skill[](2);\n        skills1[0] = Skill.JAVA;\n        skills1[1] = Skill.MYSQL;\n\n        Skill[] memory skills2 = new Skill[](2);\n        skills2[0] = Skill.JS;\n        skills2[1] = Skill.MONGO;\n\n        //setProfileWithAddress(addressE1, \"p1\", skills1);\n        //setProfileWithAddress(addressE1, \"p2\", skills2);\n\n        setJobWithAddress(addressR1, \"j1\", skills1);\n        setJobWithAddress(addressR1, \"j2\", skills1);\n    }\n\n    function uintToSkill(uint _uint) pure public returns(string skill) {\n        if(_uint == uint(Skill.JAVA))\n            return \"JAVA\";\n        if(_uint == uint(Skill.JS))\n            return \"JS\";\n        return \"MONGO\";\n    }\n\n}",
  "sourcePath": "/home/janarthan/practice/yit/Blockchain-JobMarket/contracts/Market.sol",
  "compiler": {
    "name": "solc",
    "version": "0.4.19+commit.c4cbbb05.Emscripten.clang"
  },
  "schemaVersion": "2.0.0",
  "updatedAt": "2018-03-22T08:03:39.200Z"
}