{
  "contractName": "Market",
  "abi": [
    {
      "constant": false,
      "inputs": [
        {
          "name": "_address",
          "type": "address"
        },
        {
          "name": "_name",
          "type": "string"
        },
        {
          "name": "_email",
          "type": "string"
        },
        {
          "name": "_phoneNo",
          "type": "string"
        },
        {
          "name": "_statement",
          "type": "string"
        },
        {
          "name": "_rate",
          "type": "string"
        }
      ],
      "name": "setEmployeeWithAddress",
      "outputs": [],
      "payable": false,
      "stateMutability": "nonpayable",
      "type": "function"
    },
    {
      "constant": true,
      "inputs": [
        {
          "name": "_address",
          "type": "address"
        },
        {
          "name": "_name",
          "type": "string"
        },
        {
          "name": "_email",
          "type": "string"
        },
        {
          "name": "_phoneNo",
          "type": "string"
        },
        {
          "name": "_statement",
          "type": "string"
        },
        {
          "name": "_rate",
          "type": "string"
        }
      ],
      "name": "getEmployee",
      "outputs": [
        {
          "name": "",
          "type": "string"
        },
        {
          "name": "",
          "type": "string"
        },
        {
          "name": "",
          "type": "string"
        },
        {
          "name": "",
          "type": "string"
        },
        {
          "name": "",
          "type": "string"
        },
        {
          "name": "",
          "type": "uint256[]"
        },
        {
          "name": "",
          "type": "uint256"
        },
        {
          "name": "",
          "type": "uint8"
        }
      ],
      "payable": false,
      "stateMutability": "view",
      "type": "function"
    },
    {
      "constant": false,
      "inputs": [
        {
          "name": "_address",
          "type": "address"
        },
        {
          "name": "_name",
          "type": "string"
        },
        {
          "name": "_email",
          "type": "string"
        },
        {
          "name": "_company",
          "type": "string"
        },
        {
          "name": "_add",
          "type": "string"
        },
        {
          "name": "_country",
          "type": "string"
        }
      ],
      "name": "setEmployerWithAddress",
      "outputs": [],
      "payable": false,
      "stateMutability": "nonpayable",
      "type": "function"
    },
    {
      "constant": false,
      "inputs": [
        {
          "name": "_name",
          "type": "string"
        },
        {
          "name": "_email",
          "type": "string"
        },
        {
          "name": "_company",
          "type": "string"
        },
        {
          "name": "_add",
          "type": "string"
        },
        {
          "name": "_country",
          "type": "string"
        }
      ],
      "name": "setEmployer",
      "outputs": [
        {
          "name": "",
          "type": "string"
        },
        {
          "name": "",
          "type": "uint256[]"
        },
        {
          "name": "",
          "type": "uint256"
        },
        {
          "name": "",
          "type": "uint8"
        }
      ],
      "payable": false,
      "stateMutability": "nonpayable",
      "type": "function"
    },
    {
      "constant": true,
      "inputs": [
        {
          "name": "_address",
          "type": "address"
        },
        {
          "name": "_name",
          "type": "string"
        }
      ],
      "name": "getAllProfileIds",
      "outputs": [
        {
          "name": "ids",
          "type": "uint256[]"
        }
      ],
      "payable": false,
      "stateMutability": "view",
      "type": "function"
    },
    {
      "constant": true,
      "inputs": [],
      "name": "getEmployerCodes",
      "outputs": [
        {
          "name": "",
          "type": "address[]"
        }
      ],
      "payable": false,
      "stateMutability": "view",
      "type": "function"
    },
    {
      "constant": false,
      "inputs": [
        {
          "name": "_JobTitle",
          "type": "string"
        },
        {
          "name": "_requiredSkills",
          "type": "uint8[]"
        },
        {
          "name": "_hourlyRate",
          "type": "string"
        },
        {
          "name": "_Description",
          "type": "string"
        }
      ],
      "name": "setJob",
      "outputs": [
        {
          "name": "",
          "type": "address[]"
        }
      ],
      "payable": false,
      "stateMutability": "nonpayable",
      "type": "function"
    },
    {
      "constant": true,
      "inputs": [
        {
          "name": "_uint",
          "type": "uint256"
        }
      ],
      "name": "uintToSkill",
      "outputs": [
        {
          "name": "skill",
          "type": "string"
        }
      ],
      "payable": false,
      "stateMutability": "pure",
      "type": "function"
    },
    {
      "constant": false,
      "inputs": [
        {
          "name": "_jobId",
          "type": "uint256"
        }
      ],
      "name": "updateJobAppliedEmployees",
      "outputs": [],
      "payable": false,
      "stateMutability": "nonpayable",
      "type": "function"
    },
    {
      "constant": false,
      "inputs": [],
      "name": "testSetInitialData",
      "outputs": [],
      "payable": false,
      "stateMutability": "nonpayable",
      "type": "function"
    },
    {
      "constant": true,
      "inputs": [
        {
          "name": "_address",
          "type": "address"
        }
      ],
      "name": "getEmployer",
      "outputs": [
        {
          "name": "name",
          "type": "string"
        },
        {
          "name": "email",
          "type": "string"
        },
        {
          "name": "company",
          "type": "string"
        },
        {
          "name": "add",
          "type": "string"
        },
        {
          "name": "country",
          "type": "string"
        },
        {
          "name": "jobIds",
          "type": "uint256[]"
        },
        {
          "name": "status",
          "type": "uint8"
        }
      ],
      "payable": false,
      "stateMutability": "view",
      "type": "function"
    },
    {
      "constant": false,
      "inputs": [
        {
          "name": "_name",
          "type": "string"
        },
        {
          "name": "_skills",
          "type": "uint8[]"
        },
        {
          "name": "_cvHash",
          "type": "string"
        },
        {
          "name": "_defaultProfile",
          "type": "bool"
        }
      ],
      "name": "setProfile",
      "outputs": [],
      "payable": false,
      "stateMutability": "nonpayable",
      "type": "function"
    },
    {
      "constant": true,
      "inputs": [],
      "name": "getAllJobIds",
      "outputs": [
        {
          "name": "postedJobIds",
          "type": "uint256[]"
        }
      ],
      "payable": false,
      "stateMutability": "view",
      "type": "function"
    },
    {
      "constant": true,
      "inputs": [
        {
          "name": "_profileId",
          "type": "uint256"
        }
      ],
      "name": "findJobsByProfile",
      "outputs": [
        {
          "name": "matchingIds",
          "type": "uint256[]"
        }
      ],
      "payable": false,
      "stateMutability": "view",
      "type": "function"
    },
    {
      "constant": false,
      "inputs": [
        {
          "name": "_employerCode",
          "type": "address"
        },
        {
          "name": "_JobTitle",
          "type": "string"
        },
        {
          "name": "_requiredSkills",
          "type": "uint8[]"
        },
        {
          "name": "_hourlyRate",
          "type": "string"
        },
        {
          "name": "_Description",
          "type": "string"
        }
      ],
      "name": "setJobWithAddress",
      "outputs": [],
      "payable": false,
      "stateMutability": "nonpayable",
      "type": "function"
    },
    {
      "constant": true,
      "inputs": [],
      "name": "findJobsByEmployee",
      "outputs": [
        {
          "name": "",
          "type": "uint256[]"
        }
      ],
      "payable": false,
      "stateMutability": "view",
      "type": "function"
    },
    {
      "constant": false,
      "inputs": [
        {
          "name": "_employeeCode",
          "type": "address"
        },
        {
          "name": "_name",
          "type": "string"
        },
        {
          "name": "_skills",
          "type": "uint8[]"
        },
        {
          "name": "_cvHash",
          "type": "string"
        },
        {
          "name": "_defaultProfile",
          "type": "bool"
        }
      ],
      "name": "setProfileWithAddress",
      "outputs": [],
      "payable": false,
      "stateMutability": "nonpayable",
      "type": "function"
    },
    {
      "constant": true,
      "inputs": [
        {
          "name": "_id",
          "type": "uint256"
        },
        {
          "name": "_name",
          "type": "string"
        }
      ],
      "name": "getJob",
      "outputs": [
        {
          "name": "",
          "type": "address"
        },
        {
          "name": "",
          "type": "string"
        },
        {
          "name": "",
          "type": "uint8[]"
        },
        {
          "name": "",
          "type": "string"
        },
        {
          "name": "",
          "type": "string"
        },
        {
          "name": "",
          "type": "address[]"
        },
        {
          "name": "",
          "type": "uint8"
        }
      ],
      "payable": false,
      "stateMutability": "view",
      "type": "function"
    },
    {
      "constant": false,
      "inputs": [
        {
          "name": "_name",
          "type": "string"
        },
        {
          "name": "_email",
          "type": "string"
        },
        {
          "name": "_phoneNo",
          "type": "string"
        },
        {
          "name": "_statement",
          "type": "string"
        },
        {
          "name": "_rate",
          "type": "string"
        }
      ],
      "name": "setEmployee",
      "outputs": [
        {
          "name": "",
          "type": "address"
        },
        {
          "name": "",
          "type": "string"
        },
        {
          "name": "",
          "type": "uint8[]"
        },
        {
          "name": "",
          "type": "address[]"
        },
        {
          "name": "",
          "type": "uint8"
        }
      ],
      "payable": false,
      "stateMutability": "nonpayable",
      "type": "function"
    },
    {
      "constant": true,
      "inputs": [
        {
          "name": "_jobId",
          "type": "uint256"
        }
      ],
      "name": "findEmployeeProfilesByJob",
      "outputs": [
        {
          "name": "matchingProfiles",
          "type": "uint256[]"
        }
      ],
      "payable": false,
      "stateMutability": "view",
      "type": "function"
    },
    {
      "constant": true,
      "inputs": [
        {
          "name": "_skill",
          "type": "uint8"
        }
      ],
      "name": "findJobsBySkill",
      "outputs": [
        {
          "name": "matchingIds",
          "type": "uint256[]"
        }
      ],
      "payable": false,
      "stateMutability": "view",
      "type": "function"
    },
    {
      "constant": true,
      "inputs": [
        {
          "name": "_id",
          "type": "uint256"
        }
      ],
      "name": "getProfile",
      "outputs": [
        {
          "name": "",
          "type": "address"
        },
        {
          "name": "",
          "type": "string"
        },
        {
          "name": "",
          "type": "uint8[]"
        },
        {
          "name": "",
          "type": "string"
        },
        {
          "name": "",
          "type": "uint8"
        }
      ],
      "payable": false,
      "stateMutability": "view",
      "type": "function"
    },
    {
      "constant": true,
      "inputs": [],
      "name": "getEmployeeCodes",
      "outputs": [
        {
          "name": "codes",
          "type": "address[]"
        }
      ],
      "payable": false,
      "stateMutability": "view",
      "type": "function"
    }
  ],
  "bytecode": "0x6060604052600160005560018055341561001857600080fd5b614cad806100276000396000f300606060405260043610610133576000357c0100000000000000000000000000000000000000000000000000000000900463ffffffff16806320fc28811461013857806332648e09146102c0578063382f03e914610586578063563333261461070e5780635f317ace14610877578063633e0c23146108e15780636754a2291461094b578063689943b014610a6e5780636df89ff714610b0a578063701486c914610b2d5780637560d4ce14610b425780637c2911d914610e0157806388c8837f14610eec57806389fbc0c214610f5657806392822f5214610fce5780639a76affa14611110578063ae3887c21461117a578063bf22c45714611284578063cbcf2295146114d0578063d1678e6a14611639578063dbe98dda146116b1578063f08f4f641461172c578063ff66aa62146118c4575b600080fd5b341561014357600080fd5b6102be600480803573ffffffffffffffffffffffffffffffffffffffff1690602001909190803590602001908201803590602001908080601f0160208091040260200160405190810160405280939291908181526020018383808284378201915050505050509190803590602001908201803590602001908080601f0160208091040260200160405190810160405280939291908181526020018383808284378201915050505050509190803590602001908201803590602001908080601f0160208091040260200160405190810160405280939291908181526020018383808284378201915050505050509190803590602001908201803590602001908080601f0160208091040260200160405190810160405280939291908181526020018383808284378201915050505050509190803590602001908201803590602001908080601f0160208091040260200160405190810160405280939291908181526020018383808284378201915050505050509190505061192e565b005b34156102cb57600080fd5b6102f7600480803573ffffffffffffffffffffffffffffffffffffffff16906020019091905050611ac3565b6040518080602001806020018060200180602001806020018060200189815260200188600481111561032557fe5b60ff16815260200187810387528f818151815260200191508051906020019080838360005b8381101561036557808201518184015260208101905061034a565b50505050905090810190601f1680156103925780820380516001836020036101000a031916815260200191505b5087810386528e818151815260200191508051906020019080838360005b838110156103cb5780820151818401526020810190506103b0565b50505050905090810190601f1680156103f85780820380516001836020036101000a031916815260200191505b5087810385528d818151815260200191508051906020019080838360005b83811015610431578082015181840152602081019050610416565b50505050905090810190601f16801561045e5780820380516001836020036101000a031916815260200191505b5087810384528c818151815260200191508051906020019080838360005b8381101561049757808201518184015260208101905061047c565b50505050905090810190601f1680156104c45780820380516001836020036101000a031916815260200191505b5087810383528b818151815260200191508051906020019080838360005b838110156104fd5780820151818401526020810190506104e2565b50505050905090810190601f16801561052a5780820380516001836020036101000a031916815260200191505b5087810382528a818151815260200191508051906020019060200280838360005b8381101561056657808201518184015260208101905061054b565b505050509050019e50505050505050505050505050505060405180910390f35b341561059157600080fd5b61070c600480803573ffffffffffffffffffffffffffffffffffffffff1690602001909190803590602001908201803590602001908080601f0160208091040260200160405190810160405280939291908181526020018383808284378201915050505050509190803590602001908201803590602001908080601f0160208091040260200160405190810160405280939291908181526020018383808284378201915050505050509190803590602001908201803590602001908080601f0160208091040260200160405190810160405280939291908181526020018383808284378201915050505050509190803590602001908201803590602001908080601f0160208091040260200160405190810160405280939291908181526020018383808284378201915050505050509190803590602001908201803590602001908080601f01602080910402602001604051908101604052809392919081815260200183838082843782019150505050505091905050611fbc565b005b341561071957600080fd5b610875600480803590602001908201803590602001908080601f0160208091040260200160405190810160405280939291908181526020018383808284378201915050505050509190803590602001908201803590602001908080601f0160208091040260200160405190810160405280939291908181526020018383808284378201915050505050509190803590602001908201803590602001908080601f0160208091040260200160405190810160405280939291908181526020018383808284378201915050505050509190803590602001908201803590602001908080601f0160208091040260200160405190810160405280939291908181526020018383808284378201915050505050509190803590602001908201803590602001908080601f01602080910402602001604051908101604052809392919081815260200183838082843782019150505050505091905050612138565b005b341561088257600080fd5b61088a612153565b6040518080602001828103825283818151815260200191508051906020019060200280838360005b838110156108cd5780820151818401526020810190506108b2565b505050509050019250505060405180910390f35b34156108ec57600080fd5b6108f46121b1565b6040518080602001828103825283818151815260200191508051906020019060200280838360005b8381101561093757808201518184015260208101905061091c565b505050509050019250505060405180910390f35b341561095657600080fd5b610a6c600480803590602001908201803590602001908080601f016020809104026020016040519081016040528093929190818152602001838380828437820191505050505050919080359060200190820180359060200190808060200260200160405190810160405280939291908181526020018383602002808284378201915050505050509190803590602001908201803590602001908080601f0160208091040260200160405190810160405280939291908181526020018383808284378201915050505050509190803590602001908201803590602001908080601f01602080910402602001604051908101604052809392919081815260200183838082843782019150505050505091905050612245565b005b3415610a7957600080fd5b610a8f600480803590602001909190505061225e565b6040518080602001828103825283818151815260200191508051906020019080838360005b83811015610acf578082015181840152602081019050610ab4565b50505050905090810190601f168015610afc5780820380516001836020036101000a031916815260200191505b509250505060405180910390f35b3415610b1557600080fd5b610b2b6004808035906020019091905050612346565b005b3415610b3857600080fd5b610b406123c6565b005b3415610b4d57600080fd5b610b79600480803573ffffffffffffffffffffffffffffffffffffffff16906020019091905050612560565b60405180806020018060200180602001806020018060200180602001886004811115610ba157fe5b60ff16815260200187810387528e818151815260200191508051906020019080838360005b83811015610be1578082015181840152602081019050610bc6565b50505050905090810190601f168015610c0e5780820380516001836020036101000a031916815260200191505b5087810386528d818151815260200191508051906020019080838360005b83811015610c47578082015181840152602081019050610c2c565b50505050905090810190601f168015610c745780820380516001836020036101000a031916815260200191505b5087810385528c818151815260200191508051906020019080838360005b83811015610cad578082015181840152602081019050610c92565b50505050905090810190601f168015610cda5780820380516001836020036101000a031916815260200191505b5087810384528b818151815260200191508051906020019080838360005b83811015610d13578082015181840152602081019050610cf8565b50505050905090810190601f168015610d405780820380516001836020036101000a031916815260200191505b5087810383528a818151815260200191508051906020019080838360005b83811015610d79578082015181840152602081019050610d5e565b50505050905090810190601f168015610da65780820380516001836020036101000a031916815260200191505b50878103825289818151815260200191508051906020019060200280838360005b83811015610de2578082015181840152602081019050610dc7565b505050509050019d505050505050505050505050505060405180910390f35b3415610e0c57600080fd5b610eea600480803590602001908201803590602001908080601f016020809104026020016040519081016040528093929190818152602001838380828437820191505050505050919080359060200190820180359060200190808060200260200160405190810160405280939291908181526020018383602002808284378201915050505050509190803590602001908201803590602001908080601f016020809104026020016040519081016040528093929190818152602001838380828437820191505050505050919080351515906020019091905050612a3c565b005b3415610ef757600080fd5b610eff612a55565b6040518080602001828103825283818151815260200191508051906020019060200280838360005b83811015610f42578082015181840152602081019050610f27565b505050509050019250505060405180910390f35b3415610f6157600080fd5b610f776004808035906020019091905050612ab3565b6040518080602001828103825283818151815260200191508051906020019060200280838360005b83811015610fba578082015181840152602081019050610f9f565b505050509050019250505060405180910390f35b3415610fd957600080fd5b61110e600480803573ffffffffffffffffffffffffffffffffffffffff1690602001909190803590602001908201803590602001908080601f016020809104026020016040519081016040528093929190818152602001838380828437820191505050505050919080359060200190820180359060200190808060200260200160405190810160405280939291908181526020018383602002808284378201915050505050509190803590602001908201803590602001908080601f0160208091040260200160405190810160405280939291908181526020018383808284378201915050505050509190803590602001908201803590602001908080601f01602080910402602001604051908101604052809392919081815260200183838082843782019150505050505091905050613038565b005b341561111b57600080fd5b6111236131da565b6040518080602001828103825283818151815260200191508051906020019060200280838360005b8381101561116657808201518184015260208101905061114b565b505050509050019250505060405180910390f35b341561118557600080fd5b611282600480803573ffffffffffffffffffffffffffffffffffffffff1690602001909190803590602001908201803590602001908080601f016020809104026020016040519081016040528093929190818152602001838380828437820191505050505050919080359060200190820180359060200190808060200260200160405190810160405280939291908181526020018383602002808284378201915050505050509190803590602001908201803590602001908080601f0160208091040260200160405190810160405280939291908181526020018383808284378201915050505050509190803515159060200190919050506137a4565b005b341561128f57600080fd5b6112a5600480803590602001909190505061393c565b604051808873ffffffffffffffffffffffffffffffffffffffff1673ffffffffffffffffffffffffffffffffffffffff16815260200180602001806020018060200180602001806020018760048111156112fb57fe5b60ff16815260200186810386528c818151815260200191508051906020019080838360005b8381101561133b578082015181840152602081019050611320565b50505050905090810190601f1680156113685780820380516001836020036101000a031916815260200191505b5086810385528b818151815260200191508051906020019060200280838360005b838110156113a4578082015181840152602081019050611389565b5050505090500186810384528a818151815260200191508051906020019080838360005b838110156113e35780820151818401526020810190506113c8565b50505050905090810190601f1680156114105780820380516001836020036101000a031916815260200191505b50868103835289818151815260200191508051906020019080838360005b8381101561144957808201518184015260208101905061142e565b50505050905090810190601f1680156114765780820380516001836020036101000a031916815260200191505b50868103825288818151815260200191508051906020019060200280838360005b838110156114b2578082015181840152602081019050611497565b505050509050019c5050505050505050505050505060405180910390f35b34156114db57600080fd5b611637600480803590602001908201803590602001908080601f0160208091040260200160405190810160405280939291908181526020018383808284378201915050505050509190803590602001908201803590602001908080601f0160208091040260200160405190810160405280939291908181526020018383808284378201915050505050509190803590602001908201803590602001908080601f0160208091040260200160405190810160405280939291908181526020018383808284378201915050505050509190803590602001908201803590602001908080601f0160208091040260200160405190810160405280939291908181526020018383808284378201915050505050509190803590602001908201803590602001908080601f01602080910402602001604051908101604052809392919081815260200183838082843782019150505050505091905050613d65565b005b341561164457600080fd5b61165a6004808035906020019091905050613d80565b6040518080602001828103825283818151815260200191508051906020019060200280838360005b8381101561169d578082015181840152602081019050611682565b505050509050019250505060405180910390f35b34156116bc57600080fd5b6116d5600480803560ff16906020019091905050613fe2565b6040518080602001828103825283818151815260200191508051906020019060200280838360005b838110156117185780820151818401526020810190506116fd565b505050509050019250505060405180910390f35b341561173757600080fd5b61174d600480803590602001909190505061448c565b604051808673ffffffffffffffffffffffffffffffffffffffff1673ffffffffffffffffffffffffffffffffffffffff16815260200180602001806020018060200185600481111561179b57fe5b60ff168152602001848103845288818151815260200191508051906020019080838360005b838110156117db5780820151818401526020810190506117c0565b50505050905090810190601f1680156118085780820380516001836020036101000a031916815260200191505b50848103835287818151815260200191508051906020019060200280838360005b83811015611844578082015181840152602081019050611829565b50505050905001848103825286818151815260200191508051906020019080838360005b83811015611883578082015181840152602081019050611868565b50505050905090810190601f1680156118b05780820380516001836020036101000a031916815260200191505b509850505050505050505060405180910390f35b34156118cf57600080fd5b6118d761475e565b6040518080602001828103825283818151815260200191508051906020019060200280838360005b8381101561191a5780820151818401526020810190506118ff565b505050509050019250505060405180910390f35b6000600260008873ffffffffffffffffffffffffffffffffffffffff1673ffffffffffffffffffffffffffffffffffffffff1681526020019081526020016000209050868160000160006101000a81548173ffffffffffffffffffffffffffffffffffffffff021916908373ffffffffffffffffffffffffffffffffffffffff160217905550858160010190805190602001906119cc9291906147f2565b50848160020190805190602001906119e59291906147f2565b50838160030190805190602001906119fe9291906147f2565b5082816004019080519060200190611a179291906147f2565b5081816005019080519060200190611a309291906147f2565b5060008160090160006101000a81548160ff02191690836004811115611a5257fe5b021790555060038054806001018281611a6b9190614872565b9160005260206000209001600089909190916101000a81548173ffffffffffffffffffffffffffffffffffffffff021916908373ffffffffffffffffffffffffffffffffffffffff1602179055505050505050505050565b611acb61489e565b611ad361489e565b611adb61489e565b611ae361489e565b611aeb61489e565b611af36148b2565b600080611afe6148c6565b600260008b73ffffffffffffffffffffffffffffffffffffffff1673ffffffffffffffffffffffffffffffffffffffff16815260200190815260200160002061014060405190810160405290816000820160009054906101000a900473ffffffffffffffffffffffffffffffffffffffff1673ffffffffffffffffffffffffffffffffffffffff1673ffffffffffffffffffffffffffffffffffffffff168152602001600182018054600181600116156101000203166002900480601f016020809104026020016040519081016040528092919081815260200182805460018160011615610100020316600290048015611c395780601f10611c0e57610100808354040283529160200191611c39565b820191906000526020600020905b815481529060010190602001808311611c1c57829003601f168201915b50505050508152602001600282018054600181600116156101000203166002900480601f016020809104026020016040519081016040528092919081815260200182805460018160011615610100020316600290048015611cdb5780601f10611cb057610100808354040283529160200191611cdb565b820191906000526020600020905b815481529060010190602001808311611cbe57829003601f168201915b50505050508152602001600382018054600181600116156101000203166002900480601f016020809104026020016040519081016040528092919081815260200182805460018160011615610100020316600290048015611d7d5780601f10611d5257610100808354040283529160200191611d7d565b820191906000526020600020905b815481529060010190602001808311611d6057829003601f168201915b50505050508152602001600482018054600181600116156101000203166002900480601f016020809104026020016040519081016040528092919081815260200182805460018160011615610100020316600290048015611e1f5780601f10611df457610100808354040283529160200191611e1f565b820191906000526020600020905b815481529060010190602001808311611e0257829003601f168201915b50505050508152602001600582018054600181600116156101000203166002900480601f016020809104026020016040519081016040528092919081815260200182805460018160011615610100020316600290048015611ec15780601f10611e9657610100808354040283529160200191611ec1565b820191906000526020600020905b815481529060010190602001808311611ea457829003601f168201915b5050505050815260200160068201805480602002602001604051908101604052809291908181526020018280548015611f1957602002820191906000526020600020905b815481526020019060010190808311611f05575b5050505050815260200160078201548152602001600882015481526020016009820160009054906101000a900460ff166004811115611f5457fe5b6004811115611f5f57fe5b81525050905080602001518160400151826060015183608001518460a001518560c001518660e001518761012001518797508696508595508494508393508292509850985098509850985098509850985050919395975091939597565b6000600460008873ffffffffffffffffffffffffffffffffffffffff1673ffffffffffffffffffffffffffffffffffffffff1681526020019081526020016000209050868160000160006101000a81548173ffffffffffffffffffffffffffffffffffffffff021916908373ffffffffffffffffffffffffffffffffffffffff1602179055508481600201908051906020019061205a9291906147f2565b50838160030190805190602001906120739291906147f2565b508281600401908051906020019061208c9291906147f2565b50818160050190805190602001906120a59291906147f2565b5060008160070160006101000a81548160ff021916908360048111156120c757fe5b0217905550600580548060010182816120e09190614872565b9160005260206000209001600089909190916101000a81548173ffffffffffffffffffffffffffffffffffffffff021916908373ffffffffffffffffffffffffffffffffffffffff1602179055505050505050505050565b600033905061214b818787878787611fbc565b505050505050565b61215b6148b2565b60078054806020026020016040519081016040528092919081815260200182805480156121a757602002820191906000526020600020905b815481526020019060010190808311612193575b5050505050905090565b6121b961495f565b600580548060200260200160405190810160405280929190818152602001828054801561223b57602002820191906000526020600020905b8160009054906101000a900473ffffffffffffffffffffffffffffffffffffffff1673ffffffffffffffffffffffffffffffffffffffff16815260200190600101908083116121f1575b5050505050905090565b60003390506122578186868686613038565b5050505050565b61226661489e565b6000600681111561227357fe5b8214156122b7576040805190810160405280600481526020017f4a415641000000000000000000000000000000000000000000000000000000008152509050612341565b600160068111156122c457fe5b821415612308576040805190810160405280600281526020017f4a530000000000000000000000000000000000000000000000000000000000008152509050612341565b6040805190810160405280600581526020017f4d4f4e474f00000000000000000000000000000000000000000000000000000081525090505b919050565b60006008600083815260200190815260200160002090508060030180548060010182816123739190614872565b9160005260206000209001600033909190916101000a81548173ffffffffffffffffffffffffffffffffffffffff021916908373ffffffffffffffffffffffffffffffffffffffff160217905550505050565b6000806000806123d4614973565b6123dc614973565b735f0e611dbcb5a4a1dc8ec4c7e1a02a8eb60182f3955073cea3b456c72dae97a256199c24dab28fb4863ed194507338921ab62710300785722cfc538b3cabefb12845935073da93fc20797a06d7273335788a4914a89d3bedaf925060026040518059106124475750595b90808252806020026020018201604052509150600082600081518110151561246b57fe5b90602001906020020190600681111561248057fe5b9081600681111561248d57fe5b8152505060028260018151811015156124a257fe5b9060200190602002019060068111156124b757fe5b908160068111156124c457fe5b8152505060026040518059106124d75750595b9080825280602002602001820160405250905060018160008151811015156124fb57fe5b90602001906020020190600681111561251057fe5b9081600681111561251d57fe5b81525050600381600181518110151561253257fe5b90602001906020020190600681111561254757fe5b9081600681111561255457fe5b81525050505050505050565b61256861489e565b61257061489e565b61257861489e565b61258061489e565b61258861489e565b6125906148b2565b600061259a614987565b600460008a73ffffffffffffffffffffffffffffffffffffffff1673ffffffffffffffffffffffffffffffffffffffff16815260200190815260200160002061010060405190810160405290816000820160009054906101000a900473ffffffffffffffffffffffffffffffffffffffff1673ffffffffffffffffffffffffffffffffffffffff1673ffffffffffffffffffffffffffffffffffffffff168152602001600182018054600181600116156101000203166002900480601f0160208091040260200160405190810160405280929190818152602001828054600181600116156101000203166002900480156126d55780601f106126aa576101008083540402835291602001916126d5565b820191906000526020600020905b8154815290600101906020018083116126b857829003601f168201915b50505050508152602001600282018054600181600116156101000203166002900480601f0160208091040260200160405190810160405280929190818152602001828054600181600116156101000203166002900480156127775780601f1061274c57610100808354040283529160200191612777565b820191906000526020600020905b81548152906001019060200180831161275a57829003601f168201915b50505050508152602001600382018054600181600116156101000203166002900480601f0160208091040260200160405190810160405280929190818152602001828054600181600116156101000203166002900480156128195780601f106127ee57610100808354040283529160200191612819565b820191906000526020600020905b8154815290600101906020018083116127fc57829003601f168201915b50505050508152602001600482018054600181600116156101000203166002900480601f0160208091040260200160405190810160405280929190818152602001828054600181600116156101000203166002900480156128bb5780601f10612890576101008083540402835291602001916128bb565b820191906000526020600020905b81548152906001019060200180831161289e57829003601f168201915b50505050508152602001600582018054600181600116156101000203166002900480601f01602080910402602001604051908101604052809291908181526020018280546001816001161561010002031660029004801561295d5780601f106129325761010080835404028352916020019161295d565b820191906000526020600020905b81548152906001019060200180831161294057829003601f168201915b50505050508152602001600682018054806020026020016040519081016040528092919081815260200182805480156129b557602002820191906000526020600020905b8154815260200190600101908083116129a1575b505050505081526020016007820160009054906101000a900460ff1660048111156129dc57fe5b60048111156129e757fe5b81525050905080602001518160400151826060015183608001518460a001518560c001518660e00151869650859550849450839350829250819150975097509750975097509750975050919395979092949650565b6000339050612a4e81868686866137a4565b5050505050565b612a5d6148b2565b6009805480602002602001604051908101604052809291908181526020018280548015612aa957602002820191906000526020600020905b815481526020019060010190808311612a95575b5050505050905090565b612abb6148b2565b6000612ac5614973565b612acd6148b2565b600080600080612adb614a12565b612ae3614973565b60008060018054039a50600660008e8152602001908152602001600020600401805480602002602001604051908101604052809291908181526020018280548015612b7b57602002820191906000526020600020906000905b82829054906101000a900460ff166006811115612b5557fe5b81526020019060010190602082600001049283019260010382029150808411612b3c5790505b505050505099508a8a5102604051805910612b935750595b9080825280602002602001820160405250985060009750600096505b8951871015613025578987815181101515612bc657fe5b906020019060200201519550600194505b8a8511151561301857600860008681526020019081526020016000206101006040519081016040529081600082015481526020016001820160009054906101000a900473ffffffffffffffffffffffffffffffffffffffff1673ffffffffffffffffffffffffffffffffffffffff1673ffffffffffffffffffffffffffffffffffffffff16815260200160028201805480602002602001604051908101604052809291908181526020018280548015612cdd57602002820191906000526020600020906000905b82829054906101000a900460ff166006811115612cb757fe5b81526020019060010190602082600001049283019260010382029150808411612c9e5790505b5050505050815260200160038201805480602002602001604051908101604052809291908181526020018280548015612d6b57602002820191906000526020600020905b8160009054906101000a900473ffffffffffffffffffffffffffffffffffffffff1673ffffffffffffffffffffffffffffffffffffffff1681526020019060010190808311612d21575b505050505081526020016004820160009054906101000a900460ff166004811115612d9257fe5b6004811115612d9d57fe5b8152602001600582018054600181600116156101000203166002900480601f016020809104026020016040519081016040528092919081815260200182805460018160011615610100020316600290048015612e3a5780601f10612e0f57610100808354040283529160200191612e3a565b820191906000526020600020905b815481529060010190602001808311612e1d57829003601f168201915b50505050508152602001600682018054600181600116156101000203166002900480601f016020809104026020016040519081016040528092919081815260200182805460018160011615610100020316600290048015612edc5780601f10612eb157610100808354040283529160200191612edc565b820191906000526020600020905b815481529060010190602001808311612ebf57829003601f168201915b50505050508152602001600782018054600181600116156101000203166002900480601f016020809104026020016040519081016040528092919081815260200182805460018160011615610100020316600290048015612f7e5780601f10612f5357610100808354040283529160200191612f7e565b820191906000526020600020905b815481529060010190602001808311612f6157829003601f168201915b505050505081525050935083604001519250600091505b825182101561300b578282815181101515612fac57fe5b906020019060200201519050806006811115612fc457fe5b866006811115612fd057fe5b1415612ffe57848989806001019a50815181101515612feb57fe5b906020019060200201818152505061300b565b8180600101925050612f95565b8480600101955050612bd7565b8680600101975050612baf565b889b505050505050505050505050919050565b600080600060016000815480929190600101919050559250600860008481526020019081526020016000209150828260000181905550878260010160006101000a81548173ffffffffffffffffffffffffffffffffffffffff021916908373ffffffffffffffffffffffffffffffffffffffff160217905550868260050190805190602001906130c99291906147f2565b50848260060190805190602001906130e29291906147f2565b50838260070190805190602001906130fb9291906147f2565b5085826002019080519060200190613114929190614a97565b5060028260040160006101000a81548160ff0219169083600481111561313657fe5b02179055506009805480600101828161314f9190614b46565b916000526020600020900160008590919091505550600460008973ffffffffffffffffffffffffffffffffffffffff1673ffffffffffffffffffffffffffffffffffffffff16815260200190815260200160002090508060060180548060010182816131bb9190614b46565b9160005260206000209001600085909190915055505050505050505050565b6131e26148b2565b6000806131ed614973565b6131f56148b2565b600080600080613203614a12565b61320b614973565b600080600260003373ffffffffffffffffffffffffffffffffffffffff1673ffffffffffffffffffffffffffffffffffffffff168152602001908152602001600020600701549b5060018054039a50600660008d81526020019081526020016000206004018054806020026020016040519081016040528092919081815260200182805480156132e857602002820191906000526020600020906000905b82829054906101000a900460ff1660068111156132c257fe5b815260200190600101906020826000010492830192600103820291508084116132a95790505b505050505099508a8a51026040518059106133005750595b9080825280602002602001820160405250985060009750600096505b895187101561379257898781518110151561333357fe5b906020019060200201519550600194505b8a8511151561378557600860008681526020019081526020016000206101006040519081016040529081600082015481526020016001820160009054906101000a900473ffffffffffffffffffffffffffffffffffffffff1673ffffffffffffffffffffffffffffffffffffffff1673ffffffffffffffffffffffffffffffffffffffff1681526020016002820180548060200260200160405190810160405280929190818152602001828054801561344a57602002820191906000526020600020906000905b82829054906101000a900460ff16600681111561342457fe5b8152602001906001019060208260000104928301926001038202915080841161340b5790505b50505050508152602001600382018054806020026020016040519081016040528092919081815260200182805480156134d857602002820191906000526020600020905b8160009054906101000a900473ffffffffffffffffffffffffffffffffffffffff1673ffffffffffffffffffffffffffffffffffffffff168152602001906001019080831161348e575b505050505081526020016004820160009054906101000a900460ff1660048111156134ff57fe5b600481111561350a57fe5b8152602001600582018054600181600116156101000203166002900480601f0160208091040260200160405190810160405280929190818152602001828054600181600116156101000203166002900480156135a75780601f1061357c576101008083540402835291602001916135a7565b820191906000526020600020905b81548152906001019060200180831161358a57829003601f168201915b50505050508152602001600682018054600181600116156101000203166002900480601f0160208091040260200160405190810160405280929190818152602001828054600181600116156101000203166002900480156136495780601f1061361e57610100808354040283529160200191613649565b820191906000526020600020905b81548152906001019060200180831161362c57829003601f168201915b50505050508152602001600782018054600181600116156101000203166002900480601f0160208091040260200160405190810160405280929190818152602001828054600181600116156101000203166002900480156136eb5780601f106136c0576101008083540402835291602001916136eb565b820191906000526020600020905b8154815290600101906020018083116136ce57829003601f168201915b505050505081525050935083604001519250600091505b825182101561377857828281518110151561371957fe5b90602001906020020151905080600681111561373157fe5b86600681111561373d57fe5b141561376b57848989806001019a5081518110151561375857fe5b9060200190602002018181525050613778565b8180600101925050613702565b8480600101955050613344565b868060010197505061331c565b889c5050505050505050505050505090565b6000806000806000815480929190600101919050559250600660008481526020019081526020016000209150828260000181905550878260010160006101000a81548173ffffffffffffffffffffffffffffffffffffffff021916908373ffffffffffffffffffffffffffffffffffffffff160217905550868260020190805190602001906138349291906147f2565b508582600401908051906020019061384d929190614a97565b50848260030190805190602001906138669291906147f2565b5060008260050160006101000a81548160ff0219169083600481111561388857fe5b0217905550600780548060010182816138a19190614b46565b916000526020600020900160008590919091505550600260008973ffffffffffffffffffffffffffffffffffffffff1673ffffffffffffffffffffffffffffffffffffffff168152602001908152602001600020905080600601805480600101828161390d9190614b46565b9160005260206000209001600085909190915055508315613932578281600701819055505b5050505050505050565b600061394661489e565b61394e614973565b61395661489e565b61395e61489e565b61396661495f565b6000613970614a12565b600860008a81526020019081526020016000206101006040519081016040529081600082015481526020016001820160009054906101000a900473ffffffffffffffffffffffffffffffffffffffff1673ffffffffffffffffffffffffffffffffffffffff1673ffffffffffffffffffffffffffffffffffffffff16815260200160028201805480602002602001604051908101604052809291908181526020018280548015613a6d57602002820191906000526020600020906000905b82829054906101000a900460ff166006811115613a4757fe5b81526020019060010190602082600001049283019260010382029150808411613a2e5790505b5050505050815260200160038201805480602002602001604051908101604052809291908181526020018280548015613afb57602002820191906000526020600020905b8160009054906101000a900473ffffffffffffffffffffffffffffffffffffffff1673ffffffffffffffffffffffffffffffffffffffff1681526020019060010190808311613ab1575b505050505081526020016004820160009054906101000a900460ff166004811115613b2257fe5b6004811115613b2d57fe5b8152602001600582018054600181600116156101000203166002900480601f016020809104026020016040519081016040528092919081815260200182805460018160011615610100020316600290048015613bca5780601f10613b9f57610100808354040283529160200191613bca565b820191906000526020600020905b815481529060010190602001808311613bad57829003601f168201915b50505050508152602001600682018054600181600116156101000203166002900480601f016020809104026020016040519081016040528092919081815260200182805460018160011615610100020316600290048015613c6c5780601f10613c4157610100808354040283529160200191613c6c565b820191906000526020600020905b815481529060010190602001808311613c4f57829003601f168201915b50505050508152602001600782018054600181600116156101000203166002900480601f016020809104026020016040519081016040528092919081815260200182805460018160011615610100020316600290048015613d0e5780601f10613ce357610100808354040283529160200191613d0e565b820191906000526020600020905b815481529060010190602001808311613cf157829003601f168201915b505050505081525050905080602001518160a0015182604001518360c001518460e0015185606001518660800151859550849450839350829250819150975097509750975097509750975050919395979092949650565b6000339050613d7881878787878761192e565b505050505050565b613d886148b2565b6000613d92614973565b613d9a6148b2565b600080600080613da8614973565b6000806001600054039950600860008d8152602001908152602001600020600201805480602002602001604051908101604052809291908181526020018280548015613e4157602002820191906000526020600020906000905b82829054906101000a900460ff166006811115613e1b57fe5b81526020019060010190602082600001049283019260010382029150808411613e025790505b5050505050985088518a02604051805910613e595750595b9080825280602002602001820160405250975060009650600095505b8851861015613fd0578886815181101515613e8c57fe5b906020019060200201519450600193505b8984111515613fc35760066000858152602001908152602001600020600401805480602002602001604051908101604052809291908181526020018280548015613f3457602002820191906000526020600020906000905b82829054906101000a900460ff166006811115613f0e57fe5b81526020019060010190602082600001049283019260010382029150808411613ef55790505b50505050509250600091505b8251821015613fb6578282815181101515613f5757fe5b906020019060200201519050846006811115613f6f57fe5b816006811115613f7b57fe5b1415613fa957838888806001019950815181101515613f9657fe5b9060200190602002018181525050613fb6565b8180600101925050613f40565b8380600101945050613e9d565b8580600101965050613e75565b879a5050505050505050505050919050565b613fea6148b2565b6000613ff46148b2565b600080613fff614a12565b614007614973565b600080600180540397508760405180591061401f5750595b9080825280602002602001820160405250965060009550600194505b878511151561447c57600860008681526020019081526020016000206101006040519081016040529081600082015481526020016001820160009054906101000a900473ffffffffffffffffffffffffffffffffffffffff1673ffffffffffffffffffffffffffffffffffffffff1673ffffffffffffffffffffffffffffffffffffffff1681526020016002820180548060200260200160405190810160405280929190818152602001828054801561414157602002820191906000526020600020906000905b82829054906101000a900460ff16600681111561411b57fe5b815260200190600101906020826000010492830192600103820291508084116141025790505b50505050508152602001600382018054806020026020016040519081016040528092919081815260200182805480156141cf57602002820191906000526020600020905b8160009054906101000a900473ffffffffffffffffffffffffffffffffffffffff1673ffffffffffffffffffffffffffffffffffffffff1681526020019060010190808311614185575b505050505081526020016004820160009054906101000a900460ff1660048111156141f657fe5b600481111561420157fe5b8152602001600582018054600181600116156101000203166002900480601f01602080910402602001604051908101604052809291908181526020018280546001816001161561010002031660029004801561429e5780601f106142735761010080835404028352916020019161429e565b820191906000526020600020905b81548152906001019060200180831161428157829003601f168201915b50505050508152602001600682018054600181600116156101000203166002900480601f0160208091040260200160405190810160405280929190818152602001828054600181600116156101000203166002900480156143405780601f1061431557610100808354040283529160200191614340565b820191906000526020600020905b81548152906001019060200180831161432357829003601f168201915b50505050508152602001600782018054600181600116156101000203166002900480601f0160208091040260200160405190810160405280929190818152602001828054600181600116156101000203166002900480156143e25780601f106143b7576101008083540402835291602001916143e2565b820191906000526020600020905b8154815290600101906020018083116143c557829003601f168201915b505050505081525050935083604001519250600091505b825182101561446f57828281518110151561441057fe5b90602001906020020151905080600681111561442857fe5b8a600681111561443457fe5b14156144625784878780600101985081518110151561444f57fe5b906020019060200201818152505061446f565b81806001019250506143f9565b848060010195505061403b565b8698505050505050505050919050565b600061449661489e565b61449e614973565b6144a661489e565b60006144b0614b72565b6006600088815260200190815260200160002060c06040519081016040529081600082015481526020016001820160009054906101000a900473ffffffffffffffffffffffffffffffffffffffff1673ffffffffffffffffffffffffffffffffffffffff1673ffffffffffffffffffffffffffffffffffffffff168152602001600282018054600181600116156101000203166002900480601f0160208091040260200160405190810160405280929190818152602001828054600181600116156101000203166002900480156145c85780601f1061459d576101008083540402835291602001916145c8565b820191906000526020600020905b8154815290600101906020018083116145ab57829003601f168201915b50505050508152602001600382018054600181600116156101000203166002900480601f01602080910402602001604051908101604052809291908181526020018280546001816001161561010002031660029004801561466a5780601f1061463f5761010080835404028352916020019161466a565b820191906000526020600020905b81548152906001019060200180831161464d57829003601f168201915b50505050508152602001600482018054806020026020016040519081016040528092919081815260200182805480156146f057602002820191906000526020600020906000905b82829054906101000a900460ff1660068111156146ca57fe5b815260200190600101906020826000010492830192600103820291508084116146b15790505b505050505081526020016005820160009054906101000a900460ff16600481111561471757fe5b600481111561472257fe5b81525050905080602001518160400151826080015183606001518460a00151839350829250819150955095509550955095505091939590929450565b61476661495f565b60038054806020026020016040519081016040528092919081815260200182805480156147e857602002820191906000526020600020905b8160009054906101000a900473ffffffffffffffffffffffffffffffffffffffff1673ffffffffffffffffffffffffffffffffffffffff168152602001906001019080831161479e575b5050505050905090565b828054600181600116156101000203166002900490600052602060002090601f016020900481019282601f1061483357805160ff1916838001178555614861565b82800160010185558215614861579182015b82811115614860578251825591602001919060010190614845565b5b50905061486e9190614bdc565b5090565b815481835581811511614899578183600052602060002091820191016148989190614bdc565b5b505050565b602060405190810160405280600081525090565b602060405190810160405280600081525090565b61014060405190810160405280600073ffffffffffffffffffffffffffffffffffffffff1681526020016148f8614c01565b8152602001614905614c01565b8152602001614912614c01565b815260200161491f614c01565b815260200161492c614c01565b8152602001614939614c15565b815260200160008152602001600081526020016000600481111561495957fe5b81525090565b602060405190810160405280600081525090565b602060405190810160405280600081525090565b61010060405190810160405280600073ffffffffffffffffffffffffffffffffffffffff1681526020016149b9614c01565b81526020016149c6614c01565b81526020016149d3614c01565b81526020016149e0614c01565b81526020016149ed614c01565b81526020016149fa614c15565b815260200160006004811115614a0c57fe5b81525090565b6101006040519081016040528060008152602001600073ffffffffffffffffffffffffffffffffffffffff168152602001614a4b614c29565b8152602001614a58614c3d565b815260200160006004811115614a6a57fe5b8152602001614a77614c01565b8152602001614a84614c01565b8152602001614a91614c01565b81525090565b82805482825590600052602060002090601f01602090048101928215614b355791602002820160005b83821115614b0657835183826101000a81548160ff02191690836006811115614ae557fe5b02179055509260200192600101602081600001049283019260010302614ac0565b8015614b335782816101000a81549060ff0219169055600101602081600001049283019260010302614b06565b505b509050614b429190614c51565b5090565b815481835581811511614b6d57818360005260206000209182019101614b6c9190614bdc565b5b505050565b60c06040519081016040528060008152602001600073ffffffffffffffffffffffffffffffffffffffff168152602001614baa614c01565b8152602001614bb7614c01565b8152602001614bc4614c29565b815260200160006004811115614bd657fe5b81525090565b614bfe91905b80821115614bfa576000816000905550600101614be2565b5090565b90565b602060405190810160405280600081525090565b602060405190810160405280600081525090565b602060405190810160405280600081525090565b602060405190810160405280600081525090565b614c7e91905b80821115614c7a57600081816101000a81549060ff021916905550600101614c57565b5090565b905600a165627a7a72305820f04cd837e0c206fc05a37ade872430826ddf3351fa7bf4a75d3567655cdf1a850029",
  "source": "pragma solidity  ^0.4.18;\n\ncontract Market {\n\n    enum Status {ACTIVE, INACTIVE, VACANT, OFFERED, CANCELLED}\n    enum Skill {JAVA, JS, MYSQL, MONGO, SCALA, KOTLIN, OTHER}\n\n    uint profileId = 1;\n    uint jobId = 1;\n\n    mapping (address => Employee) employeeMap;\n    address[] employeeCodes;\n\n    mapping(address => Employer) employerMap;\n    address[] employerCodes;\n\n    mapping(uint => Profile) profileMap;\n    uint[] allProfileIds;\n\n    mapping(uint => Job) jobMap;\n    uint[] allJobIds;\n\n    struct Employee {\n        address code;\n        string name;\n        string email;\n        string phoneNo;\n        string statement;\n        string rate;\n        uint[] profileIds;\n        uint defaultProfileId;\n        uint id;\n        Status status;\n    }\n\n    struct Profile {\n        uint id;\n        address employeeCode;\n        string name;\n        string cvHash;\n        Skill[] skills;\n        Status status;\n    }\n\n    struct Employer {\n        address code;\n        string name;\n        string email;\n        string company;\n        string add;\n        string country;\n        uint[] jobIds;\n        Status status;\n    }\n\n\n    struct Job {\n        uint id;\n        address employerCode;\n        Skill[] requiredSkills;\n        address[] appliedEmployeeCodes;\n        Status status;\n        string JobTitle;\n        string hourlyRate;\n        string Description;\n    }\n\n\n    function setEmployee(string _name, string _email, string _phoneNo, string _statement, string _rate) public {\n        address _address = msg.sender;\n        setEmployeeWithAddress(_address, _name, _email, _phoneNo, _statement, _rate);\n    }\n    function setEmployeeWithAddress(address _address, string _name, string _email, string _phoneNo, string _statement, string _rate) public {\n        Employee storage employee = employeeMap[_address];\n        employee.code = _address;\n        employee.name = _name;\n        employee.email = _email;\n        employee.phoneNo = _phoneNo;\n        employee.statement = _statement;\n        employee.rate = _rate;\n        employee.status = Status.ACTIVE;\n        employeeCodes.push(_address);\n    }\n    function getEmployee(address _address) view public returns(string,string,string,string,string, uint[], uint, Status) {\n        Employee memory employee = employeeMap[_address];\n        return(employee.name,employee.email,employee.phoneNo,employee.statement,employee.rate, employee.profileIds, employee.defaultProfileId, employee.status);\n    }\n    function getEmployeeCodes() view public returns(address[] codes) {\n        return employeeCodes;\n    }\n\n\n    function setEmployer(string _name, string _email, string _company, string _add, string _country) public {\n        address _address = msg.sender;\n        setEmployerWithAddress(_address, _name, _email, _company, _add, _country);\n    }\n    function setEmployerWithAddress(address _address, string _name, string _email, string _company, string _add, string _country) public {\n        Employer storage employer = employerMap[_address];\n        employer.code = _address;\n        employer.email = _email;\n        employer.company = _company;\n        employer.add = _add;\n        employer.country = _country;\n        employer.status = Status.ACTIVE;\n        employerCodes.push(_address);\n    }\n    function getEmployer(address _address) view public returns(string name,string email, string company, string add, string country, uint[] jobIds, Status status) {\n        Employer memory employer = employerMap[_address];\n        return (employer.name,employer.email,employer.company,employer.add,employer.country, employer.jobIds, employer.status);\n    }\n    function getEmployerCodes() view public returns(address[]) {\n        return employerCodes;\n    }\n\n\n    function setProfile(string _name, Skill[] _skills, string _cvHash, bool _defaultProfile) public {\n            address _employeeCode = msg.sender;\n            setProfileWithAddress(_employeeCode, _name, _skills, _cvHash, _defaultProfile);\n    }\n    function setProfileWithAddress(address _employeeCode, string _name, Skill[] _skills, string _cvHash, bool _defaultProfile) public {\n        //throw if employee not found\n        uint _id = profileId++;\n        Profile storage profile = profileMap[_id];\n        profile.id = _id;\n        profile.employeeCode = _employeeCode;\n        profile.name = _name;\n        profile.skills = _skills;\n        profile.cvHash = _cvHash;\n        profile.status = Status.ACTIVE;\n        allProfileIds.push(_id);\n        Employee storage employee = employeeMap[_employeeCode];\n        employee.profileIds.push(_id);\n        if(_defaultProfile) {\n            employee.defaultProfileId = _id;\n        }\n    }\n    function getProfile(uint _id) view public returns(address, string, Skill[], string, Status) {\n        Profile memory profile = profileMap[_id];\n        return(profile.employeeCode, profile.name, profile.skills, profile.cvHash, profile.status);\n    }\n    function getAllProfileIds() view public returns(uint[] ids) {\n        return allProfileIds;\n    }\n\n    function setJob(string _JobTitle, Skill[] _requiredSkills, string _hourlyRate, string _Description) public {\n        address _employerCode = msg.sender;\n        setJobWithAddress(_employerCode, _JobTitle, _requiredSkills,_hourlyRate,_Description);\n    }\n    function setJobWithAddress(address _employerCode, string _JobTitle, Skill[] _requiredSkills, string _hourlyRate, string _Description) public {\n        uint _id = jobId++;\n        Job storage job = jobMap[_id];\n        job.id = _id;\n        job.employerCode = _employerCode;\n        job.JobTitle = _JobTitle;\n        job.hourlyRate= _hourlyRate;\n        job.Description=_Description;\n        job.requiredSkills = _requiredSkills;\n        job.status = Status.VACANT;\n        //appliedEmployeeCodes\n        allJobIds.push(_id);\n        Employer storage employer = employerMap[_employerCode];\n        employer.jobIds.push(_id);\n    }\n    function updateJobAppliedEmployees(uint _jobId) public {\n        Job storage job = jobMap[_jobId];\n        job.appliedEmployeeCodes.push(msg.sender);\n    }\n    function getJob(uint _id) view public returns(address, string, Skill[],string,string, address[], Status) {\n        Job memory job = jobMap[_id];\n        return(job.employerCode, job.JobTitle, job.requiredSkills,job.hourlyRate,job.Description, job.appliedEmployeeCodes, job.status);\n    }\n    function getAllJobIds() view public returns(uint[] postedJobIds) {\n        return allJobIds;\n    }\n\n    //has duplicates\n    function findEmployeeProfilesByJob(uint _jobId) view public returns(uint[] matchingProfiles) {\n        uint noOfProfiles = profileId -1;\n        Skill[] memory requiredSkills = jobMap[_jobId].requiredSkills;\n        uint[] memory matchingProfileIds = new uint[](noOfProfiles * requiredSkills.length);\n        uint index = 0;\n\n        for(uint r=0; r<requiredSkills.length; r++) {\n            Skill required = requiredSkills[r];\n\n            for(uint p=1; p<=noOfProfiles; p++) {\n\n                Skill[] memory skills = profileMap[p].skills;\n                for(uint s=0; s<skills.length; s++) {\n                    Skill skill = skills[s];\n\n                    if(skill == required) {\n                        matchingProfileIds[index++] = p;\n                        break;\n                    }\n                }\n            }\n        }\n        return matchingProfileIds;\n    }\n\n    function findJobsByEmployee() view public returns(uint[]) {\n        uint defaultProfileId = employeeMap[msg.sender].defaultProfileId;\n        uint noOfJobs = jobId -1;\n        Skill[] memory skills = profileMap[defaultProfileId].skills;\n        uint[] memory matchingJobIds = new uint[](skills.length * noOfJobs);\n        uint index = 0;\n\n        for(uint s=0; s<skills.length; s++) {\n            Skill skill = skills[s];\n\n            for(uint j=1; j<=noOfJobs; j++) {\n                Job memory job = jobMap[j];\n\n                Skill[] memory requiredSkills = job.requiredSkills;\n                for(uint m=0; m<requiredSkills.length; m++) {\n                    Skill required = requiredSkills[m];\n\n                    if(skill == required) {\n                        matchingJobIds[index++] = j;\n                        break;\n                    }\n\n                }\n            }\n\n        }\n\n        return matchingJobIds;\n    }\n\n    //has duplicates\n    function findJobsByProfile(uint _profileId) view public returns(uint[] matchingIds) {\n        uint noOfJobs = jobId -1;\n        Skill[] memory skills = profileMap[_profileId].skills;\n        uint[] memory matchingJobIds = new uint[](skills.length * noOfJobs);\n        uint index = 0;\n\n        for(uint s=0; s<skills.length; s++) {\n            Skill skill = skills[s];\n\n            for(uint j=1; j<=noOfJobs; j++) {\n                Job memory job = jobMap[j];\n\n                Skill[] memory requiredSkills = job.requiredSkills;\n                for(uint m=0; m<requiredSkills.length; m++) {\n                    Skill required = requiredSkills[m];\n\n                    if(skill == required) {\n                        matchingJobIds[index++] = j;\n                        break;\n                    }\n\n                }\n            }\n\n        }\n\n        return matchingJobIds;\n    }\n\n    function findJobsBySkill(Skill _skill) view public returns(uint[] matchingIds) {\n        uint noOfJobs = jobId -1;\n\n        uint[] memory matchingJobIds = new uint[](noOfJobs);\n\n        uint index = 0;\n        for(uint j=1; j<=noOfJobs; j++) {\n            Job memory job = jobMap[j];\n\n            Skill[] memory requiredSkills = job.requiredSkills;\n            for(uint m=0; m<requiredSkills.length; m++) {\n                Skill required = requiredSkills[m];\n\n                if(_skill == required) {\n                    matchingJobIds[index++] = j;\n                    break;\n                }\n\n            }\n        }\n        return matchingJobIds;\n    }\n\n    // function findJobs(uint _profileId) view public returns(uint jobIds) {\n    //     uint[] memory matchingJobIds;\n    //     //uint matchingJobId;\n\n    //     Profile memory profile = profileMap[_profileId];\n    //     Skill[] memory skills = profile.skills;\n\n    //     uint jobCount = 0;\n    //     for(uint s=0; s<skills.length; s++) {\n    //         Skill skill = skills[s];\n\n    //         for(uint j=0; j<allJobIds.length; j++) {\n    //             uint thisJobId = allJobIds[j];\n    //             Job memory job = jobMap[thisJobId];\n\n    //             Skill[] memory requiredSkills = job.requiredSkills;\n    //             for(uint m=0; m<requiredSkills.length; m++) {\n    //                 Skill required = requiredSkills[m];\n\n    //                 if(skill == required) {\n\n    //                     matchingJobId = thisJobId;\n    //                     //matchingJobIds[jobCount++] = thisJobId;\n    //                     //break;\n    //                 }\n\n    //             }\n\n    //         }\n    //     }\n    //     //matchingJobIds[0] = matchingJobId;\n    //     //return matchingJobIds;\n    //     //uint storage x = 11;\n    //     return 11;\n    // }\n\n\n    //test\n    function testSetInitialData() public {\n\n        // testrpc\n        address addressE1 = 0x5f0e611dbcb5a4a1dc8ec4c7e1a02a8eb60182f3;\n        address addressE2 = 0xcea3b456c72dae97a256199c24dab28fb4863ed1;\n        address addressR1 = 0x38921ab62710300785722cfc538b3cabefb12845;\n        address addressR2 = 0xda93fc20797a06d7273335788a4914a89d3bedaf;\n\n        /* remix\n        address addressE1 = 0xca35b7d915458ef540ade6068dfe2f44e8fa733c;\n        address addressE2 = 0x4b0897b0513fdc7c541b6d9d7e929c4e5364d2db;\n        address addressR1 = 0x14723a09acff6d2a60dcdf7aa4aff308fddc160c;\n        address addressR2 = 0x583031d1113ad414f02576bd6afabfb302140225;\n        */\n\n        //setEmployeeWithAddress(addressE1, \"e1\");\n        //setEmployerWithAddress(addressR1, \"r1\");\n\n        Skill[] memory skills1 = new Skill[](2);\n        skills1[0] = Skill.JAVA;\n        skills1[1] = Skill.MYSQL;\n\n        Skill[] memory skills2 = new Skill[](2);\n        skills2[0] = Skill.JS;\n        skills2[1] = Skill.MONGO;\n\n        //setProfileWithAddress(addressE1, \"p1\", skills1);\n        //setProfileWithAddress(addressE1, \"p2\", skills2);\n\n       // setJobWithAddress(addressR1, \"j1\", skills1);\n       // setJobWithAddress(addressR1, \"j2\", skills1);\n    }\n\n    function uintToSkill(uint _uint) pure public returns(string skill) {\n        if(_uint == uint(Skill.JAVA))\n            return \"JAVA\";\n        if(_uint == uint(Skill.JS))\n            return \"JS\";\n        return \"MONGO\";\n    }\n\n}\n",
  "sourcePath": "/home/archchitha/Blockchain-JobMarket/contracts/Market.sol",
  "compiler": {
    "name": "solc",
    "version": "0.4.18+commit.9cf6e910.Emscripten.clang"
  },
  "schemaVersion": "1.0.1",
  "updatedAt": "2018-04-01T10:13:56.241Z"
}